{
  "contractName": "ProductFactory",
  "abi": [
    {
      "anonymous": false,
      "inputs": [
        {
          "indexed": true,
          "internalType": "address",
          "name": "productAddress",
          "type": "address"
        },
        {
          "indexed": true,
          "internalType": "address",
          "name": "seller",
          "type": "address"
        }
      ],
      "name": "ProductCreated",
      "type": "event"
    },
    {
      "inputs": [
        {
          "internalType": "uint256",
          "name": "",
          "type": "uint256"
        }
      ],
      "name": "products",
      "outputs": [
        {
          "internalType": "address",
          "name": "",
          "type": "address"
        }
      ],
      "stateMutability": "view",
      "type": "function",
      "constant": true
    },
    {
      "inputs": [
        {
          "internalType": "string",
          "name": "_name",
          "type": "string"
        },
        {
          "internalType": "uint256",
          "name": "_price",
          "type": "uint256"
        }
      ],
      "name": "createProduct",
      "outputs": [],
      "stateMutability": "nonpayable",
      "type": "function"
    },
    {
      "inputs": [],
      "name": "getProducts",
      "outputs": [
        {
          "internalType": "address[]",
          "name": "",
          "type": "address[]"
        }
      ],
      "stateMutability": "view",
      "type": "function",
      "constant": true
    }
  ],
  "bytecode": "0x608060405234801561001057600080fd5b50613a58806100206000396000f3fe60806040523480156200001157600080fd5b5060043610620000465760003560e01c80637acc0b20146200004b578063c29b2f201462000081578063e9300c6c14620000a3575b600080fd5b6200006960048036038101906200006391906200038d565b620000c3565b604051620000789190620004b1565b60405180910390f35b6200008b62000103565b6040516200009a9190620004ce565b60405180910390f35b620000c16004803603810190620000bb919062000333565b62000193565b005b60008181548110620000d457600080fd5b906000526020600020016000915054906101000a900473ffffffffffffffffffffffffffffffffffffffff1681565b606060008054806020026020016040519081016040528092919081815260200182805480156200018957602002820191906000526020600020905b8160009054906101000a900473ffffffffffffffffffffffffffffffffffffffff1673ffffffffffffffffffffffffffffffffffffffff16815260200190600101908083116200013e575b5050505050905090565b6000828233604051620001a6906200029c565b620001b493929190620004f2565b604051809103906000f080158015620001d1573d6000803e3d6000fd5b50905060008190506000819080600181540180825580915050600190039060005260206000200160009091909190916101000a81548173ffffffffffffffffffffffffffffffffffffffff021916908373ffffffffffffffffffffffffffffffffffffffff1602179055503373ffffffffffffffffffffffffffffffffffffffff168173ffffffffffffffffffffffffffffffffffffffff167fa66df2ac9413442073c2e47b33e555f5891823df7841196bd1f197175a12f8ae60405160405180910390a350505050565b61335380620006d083390190565b6000620002c1620002bb846200056a565b62000536565b905082815260208101848484011115620002da57600080fd5b620002e784828562000630565b509392505050565b600082601f8301126200030157600080fd5b813562000313848260208601620002aa565b91505092915050565b6000813590506200032d81620006b5565b92915050565b600080604083850312156200034757600080fd5b600083013567ffffffffffffffff8111156200036257600080fd5b6200037085828601620002ef565b925050602062000383858286016200031c565b9150509250929050565b600060208284031215620003a057600080fd5b6000620003b0848285016200031c565b91505092915050565b6000620003c78383620003d3565b60208301905092915050565b620003de81620005f2565b82525050565b620003ef81620005f2565b82525050565b60006200040282620005ad565b6200040e8185620005d0565b93506200041b836200059d565b8060005b8381101562000452578151620004368882620003b9565b97506200044383620005c3565b9250506001810190506200041f565b5085935050505092915050565b60006200046c82620005b8565b620004788185620005e1565b93506200048a8185602086016200063f565b6200049581620006a4565b840191505092915050565b620004ab8162000626565b82525050565b6000602082019050620004c86000830184620003e4565b92915050565b60006020820190508181036000830152620004ea8184620003f5565b905092915050565b600060608201905081810360008301526200050e81866200045f565b90506200051f6020830185620004a0565b6200052e6040830184620003e4565b949350505050565b6000604051905081810181811067ffffffffffffffff8211171562000560576200055f62000675565b5b8060405250919050565b600067ffffffffffffffff82111562000588576200058762000675565b5b601f19601f8301169050602081019050919050565b6000819050602082019050919050565b600081519050919050565b600081519050919050565b6000602082019050919050565b600082825260208201905092915050565b600082825260208201905092915050565b6000620005ff8262000606565b9050919050565b600073ffffffffffffffffffffffffffffffffffffffff82169050919050565b6000819050919050565b82818337600083830152505050565b60005b838110156200065f57808201518184015260208101905062000642565b838111156200066f576000848401525b50505050565b7f4e487b7100000000000000000000000000000000000000000000000000000000600052604160045260246000fd5b6000601f19601f8301169050919050565b620006c08162000626565b8114620006cc57600080fd5b5056fe60806040523480156200001157600080fd5b50604051620033533803806200335383398181016040528101906200003791906200024e565b82600190805190602001906200004f929190620000fe565b508160028190555080600360006101000a81548173ffffffffffffffffffffffffffffffffffffffff021916908373ffffffffffffffffffffffffffffffffffffffff1602179055506000600360146101000a81548160ff0219169083151502179055506000600460006101000a81548173ffffffffffffffffffffffffffffffffffffffff021916908373ffffffffffffffffffffffffffffffffffffffff16021790555050505062000460565b8280546200010c9062000398565b90600052602060002090601f0160209004810192826200013057600085556200017c565b82601f106200014b57805160ff19168380011785556200017c565b828001600101855582156200017c579182015b828111156200017b5782518255916020019190600101906200015e565b5b5090506200018b91906200018f565b5090565b5b80821115620001aa57600081600090555060010162000190565b5090565b6000620001c5620001bf84620002f1565b620002bd565b905082815260208101848484011115620001de57600080fd5b620001eb84828562000362565b509392505050565b60008151905062000204816200042c565b92915050565b600082601f8301126200021c57600080fd5b81516200022e848260208601620001ae565b91505092915050565b600081519050620002488162000446565b92915050565b6000806000606084860312156200026457600080fd5b600084015167ffffffffffffffff8111156200027f57600080fd5b6200028d868287016200020a565b9350506020620002a08682870162000237565b9250506040620002b386828701620001f3565b9150509250925092565b6000604051905081810181811067ffffffffffffffff82111715620002e757620002e6620003fd565b5b8060405250919050565b600067ffffffffffffffff8211156200030f576200030e620003fd565b5b601f19601f8301169050602081019050919050565b6000620003318262000338565b9050919050565b600073ffffffffffffffffffffffffffffffffffffffff82169050919050565b6000819050919050565b60005b838110156200038257808201518184015260208101905062000365565b8381111562000392576000848401525b50505050565b60006002820490506001821680620003b157607f821691505b60208210811415620003c857620003c7620003ce565b5b50919050565b7f4e487b7100000000000000000000000000000000000000000000000000000000600052602260045260246000fd5b7f4e487b7100000000000000000000000000000000000000000000000000000000600052604160045260246000fd5b620004378162000324565b81146200044357600080fd5b50565b620004518162000358565b81146200045d57600080fd5b50565b612ee380620004706000396000f3fe6080604052600436106101665760003560e01c80638da5cb5b116100d1578063bfaf81291161008a578063e42b021211610064578063e42b021214610472578063e53bbdbe1461049d578063f3cc0f1f146104c6578063fa949a01146104f157610166565b8063bfaf8129146103e1578063d8f133f91461040c578063e25bd1581461043557610166565b80638da5cb5b146103045780639c8dadae1461032f578063a035b1fe1461034b578063a450646014610376578063af640d0f1461039f578063b5df610f146103ca57610166565b80633cf131e7116101235780633cf131e714610229578063533a559b146102405780637150d8ae1461025757806377db5719146102825780637df140e0146102ae578063879f9c96146102d957610166565b806306fdde031461016b578063220e5ab31461019657806325901b8a146101a057806325d3d0e3146101aa57806329dac7c6146101d55780633ace041a14610200575b600080fd5b34801561017757600080fd5b5061018061052e565b60405161018d9190612842565b60405180910390f35b61019e6105bc565b005b6101a8610777565b005b3480156101b657600080fd5b506101bf610902565b6040516101cc9190612a24565b60405180910390f35b3480156101e157600080fd5b506101ea610908565b6040516101f79190612a24565b60405180910390f35b34801561020c57600080fd5b5061022760048036038101906102229190612052565b61090e565b005b34801561023557600080fd5b5061023e610ab8565b005b34801561024c57600080fd5b50610255610ba0565b005b34801561026357600080fd5b5061026c610e59565b60405161027991906127ac565b60405180910390f35b34801561028e57600080fd5b50610297610e7f565b6040516102a59291906127f0565b60405180910390f35b3480156102ba57600080fd5b506102c36110a4565b6040516102d09190612a24565b60405180910390f35b3480156102e557600080fd5b506102ee6110aa565b6040516102fb9190612827565b60405180910390f35b34801561031057600080fd5b506103196110bd565b60405161032691906127ac565b60405180910390f35b61034960048036038101906103449190612029565b6110e3565b005b34801561035757600080fd5b506103606112c8565b60405161036d9190612a24565b60405180910390f35b34801561038257600080fd5b5061039d60048036038101906103989190612052565b6112ce565b005b3480156103ab57600080fd5b506103b4611687565b6040516103c19190612a24565b60405180910390f35b3480156103d657600080fd5b506103df61168d565b005b3480156103ed57600080fd5b506103f6611a38565b6040516104039190612842565b60405180910390f35b34801561041857600080fd5b50610433600480360381019061042e9190612093565b611ac6565b005b34801561044157600080fd5b5061045c60048036038101906104579190612000565b611c5d565b6040516104699190612a24565b60405180910390f35b34801561047e57600080fd5b50610487611c7b565b60405161049491906127ac565b60405180910390f35b3480156104a957600080fd5b506104c460048036038101906104bf9190612052565b611ca1565b005b3480156104d257600080fd5b506104db611d82565b6040516104e89190612a24565b60405180910390f35b3480156104fd57600080fd5b5061051860048036038101906105139190612093565b611d88565b6040516105259190612791565b60405180910390f35b6001805461053b90612d20565b80601f016020809104026020016040519081016040528092919081815260200182805461056790612d20565b80156105b45780601f10610589576101008083540402835291602001916105b4565b820191906000526020600020905b81548152906001019060200180831161059757829003601f168201915b505050505081565b600660009054906101000a900473ffffffffffffffffffffffffffffffffffffffff1673ffffffffffffffffffffffffffffffffffffffff163373ffffffffffffffffffffffffffffffffffffffff161461064c576040517f08c379a000000000000000000000000000000000000000000000000000000000815260040161064390612984565b60405180910390fd5b600073ffffffffffffffffffffffffffffffffffffffff16600660009054906101000a900473ffffffffffffffffffffffffffffffffffffffff1673ffffffffffffffffffffffffffffffffffffffff1614156106de576040517f08c379a00000000000000000000000000000000000000000000000000000000081526004016106d5906128c4565b60405180910390fd5b600254341015610723576040517f08c379a000000000000000000000000000000000000000000000000000000000815260040161071a906128e4565b60405180910390fd5b34600860008282546107359190612ba3565b925050819055507f201b13bd8ab1bff9ab4fe027b08267af060c2ac596f9c2408338ae9030f9ec99333460405161076d9291906127c7565b60405180910390a1565b600360149054906101000a900460ff16156107c7576040517f08c379a00000000000000000000000000000000000000000000000000000000081526004016107be90612904565b60405180910390fd5b60025434101561080c576040517f08c379a0000000000000000000000000000000000000000000000000000000008152600401610803906129e4565b60405180910390fd5b600360009054906101000a900473ffffffffffffffffffffffffffffffffffffffff1673ffffffffffffffffffffffffffffffffffffffff163373ffffffffffffffffffffffffffffffffffffffff16141561089d576040517f08c379a000000000000000000000000000000000000000000000000000000000815260040161089490612964565b60405180910390fd5b33600460006101000a81548173ffffffffffffffffffffffffffffffffffffffff021916908373ffffffffffffffffffffffffffffffffffffffff1602179055506001600360146101000a81548160ff02191690831515021790555042600981905550565b60095481565b60055481565b600360009054906101000a900473ffffffffffffffffffffffffffffffffffffffff1673ffffffffffffffffffffffffffffffffffffffff163373ffffffffffffffffffffffffffffffffffffffff161461099e576040517f08c379a000000000000000000000000000000000000000000000000000000000815260040161099590612924565b60405180910390fd5b600360149054906101000a900460ff166109ed576040517f08c379a00000000000000000000000000000000000000000000000000000000081526004016109e4906129c4565b60405180910390fd5b4260098190555080600a9080519060200190610a0a929190611e76565b507f5d58f2843b450c496fce0c979f11c9fc0e4aecf62845c3d7055739b6c07a0e4681604051610a3a9190612842565b60405180910390a1600254600460009054906101000a900473ffffffffffffffffffffffffffffffffffffffff1673ffffffffffffffffffffffffffffffffffffffff167f4d555b09790773793494942fb558f3a083c7f96b2515533f7bf3283952c93ec483604051610aad9190612842565b60405180910390a350565b600360149054906101000a900460ff16610b07576040517f08c379a0000000000000000000000000000000000000000000000000000000008152600401610afe906129c4565b60405180910390fd5b6202a300600954610b189190612ba3565b421015610b5a576040517f08c379a0000000000000000000000000000000000000000000000000000000008152600401610b5190612a04565b60405180910390fd5b7ff05a5096d61e4686d4b77dc20985d768652606f536436749c7e215623853efe36000546001604051610b8e929190612a6f565b60405180910390a1610b9e611dc7565b565b600460009054906101000a900473ffffffffffffffffffffffffffffffffffffffff1673ffffffffffffffffffffffffffffffffffffffff163373ffffffffffffffffffffffffffffffffffffffff1614610c30576040517f08c379a0000000000000000000000000000000000000000000000000000000008152600401610c2790612884565b60405180910390fd5b600073ffffffffffffffffffffffffffffffffffffffff16600660009054906101000a900473ffffffffffffffffffffffffffffffffffffffff1673ffffffffffffffffffffffffffffffffffffffff161415610cc2576040517f08c379a0000000000000000000000000000000000000000000000000000000008152600401610cb9906128c4565b60405180910390fd5b600360149054906101000a900460ff16610d11576040517f08c379a0000000000000000000000000000000000000000000000000000000008152600401610d08906129c4565b60405180910390fd5b600360009054906101000a900473ffffffffffffffffffffffffffffffffffffffff1673ffffffffffffffffffffffffffffffffffffffff166108fc6002549081150290604051600060405180830381858888f19350505050158015610d7b573d6000803e3d6000fd5b50600660009054906101000a900473ffffffffffffffffffffffffffffffffffffffff1673ffffffffffffffffffffffffffffffffffffffff166108fc600754600254610dc89190612ba3565b9081150290604051600060405180830381858888f19350505050158015610df3573d6000803e3d6000fd5b50600460009054906101000a900473ffffffffffffffffffffffffffffffffffffffff16600360006101000a81548173ffffffffffffffffffffffffffffffffffffffff021916908373ffffffffffffffffffffffffffffffffffffffff160217905550565b600460009054906101000a900473ffffffffffffffffffffffffffffffffffffffff1681565b6060806000600c8054905067ffffffffffffffff811115610ec9577f4e487b7100000000000000000000000000000000000000000000000000000000600052604160045260246000fd5b604051908082528060200260200182016040528015610ef75781602001602082028036833780820191505090505b50905060005b600c8054905081101561100f576000600c8281548110610f46577f4e487b7100000000000000000000000000000000000000000000000000000000600052603260045260246000fd5b9060005260206000200160009054906101000a900473ffffffffffffffffffffffffffffffffffffffff169050600b60008273ffffffffffffffffffffffffffffffffffffffff1673ffffffffffffffffffffffffffffffffffffffff16815260200190815260200160002060000154838381518110610fef577f4e487b7100000000000000000000000000000000000000000000000000000000600052603260045260246000fd5b60200260200101818152505050808061100790612d52565b915050610efd565b50600c818180548060200260200160405190810160405280929190818152602001828054801561109457602002820191906000526020600020905b8160009054906101000a900473ffffffffffffffffffffffffffffffffffffffff1673ffffffffffffffffffffffffffffffffffffffff168152602001906001019080831161104a575b5050505050915092509250509091565b60085481565b600360149054906101000a900460ff1681565b600360009054906101000a900473ffffffffffffffffffffffffffffffffffffffff1681565b600360009054906101000a900473ffffffffffffffffffffffffffffffffffffffff1673ffffffffffffffffffffffffffffffffffffffff163373ffffffffffffffffffffffffffffffffffffffff1614611173576040517f08c379a000000000000000000000000000000000000000000000000000000000815260040161116a90612924565b60405180910390fd5b600b60008273ffffffffffffffffffffffffffffffffffffffff1673ffffffffffffffffffffffffffffffffffffffff1681526020019081526020016000206000015434146111f7576040517f08c379a00000000000000000000000000000000000000000000000000000000081526004016111ee90612864565b60405180910390fd5b6000600b60008373ffffffffffffffffffffffffffffffffffffffff1673ffffffffffffffffffffffffffffffffffffffff16815260200190815260200160002060000154141561127d576040517f08c379a000000000000000000000000000000000000000000000000000000000815260040161127490612944565b60405180910390fd5b3460078190555080600660006101000a81548173ffffffffffffffffffffffffffffffffffffffff021916908373ffffffffffffffffffffffffffffffffffffffff16021790555050565b60025481565b600460009054906101000a900473ffffffffffffffffffffffffffffffffffffffff1673ffffffffffffffffffffffffffffffffffffffff163373ffffffffffffffffffffffffffffffffffffffff161461135e576040517f08c379a000000000000000000000000000000000000000000000000000000000815260040161135590612884565b60405180910390fd5b600073ffffffffffffffffffffffffffffffffffffffff16600660009054906101000a900473ffffffffffffffffffffffffffffffffffffffff1673ffffffffffffffffffffffffffffffffffffffff1614156113f0576040517f08c379a00000000000000000000000000000000000000000000000000000000081526004016113e7906128c4565b60405180910390fd5b6202a3006009546114019190612ba3565b421115611443576040517f08c379a000000000000000000000000000000000000000000000000000000000815260040161143a906128a4565b60405180910390fd5b600360009054906101000a900473ffffffffffffffffffffffffffffffffffffffff1673ffffffffffffffffffffffffffffffffffffffff166108fc6002549081150290604051600060405180830381858888f193505050501580156114ad573d6000803e3d6000fd5b50600660009054906101000a900473ffffffffffffffffffffffffffffffffffffffff1673ffffffffffffffffffffffffffffffffffffffff166108fc6007546008546114fa9190612ba3565b9081150290604051600060405180830381858888f19350505050158015611525573d6000803e3d6000fd5b50600460009054906101000a900473ffffffffffffffffffffffffffffffffffffffff16600360006101000a81548173ffffffffffffffffffffffffffffffffffffffff021916908373ffffffffffffffffffffffffffffffffffffffff16021790555080600a908051906020019061159f929190611e76565b507f5d58f2843b450c496fce0c979f11c9fc0e4aecf62845c3d7055739b6c07a0e46816040516115cf9190612842565b60405180910390a1600660009054906101000a900473ffffffffffffffffffffffffffffffffffffffff1673ffffffffffffffffffffffffffffffffffffffff16600460009054906101000a900473ffffffffffffffffffffffffffffffffffffffff1673ffffffffffffffffffffffffffffffffffffffff167fb4b124f04e4dbcf0062546e32d1a81d44f269b09f46a5434070a6d2ff05942456002548460405161167c929190612a3f565b60405180910390a350565b60005481565b600360009054906101000a900473ffffffffffffffffffffffffffffffffffffffff1673ffffffffffffffffffffffffffffffffffffffff163373ffffffffffffffffffffffffffffffffffffffff161461171d576040517f08c379a000000000000000000000000000000000000000000000000000000000815260040161171490612924565b60405180910390fd5b600073ffffffffffffffffffffffffffffffffffffffff16600660009054906101000a900473ffffffffffffffffffffffffffffffffffffffff1673ffffffffffffffffffffffffffffffffffffffff1614156117af576040517f08c379a00000000000000000000000000000000000000000000000000000000081526004016117a6906128c4565b60405180910390fd5b600360149054906101000a900460ff166117fe576040517f08c379a00000000000000000000000000000000000000000000000000000000081526004016117f5906129c4565b60405180910390fd5b600660009054906101000a900473ffffffffffffffffffffffffffffffffffffffff1673ffffffffffffffffffffffffffffffffffffffff166108fc600254600754600a60025460026118519190612c2a565b61185b9190612bf9565b6118659190612ba3565b61186f9190612ba3565b9081150290604051600060405180830381858888f1935050505015801561189a573d6000803e3d6000fd5b50600360009054906101000a900473ffffffffffffffffffffffffffffffffffffffff1673ffffffffffffffffffffffffffffffffffffffff166108fc600a6002546118e69190612bf9565b9081150290604051600060405180830381858888f19350505050158015611911573d6000803e3d6000fd5b50600460009054906101000a900473ffffffffffffffffffffffffffffffffffffffff1673ffffffffffffffffffffffffffffffffffffffff166108fc600a600254600761195f9190612c2a565b6119699190612bf9565b9081150290604051600060405180830381858888f19350505050158015611994573d6000803e3d6000fd5b50600660009054906101000a900473ffffffffffffffffffffffffffffffffffffffff1673ffffffffffffffffffffffffffffffffffffffff163373ffffffffffffffffffffffffffffffffffffffff167f08d1502fd01a62867241b61ec35d4ecbed54914c6ab56d5fe1b861dea75622f8600a6002546007611a179190612c2a565b611a219190612bf9565b604051611a2e9190612a24565b60405180910390a3565b600a8054611a4590612d20565b80601f0160208091040260200160405190810160405280929190818152602001828054611a7190612d20565b8015611abe5780601f10611a9357610100808354040283529160200191611abe565b820191906000526020600020905b815481529060010190602001808311611aa157829003601f168201915b505050505081565b6000600b60003373ffffffffffffffffffffffffffffffffffffffff1673ffffffffffffffffffffffffffffffffffffffff1681526020019081526020016000206000015414611b4b576040517f08c379a0000000000000000000000000000000000000000000000000000000008152600401611b42906129a4565b60405180910390fd5b604051806020016040528082815250600b60003373ffffffffffffffffffffffffffffffffffffffff1673ffffffffffffffffffffffffffffffffffffffff16815260200190815260200160002060008201518160000155905050600c339080600181540180825580915050600190039060005260206000200160009091909190916101000a81548173ffffffffffffffffffffffffffffffffffffffff021916908373ffffffffffffffffffffffffffffffffffffffff16021790555060056000815480929190611c1c90612d52565b91905055507f82cd66133dda5e11a8bcba54ad8282733b8517996ec937641ea79418fb1415743382604051611c529291906127c7565b60405180910390a150565b600b6020528060005260406000206000915090508060000154905081565b600660009054906101000a900473ffffffffffffffffffffffffffffffffffffffff1681565b600360009054906101000a900473ffffffffffffffffffffffffffffffffffffffff1673ffffffffffffffffffffffffffffffffffffffff163373ffffffffffffffffffffffffffffffffffffffff1614611d31576040517f08c379a0000000000000000000000000000000000000000000000000000000008152600401611d2890612924565b60405180910390fd5b80600a9080519060200190611d47929190611e76565b507f5d58f2843b450c496fce0c979f11c9fc0e4aecf62845c3d7055739b6c07a0e4681604051611d779190612842565b60405180910390a150565b60075481565b600c8181548110611d9857600080fd5b906000526020600020016000915054906101000a900473ffffffffffffffffffffffffffffffffffffffff1681565b60016000611dd59190611efc565b600260009055600360006101000a81549073ffffffffffffffffffffffffffffffffffffffff0219169055600360146101000a81549060ff0219169055600460006101000a81549073ffffffffffffffffffffffffffffffffffffffff0219169055600660006101000a81549073ffffffffffffffffffffffffffffffffffffffff0219169055600760009055600860009055600960009055600560009055565b828054611e8290612d20565b90600052602060002090601f016020900481019282611ea45760008555611eeb565b82601f10611ebd57805160ff1916838001178555611eeb565b82800160010185558215611eeb579182015b82811115611eea578251825591602001919060010190611ecf565b5b509050611ef89190611f3c565b5090565b508054611f0890612d20565b6000825580601f10611f1a5750611f39565b601f016020900490600052602060002090810190611f389190611f3c565b5b50565b5b80821115611f55576000816000905550600101611f3d565b5090565b6000611f6c611f6784612ad0565b612a9f565b905082815260208101848484011115611f8457600080fd5b611f8f848285612cde565b509392505050565b600081359050611fa681612e68565b92915050565b600081359050611fbb81612e7f565b92915050565b600082601f830112611fd257600080fd5b8135611fe2848260208601611f59565b91505092915050565b600081359050611ffa81612e96565b92915050565b60006020828403121561201257600080fd5b600061202084828501611f97565b91505092915050565b60006020828403121561203b57600080fd5b600061204984828501611fac565b91505092915050565b60006020828403121561206457600080fd5b600082013567ffffffffffffffff81111561207e57600080fd5b61208a84828501611fc1565b91505092915050565b6000602082840312156120a557600080fd5b60006120b384828501611feb565b91505092915050565b60006120c883836120fb565b60208301905092915050565b60006120e08383612773565b60208301905092915050565b6120f581612c96565b82525050565b61210481612c84565b82525050565b61211381612c84565b82525050565b600061212482612b35565b61212e8185612b70565b935061213983612b00565b8060005b8381101561216a57815161215188826120bc565b975061215c83612b56565b92505060018101905061213d565b5085935050505092915050565b600061218282612b40565b61218c8185612b81565b935061219783612b10565b8060005b838110156121c85781516121af88826120d4565b97506121ba83612b63565b92505060018101905061219b565b5085935050505092915050565b6121de81612ca8565b82525050565b60006121ef82612b4b565b6121f98185612b92565b9350612209818560208601612ced565b61221281612e57565b840191505092915050565b6000815461222a81612d20565b6122348186612b92565b9450600182166000811461224f576001811461226157612294565b60ff1983168652602086019350612294565b61226a85612b20565b60005b8381101561228c5781548189015260018201915060208101905061226d565b808801955050505b50505092915050565b60006122aa602483612b92565b91507f53656c6c6572206e6565647320746f206465706f7369742064656c697665727960008301527f20666565000000000000000000000000000000000000000000000000000000006020830152604082019050919050565b6000612310602583612b92565b91507f4f6e6c79207468652062757965722063616e2063616c6c20746869732066756e60008301527f6374696f6e0000000000000000000000000000000000000000000000000000006020830152604082019050919050565b6000612376602483612b92565b91507f44656c697665727920636f6e6669726d6174696f6e20706572696f642065787060008301527f69726564000000000000000000000000000000000000000000000000000000006020830152604082019050919050565b60006123dc602883612b92565b91507f5472616e73706f72746572206e656564656420746f2063616c6c20746869732060008301527f66756e6374696f6e0000000000000000000000000000000000000000000000006020830152604082019050919050565b6000612442603983612b92565b91507f5472616e73706f72746572206e6565647320746f206465706f73697420616e2060008301527f616d6f756e7420657175616c20746f20746865207072696365000000000000006020830152604082019050919050565b60006124a8601983612b92565b91507f50726f6475637420616c726561647920707572636861736564000000000000006000830152602082019050919050565b60006124e8602683612b92565b91507f4f6e6c79207468652073656c6c65722063616e2063616c6c207468697320667560008301527f6e6374696f6e00000000000000000000000000000000000000000000000000006020830152604082019050919050565b600061254e602d83612b92565b91507f5472616e73706f727465722061646472657373206e6f7420666f756e6420696e60008301527f207472616e73706f7274657273000000000000000000000000000000000000006020830152604082019050919050565b60006125b4601683612b92565b91507f43616e6e6f7420627579206f776e2070726f64756374000000000000000000006000830152602082019050919050565b60006125f4602b83612b92565b91507f4f6e6c7920746865207472616e73706f727465722063616e2063616c6c20746860008301527f69732066756e6374696f6e0000000000000000000000000000000000000000006020830152604082019050919050565b600061265a601a83612b92565b91507f5472616e73706f7274657220616c7265616479206578697374730000000000006000830152602082019050919050565b600061269a601983612b92565b91507f50726f64756374206e6f742079657420707572636861736564000000000000006000830152602082019050919050565b60006126da601083612b92565b91507f4e6f7420656e6f756768204574686572000000000000000000000000000000006000830152602082019050919050565b600061271a602383612b92565b91507f50726f647563742064656c6574696f6e20706572696f64206e6f74207265616360008301527f68656400000000000000000000000000000000000000000000000000000000006020830152604082019050919050565b61277c81612cd4565b82525050565b61278b81612cd4565b82525050565b60006020820190506127a6600083018461210a565b92915050565b60006020820190506127c160008301846120ec565b92915050565b60006040820190506127dc600083018561210a565b6127e96020830184612782565b9392505050565b6000604082019050818103600083015261280a8185612119565b9050818103602083015261281e8184612177565b90509392505050565b600060208201905061283c60008301846121d5565b92915050565b6000602082019050818103600083015261285c81846121e4565b905092915050565b6000602082019050818103600083015261287d8161229d565b9050919050565b6000602082019050818103600083015261289d81612303565b9050919050565b600060208201905081810360008301526128bd81612369565b9050919050565b600060208201905081810360008301526128dd816123cf565b9050919050565b600060208201905081810360008301526128fd81612435565b9050919050565b6000602082019050818103600083015261291d8161249b565b9050919050565b6000602082019050818103600083015261293d816124db565b9050919050565b6000602082019050818103600083015261295d81612541565b9050919050565b6000602082019050818103600083015261297d816125a7565b9050919050565b6000602082019050818103600083015261299d816125e7565b9050919050565b600060208201905081810360008301526129bd8161264d565b9050919050565b600060208201905081810360008301526129dd8161268d565b9050919050565b600060208201905081810360008301526129fd816126cd565b9050919050565b60006020820190508181036000830152612a1d8161270d565b9050919050565b6000602082019050612a396000830184612782565b92915050565b6000604082019050612a546000830185612782565b8181036020830152612a6681846121e4565b90509392505050565b6000604082019050612a846000830185612782565b8181036020830152612a96818461221d565b90509392505050565b6000604051905081810181811067ffffffffffffffff82111715612ac657612ac5612e28565b5b8060405250919050565b600067ffffffffffffffff821115612aeb57612aea612e28565b5b601f19601f8301169050602081019050919050565b6000819050602082019050919050565b6000819050602082019050919050565b60008190508160005260206000209050919050565b600081519050919050565b600081519050919050565b600081519050919050565b6000602082019050919050565b6000602082019050919050565b600082825260208201905092915050565b600082825260208201905092915050565b600082825260208201905092915050565b6000612bae82612cd4565b9150612bb983612cd4565b9250827fffffffffffffffffffffffffffffffffffffffffffffffffffffffffffffffff03821115612bee57612bed612d9b565b5b828201905092915050565b6000612c0482612cd4565b9150612c0f83612cd4565b925082612c1f57612c1e612dca565b5b828204905092915050565b6000612c3582612cd4565b9150612c4083612cd4565b9250817fffffffffffffffffffffffffffffffffffffffffffffffffffffffffffffffff0483118215151615612c7957612c78612d9b565b5b828202905092915050565b6000612c8f82612cb4565b9050919050565b6000612ca182612cb4565b9050919050565b60008115159050919050565b600073ffffffffffffffffffffffffffffffffffffffff82169050919050565b6000819050919050565b82818337600083830152505050565b60005b83811015612d0b578082015181840152602081019050612cf0565b83811115612d1a576000848401525b50505050565b60006002820490506001821680612d3857607f821691505b60208210811415612d4c57612d4b612df9565b5b50919050565b6000612d5d82612cd4565b91507fffffffffffffffffffffffffffffffffffffffffffffffffffffffffffffffff821415612d9057612d8f612d9b565b5b600182019050919050565b7f4e487b7100000000000000000000000000000000000000000000000000000000600052601160045260246000fd5b7f4e487b7100000000000000000000000000000000000000000000000000000000600052601260045260246000fd5b7f4e487b7100000000000000000000000000000000000000000000000000000000600052602260045260246000fd5b7f4e487b7100000000000000000000000000000000000000000000000000000000600052604160045260246000fd5b6000601f19601f8301169050919050565b612e7181612c84565b8114612e7c57600080fd5b50565b612e8881612c96565b8114612e9357600080fd5b50565b612e9f81612cd4565b8114612eaa57600080fd5b5056fea2646970667358221220c15ee708d34f303dfc9979a2f13b92bf7cf84af0ad604ea026703bc71257186d64736f6c63430008000033a26469706673582212208e209e8845ff753cd066f663fcce9e3de6b3dd83f1754cc74ca36be1a48be68964736f6c63430008000033",
  "immutableReferences": {},
  "source": "// SPDX-License-Identifier: MIT\r\npragma solidity ^0.8.0;\r\n\r\nimport \"./ProductEscrow.sol\";\r\n\r\ncontract ProductFactory {\r\n    /// @notice Emitted when a new ProductEscrow is deployed\r\n    event ProductCreated(address indexed productAddress, address indexed seller);\r\n\r\n    address[] public products;\r\n\r\n    /// @notice Deploys a new ProductEscrow and emits ProductCreated\r\n    /// @param _name  The name of the product\r\n    /// @param _price The price (in wei) of the product\r\n    function createProduct(string memory _name, uint _price) public {\r\n        ProductEscrow newProduct = new ProductEscrow(_name, _price, msg.sender);\r\n        address escrowAddr = address(newProduct);\r\n\r\n        products.push(escrowAddr);\r\n        emit ProductCreated(escrowAddr, msg.sender);\r\n    }\r\n\r\n    /// @notice Returns all deployed escrow addresses\r\n    function getProducts() public view returns (address[] memory) {\r\n        return products;\r\n    }\r\n}\r\n",
  "sourcePath": "C:\\Users\\yamen\\EVMarketplace\\contracts\\ProductFactory.sol",
  "compiler": {
    "name": "solc",
    "version": "0.8.0+commit.c7dfd78e.Emscripten.clang"
  },
  "schemaVersion": "3.4.16",
  "updatedAt": "2025-06-18T01:27:40.759Z",
  "networkType": "ethereum",
  "devdoc": {
    "kind": "dev",
    "methods": {
      "createProduct(string,uint256)": {
        "params": {
          "_name": "The name of the product",
          "_price": "The price (in wei) of the product"
        }
      }
    },
    "version": 1
  },
  "userdoc": {
    "events": {
      "ProductCreated(address,address)": {
        "notice": "Emitted when a new ProductEscrow is deployed"
      }
    },
    "kind": "user",
    "methods": {
      "createProduct(string,uint256)": {
        "notice": "Deploys a new ProductEscrow and emits ProductCreated"
      },
      "getProducts()": {
        "notice": "Returns all deployed escrow addresses"
      }
    },
    "version": 1
  }
}