{
  "contractName": "ProductEscrow",
  "abi": [
    {
      "inputs": [
        {
          "internalType": "string",
          "name": "_name",
          "type": "string"
        },
        {
          "internalType": "bytes32",
          "name": "_priceCommitment",
          "type": "bytes32"
        },
        {
          "internalType": "address",
          "name": "_owner",
          "type": "address"
        }
      ],
      "stateMutability": "nonpayable",
      "type": "constructor"
    },
    {
      "inputs": [],
      "name": "Confirm",
      "type": "error"
    },
    {
      "inputs": [],
      "name": "Delivered",
      "type": "error"
    },
    {
      "inputs": [],
      "name": "Deposit",
      "type": "error"
    },
    {
      "inputs": [],
      "name": "Exists",
      "type": "error"
    },
    {
      "inputs": [],
      "name": "Fee",
      "type": "error"
    },
    {
      "inputs": [],
      "name": "NotRegistered",
      "type": "error"
    },
    {
      "inputs": [],
      "name": "NotTransporter",
      "type": "error"
    },
    {
      "inputs": [],
      "name": "Penalty",
      "type": "error"
    },
    {
      "inputs": [],
      "name": "ReentrancyGuardReentrantCall",
      "type": "error"
    },
    {
      "inputs": [],
      "name": "Refund",
      "type": "error"
    },
    {
      "inputs": [],
      "name": "Timeout",
      "type": "error"
    },
    {
      "inputs": [
        {
          "internalType": "enum ProductEscrow.Phase",
          "name": "expected",
          "type": "uint8"
        },
        {
          "internalType": "enum ProductEscrow.Phase",
          "name": "got",
          "type": "uint8"
        }
      ],
      "name": "WrongPhase",
      "type": "error"
    },
    {
      "anonymous": false,
      "inputs": [
        {
          "indexed": true,
          "internalType": "address",
          "name": "transporter",
          "type": "address"
        },
        {
          "indexed": false,
          "internalType": "uint256",
          "name": "amount",
          "type": "uint256"
        }
      ],
      "name": "BidWithdrawn",
      "type": "event"
    },
    {
      "anonymous": false,
      "inputs": [
        {
          "indexed": true,
          "internalType": "address",
          "name": "seller",
          "type": "address"
        },
        {
          "indexed": true,
          "internalType": "address",
          "name": "transporter",
          "type": "address"
        },
        {
          "indexed": false,
          "internalType": "uint256",
          "name": "buyerRefund",
          "type": "uint256"
        }
      ],
      "name": "CancelDelivery",
      "type": "event"
    },
    {
      "anonymous": false,
      "inputs": [
        {
          "indexed": false,
          "internalType": "string",
          "name": "message",
          "type": "string"
        }
      ],
      "name": "Debug",
      "type": "event"
    },
    {
      "anonymous": false,
      "inputs": [
        {
          "indexed": false,
          "internalType": "string",
          "name": "message",
          "type": "string"
        },
        {
          "indexed": false,
          "internalType": "bool",
          "name": "value",
          "type": "bool"
        }
      ],
      "name": "DebugBool",
      "type": "event"
    },
    {
      "anonymous": false,
      "inputs": [
        {
          "indexed": false,
          "internalType": "string",
          "name": "message",
          "type": "string"
        },
        {
          "indexed": false,
          "internalType": "uint256",
          "name": "value",
          "type": "uint256"
        }
      ],
      "name": "DebugUint",
      "type": "event"
    },
    {
      "anonymous": false,
      "inputs": [
        {
          "indexed": true,
          "internalType": "address",
          "name": "buyer",
          "type": "address"
        },
        {
          "indexed": true,
          "internalType": "address",
          "name": "transporter",
          "type": "address"
        },
        {
          "indexed": false,
          "internalType": "bytes32",
          "name": "priceCommitment",
          "type": "bytes32"
        },
        {
          "indexed": false,
          "internalType": "string",
          "name": "vcCID",
          "type": "string"
        }
      ],
      "name": "DeliveryConfirmed",
      "type": "event"
    },
    {
      "anonymous": false,
      "inputs": [
        {
          "indexed": true,
          "internalType": "address",
          "name": "caller",
          "type": "address"
        },
        {
          "indexed": false,
          "internalType": "uint256",
          "name": "time",
          "type": "uint256"
        }
      ],
      "name": "DeliveryTimeout",
      "type": "event"
    },
    {
      "anonymous": false,
      "inputs": [
        {
          "indexed": true,
          "internalType": "address",
          "name": "to",
          "type": "address"
        },
        {
          "indexed": false,
          "internalType": "uint256",
          "name": "amount",
          "type": "uint256"
        }
      ],
      "name": "FundsTransferred",
      "type": "event"
    },
    {
      "anonymous": false,
      "inputs": [
        {
          "indexed": true,
          "internalType": "address",
          "name": "buyer",
          "type": "address"
        },
        {
          "indexed": true,
          "internalType": "bytes32",
          "name": "priceCommitment",
          "type": "bytes32"
        },
        {
          "indexed": false,
          "internalType": "string",
          "name": "vcCID",
          "type": "string"
        }
      ],
      "name": "OrderConfirmed",
      "type": "event"
    },
    {
      "anonymous": false,
      "inputs": [
        {
          "indexed": true,
          "internalType": "address",
          "name": "to",
          "type": "address"
        },
        {
          "indexed": false,
          "internalType": "uint256",
          "name": "amount",
          "type": "uint256"
        },
        {
          "indexed": false,
          "internalType": "string",
          "name": "reason",
          "type": "string"
        }
      ],
      "name": "PenaltyApplied",
      "type": "event"
    },
    {
      "anonymous": false,
      "inputs": [
        {
          "indexed": false,
          "internalType": "enum ProductEscrow.Phase",
          "name": "from",
          "type": "uint8"
        },
        {
          "indexed": false,
          "internalType": "enum ProductEscrow.Phase",
          "name": "to",
          "type": "uint8"
        },
        {
          "indexed": false,
          "internalType": "uint256",
          "name": "time",
          "type": "uint256"
        }
      ],
      "name": "PhaseChanged",
      "type": "event"
    },
    {
      "anonymous": false,
      "inputs": [
        {
          "indexed": false,
          "internalType": "uint256",
          "name": "productId",
          "type": "uint256"
        },
        {
          "indexed": false,
          "internalType": "string",
          "name": "productName",
          "type": "string"
        }
      ],
      "name": "ProductDeleted",
      "type": "event"
    },
    {
      "anonymous": false,
      "inputs": [
        {
          "indexed": true,
          "internalType": "address",
          "name": "caller",
          "type": "address"
        },
        {
          "indexed": false,
          "internalType": "uint256",
          "name": "time",
          "type": "uint256"
        }
      ],
      "name": "SellerTimeout",
      "type": "event"
    },
    {
      "anonymous": false,
      "inputs": [
        {
          "indexed": false,
          "internalType": "address",
          "name": "transporter",
          "type": "address"
        },
        {
          "indexed": false,
          "internalType": "uint256",
          "name": "fee",
          "type": "uint256"
        }
      ],
      "name": "TransporterCreated",
      "type": "event"
    },
    {
      "anonymous": false,
      "inputs": [
        {
          "indexed": false,
          "internalType": "address",
          "name": "transporter",
          "type": "address"
        },
        {
          "indexed": false,
          "internalType": "uint256",
          "name": "price",
          "type": "uint256"
        }
      ],
      "name": "TransporterSecurityDeposit",
      "type": "event"
    },
    {
      "anonymous": false,
      "inputs": [
        {
          "indexed": false,
          "internalType": "bytes32",
          "name": "commitment",
          "type": "bytes32"
        },
        {
          "indexed": false,
          "internalType": "bytes",
          "name": "proof",
          "type": "bytes"
        }
      ],
      "name": "ValueCommitted",
      "type": "event"
    },
    {
      "anonymous": false,
      "inputs": [
        {
          "indexed": false,
          "internalType": "uint256",
          "name": "revealedValue",
          "type": "uint256"
        },
        {
          "indexed": false,
          "internalType": "bytes32",
          "name": "commitment",
          "type": "bytes32"
        },
        {
          "indexed": false,
          "internalType": "bool",
          "name": "valid",
          "type": "bool"
        }
      ],
      "name": "ValueRevealed",
      "type": "event"
    },
    {
      "anonymous": false,
      "inputs": [
        {
          "indexed": false,
          "internalType": "string",
          "name": "cid",
          "type": "string"
        }
      ],
      "name": "VcUpdated",
      "type": "event"
    },
    {
      "inputs": [],
      "name": "BID_WINDOW",
      "outputs": [
        {
          "internalType": "uint32",
          "name": "",
          "type": "uint32"
        }
      ],
      "stateMutability": "view",
      "type": "function"
    },
    {
      "inputs": [],
      "name": "DELIVERY_WINDOW",
      "outputs": [
        {
          "internalType": "uint32",
          "name": "",
          "type": "uint32"
        }
      ],
      "stateMutability": "view",
      "type": "function"
    },
    {
      "inputs": [],
      "name": "SELLER_WINDOW",
      "outputs": [
        {
          "internalType": "uint32",
          "name": "",
          "type": "uint32"
        }
      ],
      "stateMutability": "view",
      "type": "function"
    },
    {
      "inputs": [],
      "name": "buyer",
      "outputs": [
        {
          "internalType": "address payable",
          "name": "",
          "type": "address"
        }
      ],
      "stateMutability": "view",
      "type": "function"
    },
    {
      "inputs": [],
      "name": "delivered",
      "outputs": [
        {
          "internalType": "bool",
          "name": "",
          "type": "bool"
        }
      ],
      "stateMutability": "view",
      "type": "function"
    },
    {
      "inputs": [],
      "name": "deliveryFee",
      "outputs": [
        {
          "internalType": "uint256",
          "name": "",
          "type": "uint256"
        }
      ],
      "stateMutability": "view",
      "type": "function"
    },
    {
      "inputs": [],
      "name": "id",
      "outputs": [
        {
          "internalType": "uint256",
          "name": "",
          "type": "uint256"
        }
      ],
      "stateMutability": "view",
      "type": "function"
    },
    {
      "inputs": [
        {
          "internalType": "address",
          "name": "",
          "type": "address"
        }
      ],
      "name": "isTransporter",
      "outputs": [
        {
          "internalType": "bool",
          "name": "",
          "type": "bool"
        }
      ],
      "stateMutability": "view",
      "type": "function"
    },
    {
      "inputs": [],
      "name": "name",
      "outputs": [
        {
          "internalType": "string",
          "name": "",
          "type": "string"
        }
      ],
      "stateMutability": "view",
      "type": "function"
    },
    {
      "inputs": [],
      "name": "orderConfirmedTimestamp",
      "outputs": [
        {
          "internalType": "uint256",
          "name": "",
          "type": "uint256"
        }
      ],
      "stateMutability": "view",
      "type": "function"
    },
    {
      "inputs": [],
      "name": "owner",
      "outputs": [
        {
          "internalType": "address payable",
          "name": "",
          "type": "address"
        }
      ],
      "stateMutability": "view",
      "type": "function"
    },
    {
      "inputs": [],
      "name": "phase",
      "outputs": [
        {
          "internalType": "enum ProductEscrow.Phase",
          "name": "",
          "type": "uint8"
        }
      ],
      "stateMutability": "view",
      "type": "function"
    },
    {
      "inputs": [],
      "name": "priceCommitment",
      "outputs": [
        {
          "internalType": "bytes32",
          "name": "",
          "type": "bytes32"
        }
      ],
      "stateMutability": "view",
      "type": "function"
    },
    {
      "inputs": [],
      "name": "productPrice",
      "outputs": [
        {
          "internalType": "uint256",
          "name": "",
          "type": "uint256"
        }
      ],
      "stateMutability": "view",
      "type": "function"
    },
    {
      "inputs": [],
      "name": "purchaseTimestamp",
      "outputs": [
        {
          "internalType": "uint256",
          "name": "",
          "type": "uint256"
        }
      ],
      "stateMutability": "view",
      "type": "function"
    },
    {
      "inputs": [],
      "name": "purchased",
      "outputs": [
        {
          "internalType": "bool",
          "name": "",
          "type": "bool"
        }
      ],
      "stateMutability": "view",
      "type": "function"
    },
    {
      "inputs": [
        {
          "internalType": "address",
          "name": "",
          "type": "address"
        }
      ],
      "name": "securityDeposits",
      "outputs": [
        {
          "internalType": "uint256",
          "name": "",
          "type": "uint256"
        }
      ],
      "stateMutability": "view",
      "type": "function"
    },
    {
      "inputs": [],
      "name": "transporter",
      "outputs": [
        {
          "internalType": "address payable",
          "name": "",
          "type": "address"
        }
      ],
      "stateMutability": "view",
      "type": "function"
    },
    {
      "inputs": [
        {
          "internalType": "uint256",
          "name": "",
          "type": "uint256"
        }
      ],
      "name": "transporterAddresses",
      "outputs": [
        {
          "internalType": "address",
          "name": "",
          "type": "address"
        }
      ],
      "stateMutability": "view",
      "type": "function"
    },
    {
      "inputs": [],
      "name": "transporterCount",
      "outputs": [
        {
          "internalType": "uint256",
          "name": "",
          "type": "uint256"
        }
      ],
      "stateMutability": "view",
      "type": "function"
    },
    {
      "inputs": [
        {
          "internalType": "address",
          "name": "",
          "type": "address"
        }
      ],
      "name": "transporters",
      "outputs": [
        {
          "internalType": "uint256",
          "name": "fee",
          "type": "uint256"
        }
      ],
      "stateMutability": "view",
      "type": "function"
    },
    {
      "inputs": [],
      "name": "valueCommitment",
      "outputs": [
        {
          "internalType": "bytes32",
          "name": "",
          "type": "bytes32"
        }
      ],
      "stateMutability": "view",
      "type": "function"
    },
    {
      "inputs": [],
      "name": "valueRangeProof",
      "outputs": [
        {
          "internalType": "bytes",
          "name": "",
          "type": "bytes"
        }
      ],
      "stateMutability": "view",
      "type": "function"
    },
    {
      "inputs": [],
      "name": "vcCid",
      "outputs": [
        {
          "internalType": "string",
          "name": "",
          "type": "string"
        }
      ],
      "stateMutability": "view",
      "type": "function"
    },
    {
      "inputs": [
        {
          "internalType": "string",
          "name": "vcCID",
          "type": "string"
        }
      ],
      "name": "confirmOrder",
      "outputs": [],
      "stateMutability": "nonpayable",
      "type": "function"
    },
    {
      "inputs": [
        {
          "internalType": "string",
          "name": "cid",
          "type": "string"
        }
      ],
      "name": "updateVcCid",
      "outputs": [],
      "stateMutability": "nonpayable",
      "type": "function"
    },
    {
      "inputs": [
        {
          "internalType": "bytes32",
          "name": "_commitment",
          "type": "bytes32"
        },
        {
          "internalType": "bytes32",
          "name": "_valueCommitment",
          "type": "bytes32"
        },
        {
          "internalType": "bytes",
          "name": "_valueRangeProof",
          "type": "bytes"
        }
      ],
      "name": "depositPurchase",
      "outputs": [],
      "stateMutability": "payable",
      "type": "function"
    },
    {
      "inputs": [],
      "name": "withdrawProductPrice",
      "outputs": [],
      "stateMutability": "nonpayable",
      "type": "function"
    },
    {
      "inputs": [],
      "name": "cancelDelivery",
      "outputs": [],
      "stateMutability": "nonpayable",
      "type": "function"
    },
    {
      "inputs": [
        {
          "internalType": "address payable",
          "name": "_transporter",
          "type": "address"
        }
      ],
      "name": "setTransporter",
      "outputs": [],
      "stateMutability": "payable",
      "type": "function"
    },
    {
      "inputs": [
        {
          "internalType": "uint256",
          "name": "_feeInWei",
          "type": "uint256"
        }
      ],
      "name": "createTransporter",
      "outputs": [],
      "stateMutability": "nonpayable",
      "type": "function"
    },
    {
      "inputs": [],
      "name": "securityDeposit",
      "outputs": [],
      "stateMutability": "payable",
      "type": "function"
    },
    {
      "inputs": [],
      "name": "getAllTransporters",
      "outputs": [
        {
          "internalType": "address[]",
          "name": "",
          "type": "address[]"
        },
        {
          "internalType": "uint256[]",
          "name": "",
          "type": "uint256[]"
        }
      ],
      "stateMutability": "view",
      "type": "function"
    },
    {
      "inputs": [],
      "name": "checkAndDeleteProduct",
      "outputs": [],
      "stateMutability": "nonpayable",
      "type": "function"
    },
    {
      "inputs": [
        {
          "internalType": "uint256",
          "name": "revealedValue",
          "type": "uint256"
        },
        {
          "internalType": "bytes32",
          "name": "blinding",
          "type": "bytes32"
        }
      ],
      "name": "verifyRevealedValue",
      "outputs": [
        {
          "internalType": "bool",
          "name": "",
          "type": "bool"
        }
      ],
      "stateMutability": "nonpayable",
      "type": "function"
    },
    {
      "inputs": [
        {
          "internalType": "uint256",
          "name": "revealedValue",
          "type": "uint256"
        },
        {
          "internalType": "bytes32",
          "name": "blinding",
          "type": "bytes32"
        },
        {
          "internalType": "string",
          "name": "vcCID",
          "type": "string"
        }
      ],
      "name": "revealAndConfirmDelivery",
      "outputs": [],
      "stateMutability": "nonpayable",
      "type": "function"
    },
    {
      "inputs": [],
      "name": "timeout",
      "outputs": [],
      "stateMutability": "nonpayable",
      "type": "function"
    },
    {
      "inputs": [],
      "name": "sellerTimeout",
      "outputs": [],
      "stateMutability": "nonpayable",
      "type": "function"
    },
    {
      "inputs": [],
      "name": "bidTimeout",
      "outputs": [],
      "stateMutability": "nonpayable",
      "type": "function"
    },
    {
      "inputs": [],
      "name": "withdrawBid",
      "outputs": [],
      "stateMutability": "nonpayable",
      "type": "function"
    }
  ],
  "bytecode": "0x608060405234801562000010575f80fd5b5060405162002994380380620029948339810160408190526200003391620000bd565b60015f55600262000045848262000232565b50600391909155600480546001600160a81b0319166001600160a01b0390921691909117905550600580546001600160a01b0319169055600c805461ff0019169055620002fa565b634e487b7160e01b5f52604160045260245ffd5b80516001600160a01b0381168114620000b8575f80fd5b919050565b5f805f60608486031215620000d0575f80fd5b83516001600160401b0380821115620000e7575f80fd5b818601915086601f830112620000fb575f80fd5b8151818111156200011057620001106200008d565b604051601f8201601f19908116603f011681019083821181831017156200013b576200013b6200008d565b8160405282815260209350898484870101111562000157575f80fd5b5f91505b828210156200017a57848201840151818301850152908301906200015b565b5f84848301015280975050505080860151935050506200019d60408501620000a1565b90509250925092565b600181811c90821680620001bb57607f821691505b602082108103620001da57634e487b7160e01b5f52602260045260245ffd5b50919050565b601f8211156200022d575f81815260208120601f850160051c81016020861015620002085750805b601f850160051c820191505b81811015620002295782815560010162000214565b5050505b505050565b81516001600160401b038111156200024e576200024e6200008d565b62000266816200025f8454620001a6565b84620001e0565b602080601f8311600181146200029c575f8415620002845750858301515b5f19600386901b1c1916600185901b17855562000229565b5f85815260208120601f198616915b82811015620002cc57888601518255948401946001909101908401620002ab565b5085821015620002ea57878501515f19600388901b60f8161c191681555b5050505050600190811b01905550565b61268c80620003085f395ff3fe608060405260043610610233575f3560e01c80638da5cb5b11610129578063d765d3c6116100a8578063e53bbdbe1161006d578063e53bbdbe1461061c578063e7067c491461026b578063e995478e1461026b578063f3cc0f1f1461063b578063fa949a0114610650575f80fd5b8063d765d3c61461058a578063d8f133f91461059f578063dc2a7e5f146105be578063e25bd158146105d2578063e42b0212146105fd575f80fd5b8063b1c9fe6e116100ee578063b1c9fe6e146104ff578063b5df610f1461052a578063bbdfbfba1461053e578063bfaf812914610557578063d018d9891461056b575f80fd5b80638da5cb5b1461048f57806394090d0b146104ae5780639497d3ae146104c25780639c8dadae146104d7578063af640d0f146104ea575f80fd5b806352d93f70116101b55780637150d8ae1161017a5780637150d8ae146103cc57806377db5719146104035780637dea647414610425578063879f9c96146104505780638c10188814610470575f80fd5b806352d93f7014610366578063533a559b1461037a578063627806271461038e57806364eeaa9d146103a357806370dea79a146103b8575f80fd5b80632b8109d5116101fb5780632b8109d5146102ce57806337271cc71461030c5780633ace041a146103205780633cf131e71461033f5780634223f78d14610353575f80fd5b806306fdde0314610237578063220e5ab31461026157806322c3b9f31461026b57806325d3d0e31461029657806329dac7c6146102b9575b5f80fd5b348015610242575f80fd5b5061024b61066f565b6040516102589190611f6b565b60405180910390f35b6102696106fb565b005b348015610276575f80fd5b506102816202a30081565b60405163ffffffff9091168152602001610258565b3480156102a1575f80fd5b506102ab600a5481565b604051908152602001610258565b3480156102c4575f80fd5b506102ab60065481565b3480156102d9575f80fd5b506102fc6102e8366004611f98565b60106020525f908152604090205460ff1681565b6040519015158152602001610258565b348015610317575f80fd5b50610269610787565b34801561032b575f80fd5b5061026961033a366004612050565b61096f565b34801561034a575f80fd5b50610269610afc565b61026961036136600461208a565b610b9a565b348015610371575f80fd5b5061024b610d1e565b348015610385575f80fd5b50610269610d2b565b348015610399575f80fd5b506102ab600d5481565b3480156103ae575f80fd5b506102ab60125481565b3480156103c3575f80fd5b50610269610dcd565b3480156103d7575f80fd5b506005546103eb906001600160a01b031681565b6040516001600160a01b039091168152602001610258565b34801561040e575f80fd5b5061041761111a565b604051610258929190612103565b348015610430575f80fd5b506102ab61043f366004611f98565b60096020525f908152604090205481565b34801561045b575f80fd5b506004546102fc90600160a01b900460ff1681565b34801561047b575f80fd5b506102fc61048a366004612185565b61128e565b34801561049a575f80fd5b506004546103eb906001600160a01b031681565b3480156104b9575f80fd5b50610269611313565b3480156104cd575f80fd5b506102ab600e5481565b6102696104e5366004611f98565b611497565b3480156104f5575f80fd5b506102ab60015481565b34801561050a575f80fd5b50600c5461051d90610100900460ff1681565b60405161025891906121d9565b348015610535575f80fd5b50610269611623565b348015610549575f80fd5b50600c546102fc9060ff1681565b348015610562575f80fd5b5061024b6116e7565b348015610576575f80fd5b506102696105853660046121e7565b6116f4565b348015610595575f80fd5b506102ab60035481565b3480156105aa575f80fd5b506102696105b9366004612233565b6117d4565b3480156105c9575f80fd5b50610269611909565b3480156105dd575f80fd5b506102ab6105ec366004611f98565b600f6020525f908152604090205481565b348015610608575f80fd5b506007546103eb906001600160a01b031681565b348015610627575f80fd5b50610269610636366004612050565b611ad7565b348015610646575f80fd5b506102ab60085481565b34801561065b575f80fd5b506103eb61066a366004612233565b611b3e565b6002805461067c9061224a565b80601f01602080910402602001604051908101604052809291908181526020018280546106a89061224a565b80156106f35780601f106106ca576101008083540402835291602001916106f3565b820191905f5260205f20905b8154815290600101906020018083116106d657829003601f168201915b505050505081565b335f9081526010602052604090205460ff1661072a5760405163aba4733960e01b815260040160405180910390fd5b335f9081526009602052604081208054349290610748908490612296565b9091555050604080513381523460208201527f201b13bd8ab1bff9ab4fe027b08267af060c2ac596f9c2408338ae9030f9ec99910160405180910390a1565b61078f611b66565b6002600c54610100900460ff1660058111156107ad576107ad6121a5565b146107e8576002600c60019054906101000a900460ff166040516305fb5e1b60e01b81526004016107df9291906122a9565b60405180910390fd5b600754336001600160a01b039091160361081557604051633589401f60e01b815260040160405180910390fd5b335f908152600f60209081526040808320546009909252909120548115801561083c575080155b1561085a5760405163aba4733960e01b815260040160405180910390fd5b335f908152600f602090815260408083208390556009825280832083905560109091528120805460ff191690556006805491610895836122c4565b90915550819050801561092c576040515f90339083908381818185875af1925050503d805f81146108e1576040519150601f19603f3d011682016040523d82523d5f602084013e6108e6565b606091505b505090508061090857604051635d26862960e01b815260040160405180910390fd5b60405182815233905f805160206126178339815191529060200160405180910390a2505b60405181815233907f03f0427e8bcfdf5f69217150cf160ebe2dac5fa607336fd7643bfd61a90190809060200160405180910390a250505061096d60015f55565b565b6004546001600160a01b0316331461099a57604051633589401f60e01b815260040160405180910390fd5b6001600c54610100900460ff1660058111156109b8576109b86121a5565b146109ea576001600c60019054906101000a900460ff166040516305fb5e1b60e01b81526004016107df9291906122a9565b600a546109fb906202a30090612296565b421115610a1b5760405163df35873160e01b815260040160405180910390fd5b42600d819055600c805461020061ff00198216179182905560405160ff610100928390048116945f8051602061263783398151915294610a629487949104909216916122d9565b60405180910390a1600b610a76838261234f565b507f5d58f2843b450c496fce0c979f11c9fc0e4aecf62845c3d7055739b6c07a0e4682604051610aa69190611f6b565b60405180910390a16003546005546040516001600160a01b03909116907fc3240eda57e484f75e47e5e094e497a166d3c2e31b19fc2a6a96ee951d1ddfd190610af0908690611f6b565b60405180910390a35050565b600454600160a01b900460ff16610b2657604051633b48492360e21b815260040160405180910390fd5b600a54610b36906202a300612296565b421015610b565760405163055e18ff60e31b815260040160405180910390fd5b7ff05a5096d61e4686d4b77dc20985d768652606f536436749c7e215623853efe36001546002604051610b8a92919061240b565b60405180910390a161096d611b8e565b610ba2611b66565b600454600160a01b900460ff1615610bcd57604051633b48492360e21b815260040160405180910390fd5b6004546001600160a01b03163303610bf857604051633b48492360e21b815260040160405180910390fd5b6004805460ff60a01b1916600160a01b179055600580546001600160a01b0319163317905542600a81905534600e55600c805461010061ff001982168117928390556040519181900460ff908116945f8051602061263783398151915294610c68948794909104909216916122d9565b60405180910390a1600385905560128490556013610c87838583612498565b507f4a9b2fdb1ca123b2dcd619b96b8d7d931170150da9a5022fd88f61778ea02eee848484604051610cbb93929190612554565b60405180910390a16003546005546040805160208082525f908201526001600160a01b03909216917fc3240eda57e484f75e47e5e094e497a166d3c2e31b19fc2a6a96ee951d1ddfd1910160405180910390a350610d1860015f55565b50505050565b6013805461067c9061224a565b6005546001600160a01b03163314610d5657604051633589401f60e01b815260040160405180910390fd5b6007546001600160a01b0316610d7f57604051633589401f60e01b815260040160405180910390fd5b600454600160a01b900460ff16610da957604051633b48492360e21b815260040160405180910390fd5b600554600480546001600160a01b0319166001600160a01b03909216919091179055565b610dd5611b66565b600c5460ff1615610df95760405163779822f760e01b815260040160405180910390fd5b600d54610e0a906202a30090612296565b4211610e295760405163055e18ff60e31b815260040160405180910390fd5b600c805461050061ff00198216179182905560405160ff610100928390048116935f8051602061263783398151915293610e6c93869391909204169042906122d9565b60405180910390a15f620151806202a30063ffffffff16600d54610e909190612296565b610e9a9042612589565b610ea4919061259c565b610eaf906001612296565b9050600a811115610ebe5750600a5b6007546001600160a01b03165f908152600960205260408120546064908390610ee890600a6125bb565b610ef291906125bb565b610efc919061259c565b6007546001600160a01b03165f90815260096020526040902054909150811115610f3c57506007546001600160a01b03165f908152600960205260409020545b5f81600e54610f4b9190612296565b6005546040519192505f916001600160a01b039091169083908381818185875af1925050503d805f8114610f9a576040519150601f19603f3d011682016040523d82523d5f602084013e610f9f565b606091505b5050905080610fc157604051635d26862960e01b815260040160405180910390fd5b6005546040518381526001600160a01b03909116905f805160206126178339815191529060200160405180910390a282156110d7576005546040515f916001600160a01b03169085908381818185875af1925050503d805f8114611040576040519150601f19603f3d011682016040523d82523d5f602084013e611045565b606091505b50509050806110675760405163156c435960e31b815260040160405180910390fd5b6007546040516001600160a01b03909116907f09843be59cdbf0d671efa609c2c4f0105f3ba87e2a489719e8b19792a21162e3906110cd90878152604060208201819052600d908201526c4c6174652064656c697665727960981b606082015260800190565b60405180910390a2505b60405142815233907f815c833f75bfcb34c209ba96e0f4321db7c37cfb06613962d0f5677d50c93c849060200160405180910390a2505050505061096d60015f55565b60115460609081905f8167ffffffffffffffff81111561113c5761113c611fb3565b604051908082528060200260200182016040528015611165578160200160208202803683370190505b5090505f8267ffffffffffffffff81111561118257611182611fb3565b6040519080825280602002602001820160405280156111ab578160200160208202803683370190505b5090505f5b8381101561128357601181815481106111cb576111cb6125d2565b905f5260205f20015f9054906101000a90046001600160a01b03168382815181106111f8576111f86125d2565b60200260200101906001600160a01b031690816001600160a01b031681525050600f5f6011838154811061122e5761122e6125d2565b5f9182526020808320909101546001600160a01b031683528201929092526040019020548251839083908110611266576112666125d2565b60209081029190910101528061127b816125e6565b9150506111b0565b509094909350915050565b5f8083836040516020016112ac929190918252602082015260400190565b60408051601f1981840301815282825280516020918201206003548885529184018290529081149183018290529250907f4f3af542a02a51153827499ed0d6dace61d7be7af86b8f0402016dd9171c16be9060600160405180910390a19150505b92915050565b61131b611b66565b6002600c54610100900460ff166005811115611339576113396121a5565b1461136b576002600c60019054906101000a900460ff166040516305fb5e1b60e01b81526004016107df9291906122a9565b600d5461137c906202a30090612296565b421161139b5760405163055e18ff60e31b815260040160405180910390fd5b600c805461050061ff00198216179182905560405160ff610100928390048116935f80516020612637833981519152936113de93869391909204169042906122d9565b60405180910390a1600554600e546040515f926001600160a01b031691908381818185875af1925050503d805f8114611432576040519150601f19603f3d011682016040523d82523d5f602084013e611437565b606091505b505090508061145957604051635d26862960e01b815260040160405180910390fd5b600554600e546040519081526001600160a01b03909116905f80516020612617833981519152906020015b60405180910390a2505061096d60015f55565b6004546001600160a01b031633146114c257604051633589401f60e01b815260040160405180910390fd5b6002600c54610100900460ff1660058111156114e0576114e06121a5565b14611512576002600c60019054906101000a900460ff166040516305fb5e1b60e01b81526004016107df9291906122a9565b600d54611523906202a30090612296565b4211156115435760405163055e18ff60e31b815260040160405180910390fd5b600c805461030061ff00198216179182905560405160ff610100928390048116935f805160206126378339815191529361158693869391909204169042906122d9565b60405180910390a16001600160a01b0382165f908152600f602052604090205434146115c557604051630bef7a2f60e41b815260040160405180910390fd5b6001600160a01b0382165f908152600f602052604081205490036115fc57604051633589401f60e01b815260040160405180910390fd5b5034600855600780546001600160a01b0319166001600160a01b0392909216919091179055565b6004546001600160a01b0316331461164e57604051633589401f60e01b815260040160405180910390fd5b6007546001600160a01b031661167757604051633589401f60e01b815260040160405180910390fd5b600454600160a01b900460ff166116a157604051633b48492360e21b815260040160405180910390fd5b6007546040515f81526001600160a01b039091169033907f08d1502fd01a62867241b61ec35d4ecbed54914c6ab56d5fe1b861dea75622f89060200160405180910390a3565b600b805461067c9061224a565b6116fc611b66565b6005546001600160a01b0316331461172757604051633589401f60e01b815260040160405180910390fd5b6007546001600160a01b031661175057604051633589401f60e01b815260040160405180910390fd5b604080516020808201869052818301859052825180830384018152606090920190925280519101206003548114806117bb5760405162461bcd60e51b815260206004820152600e60248201526d14995d99585b081a5b9d985b1a5960921b60448201526064016107df565b6117c483611bda565b50506117cf60015f55565b505050565b6006546014116118185760405162461bcd60e51b815260206004820152600f60248201526e109a590818d85c081c995858da1959608a1b60448201526064016107df565b335f908152600f60205260409020541561184557604051634237602b60e11b815260040160405180910390fd5b6040805160208082018352838252335f818152600f835284812093519093556010909152918120805460ff1916600190811790915560118054918201815582527f31ecc21a745e3968a04e9570e4425bc18fa8019c68028196b546d1669c200c680180546001600160a01b03191690921790915560068054916118c7836125e6565b909155505060408051338152602081018390527f82cd66133dda5e11a8bcba54ad8282733b8517996ec937641ea79418fb14157491015b60405180910390a150565b611911611b66565b600c5460ff16156119355760405163779822f760e01b815260040160405180910390fd5b6001600c54610100900460ff166005811115611953576119536121a5565b14611985576001600c60019054906101000a900460ff166040516305fb5e1b60e01b81526004016107df9291906122a9565b600a54611996906202a30090612296565b42116119b55760405163055e18ff60e31b815260040160405180910390fd5b600c805461050061ff00198216179182905560405160ff610100928390048116935f80516020612637833981519152936119f893869391909204169042906122d9565b60405180910390a1600554600e546040515f926001600160a01b031691908381818185875af1925050503d805f8114611a4c576040519150601f19603f3d011682016040523d82523d5f602084013e611a51565b606091505b5050905080611a7357604051635d26862960e01b815260040160405180910390fd5b600554600e546040519081526001600160a01b03909116905f805160206126178339815191529060200160405180910390a260405142815233907f74a1486322a6fdcded5b71769c6882117fd64b35e6b2c64d9fb6b2e96ef4c12090602001611484565b6004546001600160a01b03163314611b0257604051633589401f60e01b815260040160405180910390fd5b600b611b0e828261234f565b507f5d58f2843b450c496fce0c979f11c9fc0e4aecf62845c3d7055739b6c07a0e46816040516118fe9190611f6b565b60118181548110611b4d575f80fd5b5f918252602090912001546001600160a01b0316905081565b60025f5403611b8857604051633ee5aeb560e01b815260040160405180910390fd5b60025f55565b611b9960025f611ed6565b5f6003819055600480546001600160a81b0319169055600580546001600160a01b03199081169091556007805490911690556008819055600a819055600655565b600c5460ff1615611c195760405162461bcd60e51b815260206004820152600960248201526819195b1a5d995c995960ba1b60448201526064016107df565b600d54611c2a906202a30090612296565b421115611c635760405162461bcd60e51b81526020600482015260076024820152661d1a5b595bdd5d60ca1b60448201526064016107df565b600c805461040161ffff19821617909155600e5461010060ff199092166001179190910460ff16905f819003611cc85760405162461bcd60e51b815260206004820152600a6024820152697072696365207a65726f60b01b60448201526064016107df565b6004546040515f916001600160a01b03169083908381818185875af1925050503d805f8114611d12576040519150601f19603f3d011682016040523d82523d5f602084013e611d17565b606091505b5050905080611d5f5760405162461bcd60e51b81526020600482015260146024820152731cd95b1b195c881d1c985b9cd9995c8819985a5b60621b60448201526064016107df565b6007546001600160a01b03165f81815260096020526040812054600854919291611d899190612296565b6040515f81818185875af1925050503d805f8114611dc2576040519150601f19603f3d011682016040523d82523d5f602084013e611dc7565b606091505b5050905080611e185760405162461bcd60e51b815260206004820152601960248201527f7472616e73706f72746572207472616e73666572206661696c0000000000000060448201526064016107df565b600554600480546001600160a01b0319166001600160a01b03909216919091179055600b611e46868261234f565b507f5d58f2843b450c496fce0c979f11c9fc0e4aecf62845c3d7055739b6c07a0e4685604051611e769190611f6b565b60405180910390a16007546005546003546040516001600160a01b0393841693909216917f96fba715d7dd1b52e647de8e098e239759f6a3999a23423d4109ca5ba942e9a891611ec7918a906125fe565b60405180910390a35050505050565b508054611ee29061224a565b5f825580601f10611ef1575050565b601f0160209004905f5260205f2090810190611f0d9190611f10565b50565b5b80821115611f24575f8155600101611f11565b5090565b5f81518084525f5b81811015611f4c57602081850181015186830182015201611f30565b505f602082860101526020601f19601f83011685010191505092915050565b602081525f611f7d6020830184611f28565b9392505050565b6001600160a01b0381168114611f0d575f80fd5b5f60208284031215611fa8575f80fd5b8135611f7d81611f84565b634e487b7160e01b5f52604160045260245ffd5b5f82601f830112611fd6575f80fd5b813567ffffffffffffffff80821115611ff157611ff1611fb3565b604051601f8301601f19908116603f0116810190828211818310171561201957612019611fb3565b81604052838152866020858801011115612031575f80fd5b836020870160208301375f602085830101528094505050505092915050565b5f60208284031215612060575f80fd5b813567ffffffffffffffff811115612076575f80fd5b61208284828501611fc7565b949350505050565b5f805f806060858703121561209d575f80fd5b8435935060208501359250604085013567ffffffffffffffff808211156120c2575f80fd5b818701915087601f8301126120d5575f80fd5b8135818111156120e3575f80fd5b8860208285010111156120f4575f80fd5b95989497505060200194505050565b604080825283519082018190525f906020906060840190828701845b828110156121445781516001600160a01b03168452928401929084019060010161211f565b505050838103828501528451808252858301918301905f5b818110156121785783518352928401929184019160010161215c565b5090979650505050505050565b5f8060408385031215612196575f80fd5b50508035926020909101359150565b634e487b7160e01b5f52602160045260245ffd5b600681106121d557634e487b7160e01b5f52602160045260245ffd5b9052565b6020810161130d82846121b9565b5f805f606084860312156121f9575f80fd5b8335925060208401359150604084013567ffffffffffffffff81111561221d575f80fd5b61222986828701611fc7565b9150509250925092565b5f60208284031215612243575f80fd5b5035919050565b600181811c9082168061225e57607f821691505b60208210810361227c57634e487b7160e01b5f52602260045260245ffd5b50919050565b634e487b7160e01b5f52601160045260245ffd5b8082018082111561130d5761130d612282565b604081016122b782856121b9565b611f7d60208301846121b9565b5f816122d2576122d2612282565b505f190190565b606081016122e782866121b9565b6122f460208301856121b9565b826040830152949350505050565b601f8211156117cf575f81815260208120601f850160051c810160208610156123285750805b601f850160051c820191505b8181101561234757828155600101612334565b505050505050565b815167ffffffffffffffff81111561236957612369611fb3565b61237d81612377845461224a565b84612302565b602080601f8311600181146123b0575f84156123995750858301515b5f19600386901b1c1916600185901b178555612347565b5f85815260208120601f198616915b828110156123de578886015182559484019460019091019084016123bf565b50858210156123fb57878501515f19600388901b60f8161c191681555b5050505050600190811b01905550565b8281525f60206040818401525f84546124238161224a565b806040870152606060018084165f8114612444576001811461245e57612489565b60ff1985168984015283151560051b890183019550612489565b895f52865f205f5b858110156124815781548b8201860152908301908801612466565b8a0184019650505b50939998505050505050505050565b67ffffffffffffffff8311156124b0576124b0611fb3565b6124c4836124be835461224a565b83612302565b5f601f8411600181146124f5575f85156124de5750838201355b5f19600387901b1c1916600186901b17835561254d565b5f83815260209020601f19861690835b828110156125255786850135825560209485019460019092019101612505565b5086821015612541575f1960f88860031b161c19848701351681555b505060018560011b0183555b5050505050565b83815260406020820152816040820152818360608301375f818301606090810191909152601f909201601f1916010192915050565b8181038181111561130d5761130d612282565b5f826125b657634e487b7160e01b5f52601260045260245ffd5b500490565b808202811582820484141761130d5761130d612282565b634e487b7160e01b5f52603260045260245ffd5b5f600182016125f7576125f7612282565b5060010190565b828152604060208201525f6120826040830184611f2856fe8c9a4f13b67cb64d7c6aa1ae0c9bf07694af521a28b93e7060020810ab4bc59fb070f30564c7f6b4417cbad108e44deef775fbe1f133668303bd71b13497ac4aa26469706673582212204f37b2cda646529254b1412289dde4da8a4af2b957fcb02644ee2916e7b8b12a64736f6c63430008150033",
  "immutableReferences": {},
  "source": "// SPDX-License-Identifier: MIT\r\npragma solidity ^0.8.0;\r\n\r\n// Custom errors for gas savings and better debugging\r\nerror WrongPhase(ProductEscrow.Phase expected, ProductEscrow.Phase got);\r\nerror NotTransporter();\r\nerror BidCap();\r\nerror Exists();\r\nerror NotRegistered();\r\nerror Fee();\r\nerror Delivered();\r\nerror Timeout();\r\nerror Confirm();\r\nerror Deposit();\r\nerror Refund();\r\nerror Penalty();\r\nerror Transfer();\r\nerror VC();\r\n\r\nimport \"@openzeppelin/contracts/utils/ReentrancyGuard.sol\";\r\n\r\ncontract ProductEscrow is ReentrancyGuard {\r\n    uint public id;\r\n    string public name;\r\n    bytes32 public priceCommitment; // Confidential price commitment (changed from uint price)\r\n    address payable public owner;\r\n    bool public purchased;\r\n    address payable public buyer;\r\n    uint public transporterCount;\r\n    address payable public transporter;\r\n    uint public deliveryFee;\r\n    mapping(address => uint) public securityDeposits; // Track each transporter's deposit\r\n    uint public purchaseTimestamp; // Timestamp when purchase is confirmed\r\n    string public vcCid;              // e.g. \"ipfs://Qm\"\r\n    bool public delivered;\r\n    enum Phase { Listed, Purchased, OrderConfirmed, Bound, Delivered, Expired }\r\n    Phase public phase;\r\n    // Cap on number of transporter bids to prevent DoS and high gas\r\n    function maxBids() internal view virtual returns (uint8) {\r\n        return 20;\r\n    }\r\n    uint32 public constant SELLER_WINDOW = 2 days; // Seller must confirm within 48h\r\n    uint32 public constant BID_WINDOW = 2 days;    // Bidding window after seller confirmation\r\n    uint32 public constant DELIVERY_WINDOW = 2 days; // Delivery window after transporter is set\r\n    uint public orderConfirmedTimestamp; // Timestamp when seller confirms order (start of bidding window)\r\n    uint public productPrice; // Explicitly track the buyer's deposit amount\r\n\r\n\r\n    struct TransporterFees {\r\n        uint fee;\r\n    }\r\n\r\n    mapping(address => TransporterFees) public transporters;\r\n    mapping(address => bool) public isTransporter; // Membership mapping for transporters\r\n    address[] public transporterAddresses; // Store all transporter addresses\r\n\r\n    // Confidential value commitment and proof (Pedersen + Bulletproofs)\r\n    bytes32 public valueCommitment;\r\n    bytes public valueRangeProof;\r\n    event ValueCommitted(bytes32 commitment, bytes proof);\r\n\r\n    modifier onlyBuyer() {\r\n        if (msg.sender != buyer) revert NotTransporter();\r\n        _;\r\n    }\r\n\r\n    modifier onlySeller() {\r\n        if (msg.sender != owner) revert NotTransporter();\r\n        _;\r\n    }\r\n\r\n    modifier transporterSet() {\r\n        if (transporter == address(0)) revert NotTransporter();\r\n        _;\r\n    }\r\n\r\n    modifier onlyTransporter() {\r\n        if (msg.sender != transporter) revert NotTransporter();\r\n        _;\r\n    }\r\n\r\n    event OrderConfirmed(address indexed buyer, bytes32 indexed priceCommitment, string vcCID); // Updated\r\n    event TransporterCreated(address transporter, uint fee);\r\n    event TransporterSecurityDeposit(address transporter, uint price);\r\n    event DeliveryConfirmed(address indexed buyer, address indexed transporter, bytes32 priceCommitment, string vcCID); // Updated\r\n    event CancelDelivery(address indexed seller, address indexed transporter, uint buyerRefund);\r\n    event ProductDeleted(uint productId, string productName);\r\n    event VcUpdated(string cid);\r\n    event ValueRevealed(uint revealedValue, bytes32 commitment, bool valid); // Added\r\n    event FundsTransferred(address indexed to, uint amount);\r\n    event PenaltyApplied(address indexed to, uint amount, string reason);\r\n    event DeliveryTimeout(address indexed caller, uint time);\r\n    event SellerTimeout(address indexed caller, uint time);\r\n    event PhaseChanged(Phase from, Phase to, uint256 time); // Emitted on every phase transition\r\n    event BidWithdrawn(address indexed transporter, uint amount);\r\n    event Debug(string message);\r\n    event DebugUint(string message, uint value);\r\n    event DebugBool(string message, bool value);\r\n\r\n    constructor(string memory _name, bytes32 _priceCommitment, address _owner) {\r\n        name = _name;\r\n        priceCommitment = _priceCommitment; // Storing commitment\r\n        owner = payable(_owner);\r\n        purchased = false;\r\n        buyer = payable(address(0));\r\n        phase = Phase.Listed;\r\n    }\r\n\r\n    function confirmOrder(string memory vcCID) public onlySeller {\r\n        if (phase != Phase.Purchased) revert WrongPhase(Phase.Purchased, phase);\r\n        if (block.timestamp > purchaseTimestamp + SELLER_WINDOW) revert Confirm();\r\n        orderConfirmedTimestamp = block.timestamp;\r\n        Phase oldPhase = phase;\r\n        phase = Phase.OrderConfirmed;\r\n        emit PhaseChanged(oldPhase, phase, block.timestamp); // Emit on phase change\r\n        vcCid = vcCID;\r\n        emit VcUpdated(vcCID);\r\n        emit OrderConfirmed(buyer, priceCommitment, vcCID);\r\n    }\r\n\r\n    function updateVcCid(string memory cid) public onlySeller {\r\n    vcCid = cid;\r\n    emit VcUpdated(cid);\r\n    }\r\n\r\n\r\n    function depositPurchase(bytes32 _commitment, bytes32 _valueCommitment, bytes calldata _valueRangeProof) public payable nonReentrant {\r\n        if (purchased) revert Deposit();\r\n        if (msg.sender == owner) revert Deposit();\r\n        purchased    = true;\r\n        buyer        = payable(msg.sender);\r\n        purchaseTimestamp = block.timestamp;\r\n        productPrice = msg.value; // Track the product price explicitly\r\n        Phase oldPhase = phase;\r\n        phase        = Phase.Purchased;   // Set phase to Purchased after successful purchase\r\n        emit PhaseChanged(oldPhase, phase, block.timestamp); // Emit on phase change\r\n        priceCommitment = _commitment; // Store the original commitment\r\n        valueCommitment = _valueCommitment; // Store the Pedersen commitment\r\n        valueRangeProof = _valueRangeProof; // Store the Bulletproofs proof\r\n        emit ValueCommitted(_valueCommitment, _valueRangeProof);\r\n        emit OrderConfirmed(buyer, priceCommitment, \"\"); // Optionally emit event\r\n    }\r\n\r\n    function withdrawProductPrice() public onlyBuyer transporterSet {\r\n        if (!purchased) revert Deposit();\r\n        // Ether transfer logic commented out\r\n        // owner.transfer(price);\r\n        // transporter.transfer(price + deliveryFee);\r\n        owner = buyer;\r\n    }\r\n\r\n    function cancelDelivery() public onlySeller transporterSet {\r\n        if (!purchased) revert Deposit();\r\n        // Ether transfer logic commented out\r\n        // transporter.transfer((2 * price) / 10 + deliveryFee + price);\r\n        // owner.transfer(price / 10);\r\n        // buyer.transfer((7 * price) / 10);\r\n        emit CancelDelivery(msg.sender, transporter, 0); // Buyer refund not revealed\r\n    }\r\n\r\n    function setTransporter(address payable _transporter) external payable onlySeller {\r\n        if (phase != Phase.OrderConfirmed) revert WrongPhase(Phase.OrderConfirmed, phase);\r\n        if (block.timestamp > orderConfirmedTimestamp + BID_WINDOW) revert Timeout();\r\n        Phase oldPhase = phase;\r\n        phase = Phase.Bound; // Move to Bound phase after transporter is set\r\n        emit PhaseChanged(oldPhase, phase, block.timestamp); // Emit on phase change\r\n        if (msg.value != transporters[_transporter].fee) revert Fee();\r\n        if (transporters[_transporter].fee == 0) revert NotTransporter();\r\n        deliveryFee = msg.value;\r\n        transporter = _transporter;\r\n        // Refund security deposits to all non-selected transporters\r\n        // Since we no longer have an array, this must be handled off-chain via events, or by tracking addresses off-chain.\r\n        // For on-chain refunds, you could emit an event for each refund and let the frontend/off-chain system process them.\r\n    }\r\n\r\n    function createTransporter(uint _feeInWei) public {\r\n        require(transporterCount < maxBids(), \"Bid cap reached\");\r\n        if (transporters[msg.sender].fee != 0) revert Exists();\r\n        // Store fee in wei for precision\r\n        transporters[msg.sender] = TransporterFees({ fee: _feeInWei });\r\n        isTransporter[msg.sender] = true;\r\n        transporterAddresses.push(msg.sender); // Add to array\r\n        transporterCount++;\r\n        emit TransporterCreated(msg.sender, _feeInWei);\r\n    }\r\n\r\n    function securityDeposit() public payable {\r\n        // Allow any registered transporter to deposit before selection\r\n        if (!isTransporter[msg.sender]) revert NotRegistered();\r\n        securityDeposits[msg.sender] += msg.value;\r\n        emit TransporterSecurityDeposit(msg.sender, msg.value);\r\n    }\r\n\r\n    // View function to return all transporter addresses and their fees\r\n    function getAllTransporters() public view returns (address[] memory, uint[] memory) {\r\n        uint len = transporterAddresses.length;\r\n        address[] memory addresses = new address[](len);\r\n        uint[] memory fees = new uint[](len);\r\n        for (uint i = 0; i < len; i++) {\r\n            addresses[i] = transporterAddresses[i];\r\n            fees[i] = transporters[transporterAddresses[i]].fee;\r\n        }\r\n        return (addresses, fees);\r\n    }\r\n\r\n    function checkAndDeleteProduct() public {\r\n        if (!purchased) revert Deposit();\r\n        if (block.timestamp < purchaseTimestamp + 2 days) revert Timeout();\r\n\r\n        emit ProductDeleted(id, name);\r\n        deleteProduct(); // Custom logic to delete the product from storage\r\n    }\r\n\r\n    function deleteProduct() internal {\r\n        // Logic to mark product as deleted or reset its state\r\n        delete name;\r\n        delete priceCommitment; // Updated\r\n        delete owner;\r\n        delete purchased;\r\n        delete buyer;\r\n        delete transporter;\r\n        delete deliveryFee;\r\n        // delete securityDepositAmount; // REMOVE this\r\n        delete purchaseTimestamp;\r\n        delete transporterCount;\r\n        // Further deletion logic as required\r\n    }\r\n\r\n    // Helper for audits: verify a revealed value against the commitment (does not unlock payments)\r\n    function verifyRevealedValue(uint revealedValue, bytes32 blinding) public returns (bool) {\r\n        bytes32 computed = keccak256(abi.encodePacked(revealedValue, blinding));\r\n        bool valid = (computed == priceCommitment);\r\n        emit ValueRevealed(revealedValue, priceCommitment, valid);\r\n        return valid;\r\n    }\r\n\r\n    // New: Enforce reveal in payment path\r\n    function revealAndConfirmDelivery(uint revealedValue, bytes32 blinding, string memory vcCID) public nonReentrant onlyBuyer transporterSet {\r\n        bytes32 computed = keccak256(abi.encodePacked(revealedValue, blinding));\r\n        bool valid = (computed == priceCommitment);\r\n        require(valid, \"Reveal invalid\");\r\n        _confirmDelivery(vcCID);\r\n    }\r\n\r\n    // Internal delivery logic, only callable after valid reveal\r\n    function _confirmDelivery(string memory vcCID) internal {\r\n        if (delivered) revert(\"delivered\");\r\n        if (block.timestamp > orderConfirmedTimestamp + DELIVERY_WINDOW) revert(\"timeout\");\r\n        delivered = true;\r\n        Phase oldPhase = phase;\r\n        phase = Phase.Delivered;\r\n        uint price = productPrice;\r\n        if (price == 0) revert(\"price zero\");\r\n        (bool sentSeller, ) = owner.call{value: price}(\"\");\r\n        if (!sentSeller) revert(\"seller transfer fail\");\r\n        (bool sentTransporter, ) = transporter.call{value: deliveryFee + securityDeposits[transporter]}(\"\");\r\n        if (!sentTransporter) revert(\"transporter transfer fail\");\r\n        owner = buyer;\r\n        vcCid = vcCID;\r\n        emit VcUpdated(vcCID);\r\n        emit DeliveryConfirmed(buyer, transporter, priceCommitment, vcCID);\r\n    }\r\n\r\n    // Deprecate the old confirmDelivery external function (no longer used for settlement)\r\n    // function confirmDelivery(string memory vcCID) public onlyBuyer transporterSet nonReentrant { ... }\r\n\r\n    function timeout() public nonReentrant {\r\n        if (delivered) revert Delivered();\r\n        if (block.timestamp <= orderConfirmedTimestamp + DELIVERY_WINDOW) revert Timeout();\r\n        Phase oldPhase = phase;\r\n        phase = Phase.Expired;\r\n        emit PhaseChanged(oldPhase, phase, block.timestamp); // Emit on phase change\r\n        // Calculate penalty for transporter\r\n        uint lateDays = (block.timestamp - (orderConfirmedTimestamp + DELIVERY_WINDOW)) / 1 days + 1;\r\n        if (lateDays > 10) lateDays = 10;\r\n        uint penalty = (securityDeposits[transporter] * 10 * lateDays) / 100;\r\n        if (penalty > securityDeposits[transporter]) penalty = securityDeposits[transporter];\r\n        // Refund buyer: productPrice + penalty (if any)\r\n        uint refundToBuyer = productPrice + penalty;\r\n        (bool sentBuyer, ) = buyer.call{value: refundToBuyer}(\"\");\r\n        if (!sentBuyer) revert Refund();\r\n        emit FundsTransferred(buyer, refundToBuyer);\r\n        // Forfeit penalty from transporter to buyer\r\n        if (penalty > 0) {\r\n            (bool sentPenalty, ) = buyer.call{value: penalty}(\"\");\r\n            if (!sentPenalty) revert Penalty();\r\n            emit PenaltyApplied(transporter, penalty, \"Late delivery\");\r\n        }\r\n        emit DeliveryTimeout(msg.sender, block.timestamp);\r\n    }\r\n\r\n    function sellerTimeout() public nonReentrant {\r\n        if (delivered) revert Delivered();\r\n        if (phase != Phase.Purchased) revert WrongPhase(Phase.Purchased, phase);\r\n        if (block.timestamp <= purchaseTimestamp + SELLER_WINDOW) revert Timeout();\r\n        Phase oldPhase = phase;\r\n        phase = Phase.Expired;\r\n        emit PhaseChanged(oldPhase, phase, block.timestamp); // Emit on phase change\r\n        // Refund buyer: productPrice\r\n        (bool sentBuyer, ) = buyer.call{value: productPrice}(\"\");\r\n        if (!sentBuyer) revert Refund();\r\n        emit FundsTransferred(buyer, productPrice);\r\n        emit SellerTimeout(msg.sender, block.timestamp);\r\n    }\r\n\r\n    function bidTimeout() public nonReentrant {\r\n        if (phase != Phase.OrderConfirmed) revert WrongPhase(Phase.OrderConfirmed, phase);\r\n        if (block.timestamp <= orderConfirmedTimestamp + BID_WINDOW) revert Timeout();\r\n        Phase oldPhase = phase;\r\n        phase = Phase.Expired;\r\n        emit PhaseChanged(oldPhase, phase, block.timestamp); // Emit on phase change\r\n        // Refund buyer: productPrice\r\n        (bool sentBuyer, ) = buyer.call{value: productPrice}(\"\");\r\n        if (!sentBuyer) revert Refund();\r\n        emit FundsTransferred(buyer, productPrice);\r\n        // Optionally emit a BidTimeout event if desired\r\n    }\r\n\r\n    function withdrawBid() public nonReentrant {\r\n        // Only allow withdrawal before transporter is set and in OrderConfirmed phase\r\n        if (phase != Phase.OrderConfirmed) revert WrongPhase(Phase.OrderConfirmed, phase);\r\n        if (transporter == msg.sender) revert NotTransporter(); // Can't withdraw if already selected\r\n        uint fee = transporters[msg.sender].fee;\r\n        uint deposit = securityDeposits[msg.sender];\r\n        if (fee == 0 && deposit == 0) revert NotRegistered(); // Not an active bid\r\n        // Remove transporter from mapping\r\n        transporters[msg.sender].fee = 0;\r\n        securityDeposits[msg.sender] = 0;\r\n        isTransporter[msg.sender] = false;\r\n        transporterCount--;\r\n        uint refundAmount = deposit;\r\n        if (refundAmount > 0) {\r\n            (bool sent, ) = payable(msg.sender).call{value: refundAmount}(\"\");\r\n            if (!sent) revert Refund();\r\n            emit FundsTransferred(msg.sender, refundAmount);\r\n        }\r\n        emit BidWithdrawn(msg.sender, refundAmount);\r\n    }\r\n}\r\n",
  "sourcePath": "C:\\Users\\yamen\\ev-battery-supplychain\\contracts\\ProductEscrow.sol",
  "compiler": {
    "name": "solc",
    "version": "0.8.21+commit.d9974bed.Emscripten.clang"
  },
  "schemaVersion": "3.4.16",
  "updatedAt": "2025-07-23T02:01:14.267Z",
  "devdoc": {
    "errors": {
      "ReentrancyGuardReentrantCall()": [
        {
          "details": "Unauthorized reentrant call."
        }
      ]
    },
    "kind": "dev",
    "methods": {},
    "version": 1
  },
  "userdoc": {
    "kind": "user",
    "methods": {},
    "version": 1
  }
}