{
  "contractName": "ProductEscrow_Initializer",
  "abi": [
    {
      "inputs": [],
      "name": "AlreadyDelivered",
      "type": "error"
    },
    {
      "inputs": [],
      "name": "AlreadyExists",
      "type": "error"
    },
    {
      "inputs": [],
      "name": "AlreadyInitialized",
      "type": "error"
    },
    {
      "inputs": [],
      "name": "AlreadyPaid",
      "type": "error"
    },
    {
      "inputs": [],
      "name": "AlreadyPurchased",
      "type": "error"
    },
    {
      "inputs": [],
      "name": "AlreadySelected",
      "type": "error"
    },
    {
      "inputs": [],
      "name": "BidCapReached",
      "type": "error"
    },
    {
      "inputs": [],
      "name": "BiddingWindowNotExpired",
      "type": "error"
    },
    {
      "inputs": [],
      "name": "DeliveryWindowExpired",
      "type": "error"
    },
    {
      "inputs": [],
      "name": "EmptyName",
      "type": "error"
    },
    {
      "inputs": [],
      "name": "HashMismatch",
      "type": "error"
    },
    {
      "inputs": [],
      "name": "IncorrectDeliveryFee",
      "type": "error"
    },
    {
      "inputs": [],
      "name": "IncorrectFee",
      "type": "error"
    },
    {
      "inputs": [],
      "name": "InsufficientBond",
      "type": "error"
    },
    {
      "inputs": [],
      "name": "InvalidOwnerAddress",
      "type": "error"
    },
    {
      "inputs": [],
      "name": "InvalidProductId",
      "type": "error"
    },
    {
      "inputs": [],
      "name": "MemoAlreadyUsed",
      "type": "error"
    },
    {
      "inputs": [],
      "name": "NotATransporter",
      "type": "error"
    },
    {
      "inputs": [],
      "name": "NotFactory",
      "type": "error"
    },
    {
      "inputs": [],
      "name": "NotParticipant",
      "type": "error"
    },
    {
      "inputs": [],
      "name": "NotPurchased",
      "type": "error"
    },
    {
      "inputs": [],
      "name": "NotRegistered",
      "type": "error"
    },
    {
      "inputs": [],
      "name": "NotSeller",
      "type": "error"
    },
    {
      "inputs": [],
      "name": "NotTransporter",
      "type": "error"
    },
    {
      "inputs": [],
      "name": "NotYetTimeout",
      "type": "error"
    },
    {
      "inputs": [],
      "name": "OwnerCannotPurchase",
      "type": "error"
    },
    {
      "inputs": [],
      "name": "PaymentAlreadyRecorded",
      "type": "error"
    },
    {
      "inputs": [],
      "name": "ReentrancyGuardReentrantCall",
      "type": "error"
    },
    {
      "inputs": [],
      "name": "RefundFailed",
      "type": "error"
    },
    {
      "inputs": [],
      "name": "SellerWindowExpired",
      "type": "error"
    },
    {
      "inputs": [],
      "name": "SellerWindowNotExpired",
      "type": "error"
    },
    {
      "inputs": [
        {
          "internalType": "address",
          "name": "to",
          "type": "address"
        },
        {
          "internalType": "uint256",
          "name": "amount",
          "type": "uint256"
        }
      ],
      "name": "TransferFailed",
      "type": "error"
    },
    {
      "inputs": [],
      "name": "WrongPhase",
      "type": "error"
    },
    {
      "inputs": [],
      "name": "WrongProductId",
      "type": "error"
    },
    {
      "inputs": [],
      "name": "ZeroMemoHash",
      "type": "error"
    },
    {
      "inputs": [],
      "name": "ZeroPriceCommitment",
      "type": "error"
    },
    {
      "inputs": [],
      "name": "ZeroTxRef",
      "type": "error"
    },
    {
      "anonymous": false,
      "inputs": [
        {
          "indexed": true,
          "internalType": "address",
          "name": "transporter",
          "type": "address"
        },
        {
          "indexed": true,
          "internalType": "uint256",
          "name": "productId",
          "type": "uint256"
        },
        {
          "indexed": false,
          "internalType": "uint256",
          "name": "timestamp",
          "type": "uint256"
        }
      ],
      "name": "BidWithdrawn",
      "type": "event"
    },
    {
      "anonymous": false,
      "inputs": [
        {
          "indexed": true,
          "internalType": "uint256",
          "name": "productId",
          "type": "uint256"
        },
        {
          "indexed": true,
          "internalType": "address",
          "name": "to",
          "type": "address"
        },
        {
          "indexed": false,
          "internalType": "uint256",
          "name": "amount",
          "type": "uint256"
        },
        {
          "indexed": false,
          "internalType": "uint256",
          "name": "timestamp",
          "type": "uint256"
        }
      ],
      "name": "BondReturned",
      "type": "event"
    },
    {
      "anonymous": false,
      "inputs": [
        {
          "indexed": true,
          "internalType": "uint256",
          "name": "productId",
          "type": "uint256"
        },
        {
          "indexed": true,
          "internalType": "address",
          "name": "from",
          "type": "address"
        },
        {
          "indexed": true,
          "internalType": "address",
          "name": "to",
          "type": "address"
        },
        {
          "indexed": false,
          "internalType": "uint256",
          "name": "amount",
          "type": "uint256"
        },
        {
          "indexed": false,
          "internalType": "string",
          "name": "reason",
          "type": "string"
        },
        {
          "indexed": false,
          "internalType": "uint256",
          "name": "timestamp",
          "type": "uint256"
        }
      ],
      "name": "BondSlashed",
      "type": "event"
    },
    {
      "anonymous": false,
      "inputs": [
        {
          "indexed": true,
          "internalType": "uint256",
          "name": "productId",
          "type": "uint256"
        },
        {
          "indexed": true,
          "internalType": "address",
          "name": "buyer",
          "type": "address"
        },
        {
          "indexed": false,
          "internalType": "uint256",
          "name": "timestamp",
          "type": "uint256"
        }
      ],
      "name": "BuyerDesignated",
      "type": "event"
    },
    {
      "anonymous": false,
      "inputs": [
        {
          "indexed": true,
          "internalType": "address",
          "name": "buyer",
          "type": "address"
        },
        {
          "indexed": true,
          "internalType": "address",
          "name": "transporter",
          "type": "address"
        },
        {
          "indexed": true,
          "internalType": "address",
          "name": "seller",
          "type": "address"
        },
        {
          "indexed": false,
          "internalType": "uint256",
          "name": "productId",
          "type": "uint256"
        },
        {
          "indexed": false,
          "internalType": "bytes32",
          "name": "priceCommitment",
          "type": "bytes32"
        },
        {
          "indexed": false,
          "internalType": "uint256",
          "name": "timestamp",
          "type": "uint256"
        }
      ],
      "name": "DeliveryConfirmed",
      "type": "event"
    },
    {
      "anonymous": false,
      "inputs": [
        {
          "indexed": true,
          "internalType": "address",
          "name": "caller",
          "type": "address"
        },
        {
          "indexed": true,
          "internalType": "uint256",
          "name": "productId",
          "type": "uint256"
        },
        {
          "indexed": false,
          "internalType": "uint256",
          "name": "time",
          "type": "uint256"
        },
        {
          "indexed": false,
          "internalType": "uint256",
          "name": "timestamp",
          "type": "uint256"
        }
      ],
      "name": "DeliveryTimeoutEvent",
      "type": "event"
    },
    {
      "anonymous": false,
      "inputs": [
        {
          "indexed": true,
          "internalType": "address",
          "name": "to",
          "type": "address"
        },
        {
          "indexed": true,
          "internalType": "uint256",
          "name": "productId",
          "type": "uint256"
        },
        {
          "indexed": false,
          "internalType": "uint256",
          "name": "timestamp",
          "type": "uint256"
        }
      ],
      "name": "FundsTransferred",
      "type": "event"
    },
    {
      "anonymous": false,
      "inputs": [
        {
          "indexed": true,
          "internalType": "address",
          "name": "buyer",
          "type": "address"
        },
        {
          "indexed": true,
          "internalType": "address",
          "name": "seller",
          "type": "address"
        },
        {
          "indexed": true,
          "internalType": "uint256",
          "name": "productId",
          "type": "uint256"
        },
        {
          "indexed": false,
          "internalType": "bytes32",
          "name": "priceCommitment",
          "type": "bytes32"
        },
        {
          "indexed": false,
          "internalType": "string",
          "name": "vcCID",
          "type": "string"
        },
        {
          "indexed": false,
          "internalType": "uint256",
          "name": "timestamp",
          "type": "uint256"
        }
      ],
      "name": "OrderConfirmed",
      "type": "event"
    },
    {
      "anonymous": false,
      "inputs": [
        {
          "indexed": true,
          "internalType": "uint256",
          "name": "productId",
          "type": "uint256"
        },
        {
          "indexed": false,
          "internalType": "bytes32",
          "name": "memoHash",
          "type": "bytes32"
        },
        {
          "indexed": false,
          "internalType": "bytes32",
          "name": "railgunTxRef",
          "type": "bytes32"
        },
        {
          "indexed": false,
          "internalType": "uint256",
          "name": "timestamp",
          "type": "uint256"
        }
      ],
      "name": "PaidPrivately",
      "type": "event"
    },
    {
      "anonymous": false,
      "inputs": [
        {
          "indexed": true,
          "internalType": "address",
          "name": "to",
          "type": "address"
        },
        {
          "indexed": true,
          "internalType": "uint256",
          "name": "productId",
          "type": "uint256"
        },
        {
          "indexed": false,
          "internalType": "string",
          "name": "reason",
          "type": "string"
        },
        {
          "indexed": false,
          "internalType": "uint256",
          "name": "timestamp",
          "type": "uint256"
        }
      ],
      "name": "PenaltyApplied",
      "type": "event"
    },
    {
      "anonymous": false,
      "inputs": [
        {
          "indexed": true,
          "internalType": "uint256",
          "name": "productId",
          "type": "uint256"
        },
        {
          "indexed": true,
          "internalType": "enum ProductEscrow_Initializer.Phase",
          "name": "from",
          "type": "uint8"
        },
        {
          "indexed": true,
          "internalType": "enum ProductEscrow_Initializer.Phase",
          "name": "to",
          "type": "uint8"
        },
        {
          "indexed": false,
          "internalType": "address",
          "name": "actor",
          "type": "address"
        },
        {
          "indexed": false,
          "internalType": "uint256",
          "name": "timestamp",
          "type": "uint256"
        },
        {
          "indexed": false,
          "internalType": "bytes32",
          "name": "ref",
          "type": "bytes32"
        }
      ],
      "name": "PhaseChanged",
      "type": "event"
    },
    {
      "anonymous": false,
      "inputs": [
        {
          "indexed": true,
          "internalType": "uint256",
          "name": "productId",
          "type": "uint256"
        },
        {
          "indexed": false,
          "internalType": "bytes32",
          "name": "memoHash",
          "type": "bytes32"
        },
        {
          "indexed": false,
          "internalType": "bytes32",
          "name": "railgunTxRef",
          "type": "bytes32"
        },
        {
          "indexed": true,
          "internalType": "address",
          "name": "recorder",
          "type": "address"
        },
        {
          "indexed": false,
          "internalType": "uint256",
          "name": "timestamp",
          "type": "uint256"
        }
      ],
      "name": "PrivatePaymentRecorded",
      "type": "event"
    },
    {
      "anonymous": false,
      "inputs": [
        {
          "indexed": true,
          "internalType": "uint256",
          "name": "productId",
          "type": "uint256"
        },
        {
          "indexed": true,
          "internalType": "address",
          "name": "seller",
          "type": "address"
        },
        {
          "indexed": true,
          "internalType": "address",
          "name": "buyer",
          "type": "address"
        },
        {
          "indexed": false,
          "internalType": "enum ProductEscrow_Initializer.Phase",
          "name": "phase",
          "type": "uint8"
        },
        {
          "indexed": false,
          "internalType": "uint256",
          "name": "timestamp",
          "type": "uint256"
        },
        {
          "indexed": false,
          "internalType": "bytes32",
          "name": "priceCommitment",
          "type": "bytes32"
        },
        {
          "indexed": false,
          "internalType": "bool",
          "name": "purchased",
          "type": "bool"
        },
        {
          "indexed": false,
          "internalType": "bool",
          "name": "delivered",
          "type": "bool"
        }
      ],
      "name": "ProductStateChanged",
      "type": "event"
    },
    {
      "anonymous": false,
      "inputs": [
        {
          "indexed": true,
          "internalType": "address",
          "name": "buyer",
          "type": "address"
        },
        {
          "indexed": false,
          "internalType": "bytes32",
          "name": "memoHash",
          "type": "bytes32"
        },
        {
          "indexed": false,
          "internalType": "bytes32",
          "name": "railgunTxRef",
          "type": "bytes32"
        }
      ],
      "name": "PurchasedPrivate",
      "type": "event"
    },
    {
      "anonymous": false,
      "inputs": [
        {
          "indexed": true,
          "internalType": "uint256",
          "name": "productId",
          "type": "uint256"
        },
        {
          "indexed": true,
          "internalType": "address",
          "name": "seller",
          "type": "address"
        },
        {
          "indexed": false,
          "internalType": "uint256",
          "name": "amount",
          "type": "uint256"
        },
        {
          "indexed": false,
          "internalType": "uint256",
          "name": "timestamp",
          "type": "uint256"
        }
      ],
      "name": "SellerBondDeposited",
      "type": "event"
    },
    {
      "anonymous": false,
      "inputs": [
        {
          "indexed": true,
          "internalType": "address",
          "name": "caller",
          "type": "address"
        },
        {
          "indexed": true,
          "internalType": "uint256",
          "name": "productId",
          "type": "uint256"
        },
        {
          "indexed": false,
          "internalType": "uint256",
          "name": "time",
          "type": "uint256"
        },
        {
          "indexed": false,
          "internalType": "uint256",
          "name": "timestamp",
          "type": "uint256"
        }
      ],
      "name": "SellerTimeoutEvent",
      "type": "event"
    },
    {
      "anonymous": false,
      "inputs": [
        {
          "indexed": true,
          "internalType": "uint256",
          "name": "productId",
          "type": "uint256"
        },
        {
          "indexed": true,
          "internalType": "address",
          "name": "transporter",
          "type": "address"
        },
        {
          "indexed": false,
          "internalType": "uint256",
          "name": "amount",
          "type": "uint256"
        },
        {
          "indexed": false,
          "internalType": "uint256",
          "name": "timestamp",
          "type": "uint256"
        }
      ],
      "name": "TransporterBondDeposited",
      "type": "event"
    },
    {
      "anonymous": false,
      "inputs": [
        {
          "indexed": true,
          "internalType": "address",
          "name": "transporter",
          "type": "address"
        },
        {
          "indexed": true,
          "internalType": "uint256",
          "name": "productId",
          "type": "uint256"
        },
        {
          "indexed": false,
          "internalType": "uint256",
          "name": "timestamp",
          "type": "uint256"
        }
      ],
      "name": "TransporterCreated",
      "type": "event"
    },
    {
      "anonymous": false,
      "inputs": [
        {
          "indexed": true,
          "internalType": "uint256",
          "name": "productId",
          "type": "uint256"
        },
        {
          "indexed": true,
          "internalType": "address",
          "name": "transporter",
          "type": "address"
        },
        {
          "indexed": false,
          "internalType": "uint256",
          "name": "timestamp",
          "type": "uint256"
        }
      ],
      "name": "TransporterSelected",
      "type": "event"
    },
    {
      "anonymous": false,
      "inputs": [
        {
          "indexed": true,
          "internalType": "uint256",
          "name": "productId",
          "type": "uint256"
        },
        {
          "indexed": false,
          "internalType": "bytes32",
          "name": "vcHash",
          "type": "bytes32"
        },
        {
          "indexed": false,
          "internalType": "string",
          "name": "vcCID",
          "type": "string"
        },
        {
          "indexed": false,
          "internalType": "uint256",
          "name": "timestamp",
          "type": "uint256"
        }
      ],
      "name": "VcHashStored",
      "type": "event"
    },
    {
      "stateMutability": "payable",
      "type": "fallback",
      "payable": true
    },
    {
      "inputs": [],
      "name": "BID_WINDOW",
      "outputs": [
        {
          "internalType": "uint32",
          "name": "",
          "type": "uint32"
        }
      ],
      "stateMutability": "view",
      "type": "function",
      "constant": true
    },
    {
      "inputs": [],
      "name": "DELIVERY_WINDOW",
      "outputs": [
        {
          "internalType": "uint32",
          "name": "",
          "type": "uint32"
        }
      ],
      "stateMutability": "view",
      "type": "function",
      "constant": true
    },
    {
      "inputs": [],
      "name": "MAX_BIDS",
      "outputs": [
        {
          "internalType": "uint8",
          "name": "",
          "type": "uint8"
        }
      ],
      "stateMutability": "view",
      "type": "function",
      "constant": true
    },
    {
      "inputs": [],
      "name": "SELLER_WINDOW",
      "outputs": [
        {
          "internalType": "uint32",
          "name": "",
          "type": "uint32"
        }
      ],
      "stateMutability": "view",
      "type": "function",
      "constant": true
    },
    {
      "inputs": [],
      "name": "bondAmount",
      "outputs": [
        {
          "internalType": "uint256",
          "name": "",
          "type": "uint256"
        }
      ],
      "stateMutability": "view",
      "type": "function",
      "constant": true
    },
    {
      "inputs": [],
      "name": "boundTimestamp",
      "outputs": [
        {
          "internalType": "uint64",
          "name": "",
          "type": "uint64"
        }
      ],
      "stateMutability": "view",
      "type": "function",
      "constant": true
    },
    {
      "inputs": [],
      "name": "buyer",
      "outputs": [
        {
          "internalType": "address payable",
          "name": "",
          "type": "address"
        }
      ],
      "stateMutability": "view",
      "type": "function",
      "constant": true
    },
    {
      "inputs": [],
      "name": "delivered",
      "outputs": [
        {
          "internalType": "bool",
          "name": "",
          "type": "bool"
        }
      ],
      "stateMutability": "view",
      "type": "function",
      "constant": true
    },
    {
      "inputs": [],
      "name": "deliveryFee",
      "outputs": [
        {
          "internalType": "uint256",
          "name": "",
          "type": "uint256"
        }
      ],
      "stateMutability": "view",
      "type": "function",
      "constant": true
    },
    {
      "inputs": [],
      "name": "factory",
      "outputs": [
        {
          "internalType": "address",
          "name": "",
          "type": "address"
        }
      ],
      "stateMutability": "view",
      "type": "function",
      "constant": true
    },
    {
      "inputs": [],
      "name": "id",
      "outputs": [
        {
          "internalType": "uint256",
          "name": "",
          "type": "uint256"
        }
      ],
      "stateMutability": "view",
      "type": "function",
      "constant": true
    },
    {
      "inputs": [
        {
          "internalType": "address",
          "name": "",
          "type": "address"
        }
      ],
      "name": "isTransporter",
      "outputs": [
        {
          "internalType": "bool",
          "name": "",
          "type": "bool"
        }
      ],
      "stateMutability": "view",
      "type": "function",
      "constant": true
    },
    {
      "inputs": [],
      "name": "name",
      "outputs": [
        {
          "internalType": "string",
          "name": "",
          "type": "string"
        }
      ],
      "stateMutability": "view",
      "type": "function",
      "constant": true
    },
    {
      "inputs": [],
      "name": "orderConfirmedTimestamp",
      "outputs": [
        {
          "internalType": "uint64",
          "name": "",
          "type": "uint64"
        }
      ],
      "stateMutability": "view",
      "type": "function",
      "constant": true
    },
    {
      "inputs": [],
      "name": "owner",
      "outputs": [
        {
          "internalType": "address payable",
          "name": "",
          "type": "address"
        }
      ],
      "stateMutability": "view",
      "type": "function",
      "constant": true
    },
    {
      "inputs": [],
      "name": "phase",
      "outputs": [
        {
          "internalType": "enum ProductEscrow_Initializer.Phase",
          "name": "",
          "type": "uint8"
        }
      ],
      "stateMutability": "view",
      "type": "function",
      "constant": true
    },
    {
      "inputs": [],
      "name": "priceCommitment",
      "outputs": [
        {
          "internalType": "bytes32",
          "name": "",
          "type": "bytes32"
        }
      ],
      "stateMutability": "view",
      "type": "function",
      "constant": true
    },
    {
      "inputs": [
        {
          "internalType": "bytes32",
          "name": "",
          "type": "bytes32"
        }
      ],
      "name": "privatePayments",
      "outputs": [
        {
          "internalType": "bool",
          "name": "",
          "type": "bool"
        }
      ],
      "stateMutability": "view",
      "type": "function",
      "constant": true
    },
    {
      "inputs": [
        {
          "internalType": "uint256",
          "name": "",
          "type": "uint256"
        }
      ],
      "name": "productMemoHashes",
      "outputs": [
        {
          "internalType": "bytes32",
          "name": "",
          "type": "bytes32"
        }
      ],
      "stateMutability": "view",
      "type": "function",
      "constant": true
    },
    {
      "inputs": [
        {
          "internalType": "uint256",
          "name": "",
          "type": "uint256"
        }
      ],
      "name": "productPaidBy",
      "outputs": [
        {
          "internalType": "address",
          "name": "",
          "type": "address"
        }
      ],
      "stateMutability": "view",
      "type": "function",
      "constant": true
    },
    {
      "inputs": [
        {
          "internalType": "uint256",
          "name": "",
          "type": "uint256"
        }
      ],
      "name": "productRailgunTxRefs",
      "outputs": [
        {
          "internalType": "bytes32",
          "name": "",
          "type": "bytes32"
        }
      ],
      "stateMutability": "view",
      "type": "function",
      "constant": true
    },
    {
      "inputs": [],
      "name": "purchaseTimestamp",
      "outputs": [
        {
          "internalType": "uint64",
          "name": "",
          "type": "uint64"
        }
      ],
      "stateMutability": "view",
      "type": "function",
      "constant": true
    },
    {
      "inputs": [],
      "name": "purchased",
      "outputs": [
        {
          "internalType": "bool",
          "name": "",
          "type": "bool"
        }
      ],
      "stateMutability": "view",
      "type": "function",
      "constant": true
    },
    {
      "inputs": [
        {
          "internalType": "address",
          "name": "",
          "type": "address"
        }
      ],
      "name": "securityDeposits",
      "outputs": [
        {
          "internalType": "uint256",
          "name": "",
          "type": "uint256"
        }
      ],
      "stateMutability": "view",
      "type": "function",
      "constant": true
    },
    {
      "inputs": [],
      "name": "sellerBond",
      "outputs": [
        {
          "internalType": "uint256",
          "name": "",
          "type": "uint256"
        }
      ],
      "stateMutability": "view",
      "type": "function",
      "constant": true
    },
    {
      "inputs": [],
      "name": "transporter",
      "outputs": [
        {
          "internalType": "address payable",
          "name": "",
          "type": "address"
        }
      ],
      "stateMutability": "view",
      "type": "function",
      "constant": true
    },
    {
      "inputs": [
        {
          "internalType": "uint256",
          "name": "",
          "type": "uint256"
        }
      ],
      "name": "transporterAddresses",
      "outputs": [
        {
          "internalType": "address",
          "name": "",
          "type": "address"
        }
      ],
      "stateMutability": "view",
      "type": "function",
      "constant": true
    },
    {
      "inputs": [],
      "name": "transporterCount",
      "outputs": [
        {
          "internalType": "uint32",
          "name": "",
          "type": "uint32"
        }
      ],
      "stateMutability": "view",
      "type": "function",
      "constant": true
    },
    {
      "inputs": [
        {
          "internalType": "address",
          "name": "",
          "type": "address"
        }
      ],
      "name": "transporters",
      "outputs": [
        {
          "internalType": "uint256",
          "name": "",
          "type": "uint256"
        }
      ],
      "stateMutability": "view",
      "type": "function",
      "constant": true
    },
    {
      "inputs": [
        {
          "internalType": "bytes32",
          "name": "",
          "type": "bytes32"
        }
      ],
      "name": "usedMemoHash",
      "outputs": [
        {
          "internalType": "bool",
          "name": "",
          "type": "bool"
        }
      ],
      "stateMutability": "view",
      "type": "function",
      "constant": true
    },
    {
      "inputs": [],
      "name": "vcHash",
      "outputs": [
        {
          "internalType": "bytes32",
          "name": "",
          "type": "bytes32"
        }
      ],
      "stateMutability": "view",
      "type": "function",
      "constant": true
    },
    {
      "stateMutability": "payable",
      "type": "receive",
      "payable": true
    },
    {
      "inputs": [
        {
          "internalType": "uint256",
          "name": "_id",
          "type": "uint256"
        },
        {
          "internalType": "string",
          "name": "_name",
          "type": "string"
        },
        {
          "internalType": "bytes32",
          "name": "_priceCommitment",
          "type": "bytes32"
        },
        {
          "internalType": "address",
          "name": "_owner",
          "type": "address"
        },
        {
          "internalType": "uint256",
          "name": "_bondAmount",
          "type": "uint256"
        },
        {
          "internalType": "address",
          "name": "_factory",
          "type": "address"
        }
      ],
      "name": "initialize",
      "outputs": [],
      "stateMutability": "payable",
      "type": "function",
      "payable": true
    },
    {
      "inputs": [
        {
          "internalType": "address payable",
          "name": "_buyer",
          "type": "address"
        }
      ],
      "name": "designateBuyer",
      "outputs": [],
      "stateMutability": "nonpayable",
      "type": "function"
    },
    {
      "inputs": [
        {
          "internalType": "uint256",
          "name": "_productId",
          "type": "uint256"
        },
        {
          "internalType": "bytes32",
          "name": "_memoHash",
          "type": "bytes32"
        },
        {
          "internalType": "bytes32",
          "name": "_railgunTxRef",
          "type": "bytes32"
        }
      ],
      "name": "recordPrivatePayment",
      "outputs": [],
      "stateMutability": "nonpayable",
      "type": "function"
    },
    {
      "inputs": [
        {
          "internalType": "string",
          "name": "vcCID",
          "type": "string"
        }
      ],
      "name": "confirmOrder",
      "outputs": [],
      "stateMutability": "nonpayable",
      "type": "function"
    },
    {
      "inputs": [
        {
          "internalType": "uint256",
          "name": "_feeInWei",
          "type": "uint256"
        }
      ],
      "name": "createTransporter",
      "outputs": [],
      "stateMutability": "payable",
      "type": "function",
      "payable": true
    },
    {
      "inputs": [
        {
          "internalType": "address payable",
          "name": "_transporter",
          "type": "address"
        }
      ],
      "name": "setTransporter",
      "outputs": [],
      "stateMutability": "payable",
      "type": "function",
      "payable": true
    },
    {
      "inputs": [
        {
          "internalType": "bytes32",
          "name": "hash",
          "type": "bytes32"
        }
      ],
      "name": "confirmDelivery",
      "outputs": [],
      "stateMutability": "nonpayable",
      "type": "function"
    },
    {
      "inputs": [],
      "name": "sellerTimeout",
      "outputs": [],
      "stateMutability": "nonpayable",
      "type": "function"
    },
    {
      "inputs": [],
      "name": "bidTimeout",
      "outputs": [],
      "stateMutability": "nonpayable",
      "type": "function"
    },
    {
      "inputs": [],
      "name": "deliveryTimeout",
      "outputs": [],
      "stateMutability": "nonpayable",
      "type": "function"
    },
    {
      "inputs": [],
      "name": "withdrawBid",
      "outputs": [],
      "stateMutability": "nonpayable",
      "type": "function"
    },
    {
      "inputs": [],
      "name": "getVcHash",
      "outputs": [
        {
          "internalType": "bytes32",
          "name": "",
          "type": "bytes32"
        }
      ],
      "stateMutability": "view",
      "type": "function",
      "constant": true
    },
    {
      "inputs": [],
      "name": "getAllTransporters",
      "outputs": [
        {
          "internalType": "address[]",
          "name": "",
          "type": "address[]"
        },
        {
          "internalType": "uint256[]",
          "name": "",
          "type": "uint256[]"
        }
      ],
      "stateMutability": "view",
      "type": "function",
      "constant": true
    },
    {
      "inputs": [
        {
          "internalType": "uint256",
          "name": "value",
          "type": "uint256"
        },
        {
          "internalType": "bytes32",
          "name": "salt",
          "type": "bytes32"
        }
      ],
      "name": "computeCommitment",
      "outputs": [
        {
          "internalType": "bytes32",
          "name": "",
          "type": "bytes32"
        }
      ],
      "stateMutability": "pure",
      "type": "function",
      "constant": true
    },
    {
      "inputs": [],
      "name": "isStopped",
      "outputs": [
        {
          "internalType": "bool",
          "name": "",
          "type": "bool"
        }
      ],
      "stateMutability": "view",
      "type": "function",
      "constant": true
    },
    {
      "inputs": [],
      "name": "pauseByFactory",
      "outputs": [],
      "stateMutability": "nonpayable",
      "type": "function"
    }
  ],
  "bytecode": "0x608060405234801561000f575f80fd5b5060015f55612fa7806100215f395ff3fe60806040526004361061028b575f3560e01c8063a303520011610159578063d5d5f8e1116100c0578063e25bd15811610079578063e25bd15814610821578063e42b02121461084c578063e7067c4914610331578063e995478e14610331578063f3cc0f1f1461086b578063fa949a0114610880576102b1565b8063d5d5f8e114610798578063d765d3c6146107be578063d82a5cc6146107d3578063d8f133f9146107e6578063dc2a7e5f146107f9578063dc9c50351461080d576102b1565b8063c226366b11610112578063c226366b146106bb578063c2e48fb0146106ef578063c45a01551461070e578063c9352b7e14610732578063ccc988691461075d578063d1259ee114610772576102b1565b8063a3035200146105eb578063af640d0f14610600578063b1c9fe6e14610615578063b66c5fca14610642578063bbdfbfba1461066d578063bc1e96cb1461068d576102b1565b80634e9e9168116101fd5780637dea6474116101b65780637dea64741461054557806380f323a714610570578063879f9c96146105855780638da5cb5b146105a557806394090d0b146105c45780639c8dadae146105d8576102b1565b80634e9e91681461047b5780635920172a1461048f57806362780627146104ae5780637150d8ae146104cd57806374950ffd1461050457806377db571914610523576102b1565b80632b8109d51161024f5780632b8109d5146103bd5780633584891b146103eb57806337271cc7146104095780633ace041a1461041f5780633e73ec1d1461043e5780633f683b6a1461045d576102b1565b806306fdde03146102c9578063093f3ccb146102f357806322c3b9f31461033157806325d3d0e31461035c57806329dac7c61461039a576102b1565b366102b15760405162461bcd60e51b81526004016102a890612948565b60405180910390fd5b60405162461bcd60e51b81526004016102a890612948565b3480156102d4575f80fd5b506102dd61089f565b6040516102ea9190612994565b60405180910390f35b3480156102fe575f80fd5b5061032161030d3660046129df565b60146020525f908152604090205460ff1681565b60405190151581526020016102ea565b34801561033c575f80fd5b506103476202a30081565b60405163ffffffff90911681526020016102ea565b348015610367575f80fd5b5060065461038290600160a81b90046001600160401b031681565b6040516001600160401b0390911681526020016102ea565b3480156103a5575f80fd5b5060075461034790600160901b900463ffffffff1681565b3480156103c8575f80fd5b506103216103d7366004612a1a565b600e6020525f908152604090205460ff1681565b3480156103f6575f80fd5b50600b545b6040519081526020016102ea565b348015610414575f80fd5b5061041d61092b565b005b34801561042a575f80fd5b5061041d610439366004612a3c565b610b45565b348015610449575f80fd5b5061041d610458366004612aa7565b610d73565b348015610468575f80fd5b50601054600160a81b900460ff16610321565b348015610486575f80fd5b5061041d61115b565b34801561049a575f80fd5b506103fb6104a9366004612ad0565b6111a0565b3480156104b9575f80fd5b50600754610382906001600160401b031681565b3480156104d8575f80fd5b506005546104ec906001600160a01b031681565b6040516001600160a01b0390911681526020016102ea565b34801561050f575f80fd5b5061041d61051e3660046129df565b6111cf565b34801561052e575f80fd5b50610537611671565b6040516102ea929190612af0565b348015610550575f80fd5b506103fb61055f366004612a1a565b600c6020525f908152604090205481565b34801561057b575f80fd5b506103fb600a5481565b348015610590575f80fd5b5060075461032190600160801b900460ff1681565b3480156105b0575f80fd5b506004546104ec906001600160a01b031681565b3480156105cf575f80fd5b5061041d6117d9565b61041d6105e6366004612a1a565b6119e4565b3480156105f6575f80fd5b506103fb60095481565b34801561060b575f80fd5b506103fb60015481565b348015610620575f80fd5b5060065461063590600160a01b900460ff1681565b6040516102ea9190612ba6565b34801561064d575f80fd5b506103fb61065c3660046129df565b60136020525f908152604090205481565b348015610678575f80fd5b5060075461032190600160881b900460ff1681565b348015610698575f80fd5b506103216106a73660046129df565b60116020525f908152604090205460ff1681565b3480156106c6575f80fd5b506104ec6106d53660046129df565b60156020525f90815260409020546001600160a01b031681565b3480156106fa575f80fd5b5061041d610709366004612a1a565b611c43565b348015610719575f80fd5b506010546104ec9061010090046001600160a01b031681565b34801561073d575f80fd5b506103fb61074c3660046129df565b60126020525f908152604090205481565b348015610768575f80fd5b506103fb600b5481565b34801561077d575f80fd5b5060075461038290600160401b90046001600160401b031681565b3480156107a3575f80fd5b506107ac601481565b60405160ff90911681526020016102ea565b3480156107c9575f80fd5b506103fb60035481565b61041d6107e1366004612bc8565b611e03565b61041d6107f43660046129df565b612055565b348015610804575f80fd5b5061041d61227c565b348015610818575f80fd5b5061041d612509565b34801561082c575f80fd5b506103fb61083b366004612a1a565b600d6020525f908152604090205481565b348015610857575f80fd5b506006546104ec906001600160a01b031681565b348015610876575f80fd5b506103fb60085481565b34801561088b575f80fd5b506104ec61089a3660046129df565b6128f8565b600280546108ac90612cad565b80601f01602080910402602001604051908101604052809291908181526020018280546108d890612cad565b80156109235780601f106108fa57610100808354040283529160200191610923565b820191905f5260205f20905b81548152906001019060200180831161090657829003601f168201915b505050505081565b610933612920565b6002600654600160a01b900460ff16600581111561095357610953612b72565b1415801561097f57506005600654600160a01b900460ff16600581111561097c5761097c612b72565b14155b1561099d576040516338961af360e21b815260040160405180910390fd5b600654336001600160a01b03909116036109ca57604051636541c70760e01b815260040160405180910390fd5b335f908152600d6020908152604080832054600c90925290912054811580156109f1575080155b15610a0f5760405163aba4733960e01b815260040160405180910390fd5b335f908152600d60209081526040808320839055600c8252808320839055600e9091529020805460ff19169055600780545f1963ffffffff600160901b808404821692909201160263ffffffff60901b199091161790558015610aff576040515f90339083908381818185875af1925050503d805f8114610aab576040519150601f19603f3d011682016040523d82523d5f602084013e610ab0565b606091505b5050905080610ad257604051633c31275160e21b815260040160405180910390fd5b600154604080518481524260208201523392915f80516020612f32833981519152910160405180910390a3505b60015460405142815233907f0a3d3ac11cf502aaab4363b2a94047d52b45ee3c72068ff8f036cea2c899dae7906020015b60405180910390a35050610b4360015f55565b565b6004546001600160a01b03163314610b7057604051635ec8235160e01b815260040160405180910390fd5b610b78612920565b601054600160a81b900460ff1615610ba25760405162461bcd60e51b81526004016102a890612ce5565b6001600654600160a01b900460ff166005811115610bc257610bc2612b72565b14610be0576040516338961af360e21b815260040160405180910390fd5b600754600160801b900460ff16610c0a576040516363aae7a360e01b815260040160405180910390fd5b600654610c2b906202a30090600160a81b90046001600160401b0316612d1a565b6001600160401b0316421115610c54576040516307d008cb60e31b815260040160405180910390fd5b6007805467ffffffffffffffff1916426001600160401b03161790556006805460ff60a01b1916600160a11b179055604051610c939083908390612d41565b604051908190038120600b819055600154917f4404ad12993e67093814e079937866cc7db4ee15afdc73a3651844c21e3f6d1591610cd691869086904290612d50565b60405180910390a26001546004546005546003546040516001600160a01b0393841693909216917f55449ea4bfb1a49e3773400e2c2c21c966df568341289e891d06779ea079f5f191610d2e91889088904290612d50565b60405180910390a46002600180545f80516020612f528339815191523342600b54604051610d5e93929190612d8e565b60405180910390a4610d6f60015f55565b5050565b610d7b612920565b601054600160a81b900460ff1615610da55760405162461bcd60e51b81526004016102a890612ce5565b6001548314610dc7576040516329895ce760e01b815260040160405180910390fd5b81610de5576040516307b51a9f60e01b815260040160405180910390fd5b80610e0357604051635716645360e11b815260040160405180910390fd5b5f600654600160a01b900460ff166005811115610e2257610e22612b72565b14610e4057604051630cd9ed5560e21b815260040160405180910390fd5b6004546001600160a01b03163303610e6b5760405163241b8ad160e01b815260040160405180910390fd5b6001545f9081526012602052604090205415610e9a57604051630d70a0e360e41b815260040160405180910390fd5b5f8281526014602052604090205460ff1615610ec957604051638524c8b760e01b815260040160405180910390fd5b5f8281526011602052604090205460ff1615610ef85760405163bde56c7560e01b815260040160405180910390fd5b6005546001600160a01b03161580610f1b57506005546001600160a01b03163314155b15610f395760405163721c7c6760e11b815260040160405180910390fd5b6007805460ff60801b1916600160801b179055600680546001600160401b034216600160a81b0267ffffffffffffffff60a81b199091161781555f838152601160209081526040808320805460ff199081166001908117909255601484528285208054909116821790558054845260128352818420879055805484526013835281842086905580548452601590925290912080546001600160a01b031916331790558154600160a01b80820460ff16939160ff60a01b19169083021790555060055460408051858152602081018590526001600160a01b03909216917faa3d8f202adfb9a31da35e239cd3368d44e926ce49783b25aa1ce5eefbda0ee4910160405180910390a2600654600160a01b900460ff16600581111561105e5761105e612b72565b81600581111561107057611070612b72565b6001545f80516020612f5283398151915233428860405161109393929190612d8e565b60405180910390a46005546004546001546006546003546007546040516001600160a01b039687169695909516945f80516020612f12833981519152936110fe9360ff600160a01b90920482169342939192600160801b8204811692600160881b9092041690612daf565b60405180910390a46001546040805185815260208101859052428183015290513392917f74625d9316cf25c353464f0bd06b4e08bee3457e0ff90064a4d775bf7b4ad41f919081900360600190a35061115660015f55565b505050565b60105461010090046001600160a01b0316331461118b57604051631966391b60e11b815260040160405180910390fd5b6010805460ff60a81b1916600160a81b179055565b604080516020808201859052818301849052825180830384018152606090920190925280519101205b92915050565b6006546001600160a01b031633146111fa57604051633589401f60e01b815260040160405180910390fd5b611202612920565b601054600160a81b900460ff161561122c5760405162461bcd60e51b81526004016102a890612ce5565b6003600654600160a01b900460ff16600581111561124c5761124c612b72565b1461126a576040516338961af360e21b815260040160405180910390fd5b600754600160881b900460ff16156112955760405163b9f7965360e01b815260040160405180910390fd5b600b5481146112b757604051633f4d605360e01b815260040160405180910390fd5b6007546112d8906202a30090600160401b90046001600160401b0316612d1a565b6001600160401b0316421115611301576040516351e34def60e01b815260040160405180910390fd5b6007805460ff60881b1916600160881b1790556006805460ff60a01b198116600160a21b17909155600980546001600160a01b038084165f908152600c60205260408082208054600880549785905591849055908390556004549151600160a01b90970460ff1696949590949093919091169085908381818185875af1925050503d805f81146113ac576040519150601f19603f3d011682016040523d82523d5f602084013e6113b1565b606091505b50509050806113ec5760048054604051630e21dcbb60e11b81526001600160a01b0390911691810191909152602481018590526044016102a8565b600454600154604080518781524260208201526001600160a01b03909316925f80516020612f32833981519152910160405180910390a35f61142e8385612de2565b6006546040519192505f916001600160a01b039091169083908381818185875af1925050503d805f811461147d576040519150601f19603f3d011682016040523d82523d5f602084013e611482565b606091505b50509050806114ba57600654604051630e21dcbb60e11b81526001600160a01b039091166004820152602481018390526044016102a8565b600654600154604080518881524260208201526001600160a01b03909316925f80516020612f32833981519152910160405180910390a36001546006546040514281526001600160a01b03909116907f219e38014d0e72b05ead8a8d0258ebea4be20d0c2c1de6c08974a08a6c917f6b9060200160405180910390a36004546006546005546001546003546040805192835260208301919091524282820152516001600160a01b039485169493841693909216917fb5631ee973a453af346c05bd4a512818bb574834f5d844f3aa38d47dee1bbb309181900360600190a4600654600160a01b900460ff1660058111156115b6576115b6612b72565b8760058111156115c8576115c8612b72565b6001545f80516020612f5283398151915233428d6040516115eb93929190612d8e565b60405180910390a46005546004546001546006546003546007546040516001600160a01b039687169695909516945f80516020612f12833981519152936116569360ff600160a01b90920482169342939192600160801b8204811692600160881b9092041690612daf565b60405180910390a45050505050505061166e60015f55565b50565b600f5460609081905f816001600160401b0381111561169257611692612bb4565b6040519080825280602002602001820160405280156116bb578160200160208202803683370190505b5090505f826001600160401b038111156116d7576116d7612bb4565b604051908082528060200260200182016040528015611700578160200160208202803683370190505b5090505f5b838110156117ce57600f818154811061172057611720612df5565b905f5260205f20015f9054906101000a90046001600160a01b031683828151811061174d5761174d612df5565b60200260200101906001600160a01b031690816001600160a01b031681525050600d5f600f838154811061178357611783612df5565b5f9182526020808320909101546001600160a01b0316835282019290925260400190205482518390839081106117bb576117bb612df5565b6020908102919091010152600101611705565b509094909350915050565b6117e1612920565b601054600160a81b900460ff161561180b5760405162461bcd60e51b81526004016102a890612ce5565b6002600654600160a01b900460ff16600581111561182b5761182b612b72565b14611849576040516338961af360e21b815260040160405180910390fd5b600754611863906202a300906001600160401b0316612d1a565b6001600160401b0316421161188b57604051635cb46abd60e11b815260040160405180910390fd5b6006805460ff60a01b198116600560a01b17909155600980545f909155600160a01b90910460ff1690801561197d576004546040515f916001600160a01b03169083908381818185875af1925050503d805f8114611904576040519150601f19603f3d011682016040523d82523d5f602084013e611909565b606091505b50509050806119445760048054604051630e21dcbb60e11b81526001600160a01b0390911691810191909152602481018390526044016102a8565b600454600154604080518581524260208201526001600160a01b03909316925f80516020612f32833981519152910160405180910390a3505b600654600160a01b900460ff16600581111561199b5761199b612b72565b8260058111156119ad576119ad612b72565b6001546040515f80516020612f52833981519152906119d190339042905f90612d8e565b60405180910390a45050610b4360015f55565b6004546001600160a01b03163314611a0f57604051635ec8235160e01b815260040160405180910390fd5b611a17612920565b601054600160a81b900460ff1615611a415760405162461bcd60e51b81526004016102a890612ce5565b6002600654600160a01b900460ff166005811115611a6157611a61612b72565b14611a7f576040516338961af360e21b815260040160405180910390fd5b600754611a99906202a300906001600160401b0316612d1a565b6001600160401b0316421115611ac257604051635cb46abd60e11b815260040160405180910390fd5b6001600160a01b0381165f908152600e602052604090205460ff16611afa576040516313c4b1bd60e21b815260040160405180910390fd5b6001600160a01b0381165f908152600d60205260409020543414611b31576040516305d12ebd60e11b815260040160405180910390fd5b3460085560068054600780546fffffffffffffffff00000000000000001916600160401b426001600160401b0316021790556001600160a01b0383166001600160a81b031982168117600360a01b1792839055600160a01b6001600160a01b03199092161781900460ff9081169291909104166005811115611bb557611bb5612b72565b816005811115611bc757611bc7612b72565b6001546040515f80516020612f5283398151915290611beb90339042905f90612d8e565b60405180910390a4816001600160a01b03166001547f25582717ccf09247d53d43c4b8ff09500ecb382c17ae26201bb69a21ea27932c42604051611c3191815260200190565b60405180910390a35061166e60015f55565b6004546001600160a01b03163314611c6e57604051635ec8235160e01b815260040160405180910390fd5b601054600160a81b900460ff1615611c985760405162461bcd60e51b81526004016102a890612ce5565b5f600654600160a01b900460ff166005811115611cb757611cb7612b72565b14611cd5576040516338961af360e21b815260040160405180910390fd5b6001600160a01b0381161580611cf857506004546001600160a01b038281169116145b15611d165760405163721c7c6760e11b815260040160405180910390fd5b600754600160801b900460ff1615611d4157604051630cd9ed5560e21b815260040160405180910390fd5b600580546001600160a01b0319166001600160a01b0383169081179091556001546040514281527f213fd9a252bcd1df182b3634f8da62655f397b01d4290ef59d17e9dd5071910f9060200160405180910390a36005546004546001546006546003546007546040516001600160a01b039687169695909516945f80516020612f1283398151915293611df89360ff600160a01b90920482169342939192600160801b8204811692600160881b9092041690612daf565b60405180910390a450565b60105460ff1615611e265760405162dc149f60e41b815260040160405180910390fd5b6001600160a01b038316611e4d57604051633649397d60e21b815260040160405180910390fd5b84515f03611e6e57604051632ef1310560e01b815260040160405180910390fd5b83611e8c5760405163096f80dd60e01b815260040160405180910390fd5b855f03611eac576040516315393ee960e01b815260040160405180910390fd5b336001600160a01b03821614611ed557604051631966391b60e11b815260040160405180910390fd5b813414611ef55760405163e92c469f60e01b815260040160405180910390fd5b6010805460016001600160a81b03199091166101006001600160a01b038516021781179091558690556002611f2a8682612e56565b506003849055600480546001600160a01b03199081166001600160a01b038616908117909255600a8490553460098190556007805460ff60801b19169055600580549092169091556006805460ff60a01b191690556040805191825242602083015288917fd89687f058f910160a4048471abf863b75a72b9d2dfec50e4ae90a2d4055f614910160405180910390a36005546004546006546007546040516001600160a01b0394851694909316928a925f80516020612f128339815191529261201892600160a01b90920460ff9081169242928d92600160801b8204811692600160881b9092041690612daf565b60405180910390a45f80875f80516020612f5283398151915233425f801b60405161204593929190612d8e565b60405180910390a4505050505050565b61205d612920565b601054600160a81b900460ff16156120875760405162461bcd60e51b81526004016102a890612ce5565b6002600654600160a01b900460ff1660058111156120a7576120a7612b72565b146120c5576040516338961af360e21b815260040160405180910390fd5b6007546014600160901b90910463ffffffff16106120f657604051637b43073f60e01b815260040160405180910390fd5b335f908152600e602052604090205460ff16156121265760405163119b4fd360e11b815260040160405180910390fd5b805f036121465760405163cd3cb2bb60e01b815260040160405180910390fd5b600a5434146121685760405163e92c469f60e01b815260040160405180910390fd5b335f818152600d60209081526040808320859055600e8252808320805460ff19166001908117909155600f80548083019091557f8d1108e10bcb7c27dddfc02ed9d693a074039d026cf4ea4240b40f7d581ac8020180546001600160a01b03191686179055600c8352928190203490556007805463ffffffff600160901b808304821687019091160263ffffffff60901b19909116179055915491514281529192917fd048d43f3926fd7835ae7d2c9a42f174f52e84eefe016163a85477f281e31f29910160405180910390a3600154604080513481524260208201523392917f455ef933d11647f476c6bc167c0199ba9b59b61e022a219a12ee53c3cba21e83910160405180910390a361166e60015f55565b612284612920565b601054600160a81b900460ff16156122ae5760405162461bcd60e51b81526004016102a890612ce5565b6001600654600160a01b900460ff1660058111156122ce576122ce612b72565b146122ec576040516338961af360e21b815260040160405180910390fd5b60065461230d906202a30090600160a81b90046001600160401b0316612d1a565b6001600160401b0316421161233557604051630854dadf60e31b815260040160405180910390fd5b6006805460ff60a01b198116600560a01b17909155600980545f909155600160a01b90910460ff16908015612473576005546040515f916001600160a01b03169083908381818185875af1925050503d805f81146123ae576040519150601f19603f3d011682016040523d82523d5f602084013e6123b3565b606091505b50509050806123eb57600554604051630e21dcbb60e11b81526001600160a01b039091166004820152602481018390526044016102a8565b60055460045460015460408051868152606060208201819052601e908201527f53656c6c6572206661696c656420746f20636f6e6669726d206f7264657200006080820152428183015290516001600160a01b0394851694909316927f79a3cfb54ae61a8be18c2b4382bd6574f0c36b32b331af26c61ccb3ff62882029181900360a00190a4505b600654600160a01b900460ff16600581111561249157612491612b72565b8260058111156124a3576124a3612b72565b6001546040515f80516020612f52833981519152906124c790339042905f90612d8e565b60405180910390a46001546040805142808252602082015233917fa7eb40c3a18797fef0a48ba527970c56c90a67efaf0863851c6ff9ef6494c8909101610b30565b612511612920565b601054600160a81b900460ff161561253b5760405162461bcd60e51b81526004016102a890612ce5565b6003600654600160a01b900460ff16600581111561255b5761255b612b72565b14612579576040516338961af360e21b815260040160405180910390fd5b60075461259a906202a30090600160401b90046001600160401b0316612d1a565b6001600160401b031642116125c15760405162792a1f60e41b815260040160405180910390fd5b6006805460ff60a01b198116600560a01b17909155600980546001600160a01b0383165f908152600c602052604081208054600880549584905591839055919055600160a01b90930460ff1692909182156126d9576004546040515f916001600160a01b03169085908381818185875af1925050503d805f8114612660576040519150601f19603f3d011682016040523d82523d5f602084013e612665565b606091505b50509050806126a05760048054604051630e21dcbb60e11b81526001600160a01b0390911691810191909152602481018590526044016102a8565b600454600154604080518781524260208201526001600160a01b03909316925f80516020612f32833981519152910160405180910390a3505b5f6126e48284612de2565b90508015612851576004546040515f916001600160a01b03169083908381818185875af1925050503d805f8114612736576040519150601f19603f3d011682016040523d82523d5f602084013e61273b565b606091505b50509050806127765760048054604051630e21dcbb60e11b81526001600160a01b0390911691810191909152602481018390526044016102a8565b83156128035760045460065460015460408051888152606060208201819052601d908201527f5472616e73706f72746572206661696c656420746f2064656c697665720000006080820152428183015290516001600160a01b0394851694909316927f79a3cfb54ae61a8be18c2b4382bd6574f0c36b32b331af26c61ccb3ff62882029181900360a00190a45b821561284f576001546004546040514281526001600160a01b03909116907f219e38014d0e72b05ead8a8d0258ebea4be20d0c2c1de6c08974a08a6c917f6b9060200160405180910390a35b505b600654600160a01b900460ff16600581111561286f5761286f612b72565b85600581111561288157612881612b72565b6001546040515f80516020612f52833981519152906128a590339042905f90612d8e565b60405180910390a46001546040805142808252602082015233917fffebe5f1356068669eb471975def148f6b65e9e68117515891d2c0d932ff40fd910160405180910390a35050505050610b4360015f55565b600f8181548110612907575f80fd5b5f918252602090912001546001600160a01b0316905081565b60025f540361294257604051633ee5aeb560e01b815260040160405180910390fd5b60025f55565b6020808252602c908201527f50726f64756374457363726f7720646f6573206e6f742061636365707420756e60408201526b0caf0e0cac6e8cac8408aa8960a31b606082015260800190565b5f6020808352835180828501525f5b818110156129bf578581018301518582016040015282016129a3565b505f604082860101526040601f19601f8301168501019250505092915050565b5f602082840312156129ef575f80fd5b5035919050565b6001600160a01b038116811461166e575f80fd5b8035612a15816129f6565b919050565b5f60208284031215612a2a575f80fd5b8135612a35816129f6565b9392505050565b5f8060208385031215612a4d575f80fd5b82356001600160401b0380821115612a63575f80fd5b818501915085601f830112612a76575f80fd5b813581811115612a84575f80fd5b866020828501011115612a95575f80fd5b60209290920196919550909350505050565b5f805f60608486031215612ab9575f80fd5b505081359360208301359350604090920135919050565b5f8060408385031215612ae1575f80fd5b50508035926020909101359150565b604080825283519082018190525f906020906060840190828701845b82811015612b315781516001600160a01b031684529284019290840190600101612b0c565b505050838103828501528451808252858301918301905f5b81811015612b6557835183529284019291840191600101612b49565b5090979650505050505050565b634e487b7160e01b5f52602160045260245ffd5b60068110612ba257634e487b7160e01b5f52602160045260245ffd5b9052565b602081016111c98284612b86565b634e487b7160e01b5f52604160045260245ffd5b5f805f805f8060c08789031215612bdd575f80fd5b8635955060208701356001600160401b0380821115612bfa575f80fd5b818901915089601f830112612c0d575f80fd5b813581811115612c1f57612c1f612bb4565b604051601f8201601f19908116603f01168101908382118183101715612c4757612c47612bb4565b816040528281528c6020848701011115612c5f575f80fd5b826020860160208301375f60208483010152809950505050505060408701359350612c8c60608801612a0a565b925060808701359150612ca160a08801612a0a565b90509295509295509295565b600181811c90821680612cc157607f821691505b602082108103612cdf57634e487b7160e01b5f52602260045260245ffd5b50919050565b6020808252600790820152661cdd1bdc1c195960ca1b604082015260600190565b634e487b7160e01b5f52601160045260245ffd5b6001600160401b03818116838216019080821115612d3a57612d3a612d06565b5092915050565b818382375f9101908152919050565b84815260606020820152826060820152828460808301375f608084830101525f6080601f19601f860116830101905082604083015295945050505050565b6001600160a01b039390931683526020830191909152604082015260600190565b60a08101612dbd8288612b86565b6020820195909552604081019390935290151560608301521515608090910152919050565b808201808211156111c9576111c9612d06565b634e487b7160e01b5f52603260045260245ffd5b601f821115611156575f81815260208120601f850160051c81016020861015612e2f5750805b601f850160051c820191505b81811015612e4e57828155600101612e3b565b505050505050565b81516001600160401b03811115612e6f57612e6f612bb4565b612e8381612e7d8454612cad565b84612e09565b602080601f831160018114612eb6575f8415612e9f5750858301515b5f19600386901b1c1916600185901b178555612e4e565b5f85815260208120601f198616915b82811015612ee457888601518255948401946001909101908401612ec5565b5085821015612f0157878501515f19600388901b60f8161c191681555b5050505050600190811b0190555056fe9f1c960b9d97c217a683c8a48a6395f3fc1b01823e207e535d988dc4cd0023bf5bb34c835520ae09c82a1a025a1613691339f94fe90778bc3bb1c0cc59fe46e7ee8a1379d3e8686481152030cad74b52f4db52184c8adacd896fb586930c0b25a26469706673582212207c74f9b9efb86f218734f0625c5dd47e51d8f864a1a6bfa17efc75fe3855c53564736f6c63430008150033",
  "immutableReferences": {},
  "source": "// SPDX-License-Identifier: MIT\npragma solidity ^0.8.0;\n\nimport \"@openzeppelin/contracts/utils/ReentrancyGuard.sol\";\n\n//  Role-specific errors \nerror NotBuyer();\nerror NotSeller();\nerror NotTransporter();\nerror NotFactory();\n\n//  Business logic errors \nerror InvalidPhase();\nerror InvalidProductId();\nerror InvalidOwnerAddress();\nerror EmptyName();\nerror ZeroPriceCommitment();\nerror AlreadyInitialized();\nerror AlreadyPurchased();\nerror AlreadyDelivered();\nerror AlreadyExists();\nerror AlreadyPaid();\nerror AlreadySelected();\n\n//  State validation errors \nerror WrongPhase();\nerror TransporterNotSet();\nerror BidCapReached();\nerror NotRegistered();\nerror IncorrectFee();\nerror NotATransporter();\nerror OwnerCannotPurchase();\nerror NotPurchased();\nerror SellerWindowNotExpired();\nerror SellerWindowExpired();\nerror BiddingWindowNotExpired();\nerror NotYetTimeout();\n\n//  Transfer and payment errors \nerror TransferFailed(address to, uint256 amount);\nerror RefundFailed();\nerror IncorrectDeliveryFee();\n\n//  Railgun and memo errors \nerror WrongProductId();\nerror ZeroMemoHash();\nerror ZeroTxRef();\nerror MemoAlreadyUsed();\nerror PaymentAlreadyRecorded();\nerror NotParticipant();\n\n//  Bond errors \nerror BondAlreadyDeposited();\nerror BondNotDeposited();\nerror HashMismatch();\nerror InsufficientBond();\nerror DeliveryWindowExpired();\n\ncontract ProductEscrow_Initializer is ReentrancyGuard {\n\n    // \n    //  Storage - Group 1\n    // \n    uint256 public id;\n    string public name;\n    bytes32 public priceCommitment;\n\n    // \n    //  Storage - Group 2 (addresses)\n    // \n    address payable public owner;\n    address payable public buyer;\n    address payable public transporter;\n\n    // \n    //  Storage - Group 3 (packed: enum + timestamps + booleans + counters)\n    // \n    enum Phase { Listed, Purchased, OrderConfirmed, Bound, Delivered, Expired }\n    Phase public phase;\n    uint64 public purchaseTimestamp;\n    uint64 public orderConfirmedTimestamp;\n    uint64 public boundTimestamp;\n    bool public purchased;\n    bool public delivered;\n    uint32 public transporterCount;\n\n    // \n    //  Constants\n    // \n    uint32 public constant SELLER_WINDOW = 2 days;\n    uint32 public constant BID_WINDOW = 2 days;\n    uint32 public constant DELIVERY_WINDOW = 2 days;\n    uint8 public constant MAX_BIDS = 20;\n\n    // \n    //  Storage - Separate slots (larger values)\n    // \n    uint256 public deliveryFee;\n    uint256 public sellerBond;\n    uint256 public bondAmount;\n    bytes32 public vcHash;\n\n    // \n    //  Mappings and arrays\n    // \n    mapping(address => uint256) public securityDeposits;   // Transporter bond deposits\n    mapping(address => uint256) public transporters;       // Transporter fee bids\n    mapping(address => bool) public isTransporter;\n    address[] public transporterAddresses;\n\n    // Initialization and factory\n    bool private _initialized;\n    address public factory;\n    bool private stopped;\n\n    // Railgun integration state\n    mapping(bytes32 => bool) public privatePayments;\n    mapping(uint256 => bytes32) public productMemoHashes;\n    mapping(uint256 => bytes32) public productRailgunTxRefs;\n    mapping(bytes32 => bool) public usedMemoHash;\n    mapping(uint256 => address) public productPaidBy;\n\n    // \n    //  Modifiers\n    // \n    modifier onlyBuyer() {\n        if (msg.sender != buyer) revert NotBuyer();\n        _;\n    }\n\n    modifier onlySeller() {\n        if (msg.sender != owner) revert NotSeller();\n        _;\n    }\n\n    modifier onlyTransporter() {\n        if (msg.sender != transporter) revert NotTransporter();\n        _;\n    }\n\n    modifier onlyFactory() {\n        if (msg.sender != factory && factory != address(0)) revert NotFactory();\n        _;\n    }\n\n    modifier transporterSet() {\n        if (transporter == address(0)) revert TransporterNotSet();\n        _;\n    }\n\n    modifier whenNotStopped() {\n        require(!stopped, \"stopped\");\n        _;\n    }\n\n    // \n    //  Events\n    // \n    event OrderConfirmed(address indexed buyer, address indexed seller, uint256 indexed productId, bytes32 priceCommitment, string vcCID, uint256 timestamp);\n    event DeliveryConfirmed(address indexed buyer, address indexed transporter, address indexed seller, uint256 productId, bytes32 priceCommitment, uint256 timestamp);\n    event TransporterCreated(address indexed transporter, uint256 indexed productId, uint256 timestamp);\n    event TransporterSelected(uint256 indexed productId, address indexed transporter, uint256 timestamp);\n    event FundsTransferred(address indexed to, uint256 indexed productId, uint256 timestamp);\n    event PenaltyApplied(address indexed to, uint256 indexed productId, string reason, uint256 timestamp);\n    event DeliveryTimeoutEvent(address indexed caller, uint256 indexed productId, uint256 time, uint256 timestamp);\n    event SellerTimeoutEvent(address indexed caller, uint256 indexed productId, uint256 time, uint256 timestamp);\n    event PhaseChanged(uint256 indexed productId, Phase indexed from, Phase indexed to, address actor, uint256 timestamp, bytes32 ref);\n    event BidWithdrawn(address indexed transporter, uint256 indexed productId, uint256 timestamp);\n\n    // Comprehensive product state change event for frontend indexing\n    event ProductStateChanged(\n        uint256 indexed productId,\n        address indexed seller,\n        address indexed buyer,\n        Phase phase,\n        uint256 timestamp,\n        bytes32 priceCommitment,\n        bool purchased,\n        bool delivered\n    );\n\n    // Railgun integration events\n    event PaidPrivately(uint256 indexed productId, bytes32 memoHash, bytes32 railgunTxRef, uint256 timestamp);\n    event PrivatePaymentRecorded(uint256 indexed productId, bytes32 memoHash, bytes32 railgunTxRef, address indexed recorder, uint256 timestamp);\n    event PurchasedPrivate(address indexed buyer, bytes32 memoHash, bytes32 railgunTxRef);\n\n    // Bond events\n    event SellerBondDeposited(uint256 indexed productId, address indexed seller, uint256 amount, uint256 timestamp);\n    event TransporterBondDeposited(uint256 indexed productId, address indexed transporter, uint256 amount, uint256 timestamp);\n    event VcHashStored(uint256 indexed productId, bytes32 vcHash, string vcCID, uint256 timestamp);\n    event BondSlashed(uint256 indexed productId, address indexed from, address indexed to, uint256 amount, string reason, uint256 timestamp);\n    event BondReturned(uint256 indexed productId, address indexed to, uint256 amount, uint256 timestamp);\n    event BuyerDesignated(uint256 indexed productId, address indexed buyer, uint256 timestamp);\n\n    // \n    //  Initialization\n    // \n\n    /// @notice Initialize the escrow clone. Called by factory with seller bond forwarded as msg.value.\n    /// @param _id Product ID (must be > 0)\n    /// @param _name Product name\n    /// @param _priceCommitment Confidential price commitment (keccak256 hash)\n    /// @param _owner Seller address\n    /// @param _bondAmount Required bond amount (from factory config)\n    /// @param _factory Factory contract address\n    function initialize(\n        uint256 _id,\n        string memory _name,\n        bytes32 _priceCommitment,\n        address _owner,\n        uint256 _bondAmount,\n        address _factory\n    ) external payable {\n        if (_initialized) revert AlreadyInitialized();\n        if (_owner == address(0)) revert InvalidOwnerAddress();\n        if (bytes(_name).length == 0) revert EmptyName();\n        if (_priceCommitment == bytes32(0)) revert ZeroPriceCommitment();\n        if (_id == 0) revert InvalidProductId();\n        if (msg.sender != _factory) revert NotFactory();\n        if (msg.value != _bondAmount) revert InsufficientBond();\n\n        _initialized = true;\n        factory = _factory;\n\n        id = _id;\n        name = _name;\n        priceCommitment = _priceCommitment;\n        owner = payable(_owner);\n        bondAmount = _bondAmount;\n        sellerBond = msg.value;\n        purchased = false;\n        buyer = payable(address(0));\n        phase = Phase.Listed;\n\n        emit SellerBondDeposited(_id, _owner, msg.value, block.timestamp);\n        emit ProductStateChanged(_id, owner, buyer, phase, block.timestamp, _priceCommitment, purchased, delivered);\n        emit PhaseChanged(_id, Phase.Listed, Phase.Listed, msg.sender, block.timestamp, bytes32(0));\n    }\n\n    /// @notice Seller designates the only address allowed to record private payment.\n    function designateBuyer(address payable _buyer) external onlySeller whenNotStopped {\n        if (phase != Phase.Listed) revert WrongPhase();\n        if (_buyer == address(0) || _buyer == owner) revert NotParticipant();\n        if (purchased) revert AlreadyPurchased();\n        buyer = _buyer;\n        emit BuyerDesignated(id, _buyer, block.timestamp);\n        emit ProductStateChanged(id, owner, buyer, phase, block.timestamp, priceCommitment, purchased, delivered);\n    }\n\n    // \n    //  Core Lifecycle Functions\n    // \n\n    /// @notice Record a private Railgun payment. Caller becomes the buyer.\n    /// @param _productId Must match this product's ID\n    /// @param _memoHash Railgun memo hash (non-zero)\n    /// @param _railgunTxRef Railgun transaction reference (non-zero)\n    function recordPrivatePayment(uint256 _productId, bytes32 _memoHash, bytes32 _railgunTxRef) external nonReentrant whenNotStopped {\n        if (_productId != id) revert WrongProductId();\n        if (_memoHash == bytes32(0)) revert ZeroMemoHash();\n        if (_railgunTxRef == bytes32(0)) revert ZeroTxRef();\n        if (phase != Phase.Listed) revert AlreadyPurchased();\n        if (msg.sender == owner) revert OwnerCannotPurchase();\n\n        if (productMemoHashes[id] != bytes32(0)) revert AlreadyPaid();\n        if (usedMemoHash[_memoHash]) revert MemoAlreadyUsed();\n        if (privatePayments[_memoHash]) revert PaymentAlreadyRecorded();\n\n        // Only the seller-designated buyer can record payment.\n        if (buyer == address(0) || msg.sender != buyer) revert NotParticipant();\n\n        purchased = true;\n        purchaseTimestamp = uint64(block.timestamp);\n\n        privatePayments[_memoHash] = true;\n        usedMemoHash[_memoHash] = true;\n        productMemoHashes[id] = _memoHash;\n        productRailgunTxRefs[id] = _railgunTxRef;\n        productPaidBy[id] = msg.sender;\n\n        Phase oldPhase = phase;\n        phase = Phase.Purchased;\n\n        emit PurchasedPrivate(buyer, _memoHash, _railgunTxRef);\n        emit PhaseChanged(id, oldPhase, phase, msg.sender, block.timestamp, _memoHash);\n        emit ProductStateChanged(id, owner, buyer, phase, block.timestamp, priceCommitment, purchased, delivered);\n        emit PrivatePaymentRecorded(id, _memoHash, _railgunTxRef, msg.sender, block.timestamp);\n    }\n\n    /// @notice Seller confirms order, uploads VC to IPFS, stores vcHash on-chain.\n    /// @param vcCID The IPFS CID of the Verifiable Credential\n    function confirmOrder(string calldata vcCID) external onlySeller nonReentrant whenNotStopped {\n        if (phase != Phase.Purchased) revert WrongPhase();\n        if (!purchased) revert NotPurchased();\n        if (block.timestamp > purchaseTimestamp + SELLER_WINDOW) revert SellerWindowExpired();\n\n        orderConfirmedTimestamp = uint64(block.timestamp);\n        phase = Phase.OrderConfirmed;\n\n        // Store hash only, emit full CID in event\n        vcHash = keccak256(bytes(vcCID));\n\n        emit VcHashStored(id, vcHash, vcCID, block.timestamp);\n        emit OrderConfirmed(buyer, owner, id, priceCommitment, vcCID, block.timestamp);\n        emit PhaseChanged(id, Phase.Purchased, Phase.OrderConfirmed, msg.sender, block.timestamp, vcHash);\n    }\n\n    /// @notice Transporter registers a bid with fee quote and stakes bond.\n    /// @param _feeInWei Delivery fee bid in wei\n    function createTransporter(uint256 _feeInWei) public payable nonReentrant whenNotStopped {\n        if (phase != Phase.OrderConfirmed) revert WrongPhase();\n        if (transporterCount >= MAX_BIDS) revert BidCapReached();\n        if (isTransporter[msg.sender]) revert AlreadyExists();\n        if (_feeInWei == 0) revert IncorrectFee();\n        if (msg.value != bondAmount) revert InsufficientBond();\n\n        transporters[msg.sender] = _feeInWei;\n        isTransporter[msg.sender] = true;\n        transporterAddresses.push(msg.sender);\n        securityDeposits[msg.sender] = msg.value;\n\n        unchecked { transporterCount++; }\n\n        emit TransporterCreated(msg.sender, id, block.timestamp);\n        emit TransporterBondDeposited(id, msg.sender, msg.value, block.timestamp);\n    }\n\n    /// @notice Seller selects a transporter and deposits the delivery fee.\n    /// @param _transporter Address of the winning transporter\n    function setTransporter(address payable _transporter) external payable onlySeller nonReentrant whenNotStopped {\n        if (phase != Phase.OrderConfirmed) revert WrongPhase();\n        if (block.timestamp > orderConfirmedTimestamp + BID_WINDOW) revert BiddingWindowNotExpired();\n        if (!isTransporter[_transporter]) revert NotATransporter();\n        if (msg.value != transporters[_transporter]) revert IncorrectDeliveryFee();\n\n        deliveryFee = msg.value;\n        transporter = _transporter;\n        boundTimestamp = uint64(block.timestamp);\n\n        Phase oldPhase = phase;\n        phase = Phase.Bound;\n\n        emit PhaseChanged(id, oldPhase, phase, msg.sender, block.timestamp, bytes32(0));\n        emit TransporterSelected(id, _transporter, block.timestamp);\n    }\n\n    /// @notice Transporter confirms delivery by providing the VC hash.\n    /// @dev Verifies hash matches stored vcHash. Releases all bonds and fee.\n    /// @param hash keccak256(vcCID) that the transporter verified with the buyer\n    function confirmDelivery(bytes32 hash) external onlyTransporter nonReentrant whenNotStopped {\n        if (phase != Phase.Bound) revert WrongPhase();\n        if (delivered) revert AlreadyDelivered();\n        if (hash != vcHash) revert HashMismatch();\n        if (block.timestamp > boundTimestamp + DELIVERY_WINDOW) revert DeliveryWindowExpired();\n\n        // Effects: update state before transfers\n        delivered = true;\n        Phase oldPhase = phase;\n        phase = Phase.Delivered;\n\n        // Cache and zero state before transfers (checks-effects-interactions)\n        uint256 _sellerBond = sellerBond;\n        uint256 _transporterBond = securityDeposits[transporter];\n        uint256 _deliveryFee = deliveryFee;\n        sellerBond = 0;\n        securityDeposits[transporter] = 0;\n        deliveryFee = 0;\n\n        // Return seller bond\n        (bool sentSeller, ) = owner.call{value: _sellerBond}(\"\");\n        if (!sentSeller) revert TransferFailed(owner, _sellerBond);\n        emit BondReturned(id, owner, _sellerBond, block.timestamp);\n\n        // Return transporter bond + pay delivery fee\n        uint256 transporterPayout = _transporterBond + _deliveryFee;\n        (bool sentTransporter, ) = transporter.call{value: transporterPayout}(\"\");\n        if (!sentTransporter) revert TransferFailed(transporter, transporterPayout);\n        emit BondReturned(id, transporter, _transporterBond, block.timestamp);\n        emit FundsTransferred(transporter, id, block.timestamp);\n\n        emit DeliveryConfirmed(buyer, transporter, owner, id, priceCommitment, block.timestamp);\n        emit PhaseChanged(id, oldPhase, phase, msg.sender, block.timestamp, hash);\n        emit ProductStateChanged(id, owner, buyer, phase, block.timestamp, priceCommitment, purchased, delivered);\n    }\n\n    // \n    //  Timeout Functions (permissionless - anyone can call after window)\n    // \n\n    /// @notice Seller failed to confirm order within window. Slash seller bond to buyer.\n    function sellerTimeout() public nonReentrant whenNotStopped {\n        if (phase != Phase.Purchased) revert WrongPhase();\n        if (block.timestamp <= purchaseTimestamp + SELLER_WINDOW) revert SellerWindowNotExpired();\n\n        Phase oldPhase = phase;\n        phase = Phase.Expired;\n\n        // Cache and zero before transfer\n        uint256 _sellerBond = sellerBond;\n        sellerBond = 0;\n\n        // Slash seller bond to buyer\n        if (_sellerBond > 0) {\n            (bool sent, ) = buyer.call{value: _sellerBond}(\"\");\n            if (!sent) revert TransferFailed(buyer, _sellerBond);\n            emit BondSlashed(id, owner, buyer, _sellerBond, \"Seller failed to confirm order\", block.timestamp);\n        }\n\n        emit PhaseChanged(id, oldPhase, phase, msg.sender, block.timestamp, bytes32(0));\n        emit SellerTimeoutEvent(msg.sender, id, block.timestamp, block.timestamp);\n    }\n\n    /// @notice No transporter selected within bidding window. Return seller bond.\n    /// @dev Transporter bonds are returned individually via withdrawBid().\n    function bidTimeout() public nonReentrant whenNotStopped {\n        if (phase != Phase.OrderConfirmed) revert WrongPhase();\n        if (block.timestamp <= orderConfirmedTimestamp + BID_WINDOW) revert BiddingWindowNotExpired();\n\n        Phase oldPhase = phase;\n        phase = Phase.Expired;\n\n        // Cache and zero before transfer\n        uint256 _sellerBond = sellerBond;\n        sellerBond = 0;\n\n        // Return seller bond (not seller's fault)\n        if (_sellerBond > 0) {\n            (bool sent, ) = owner.call{value: _sellerBond}(\"\");\n            if (!sent) revert TransferFailed(owner, _sellerBond);\n            emit BondReturned(id, owner, _sellerBond, block.timestamp);\n        }\n\n        emit PhaseChanged(id, oldPhase, phase, msg.sender, block.timestamp, bytes32(0));\n    }\n\n    /// @notice Transporter failed to deliver within window. Slash transporter bond to seller.\n    function deliveryTimeout() public nonReentrant whenNotStopped {\n        if (phase != Phase.Bound) revert WrongPhase();\n        if (block.timestamp <= boundTimestamp + DELIVERY_WINDOW) revert NotYetTimeout();\n\n        Phase oldPhase = phase;\n        phase = Phase.Expired;\n\n        // Cache and zero all before transfers\n        uint256 _sellerBond = sellerBond;\n        uint256 _transporterBond = securityDeposits[transporter];\n        uint256 _deliveryFee = deliveryFee;\n        sellerBond = 0;\n        securityDeposits[transporter] = 0;\n        deliveryFee = 0;\n\n        // Return seller bond\n        if (_sellerBond > 0) {\n            (bool sent, ) = owner.call{value: _sellerBond}(\"\");\n            if (!sent) revert TransferFailed(owner, _sellerBond);\n            emit BondReturned(id, owner, _sellerBond, block.timestamp);\n        }\n\n        // Slash transporter bond to seller\n        uint256 slashToSeller = _transporterBond + _deliveryFee;\n        if (slashToSeller > 0) {\n            (bool sent, ) = owner.call{value: slashToSeller}(\"\");\n            if (!sent) revert TransferFailed(owner, slashToSeller);\n            if (_transporterBond > 0) {\n                emit BondSlashed(id, transporter, owner, _transporterBond, \"Transporter failed to deliver\", block.timestamp);\n            }\n            if (_deliveryFee > 0) {\n                emit FundsTransferred(owner, id, block.timestamp);\n            }\n        }\n\n        emit PhaseChanged(id, oldPhase, phase, msg.sender, block.timestamp, bytes32(0));\n        emit DeliveryTimeoutEvent(msg.sender, id, block.timestamp, block.timestamp);\n    }\n\n    // \n    //  Bid Withdrawal\n    // \n\n    /// @notice Non-selected transporter withdraws bid and bond.\n    /// @dev Callable in OrderConfirmed (voluntary withdrawal) or Expired (after bidTimeout/deliveryTimeout).\n    function withdrawBid() public nonReentrant {\n        if (phase != Phase.OrderConfirmed && phase != Phase.Expired) revert WrongPhase();\n        if (transporter == msg.sender) revert AlreadySelected();\n\n        uint256 fee = transporters[msg.sender];\n        uint256 deposit = securityDeposits[msg.sender];\n        if (fee == 0 && deposit == 0) revert NotRegistered();\n\n        // Effects: zero before transfer\n        transporters[msg.sender] = 0;\n        securityDeposits[msg.sender] = 0;\n        isTransporter[msg.sender] = false;\n\n        unchecked { transporterCount--; }\n\n        if (deposit > 0) {\n            (bool sent, ) = payable(msg.sender).call{value: deposit}(\"\");\n            if (!sent) revert RefundFailed();\n            emit BondReturned(id, msg.sender, deposit, block.timestamp);\n        }\n\n        emit BidWithdrawn(msg.sender, id, block.timestamp);\n    }\n\n    // \n    //  View Functions\n    // \n\n    /// @notice Public getter for the stored VC hash (transporter reads this to verify delivery).\n    function getVcHash() external view returns (bytes32) {\n        return vcHash;\n    }\n\n    /// @notice Return all transporter addresses and their fee bids.\n    function getAllTransporters() public view returns (address[] memory, uint256[] memory) {\n        uint256 len = transporterAddresses.length;\n        address[] memory addresses = new address[](len);\n        uint256[] memory fees = new uint256[](len);\n\n        unchecked {\n            for (uint256 i = 0; i < len; i++) {\n                addresses[i] = transporterAddresses[i];\n                fees[i] = transporters[transporterAddresses[i]];\n            }\n        }\n\n        return (addresses, fees);\n    }\n\n    /// @notice Canonical commitment computation helper (pure function for tests and UI).\n    function computeCommitment(uint256 value, bytes32 salt) public pure returns (bytes32) {\n        return keccak256(abi.encodePacked(value, salt));\n    }\n\n    /// @notice Check if the contract is stopped (paused by factory).\n    function isStopped() external view returns (bool) {\n        return stopped;\n    }\n\n    // \n    //  Admin Functions\n    // \n\n    /// @notice Factory can pause this escrow.\n    function pauseByFactory() external {\n        if (msg.sender != factory) revert NotFactory();\n        stopped = true;\n    }\n\n    /// @dev Cap on number of transporter bids.\n    function maxBids() internal view virtual returns (uint8) {\n        return MAX_BIDS;\n    }\n\n    // \n    //  Reject unexpected ETH\n    // \n    receive() external payable {\n        revert(\"ProductEscrow does not accept unexpected ETH\");\n    }\n\n    fallback() external payable {\n        revert(\"ProductEscrow does not accept unexpected ETH\");\n    }\n}\n",
  "sourcePath": "C:\\Users\\yamen\\ev-battery-supplychain\\contracts\\ProductEscrow_Initializer.sol",
  "compiler": {
    "name": "solc",
    "version": "0.8.21+commit.d9974bed.Emscripten.clang"
  },
  "schemaVersion": "3.4.16",
  "updatedAt": "2026-02-16T14:56:07.736Z",
  "networkType": "ethereum",
  "devdoc": {
    "errors": {
      "ReentrancyGuardReentrantCall()": [
        {
          "details": "Unauthorized reentrant call."
        }
      ]
    },
    "kind": "dev",
    "methods": {
      "bidTimeout()": {
        "details": "Transporter bonds are returned individually via withdrawBid()."
      },
      "confirmDelivery(bytes32)": {
        "details": "Verifies hash matches stored vcHash. Releases all bonds and fee.",
        "params": {
          "hash": "keccak256(vcCID) that the transporter verified with the buyer"
        }
      },
      "confirmOrder(string)": {
        "params": {
          "vcCID": "The IPFS CID of the Verifiable Credential"
        }
      },
      "createTransporter(uint256)": {
        "params": {
          "_feeInWei": "Delivery fee bid in wei"
        }
      },
      "initialize(uint256,string,bytes32,address,uint256,address)": {
        "params": {
          "_bondAmount": "Required bond amount (from factory config)",
          "_factory": "Factory contract address",
          "_id": "Product ID (must be > 0)",
          "_name": "Product name",
          "_owner": "Seller address",
          "_priceCommitment": "Confidential price commitment (keccak256 hash)"
        }
      },
      "recordPrivatePayment(uint256,bytes32,bytes32)": {
        "params": {
          "_memoHash": "Railgun memo hash (non-zero)",
          "_productId": "Must match this product's ID",
          "_railgunTxRef": "Railgun transaction reference (non-zero)"
        }
      },
      "setTransporter(address)": {
        "params": {
          "_transporter": "Address of the winning transporter"
        }
      },
      "withdrawBid()": {
        "details": "Callable in OrderConfirmed (voluntary withdrawal) or Expired (after bidTimeout/deliveryTimeout)."
      }
    },
    "version": 1
  },
  "userdoc": {
    "kind": "user",
    "methods": {
      "bidTimeout()": {
        "notice": "No transporter selected within bidding window. Return seller bond."
      },
      "computeCommitment(uint256,bytes32)": {
        "notice": "Canonical commitment computation helper (pure function for tests and UI)."
      },
      "confirmDelivery(bytes32)": {
        "notice": "Transporter confirms delivery by providing the VC hash."
      },
      "confirmOrder(string)": {
        "notice": "Seller confirms order, uploads VC to IPFS, stores vcHash on-chain."
      },
      "createTransporter(uint256)": {
        "notice": "Transporter registers a bid with fee quote and stakes bond."
      },
      "deliveryTimeout()": {
        "notice": "Transporter failed to deliver within window. Slash transporter bond to seller."
      },
      "designateBuyer(address)": {
        "notice": "Seller designates the only address allowed to record private payment."
      },
      "getAllTransporters()": {
        "notice": "Return all transporter addresses and their fee bids."
      },
      "getVcHash()": {
        "notice": "Public getter for the stored VC hash (transporter reads this to verify delivery)."
      },
      "initialize(uint256,string,bytes32,address,uint256,address)": {
        "notice": "Initialize the escrow clone. Called by factory with seller bond forwarded as msg.value."
      },
      "isStopped()": {
        "notice": "Check if the contract is stopped (paused by factory)."
      },
      "pauseByFactory()": {
        "notice": "Factory can pause this escrow."
      },
      "recordPrivatePayment(uint256,bytes32,bytes32)": {
        "notice": "Record a private Railgun payment. Caller becomes the buyer."
      },
      "sellerTimeout()": {
        "notice": "Seller failed to confirm order within window. Slash seller bond to buyer."
      },
      "setTransporter(address)": {
        "notice": "Seller selects a transporter and deposits the delivery fee."
      },
      "withdrawBid()": {
        "notice": "Non-selected transporter withdraws bid and bond."
      }
    },
    "version": 1
  }
}