{
  "contractName": "ProductEscrow_Initializer",
  "abi": [
    {
      "inputs": [],
      "name": "AlreadyDelivered",
      "type": "error"
    },
    {
      "inputs": [],
      "name": "AlreadyExists",
      "type": "error"
    },
    {
      "inputs": [],
      "name": "AlreadyInitialized",
      "type": "error"
    },
    {
      "inputs": [],
      "name": "AlreadyPaid",
      "type": "error"
    },
    {
      "inputs": [],
      "name": "AlreadyPurchased",
      "type": "error"
    },
    {
      "inputs": [],
      "name": "AlreadySelected",
      "type": "error"
    },
    {
      "inputs": [],
      "name": "BidCapReached",
      "type": "error"
    },
    {
      "inputs": [],
      "name": "BiddingWindowNotExpired",
      "type": "error"
    },
    {
      "inputs": [],
      "name": "BuyerRefundFailed",
      "type": "error"
    },
    {
      "inputs": [],
      "name": "CommitmentFrozen",
      "type": "error"
    },
    {
      "inputs": [],
      "name": "DeliveryTimeout",
      "type": "error"
    },
    {
      "inputs": [],
      "name": "EmptyName",
      "type": "error"
    },
    {
      "inputs": [],
      "name": "IncorrectDeliveryFee",
      "type": "error"
    },
    {
      "inputs": [],
      "name": "IncorrectFee",
      "type": "error"
    },
    {
      "inputs": [],
      "name": "InvalidOwnerAddress",
      "type": "error"
    },
    {
      "inputs": [],
      "name": "InvalidProductId",
      "type": "error"
    },
    {
      "inputs": [],
      "name": "InvalidPurchaseMode",
      "type": "error"
    },
    {
      "inputs": [],
      "name": "MemoAlreadyUsed",
      "type": "error"
    },
    {
      "inputs": [],
      "name": "NotATransporter",
      "type": "error"
    },
    {
      "inputs": [],
      "name": "NotBuyer",
      "type": "error"
    },
    {
      "inputs": [],
      "name": "NotFactory",
      "type": "error"
    },
    {
      "inputs": [],
      "name": "NotParticipant",
      "type": "error"
    },
    {
      "inputs": [],
      "name": "NotPurchased",
      "type": "error"
    },
    {
      "inputs": [],
      "name": "NotRegistered",
      "type": "error"
    },
    {
      "inputs": [],
      "name": "NotSeller",
      "type": "error"
    },
    {
      "inputs": [],
      "name": "NotYetTimeout",
      "type": "error"
    },
    {
      "inputs": [],
      "name": "OwnerCannotPurchase",
      "type": "error"
    },
    {
      "inputs": [],
      "name": "PaymentAlreadyRecorded",
      "type": "error"
    },
    {
      "inputs": [],
      "name": "PriceZero",
      "type": "error"
    },
    {
      "inputs": [],
      "name": "PrivateDisabled",
      "type": "error"
    },
    {
      "inputs": [],
      "name": "PublicDisabled",
      "type": "error"
    },
    {
      "inputs": [],
      "name": "PublicPriceNotSet",
      "type": "error"
    },
    {
      "inputs": [],
      "name": "ReentrancyGuardReentrantCall",
      "type": "error"
    },
    {
      "inputs": [],
      "name": "RefundFailed",
      "type": "error"
    },
    {
      "inputs": [],
      "name": "RevealInvalid",
      "type": "error"
    },
    {
      "inputs": [],
      "name": "SellerWindowNotExpired",
      "type": "error"
    },
    {
      "inputs": [],
      "name": "TooEarlyToDelete",
      "type": "error"
    },
    {
      "inputs": [
        {
          "internalType": "address",
          "name": "to",
          "type": "address"
        },
        {
          "internalType": "uint256",
          "name": "amount",
          "type": "uint256"
        }
      ],
      "name": "TransferFailed",
      "type": "error"
    },
    {
      "inputs": [],
      "name": "TransporterNotSet",
      "type": "error"
    },
    {
      "inputs": [],
      "name": "WrongPhase",
      "type": "error"
    },
    {
      "inputs": [],
      "name": "WrongProductId",
      "type": "error"
    },
    {
      "inputs": [],
      "name": "ZeroMemoHash",
      "type": "error"
    },
    {
      "inputs": [],
      "name": "ZeroPriceCommitment",
      "type": "error"
    },
    {
      "inputs": [],
      "name": "ZeroTxRef",
      "type": "error"
    },
    {
      "anonymous": false,
      "inputs": [
        {
          "indexed": true,
          "internalType": "address",
          "name": "transporter",
          "type": "address"
        },
        {
          "indexed": true,
          "internalType": "uint256",
          "name": "productId",
          "type": "uint256"
        },
        {
          "indexed": false,
          "internalType": "uint256",
          "name": "amount",
          "type": "uint256"
        },
        {
          "indexed": false,
          "internalType": "uint256",
          "name": "timestamp",
          "type": "uint256"
        }
      ],
      "name": "BidWithdrawn",
      "type": "event"
    },
    {
      "anonymous": false,
      "inputs": [
        {
          "indexed": true,
          "internalType": "address",
          "name": "seller",
          "type": "address"
        },
        {
          "indexed": true,
          "internalType": "address",
          "name": "transporter",
          "type": "address"
        },
        {
          "indexed": true,
          "internalType": "uint256",
          "name": "productId",
          "type": "uint256"
        },
        {
          "indexed": false,
          "internalType": "uint256",
          "name": "buyerRefund",
          "type": "uint256"
        },
        {
          "indexed": false,
          "internalType": "uint256",
          "name": "timestamp",
          "type": "uint256"
        }
      ],
      "name": "CancelDelivery",
      "type": "event"
    },
    {
      "anonymous": false,
      "inputs": [
        {
          "indexed": true,
          "internalType": "address",
          "name": "buyer",
          "type": "address"
        },
        {
          "indexed": true,
          "internalType": "address",
          "name": "transporter",
          "type": "address"
        },
        {
          "indexed": true,
          "internalType": "address",
          "name": "seller",
          "type": "address"
        },
        {
          "indexed": false,
          "internalType": "uint256",
          "name": "productId",
          "type": "uint256"
        },
        {
          "indexed": false,
          "internalType": "bytes32",
          "name": "priceCommitment",
          "type": "bytes32"
        },
        {
          "indexed": false,
          "internalType": "string",
          "name": "vcCID",
          "type": "string"
        },
        {
          "indexed": false,
          "internalType": "uint256",
          "name": "timestamp",
          "type": "uint256"
        }
      ],
      "name": "DeliveryConfirmed",
      "type": "event"
    },
    {
      "anonymous": false,
      "inputs": [
        {
          "indexed": true,
          "internalType": "address",
          "name": "caller",
          "type": "address"
        },
        {
          "indexed": true,
          "internalType": "uint256",
          "name": "productId",
          "type": "uint256"
        },
        {
          "indexed": false,
          "internalType": "uint256",
          "name": "time",
          "type": "uint256"
        },
        {
          "indexed": false,
          "internalType": "uint256",
          "name": "timestamp",
          "type": "uint256"
        }
      ],
      "name": "DeliveryTimeoutEvent",
      "type": "event"
    },
    {
      "anonymous": false,
      "inputs": [
        {
          "indexed": true,
          "internalType": "address",
          "name": "to",
          "type": "address"
        },
        {
          "indexed": true,
          "internalType": "uint256",
          "name": "productId",
          "type": "uint256"
        },
        {
          "indexed": false,
          "internalType": "uint256",
          "name": "amount",
          "type": "uint256"
        },
        {
          "indexed": false,
          "internalType": "uint256",
          "name": "timestamp",
          "type": "uint256"
        }
      ],
      "name": "FundsTransferred",
      "type": "event"
    },
    {
      "anonymous": false,
      "inputs": [
        {
          "indexed": true,
          "internalType": "address",
          "name": "buyer",
          "type": "address"
        },
        {
          "indexed": true,
          "internalType": "address",
          "name": "seller",
          "type": "address"
        },
        {
          "indexed": true,
          "internalType": "uint256",
          "name": "productId",
          "type": "uint256"
        },
        {
          "indexed": false,
          "internalType": "bytes32",
          "name": "priceCommitment",
          "type": "bytes32"
        },
        {
          "indexed": false,
          "internalType": "string",
          "name": "vcCID",
          "type": "string"
        },
        {
          "indexed": false,
          "internalType": "uint256",
          "name": "timestamp",
          "type": "uint256"
        }
      ],
      "name": "OrderConfirmed",
      "type": "event"
    },
    {
      "anonymous": false,
      "inputs": [
        {
          "indexed": true,
          "internalType": "uint256",
          "name": "productId",
          "type": "uint256"
        },
        {
          "indexed": false,
          "internalType": "bytes32",
          "name": "memoHash",
          "type": "bytes32"
        },
        {
          "indexed": false,
          "internalType": "bytes32",
          "name": "railgunTxRef",
          "type": "bytes32"
        },
        {
          "indexed": false,
          "internalType": "uint256",
          "name": "timestamp",
          "type": "uint256"
        }
      ],
      "name": "PaidPrivately",
      "type": "event"
    },
    {
      "anonymous": false,
      "inputs": [
        {
          "indexed": true,
          "internalType": "address",
          "name": "to",
          "type": "address"
        },
        {
          "indexed": true,
          "internalType": "uint256",
          "name": "productId",
          "type": "uint256"
        },
        {
          "indexed": false,
          "internalType": "uint256",
          "name": "amount",
          "type": "uint256"
        },
        {
          "indexed": false,
          "internalType": "string",
          "name": "reason",
          "type": "string"
        },
        {
          "indexed": false,
          "internalType": "uint256",
          "name": "timestamp",
          "type": "uint256"
        }
      ],
      "name": "PenaltyApplied",
      "type": "event"
    },
    {
      "anonymous": false,
      "inputs": [
        {
          "indexed": true,
          "internalType": "uint256",
          "name": "productId",
          "type": "uint256"
        },
        {
          "indexed": true,
          "internalType": "enum ProductEscrow_Initializer.Phase",
          "name": "from",
          "type": "uint8"
        },
        {
          "indexed": true,
          "internalType": "enum ProductEscrow_Initializer.Phase",
          "name": "to",
          "type": "uint8"
        },
        {
          "indexed": false,
          "internalType": "address",
          "name": "actor",
          "type": "address"
        },
        {
          "indexed": false,
          "internalType": "uint256",
          "name": "timestamp",
          "type": "uint256"
        },
        {
          "indexed": false,
          "internalType": "uint256",
          "name": "value",
          "type": "uint256"
        },
        {
          "indexed": false,
          "internalType": "bytes32",
          "name": "ref",
          "type": "bytes32"
        }
      ],
      "name": "PhaseChanged",
      "type": "event"
    },
    {
      "anonymous": false,
      "inputs": [
        {
          "indexed": true,
          "internalType": "uint256",
          "name": "id",
          "type": "uint256"
        },
        {
          "indexed": false,
          "internalType": "bool",
          "name": "enabled",
          "type": "bool"
        }
      ],
      "name": "PrivateEnabledSet",
      "type": "event"
    },
    {
      "anonymous": false,
      "inputs": [
        {
          "indexed": true,
          "internalType": "uint256",
          "name": "productId",
          "type": "uint256"
        },
        {
          "indexed": false,
          "internalType": "bytes32",
          "name": "memoHash",
          "type": "bytes32"
        },
        {
          "indexed": false,
          "internalType": "bytes32",
          "name": "railgunTxRef",
          "type": "bytes32"
        },
        {
          "indexed": true,
          "internalType": "address",
          "name": "recorder",
          "type": "address"
        },
        {
          "indexed": false,
          "internalType": "uint256",
          "name": "timestamp",
          "type": "uint256"
        }
      ],
      "name": "PrivatePaymentRecorded",
      "type": "event"
    },
    {
      "anonymous": false,
      "inputs": [
        {
          "indexed": true,
          "internalType": "uint256",
          "name": "productId",
          "type": "uint256"
        },
        {
          "indexed": false,
          "internalType": "string",
          "name": "productName",
          "type": "string"
        },
        {
          "indexed": true,
          "internalType": "address",
          "name": "seller",
          "type": "address"
        },
        {
          "indexed": false,
          "internalType": "uint256",
          "name": "timestamp",
          "type": "uint256"
        }
      ],
      "name": "ProductDeleted",
      "type": "event"
    },
    {
      "anonymous": false,
      "inputs": [
        {
          "indexed": true,
          "internalType": "uint256",
          "name": "productId",
          "type": "uint256"
        },
        {
          "indexed": true,
          "internalType": "address",
          "name": "seller",
          "type": "address"
        },
        {
          "indexed": true,
          "internalType": "address",
          "name": "buyer",
          "type": "address"
        },
        {
          "indexed": false,
          "internalType": "enum ProductEscrow_Initializer.Phase",
          "name": "phase",
          "type": "uint8"
        },
        {
          "indexed": false,
          "internalType": "uint256",
          "name": "timestamp",
          "type": "uint256"
        },
        {
          "indexed": false,
          "internalType": "bytes32",
          "name": "priceCommitment",
          "type": "bytes32"
        },
        {
          "indexed": false,
          "internalType": "bool",
          "name": "purchased",
          "type": "bool"
        },
        {
          "indexed": false,
          "internalType": "bool",
          "name": "delivered",
          "type": "bool"
        }
      ],
      "name": "ProductStateChanged",
      "type": "event"
    },
    {
      "anonymous": false,
      "inputs": [
        {
          "indexed": true,
          "internalType": "uint256",
          "name": "id",
          "type": "uint256"
        },
        {
          "indexed": false,
          "internalType": "bool",
          "name": "enabled",
          "type": "bool"
        }
      ],
      "name": "PublicEnabledSet",
      "type": "event"
    },
    {
      "anonymous": false,
      "inputs": [
        {
          "indexed": true,
          "internalType": "uint256",
          "name": "id",
          "type": "uint256"
        },
        {
          "indexed": false,
          "internalType": "bytes32",
          "name": "commitment",
          "type": "bytes32"
        }
      ],
      "name": "PublicPriceCommitmentSet",
      "type": "event"
    },
    {
      "anonymous": false,
      "inputs": [
        {
          "indexed": false,
          "internalType": "uint256",
          "name": "priceWei",
          "type": "uint256"
        }
      ],
      "name": "PublicPriceSet",
      "type": "event"
    },
    {
      "anonymous": false,
      "inputs": [
        {
          "indexed": true,
          "internalType": "address",
          "name": "buyer",
          "type": "address"
        },
        {
          "indexed": false,
          "internalType": "bytes32",
          "name": "memoHash",
          "type": "bytes32"
        },
        {
          "indexed": false,
          "internalType": "bytes32",
          "name": "railgunTxRef",
          "type": "bytes32"
        }
      ],
      "name": "PurchasedPrivate",
      "type": "event"
    },
    {
      "anonymous": false,
      "inputs": [
        {
          "indexed": true,
          "internalType": "address",
          "name": "buyer",
          "type": "address"
        },
        {
          "indexed": false,
          "internalType": "uint256",
          "name": "amount",
          "type": "uint256"
        }
      ],
      "name": "PurchasedPublic",
      "type": "event"
    },
    {
      "anonymous": false,
      "inputs": [
        {
          "indexed": true,
          "internalType": "address",
          "name": "caller",
          "type": "address"
        },
        {
          "indexed": true,
          "internalType": "uint256",
          "name": "productId",
          "type": "uint256"
        },
        {
          "indexed": false,
          "internalType": "uint256",
          "name": "time",
          "type": "uint256"
        },
        {
          "indexed": false,
          "internalType": "uint256",
          "name": "timestamp",
          "type": "uint256"
        }
      ],
      "name": "SellerTimeout",
      "type": "event"
    },
    {
      "anonymous": false,
      "inputs": [
        {
          "indexed": true,
          "internalType": "address",
          "name": "transporter",
          "type": "address"
        },
        {
          "indexed": true,
          "internalType": "uint256",
          "name": "productId",
          "type": "uint256"
        },
        {
          "indexed": false,
          "internalType": "uint256",
          "name": "fee",
          "type": "uint256"
        },
        {
          "indexed": false,
          "internalType": "uint256",
          "name": "timestamp",
          "type": "uint256"
        }
      ],
      "name": "TransporterCreated",
      "type": "event"
    },
    {
      "anonymous": false,
      "inputs": [
        {
          "indexed": true,
          "internalType": "address",
          "name": "transporter",
          "type": "address"
        },
        {
          "indexed": true,
          "internalType": "uint256",
          "name": "productId",
          "type": "uint256"
        },
        {
          "indexed": false,
          "internalType": "uint256",
          "name": "price",
          "type": "uint256"
        },
        {
          "indexed": false,
          "internalType": "uint256",
          "name": "timestamp",
          "type": "uint256"
        }
      ],
      "name": "TransporterSecurityDeposit",
      "type": "event"
    },
    {
      "anonymous": false,
      "inputs": [
        {
          "indexed": true,
          "internalType": "uint256",
          "name": "productId",
          "type": "uint256"
        },
        {
          "indexed": true,
          "internalType": "address",
          "name": "transporter",
          "type": "address"
        },
        {
          "indexed": false,
          "internalType": "uint256",
          "name": "fee",
          "type": "uint256"
        },
        {
          "indexed": false,
          "internalType": "uint256",
          "name": "timestamp",
          "type": "uint256"
        }
      ],
      "name": "TransporterSelected",
      "type": "event"
    },
    {
      "anonymous": false,
      "inputs": [
        {
          "indexed": false,
          "internalType": "bytes32",
          "name": "commitment",
          "type": "bytes32"
        },
        {
          "indexed": false,
          "internalType": "bytes",
          "name": "proof",
          "type": "bytes"
        }
      ],
      "name": "ValueCommitted",
      "type": "event"
    },
    {
      "anonymous": false,
      "inputs": [
        {
          "indexed": true,
          "internalType": "uint256",
          "name": "productId",
          "type": "uint256"
        },
        {
          "indexed": false,
          "internalType": "uint256",
          "name": "revealedValue",
          "type": "uint256"
        },
        {
          "indexed": false,
          "internalType": "bytes32",
          "name": "commitment",
          "type": "bytes32"
        },
        {
          "indexed": false,
          "internalType": "bool",
          "name": "valid",
          "type": "bool"
        },
        {
          "indexed": false,
          "internalType": "uint256",
          "name": "timestamp",
          "type": "uint256"
        }
      ],
      "name": "ValueRevealed",
      "type": "event"
    },
    {
      "anonymous": false,
      "inputs": [
        {
          "indexed": true,
          "internalType": "uint256",
          "name": "productId",
          "type": "uint256"
        },
        {
          "indexed": false,
          "internalType": "string",
          "name": "cid",
          "type": "string"
        },
        {
          "indexed": true,
          "internalType": "address",
          "name": "seller",
          "type": "address"
        },
        {
          "indexed": false,
          "internalType": "uint256",
          "name": "timestamp",
          "type": "uint256"
        }
      ],
      "name": "VcUpdated",
      "type": "event"
    },
    {
      "stateMutability": "payable",
      "type": "fallback",
      "payable": true
    },
    {
      "inputs": [],
      "name": "BID_WINDOW",
      "outputs": [
        {
          "internalType": "uint32",
          "name": "",
          "type": "uint32"
        }
      ],
      "stateMutability": "view",
      "type": "function",
      "constant": true
    },
    {
      "inputs": [],
      "name": "DELIVERY_WINDOW",
      "outputs": [
        {
          "internalType": "uint32",
          "name": "",
          "type": "uint32"
        }
      ],
      "stateMutability": "view",
      "type": "function",
      "constant": true
    },
    {
      "inputs": [],
      "name": "MAX_BIDS",
      "outputs": [
        {
          "internalType": "uint8",
          "name": "",
          "type": "uint8"
        }
      ],
      "stateMutability": "view",
      "type": "function",
      "constant": true
    },
    {
      "inputs": [],
      "name": "SELLER_WINDOW",
      "outputs": [
        {
          "internalType": "uint32",
          "name": "",
          "type": "uint32"
        }
      ],
      "stateMutability": "view",
      "type": "function",
      "constant": true
    },
    {
      "inputs": [],
      "name": "buyer",
      "outputs": [
        {
          "internalType": "address payable",
          "name": "",
          "type": "address"
        }
      ],
      "stateMutability": "view",
      "type": "function",
      "constant": true
    },
    {
      "inputs": [],
      "name": "commitmentFrozen",
      "outputs": [
        {
          "internalType": "bool",
          "name": "",
          "type": "bool"
        }
      ],
      "stateMutability": "view",
      "type": "function",
      "constant": true
    },
    {
      "inputs": [],
      "name": "delivered",
      "outputs": [
        {
          "internalType": "bool",
          "name": "",
          "type": "bool"
        }
      ],
      "stateMutability": "view",
      "type": "function",
      "constant": true
    },
    {
      "inputs": [],
      "name": "deliveryFee",
      "outputs": [
        {
          "internalType": "uint256",
          "name": "",
          "type": "uint256"
        }
      ],
      "stateMutability": "view",
      "type": "function",
      "constant": true
    },
    {
      "inputs": [],
      "name": "factory",
      "outputs": [
        {
          "internalType": "address",
          "name": "",
          "type": "address"
        }
      ],
      "stateMutability": "view",
      "type": "function",
      "constant": true
    },
    {
      "inputs": [],
      "name": "id",
      "outputs": [
        {
          "internalType": "uint256",
          "name": "",
          "type": "uint256"
        }
      ],
      "stateMutability": "view",
      "type": "function",
      "constant": true
    },
    {
      "inputs": [
        {
          "internalType": "address",
          "name": "",
          "type": "address"
        }
      ],
      "name": "isTransporter",
      "outputs": [
        {
          "internalType": "bool",
          "name": "",
          "type": "bool"
        }
      ],
      "stateMutability": "view",
      "type": "function",
      "constant": true
    },
    {
      "inputs": [],
      "name": "name",
      "outputs": [
        {
          "internalType": "string",
          "name": "",
          "type": "string"
        }
      ],
      "stateMutability": "view",
      "type": "function",
      "constant": true
    },
    {
      "inputs": [],
      "name": "orderConfirmedTimestamp",
      "outputs": [
        {
          "internalType": "uint64",
          "name": "",
          "type": "uint64"
        }
      ],
      "stateMutability": "view",
      "type": "function",
      "constant": true
    },
    {
      "inputs": [],
      "name": "owner",
      "outputs": [
        {
          "internalType": "address payable",
          "name": "",
          "type": "address"
        }
      ],
      "stateMutability": "view",
      "type": "function",
      "constant": true
    },
    {
      "inputs": [],
      "name": "phase",
      "outputs": [
        {
          "internalType": "enum ProductEscrow_Initializer.Phase",
          "name": "",
          "type": "uint8"
        }
      ],
      "stateMutability": "view",
      "type": "function",
      "constant": true
    },
    {
      "inputs": [],
      "name": "priceCommitment",
      "outputs": [
        {
          "internalType": "bytes32",
          "name": "",
          "type": "bytes32"
        }
      ],
      "stateMutability": "view",
      "type": "function",
      "constant": true
    },
    {
      "inputs": [],
      "name": "privateEnabled",
      "outputs": [
        {
          "internalType": "bool",
          "name": "",
          "type": "bool"
        }
      ],
      "stateMutability": "view",
      "type": "function",
      "constant": true
    },
    {
      "inputs": [
        {
          "internalType": "bytes32",
          "name": "",
          "type": "bytes32"
        }
      ],
      "name": "privatePayments",
      "outputs": [
        {
          "internalType": "bool",
          "name": "",
          "type": "bool"
        }
      ],
      "stateMutability": "view",
      "type": "function",
      "constant": true
    },
    {
      "inputs": [
        {
          "internalType": "uint256",
          "name": "",
          "type": "uint256"
        }
      ],
      "name": "productMemoHashes",
      "outputs": [
        {
          "internalType": "bytes32",
          "name": "",
          "type": "bytes32"
        }
      ],
      "stateMutability": "view",
      "type": "function",
      "constant": true
    },
    {
      "inputs": [
        {
          "internalType": "uint256",
          "name": "",
          "type": "uint256"
        }
      ],
      "name": "productPaidBy",
      "outputs": [
        {
          "internalType": "address",
          "name": "",
          "type": "address"
        }
      ],
      "stateMutability": "view",
      "type": "function",
      "constant": true
    },
    {
      "inputs": [],
      "name": "productPrice",
      "outputs": [
        {
          "internalType": "uint256",
          "name": "",
          "type": "uint256"
        }
      ],
      "stateMutability": "view",
      "type": "function",
      "constant": true
    },
    {
      "inputs": [
        {
          "internalType": "uint256",
          "name": "",
          "type": "uint256"
        }
      ],
      "name": "productRailgunTxRefs",
      "outputs": [
        {
          "internalType": "bytes32",
          "name": "",
          "type": "bytes32"
        }
      ],
      "stateMutability": "view",
      "type": "function",
      "constant": true
    },
    {
      "inputs": [],
      "name": "publicEnabled",
      "outputs": [
        {
          "internalType": "bool",
          "name": "",
          "type": "bool"
        }
      ],
      "stateMutability": "view",
      "type": "function",
      "constant": true
    },
    {
      "inputs": [],
      "name": "publicPriceCommitment",
      "outputs": [
        {
          "internalType": "bytes32",
          "name": "",
          "type": "bytes32"
        }
      ],
      "stateMutability": "view",
      "type": "function",
      "constant": true
    },
    {
      "inputs": [],
      "name": "publicPriceWei",
      "outputs": [
        {
          "internalType": "uint256",
          "name": "",
          "type": "uint256"
        }
      ],
      "stateMutability": "view",
      "type": "function",
      "constant": true
    },
    {
      "inputs": [],
      "name": "purchaseMode",
      "outputs": [
        {
          "internalType": "enum ProductEscrow_Initializer.PurchaseMode",
          "name": "",
          "type": "uint8"
        }
      ],
      "stateMutability": "view",
      "type": "function",
      "constant": true
    },
    {
      "inputs": [],
      "name": "purchaseTimestamp",
      "outputs": [
        {
          "internalType": "uint64",
          "name": "",
          "type": "uint64"
        }
      ],
      "stateMutability": "view",
      "type": "function",
      "constant": true
    },
    {
      "inputs": [],
      "name": "purchased",
      "outputs": [
        {
          "internalType": "bool",
          "name": "",
          "type": "bool"
        }
      ],
      "stateMutability": "view",
      "type": "function",
      "constant": true
    },
    {
      "inputs": [
        {
          "internalType": "address",
          "name": "",
          "type": "address"
        }
      ],
      "name": "securityDeposits",
      "outputs": [
        {
          "internalType": "uint256",
          "name": "",
          "type": "uint256"
        }
      ],
      "stateMutability": "view",
      "type": "function",
      "constant": true
    },
    {
      "inputs": [],
      "name": "transporter",
      "outputs": [
        {
          "internalType": "address payable",
          "name": "",
          "type": "address"
        }
      ],
      "stateMutability": "view",
      "type": "function",
      "constant": true
    },
    {
      "inputs": [
        {
          "internalType": "uint256",
          "name": "",
          "type": "uint256"
        }
      ],
      "name": "transporterAddresses",
      "outputs": [
        {
          "internalType": "address",
          "name": "",
          "type": "address"
        }
      ],
      "stateMutability": "view",
      "type": "function",
      "constant": true
    },
    {
      "inputs": [],
      "name": "transporterCount",
      "outputs": [
        {
          "internalType": "uint32",
          "name": "",
          "type": "uint32"
        }
      ],
      "stateMutability": "view",
      "type": "function",
      "constant": true
    },
    {
      "inputs": [
        {
          "internalType": "address",
          "name": "",
          "type": "address"
        }
      ],
      "name": "transporters",
      "outputs": [
        {
          "internalType": "uint256",
          "name": "",
          "type": "uint256"
        }
      ],
      "stateMutability": "view",
      "type": "function",
      "constant": true
    },
    {
      "inputs": [
        {
          "internalType": "bytes32",
          "name": "",
          "type": "bytes32"
        }
      ],
      "name": "usedMemoHash",
      "outputs": [
        {
          "internalType": "bool",
          "name": "",
          "type": "bool"
        }
      ],
      "stateMutability": "view",
      "type": "function",
      "constant": true
    },
    {
      "inputs": [],
      "name": "valueCommitment",
      "outputs": [
        {
          "internalType": "bytes32",
          "name": "",
          "type": "bytes32"
        }
      ],
      "stateMutability": "view",
      "type": "function",
      "constant": true
    },
    {
      "inputs": [],
      "name": "valueRangeProof",
      "outputs": [
        {
          "internalType": "bytes",
          "name": "",
          "type": "bytes"
        }
      ],
      "stateMutability": "view",
      "type": "function",
      "constant": true
    },
    {
      "inputs": [],
      "name": "vcCid",
      "outputs": [
        {
          "internalType": "string",
          "name": "",
          "type": "string"
        }
      ],
      "stateMutability": "view",
      "type": "function",
      "constant": true
    },
    {
      "stateMutability": "payable",
      "type": "receive",
      "payable": true
    },
    {
      "inputs": [
        {
          "internalType": "bool",
          "name": "_enabled",
          "type": "bool"
        }
      ],
      "name": "setPublicEnabled",
      "outputs": [],
      "stateMutability": "nonpayable",
      "type": "function"
    },
    {
      "inputs": [
        {
          "internalType": "bool",
          "name": "_enabled",
          "type": "bool"
        }
      ],
      "name": "setPrivateEnabled",
      "outputs": [],
      "stateMutability": "nonpayable",
      "type": "function"
    },
    {
      "inputs": [],
      "name": "pauseByFactory",
      "outputs": [],
      "stateMutability": "nonpayable",
      "type": "function"
    },
    {
      "inputs": [],
      "name": "isStopped",
      "outputs": [
        {
          "internalType": "bool",
          "name": "",
          "type": "bool"
        }
      ],
      "stateMutability": "view",
      "type": "function",
      "constant": true
    },
    {
      "inputs": [
        {
          "internalType": "uint256",
          "name": "value",
          "type": "uint256"
        },
        {
          "internalType": "bytes32",
          "name": "salt",
          "type": "bytes32"
        }
      ],
      "name": "computeCommitment",
      "outputs": [
        {
          "internalType": "bytes32",
          "name": "",
          "type": "bytes32"
        }
      ],
      "stateMutability": "pure",
      "type": "function",
      "constant": true
    },
    {
      "inputs": [
        {
          "internalType": "uint256",
          "name": "_id",
          "type": "uint256"
        },
        {
          "internalType": "string",
          "name": "_name",
          "type": "string"
        },
        {
          "internalType": "bytes32",
          "name": "_priceCommitment",
          "type": "bytes32"
        },
        {
          "internalType": "address",
          "name": "_owner",
          "type": "address"
        },
        {
          "internalType": "uint256",
          "name": "_productPrice",
          "type": "uint256"
        },
        {
          "internalType": "address",
          "name": "_factory",
          "type": "address"
        }
      ],
      "name": "initialize",
      "outputs": [],
      "stateMutability": "nonpayable",
      "type": "function"
    },
    {
      "inputs": [
        {
          "internalType": "uint256",
          "name": "priceWei",
          "type": "uint256"
        }
      ],
      "name": "setPublicPrice",
      "outputs": [],
      "stateMutability": "nonpayable",
      "type": "function"
    },
    {
      "inputs": [
        {
          "internalType": "uint256",
          "name": "priceWei",
          "type": "uint256"
        },
        {
          "internalType": "bytes32",
          "name": "commitment",
          "type": "bytes32"
        }
      ],
      "name": "setPublicPriceWithCommitment",
      "outputs": [],
      "stateMutability": "nonpayable",
      "type": "function"
    },
    {
      "inputs": [
        {
          "internalType": "string",
          "name": "vcCID",
          "type": "string"
        }
      ],
      "name": "confirmOrder",
      "outputs": [],
      "stateMutability": "nonpayable",
      "type": "function"
    },
    {
      "inputs": [
        {
          "internalType": "string",
          "name": "cid",
          "type": "string"
        }
      ],
      "name": "updateVcCid",
      "outputs": [],
      "stateMutability": "nonpayable",
      "type": "function"
    },
    {
      "inputs": [
        {
          "internalType": "bytes32",
          "name": "_commitment",
          "type": "bytes32"
        },
        {
          "internalType": "bytes32",
          "name": "_valueCommitment",
          "type": "bytes32"
        },
        {
          "internalType": "bytes",
          "name": "_valueRangeProof",
          "type": "bytes"
        }
      ],
      "name": "depositPurchasePrivate",
      "outputs": [],
      "stateMutability": "payable",
      "type": "function",
      "payable": true
    },
    {
      "inputs": [],
      "name": "depositPurchase",
      "outputs": [],
      "stateMutability": "payable",
      "type": "function",
      "payable": true
    },
    {
      "inputs": [],
      "name": "purchasePublic",
      "outputs": [],
      "stateMutability": "payable",
      "type": "function",
      "payable": true
    },
    {
      "inputs": [],
      "name": "publicPurchase",
      "outputs": [],
      "stateMutability": "payable",
      "type": "function",
      "payable": true
    },
    {
      "inputs": [],
      "name": "withdrawProductPrice",
      "outputs": [],
      "stateMutability": "nonpayable",
      "type": "function"
    },
    {
      "inputs": [],
      "name": "cancelDelivery",
      "outputs": [],
      "stateMutability": "nonpayable",
      "type": "function"
    },
    {
      "inputs": [
        {
          "internalType": "address payable",
          "name": "_transporter",
          "type": "address"
        }
      ],
      "name": "setTransporter",
      "outputs": [],
      "stateMutability": "payable",
      "type": "function",
      "payable": true
    },
    {
      "inputs": [
        {
          "internalType": "uint256",
          "name": "_feeInWei",
          "type": "uint256"
        }
      ],
      "name": "createTransporter",
      "outputs": [],
      "stateMutability": "nonpayable",
      "type": "function"
    },
    {
      "inputs": [],
      "name": "securityDeposit",
      "outputs": [],
      "stateMutability": "payable",
      "type": "function",
      "payable": true
    },
    {
      "inputs": [],
      "name": "getAllTransporters",
      "outputs": [
        {
          "internalType": "address[]",
          "name": "",
          "type": "address[]"
        },
        {
          "internalType": "uint256[]",
          "name": "",
          "type": "uint256[]"
        }
      ],
      "stateMutability": "view",
      "type": "function",
      "constant": true
    },
    {
      "inputs": [],
      "name": "checkAndDeleteProduct",
      "outputs": [],
      "stateMutability": "nonpayable",
      "type": "function"
    },
    {
      "inputs": [
        {
          "internalType": "uint256",
          "name": "revealedValue",
          "type": "uint256"
        },
        {
          "internalType": "bytes32",
          "name": "blinding",
          "type": "bytes32"
        }
      ],
      "name": "verifyRevealedValue",
      "outputs": [
        {
          "internalType": "bool",
          "name": "",
          "type": "bool"
        }
      ],
      "stateMutability": "nonpayable",
      "type": "function"
    },
    {
      "inputs": [
        {
          "internalType": "uint256",
          "name": "revealedValue",
          "type": "uint256"
        },
        {
          "internalType": "bytes32",
          "name": "blinding",
          "type": "bytes32"
        },
        {
          "internalType": "string",
          "name": "vcCID",
          "type": "string"
        }
      ],
      "name": "revealAndConfirmDelivery",
      "outputs": [],
      "stateMutability": "nonpayable",
      "type": "function"
    },
    {
      "inputs": [],
      "name": "timeout",
      "outputs": [],
      "stateMutability": "nonpayable",
      "type": "function"
    },
    {
      "inputs": [],
      "name": "sellerTimeout",
      "outputs": [],
      "stateMutability": "nonpayable",
      "type": "function"
    },
    {
      "inputs": [],
      "name": "bidTimeout",
      "outputs": [],
      "stateMutability": "nonpayable",
      "type": "function"
    },
    {
      "inputs": [],
      "name": "withdrawBid",
      "outputs": [],
      "stateMutability": "nonpayable",
      "type": "function"
    },
    {
      "inputs": [
        {
          "internalType": "uint256",
          "name": "_productId",
          "type": "uint256"
        },
        {
          "internalType": "bytes32",
          "name": "_memoHash",
          "type": "bytes32"
        },
        {
          "internalType": "bytes32",
          "name": "_railgunTxRef",
          "type": "bytes32"
        }
      ],
      "name": "recordPrivatePayment",
      "outputs": [],
      "stateMutability": "nonpayable",
      "type": "function"
    },
    {
      "inputs": [],
      "name": "hasPrivatePayment",
      "outputs": [
        {
          "internalType": "bool",
          "name": "",
          "type": "bool"
        }
      ],
      "stateMutability": "view",
      "type": "function",
      "constant": true
    },
    {
      "inputs": [],
      "name": "getPrivatePaymentDetails",
      "outputs": [
        {
          "internalType": "bytes32",
          "name": "memoHash",
          "type": "bytes32"
        },
        {
          "internalType": "bytes32",
          "name": "railgunTxRef",
          "type": "bytes32"
        },
        {
          "internalType": "address",
          "name": "recorder",
          "type": "address"
        }
      ],
      "stateMutability": "view",
      "type": "function",
      "constant": true
    },
    {
      "inputs": [],
      "name": "price",
      "outputs": [
        {
          "internalType": "uint256",
          "name": "",
          "type": "uint256"
        }
      ],
      "stateMutability": "view",
      "type": "function",
      "constant": true
    }
  ],
  "bytecode": "0x6080604052600e805462ffff00191662010100179055348015610020575f80fd5b5060015f556142e3806100325f395ff3fe6080604052600436106103f2575f3560e01c80638da5cb5b11610207578063c9352b7e11610117578063e39c2092116100aa578063e995478e11610079578063e995478e146104bd578063f117e40914610b96578063f3cc0f1f14610baf578063f778ad0814610bc4578063fa949a0114610c2157610418565b8063e39c209214610b50578063e42b021214610b58578063e53bbdbe14610b77578063e7067c49146104bd57610418565b8063d82a5cc6116100e6578063d82a5cc614610ad3578063d8f133f914610af2578063dc2a7e5f14610b11578063e25bd15814610b2557610418565b8063c9352b7e14610a4e578063d018d98914610a79578063d5d5f8e114610a98578063d765d3c614610abe57610418565b8063b1c9fe6e1161019a578063bc1e96cb11610169578063bc1e96cb14610995578063bfaf8129146109c3578063c226366b146109d7578063c45a015514610a0b578063c627525514610a2f57610418565b8063b1c9fe6e14610909578063b5df610f14610936578063b66c5fca1461094a578063bbdfbfba1461097557610418565b80639c8dadae116101d65780639c8dadae146108ae578063a035b1fe146108c1578063af640d0f146108d5578063b03b8035146108ea57610418565b80638da5cb5b1461084857806394090d0b146108675780639497d3ae1461087b5780639b001f451461089057610418565b8063487842c81161030257806364eeaa9d11610295578063783100ba11610264578063783100ba146107a05780637af3a1af146107bf5780637dea6474146107de578063879f9c96146108095780638c1018881461082957610418565b806364eeaa9d1461071e57806370dea79a146107335780637150d8ae1461074757806377db57191461077e57610418565b8063533a559b116102d1578063533a559b146106b75780635920172a146106cb5780635d463810146106ea57806362780627146106ff57610418565b8063487842c81461064d5780634e9e91681461066c578063516f9b911461068057806352d93f70146106a357610418565b806329dac7c611610385578063377032461161035457806337703246146105b95780633ace041a146105dd5780633cf131e7146105fc5780633e73ec1d146106105780633f683b6a1461062f57610418565b806329dac7c61461052e5780632b8109d5146105515780632d8ba85e1461057f57806337271cc7146105a557610418565b8063220e5ab3116103c1578063220e5ab3146104b557806322c3b9f3146104bd57806325901b8a146104e857806325d3d0e3146104f057610418565b806306fdde0314610430578063093f3ccb1461045a5780630d76229f146104985780630ff26c8d146104a257610418565b366104185760405162461bcd60e51b815260040161040f90613a01565b60405180910390fd5b60405162461bcd60e51b815260040161040f90613a01565b34801561043b575f80fd5b50610444610c40565b6040516104519190613a90565b60405180910390f35b348015610465575f80fd5b50610488610474366004613aa9565b60176020525f908152604090205460ff1681565b6040519015158152602001610451565b6104a0610ccc565b005b6104a06104b0366004613ac0565b610f93565b6104a0610fb6565b3480156104c8575f80fd5b506104d36202a30081565b60405163ffffffff9091168152602001610451565b6104a0610fcf565b3480156104fb575f80fd5b5060065461051690600160a81b90046001600160401b031681565b6040516001600160401b039091168152602001610451565b348015610539575f80fd5b506007546104d390600160501b900463ffffffff1681565b34801561055c575f80fd5b5061048861056b366004613b4c565b60116020525f908152604090205460ff1681565b34801561058a575f80fd5b50600b546105989060ff1681565b6040516104519190613b7b565b3480156105b0575f80fd5b506104a06110df565b3480156105c4575f80fd5b506001545f908152601560205260409020541515610488565b3480156105e8575f80fd5b506104a06105f7366004613c31565b6110ef565b348015610607575f80fd5b506104a0611273565b34801561061b575f80fd5b506104a061062a366004613c6a565b611283565b34801561063a575f80fd5b50600e546301000000900460ff16610488565b348015610658575f80fd5b506104a0610667366004613c93565b6112ce565b348015610677575f80fd5b506104a0611522565b34801561068b575f80fd5b50610695600d5481565b604051908152602001610451565b3480156106ae575f80fd5b50610444611567565b3480156106c2575f80fd5b506104a0611574565b3480156106d6575f80fd5b506106956106e5366004613c93565b611584565b3480156106f5575f80fd5b50610695600c5481565b34801561070a575f80fd5b50600754610516906001600160401b031681565b348015610729575f80fd5b5061069560195481565b34801561073e575f80fd5b506104a06115b3565b348015610752575f80fd5b50600554610766906001600160a01b031681565b6040516001600160a01b039091168152602001610451565b348015610789575f80fd5b506107926115ed565b604051610451929190613cb3565b3480156107ab575f80fd5b506104a06107ba366004613d35565b611755565b3480156107ca575f80fd5b506104a06107d9366004613d35565b6117d9565b3480156107e9575f80fd5b506106956107f8366004613b4c565b600f6020525f908152604090205481565b348015610814575f80fd5b5060075461048890600160401b900460ff1681565b348015610834575f80fd5b50610488610843366004613c93565b611850565b348015610853575f80fd5b50600454610766906001600160a01b031681565b348015610872575f80fd5b506104a061186e565b348015610886575f80fd5b5061069560095481565b34801561089b575f80fd5b50600e5461048890610100900460ff1681565b6104a06108bc366004613b4c565b6118a8565b3480156108cc575f80fd5b50600954610695565b3480156108e0575f80fd5b5061069560015481565b3480156108f5575f80fd5b50600e546104889062010000900460ff1681565b348015610914575f80fd5b5060065461092990600160a01b900460ff1681565b6040516104519190613d68565b348015610941575f80fd5b506104a0611ab7565b348015610955575f80fd5b50610695610964366004613aa9565b60166020525f908152604090205481565b348015610980575f80fd5b5060075461048890600160481b900460ff1681565b3480156109a0575f80fd5b506104886109af366004613aa9565b60146020525f908152604090205460ff1681565b3480156109ce575f80fd5b50610444611ac7565b3480156109e2575f80fd5b506107666109f1366004613aa9565b60186020525f90815260409020546001600160a01b031681565b348015610a16575f80fd5b506013546107669061010090046001600160a01b031681565b348015610a3a575f80fd5b506104a0610a49366004613aa9565b611ad4565b348015610a59575f80fd5b50610695610a68366004613aa9565b60156020525f908152604090205481565b348015610a84575f80fd5b506104a0610a93366004613d76565b611c2e565b348015610aa3575f80fd5b50610aac601481565b60405160ff9091168152602001610451565b348015610ac9575f80fd5b5061069560035481565b348015610ade575f80fd5b506104a0610aed366004613dc1565b611c41565b348015610afd575f80fd5b506104a0610b0c366004613aa9565b611e35565b348015610b1c575f80fd5b506104a0611e4f565b348015610b30575f80fd5b50610695610b3f366004613b4c565b60106020525f908152604090205481565b6104a0611e89565b348015610b63575f80fd5b50600654610766906001600160a01b031681565b348015610b82575f80fd5b506104a0610b91366004613c31565b611e99565b348015610ba1575f80fd5b50600e546104889060ff1681565b348015610bba575f80fd5b5061069560085481565b348015610bcf575f80fd5b506001545f90815260156020908152604080832054601683528184205460189093529220546001600160a01b03166040805193845260208401929092526001600160a01b031690820152606001610451565b348015610c2c575f80fd5b50610766610c3b366004613aa9565b611eaa565b60028054610c4d90613e3b565b80601f0160208091040260200160405190810160405280929190818152602001828054610c7990613e3b565b8015610cc45780601f10610c9b57610100808354040283529160200191610cc4565b820191905f5260205f20905b815481529060010190602001808311610ca757829003601f168201915b505050505081565b610cd4611ed2565b600e546301000000900460ff1615610cfe5760405162461bcd60e51b815260040161040f90613e73565b6004546001600160a01b03163303610d295760405163241b8ad160e01b815260040160405180910390fd5b600754600160401b900460ff1615610d5457604051630cd9ed5560e21b815260040160405180910390fd5b5f600654600160a01b900460ff166005811115610d7357610d73613b67565b14610d91576040516338961af360e21b815260040160405180910390fd5b600e54610100900460ff16610db957604051632f4be5eb60e01b815260040160405180910390fd5b600c545f03610ddb57604051633696af9160e21b815260040160405180910390fd5b600c543414610dfd5760405163cd3cb2bb60e01b815260040160405180910390fd5b600580546001600160a01b03191633908117909155600b805460ff191660011790556007805460ff60401b1916600160401b17905560068054346009819055600160a01b6001600160401b034216600160a81b0260ff60a01b19811668ffffffffffffffffff60a01b198516178217909455604080519283525167ffffffffffffffff60a81b199093169093179290920460ff1692917fb174fa471e84119f4f007a8fb9520d7eb7a08f107f0b16169d85b5148220d499919081900360200190a2600654600160a01b900460ff166005811115610edc57610edc613b67565b816005811115610eee57610eee613b67565b6001546040515f8051602061426e83398151915290610f14903390429034905f90613e94565b60405180910390a46005546004546001546006546003546007546040516001600160a01b039687169695909516945f8051602061424e83398151915293610f7f9360ff600160a01b90920482169342939192600160401b8204811692600160481b9092041690613eba565b60405180910390a450610f9160015f55565b565b610f9b611ed2565b610fa784848484611efa565b610fb060015f55565b50505050565b610fbe611ed2565b610fc6612106565b610f9160015f55565b610fd7611ed2565b600754600160401b900460ff161561100257604051630cd9ed5560e21b815260040160405180910390fd5b6004546001600160a01b0316330361102d5760405163241b8ad160e01b815260040160405180910390fd5b600954341461104f5760405163cd3cb2bb60e01b815260040160405180910390fd5b6007805460ff60401b1916600160401b179055600580546001600160a01b0319163317815560068054600160a01b6001600160401b034216600160a81b0260ff60a01b19811668ffffffffffffffffff60a01b1984161782179384905567ffffffffffffffff60a81b1990921690911781900460ff908116939190920490911690811115610edc57610edc613b67565b6110e7611ed2565b610fc6612197565b6110f7611ed2565b600e546301000000900460ff16156111215760405162461bcd60e51b815260040161040f90613e73565b6001600654600160a01b900460ff16600581111561114157611141613b67565b1461115f576040516338961af360e21b815260040160405180910390fd5b600754600160401b900460ff16611189576040516363aae7a360e01b815260040160405180910390fd5b6007805467ffffffffffffffff1916426001600160401b03161790556006805460ff60a01b1916600160a11b179055600a6111c48282613f3a565b506004546001546040516001600160a01b03909216917fb1bee1c3a571801e777816ab27066e7259642a42d54fcf1be8b843020f3026d0906112099085904290613ff5565b60405180910390a36001546004546005546003546040516001600160a01b0393841693909216917f55449ea4bfb1a49e3773400e2c2c21c966df568341289e891d06779ea079f5f19161125f9187904290614016565b60405180910390a461127060015f55565b50565b61127b611ed2565b610fc6612379565b61128b611ed2565b600e546301000000900460ff16156112b55760405162461bcd60e51b815260040161040f90613e73565b6112c0838383612441565b6112c960015f55565b505050565b6004546001600160a01b031633146112f957604051635ec8235160e01b815260040160405180910390fd5b600e546301000000900460ff16156113235760405162461bcd60e51b815260040161040f90613e73565b5f600654600160a01b900460ff16600581111561134257611342613b67565b14611360576040516338961af360e21b815260040160405180910390fd5b600e5460ff16156113845760405163d81ee33560e01b815260040160405180910390fd5b600c54156113c25760405162461bcd60e51b815260206004820152600b60248201526a105b1c9958591e481cd95d60aa1b604482015260640161040f565b815f036113fe5760405162461bcd60e51b815260206004820152600a6024820152695a65726f20707269636560b01b604482015260640161040f565b8061141c5760405163096f80dd60e01b815260040160405180910390fd5b600c829055600d819055600e8054600161ffff199091168415156101000260ff1916171790556004546040516bffffffffffffffffffffffff1930606090811b821660208401529290921b90911660348201525f9060480160408051601f198184030181528282528051602091820120908301869052908201819052915060600160408051808303601f190181529082905280516020918201206003558482527f7a14d7ccccfb09b683d7f1a147604c270932fb78b00f19d71b374a214c8ccd34910160405180910390a16001546040518381527fa4c1357de062a8c36aff89abdeb1edab5f2af92edb3cfc81ef3d6c7f0e4efd8f9060200160405180910390a2505050565b60135461010090046001600160a01b0316331461155257604051631966391b60e11b815260040160405180910390fd5b600e805463ff00000019166301000000179055565b601a8054610c4d90613e3b565b61157c611ed2565b610fc6612817565b604080516020808201859052818301849052825180830384018152606090920190925280519101205b92915050565b6115bb611ed2565b600e546301000000900460ff16156115e55760405162461bcd60e51b815260040161040f90613e73565b610fc66128b9565b60125460609081905f816001600160401b0381111561160e5761160e613b95565b604051908082528060200260200182016040528015611637578160200160208202803683370190505b5090505f826001600160401b0381111561165357611653613b95565b60405190808252806020026020018201604052801561167c578160200160208202803683370190505b5090505f5b8381101561174a576012818154811061169c5761169c61403e565b905f5260205f20015f9054906101000a90046001600160a01b03168382815181106116c9576116c961403e565b60200260200101906001600160a01b031690816001600160a01b03168152505060105f601283815481106116ff576116ff61403e565b5f9182526020808320909101546001600160a01b0316835282019290925260400190205482518390839081106117375761173761403e565b6020908102919091010152600101611681565b509094909350915050565b6004546001600160a01b0316331461178057604051635ec8235160e01b815260040160405180910390fd5b600e8054821515620100000262ff0000199091161790556001546040517f13270f99fd1281e6166e67a1e45c9e865c7e8bb73742923160f06288f031a5a5906117ce90841515815260200190565b60405180910390a250565b6004546001600160a01b0316331461180457604051635ec8235160e01b815260040160405180910390fd5b600e80548215156101000261ff00199091161790556001546040517fb3026627a4b39a1f926ed1429f9efd406f06fa04976211232fa3c9d83634a7de906117ce90841515815260200190565b5f611859611ed2565b6118638383612c33565b90506115ad60015f55565b611876611ed2565b600e546301000000900460ff16156118a05760405162461bcd60e51b815260040161040f90613e73565b610fc6612cbf565b6004546001600160a01b031633146118d357604051635ec8235160e01b815260040160405180910390fd5b6118db611ed2565b6002600654600160a01b900460ff1660058111156118fb576118fb613b67565b14611919576040516338961af360e21b815260040160405180910390fd5b600754611933906202a300906001600160401b0316614066565b6001600160401b031642111561195c57604051635cb46abd60e11b815260040160405180910390fd5b6001600160a01b0381165f9081526011602052604090205460ff16611994576040516313c4b1bd60e21b815260040160405180910390fd5b6001600160a01b0381165f9081526010602052604090205434146119cb576040516305d12ebd60e11b815260040160405180910390fd5b34600855600680546001600160a01b0383166001600160a81b031982168117600360a01b179283905560ff600160a01b6001600160a01b031990931690911782900481169291909104166005811115611a2657611a26613b67565b816005811115611a3857611a38613b67565b6001546040515f8051602061426e83398151915290611a5e903390429034905f90613e94565b60405180910390a4600154604080513481524260208201526001600160a01b03851692917fb3a6f9e87147708b91c683cf0646a61e9818f704c7b2aca449a1bbe58ed681b7910160405180910390a35061127060015f55565b611abf611ed2565b610fc6612e9a565b600a8054610c4d90613e3b565b6004546001600160a01b03163314611aff57604051635ec8235160e01b815260040160405180910390fd5b600e546301000000900460ff1615611b295760405162461bcd60e51b815260040161040f90613e73565b5f600654600160a01b900460ff166005811115611b4857611b48613b67565b14611b66576040516338961af360e21b815260040160405180910390fd5b600c5415611ba45760405162461bcd60e51b815260206004820152600b60248201526a105b1c9958591e481cd95d60aa1b604482015260640161040f565b805f03611be05760405162461bcd60e51b815260206004820152600a6024820152695a65726f20707269636560b01b604482015260640161040f565b600c819055600e805461ff001916821515610100021790556040518181527f7a14d7ccccfb09b683d7f1a147604c270932fb78b00f19d71b374a214c8ccd349060200160405180910390a150565b611c36611ed2565b6112c0838383612f6b565b60135460ff1615611c645760405162dc149f60e41b815260040160405180910390fd5b6001600160a01b038316611c8b57604051633649397d60e21b815260040160405180910390fd5b84515f03611cac57604051632ef1310560e01b815260040160405180910390fd5b83611cca5760405163096f80dd60e01b815260040160405180910390fd5b855f03611cea576040516315393ee960e01b815260040160405180910390fd5b336001600160a01b03821614611d1357604051631966391b60e11b815260040160405180910390fd5b6013805460016001600160a81b03199091166101006001600160a01b038516021781179091558690556002611d488682613f3a565b5060038490556009829055600480546001600160a01b0385166001600160a01b031991821681179092556007805460ff60401b191690819055600580549092169091556006805460ff60a01b191690819055600e805462ffff001916620101001790556001546040515f949391925f8051602061424e83398151915292611df59260ff600160a01b90930483169242928d92600160401b8204831692600160481b90920490911690613eba565b60405180910390a45f806001546040515f8051602061426e83398151915290611e2590339042905f908190613e94565b60405180910390a4505050505050565b611e3d611ed2565b611e46816130be565b61127060015f55565b611e57611ed2565b600e546301000000900460ff1615611e815760405162461bcd60e51b815260040161040f90613e73565b610fc66131e5565b611e91611ed2565b610fc6610fcf565b611ea1611ed2565b611e4681613429565b60128181548110611eb9575f80fd5b5f918252602090912001546001600160a01b0316905081565b60025f5403611ef457604051633ee5aeb560e01b815260040160405180910390fd5b60025f55565b600754600160401b900460ff1615611f2557604051630cd9ed5560e21b815260040160405180910390fd5b6004546001600160a01b03163303611f505760405163241b8ad160e01b815260040160405180910390fd5b6009543414611f725760405163cd3cb2bb60e01b815260040160405180910390fd5b6007805460ff60401b1916600160401b179055600580546001600160a01b0319163317815560068054600160a01b6001600160401b034216600160a81b0260ff60a01b19811668ffffffffffffffffff60a01b1984161782179384905567ffffffffffffffff60a81b1990921690911781900460ff90811693919092049091169081111561200257612002613b67565b81600581111561201457612014613b67565b6001545f8051602061426e8339815191523342348b6040516120399493929190613e94565b60405180910390a460038590556019849055601a61205883858361408d565b507f4a9b2fdb1ca123b2dcd619b96b8d7d931170150da9a5022fd88f61778ea02eee84848460405161208c93929190614147565b60405180910390a16005546004546001546006546003546007546040516001600160a01b039687169695909516945f8051602061424e833981519152936120f79360ff600160a01b90920482169342939192600160401b8204811692600160481b9092041690613eba565b60405180910390a45050505050565b335f9081526011602052604090205460ff166121355760405163aba4733960e01b815260040160405180910390fd5b335f908152600f60205260408120805434929061215390849061417c565b90915550506001546040805134815242602082015233917f71cecf99686d47cb06f39da5eb60998c67a29d841a6910f4a2d03f6914b15faf910160405180910390a3565b6002600654600160a01b900460ff1660058111156121b7576121b7613b67565b146121d5576040516338961af360e21b815260040160405180910390fd5b600654336001600160a01b039091160361220257604051636541c70760e01b815260040160405180910390fd5b335f90815260106020908152604080832054600f9092529091205481158015612229575080155b156122475760405163aba4733960e01b815260040160405180910390fd5b335f908152601060209081526040808320839055600f825280832083905560119091529020805460ff19169055600780545f1963ffffffff600160501b808404821692909201160263ffffffff60501b19909116179055808015612337576040515f90339083908381818185875af1925050503d805f81146122e4576040519150601f19603f3d011682016040523d82523d5f602084013e6122e9565b606091505b505090508061230b57604051633c31275160e21b815260040160405180910390fd5b6001546040805184815242602082015233915f8051602061428e833981519152910160405180910390a3505b6001546040805183815242602082015233917f164c002a9cd3be32beaf51ed86c6eb23980a3a7406bea64d3b6fb61ff0627312910160405180910390a3505050565b600754600160401b900460ff166123a3576040516363aae7a360e01b815260040160405180910390fd5b6006546123c390600160a81b90046001600160401b03166202a300614066565b6001600160401b03164210156123ec57604051635af3776760e11b815260040160405180910390fd5b6004546001546040516001600160a01b03909216917f61c21c5e720c70cb40ef6f4a344ba3a38385764279e61646797d7195862b10389061243190600290429061418f565b60405180910390a3610f916134a5565b6001548314612463576040516329895ce760e01b815260040160405180910390fd5b81612481576040516307b51a9f60e01b815260040160405180910390fd5b8061249f57604051635716645360e11b815260040160405180910390fd5b5f600654600160a01b900460ff1660058111156124be576124be613b67565b146124dc57604051630cd9ed5560e21b815260040160405180910390fd5b600e5462010000900460ff166125055760405163c7d1c8a360e01b815260040160405180910390fd5b6001545f908152601560205260409020541561253457604051630d70a0e360e41b815260040160405180910390fd5b5f8281526017602052604090205460ff161561256357604051638524c8b760e01b815260040160405180910390fd5b5f8281526014602052604090205460ff16156125925760405163bde56c7560e01b815260040160405180910390fd5b6005546001600160a01b031633148015906125b857506004546001600160a01b03163314155b156125d65760405163721c7c6760e11b815260040160405180910390fd5b600580546001600160a01b03191633179055600b80546002919060ff191660018302179055506007805460ff60401b1916600160401b179055600680546001600160401b034216600160a81b0267ffffffffffffffff60a81b199091161781555f838152601460209081526040808320805460ff199081166001908117909255601784528285208054909116821790558054845260158352818420879055805484526016835281842086905580548452601890925290912080546001600160a01b031916331790558154600160a01b80820460ff16939160ff60a01b19169083021790555060055460408051858152602081018590526001600160a01b03909216917faa3d8f202adfb9a31da35e239cd3368d44e926ce49783b25aa1ce5eefbda0ee4910160405180910390a2600654600160a01b900460ff16600581111561272157612721613b67565b81600581111561273357612733613b67565b6001545f8051602061426e83398151915233425f896040516127589493929190613e94565b60405180910390a46005546004546001546006546003546007546040516001600160a01b039687169695909516945f8051602061424e833981519152936127c39360ff600160a01b90920482169342939192600160401b8204811692600160481b9092041690613eba565b60405180910390a46001546040805185815260208101859052428183015290513392917f74625d9316cf25c353464f0bd06b4e08bee3457e0ff90064a4d775bf7b4ad41f919081900360600190a350505050565b6005546001600160a01b031633146128425760405163239700bf60e11b815260040160405180910390fd5b6006546001600160a01b031661286b57604051632dec64c560e21b815260040160405180910390fd5b600754600160401b900460ff16612895576040516363aae7a360e01b815260040160405180910390fd5b600554600480546001600160a01b0319166001600160a01b03909216919091179055565b600754600160481b900460ff16156128e45760405163b9f7965360e01b815260040160405180910390fd5b6007546128fe906202a300906001600160401b0316614066565b6001600160401b031642116129255760405162792a1f60e41b815260040160405180910390fd5b60068054600560a01b60ff60a01b19821617909155600b5460ff600160a01b90920482169160019116600281111561295f5761295f613b67565b03612b94576007545f9062015180906001600160401b039081166202a30001164203046001019050600a8111156129945750600a5b6006546001600160a01b03165f908152600f60205260409020546064600a8383020204908111156129db57506006546001600160a01b03165f908152600f60205260409020545b600980545f9182905560055460405191840192916001600160a01b039091169083908381818185875af1925050503d805f8114612a33576040519150601f19603f3d011682016040523d82523d5f602084013e612a38565b606091505b5050905080612a5a57604051634de99c0760e11b815260040160405180910390fd5b600154600554604080518581524260208201526001600160a01b03909216915f8051602061428e833981519152910160405180910390a38215612b8f576005546040515f916001600160a01b03169085908381818185875af1925050503d805f8114612ae1576040519150601f19603f3d011682016040523d82523d5f602084013e612ae6565b606091505b5050905080612b1e57600554604051630e21dcbb60e11b81526001600160a01b0390911660048201526024810185905260440161040f565b60015460065460408051878152606060208201819052600d908201526c4c6174652064656c697665727960981b6080820152428183015290516001600160a01b03909216917f74aa2e28f7b4b788794b0589b7b5e114258a3d8bec564c58f1ef20e1190955c99181900360a00190a3505b505050505b600654600160a01b900460ff166005811115612bb257612bb2613b67565b816005811115612bc457612bc4613b67565b6001546040515f8051602061426e83398151915290612bea90339042905f908190613e94565b60405180910390a46001546040805142808252602082015233917fffebe5f1356068669eb471975def148f6b65e9e68117515891d2c0d932ff40fd91015b60405180910390a350565b5f808383604051602001612c51929190918252602082015260400190565b60408051601f1981840301815282825280516020918201206003546001548986529285018190528114928401839052426060850152935090917fb362236dce8c2eeb21f4ce21b78d321d6c8090fbbb9bd04a572134a0a4f85e3b9060800160405180910390a2949350505050565b6002600654600160a01b900460ff166005811115612cdf57612cdf613b67565b14612cfd576040516338961af360e21b815260040160405180910390fd5b600754612d17906202a300906001600160401b0316614066565b6001600160401b03164211612d3f57604051635cb46abd60e11b815260040160405180910390fd5b60068054600560a01b60ff60a01b19821617909155600b5460ff600160a01b909204821691600191166002811115612d7957612d79613b67565b03612e39576009548015612e37575f60098190556005546040516001600160a01b039091169083908381818185875af1925050503d805f8114612dd7576040519150601f19603f3d011682016040523d82523d5f602084013e612ddc565b606091505b5050905080612dfe57604051634de99c0760e11b815260040160405180910390fd5b600154600554604080518581524260208201526001600160a01b03909216915f8051602061428e833981519152910160405180910390a3505b505b600654600160a01b900460ff166005811115612e5757612e57613b67565b816005811115612e6957612e69613b67565b6001546040515f8051602061426e83398151915290612e8f90339042905f908190613e94565b60405180910390a450565b6004546001600160a01b03163314612ec557604051635ec8235160e01b815260040160405180910390fd5b6006546001600160a01b0316612eee57604051632dec64c560e21b815260040160405180910390fd5b600754600160401b900460ff16612f18576040516363aae7a360e01b815260040160405180910390fd5b600154600654600454604080515f81524260208201526001600160a01b0393841693909216917fcbe65503d49b339995178f87ecb673c12c69bcfb6ffd0318d4d1bce0fb4f7aae910160405180910390a4565b6005546001600160a01b03163314612f965760405163239700bf60e11b815260040160405180910390fd5b6006546001600160a01b0316612fbf57604051632dec64c560e21b815260040160405180910390fd5b5f612fca8484611584565b600d549091505f901561308957600c548514612ff95760405163052a400d60e31b815260040160405180910390fd5b6004546040516bffffffffffffffffffffffff1930606090811b821660208401529290921b90911660348201525f906048016040516020818303038152906040528051906020012090508085036130565760035483149150613083565b60408051602080820189905281830184905282518083038401815260609092019092528051910120831491505b50613090565b5060035481145b806130ae5760405163052a400d60e31b815260040160405180910390fd5b6130b78361350d565b5050505050565b6007546014600160501b90910463ffffffff16106130ef57604051637b43073f60e01b815260040160405180910390fd5b335f908152601060205260409020541561311c5760405163119b4fd360e11b815260040160405180910390fd5b335f81815260106020908152604080832085905560118252808320805460ff1916600190811790915560128054808301825594527fbb8a6a4669ba250d26cd7a459eca9d215f8307e33aebe50379bc5a3617ec344490930180546001600160a01b031916851790556007805463ffffffff600160501b808304821687019091160263ffffffff60501b1990911617905591548251858152429281019290925292917f7e892a50c6d38665a5172e75e192913152217c10c3c8625206499f69ec24be239101612c28565b600754600160481b900460ff16156132105760405163b9f7965360e01b815260040160405180910390fd5b6001600654600160a01b900460ff16600581111561323057613230613b67565b1461324e576040516338961af360e21b815260040160405180910390fd5b60065461326f906202a30090600160a81b90046001600160401b0316614066565b6001600160401b0316421161329757604051630854dadf60e31b815260040160405180910390fd5b60068054600560a01b60ff60a01b19821617909155600b5460ff600160a01b9092048216916001911660028111156132d1576132d1613b67565b0361339157600954801561338f575f60098190556005546040516001600160a01b039091169083908381818185875af1925050503d805f811461332f576040519150601f19603f3d011682016040523d82523d5f602084013e613334565b606091505b505090508061335657604051634de99c0760e11b815260040160405180910390fd5b600154600554604080518581524260208201526001600160a01b03909216915f8051602061428e833981519152910160405180910390a3505b505b600654600160a01b900460ff1660058111156133af576133af613b67565b8160058111156133c1576133c1613b67565b6001546040515f8051602061426e833981519152906133e790339042905f908190613e94565b60405180910390a46001546040805142808252602082015233917fa18ab87de3da9694639c738b2cc01f1bc4693826051c6aefd4c51d3cfcc8fc109101612c28565b6004546001600160a01b0316331461345457604051635ec8235160e01b815260040160405180910390fd5b600a6134608282613f3a565b506004546001546040516001600160a01b03909216917fb1bee1c3a571801e777816ab27066e7259642a42d54fcf1be8b843020f3026d090612c289085904290613ff5565b6134b060025f6139b7565b5f6003819055600480546001600160a01b0319908116909155600780546005805490931690925560068054600894909455600168ffffffffffffffff0160a01b03199093169092556dffffffff00ff000000000000000019169055565b600754600160481b900460ff16156135385760405163b9f7965360e01b815260040160405180910390fd5b600754613552906202a300906001600160401b0316614066565b6001600160401b031642111561357b576040516355293b2160e11b815260040160405180910390fd5b6007805469ff0000000000000000001916600160481b1790556006805460ff60a01b198116600160a21b179091556001545f90815260156020908152604080832054601690925290912054600b54600160a01b90930460ff9081169360029116818111156135eb576135eb613b67565b0361369b578115613639576001546040805184815260208101849052428183015290517f6d46ce96ac059308b001b30bc4cd5b3d43fc944846f0f41e58b576d8970541d39181900360600190a25b600654600160a01b900460ff16600581111561365757613657613b67565b83600581111561366957613669613b67565b6001545f8051602061426e83398151915233425f8860405161368e9493929190613e94565b60405180910390a46138d7565b6001600b5460ff1660028111156136b4576136b4613b67565b036138be576009545f8190036136dd57604051637294708f60e11b815260040160405180910390fd5b6006546001600160a01b03165f908152600f6020526040812054600854613704919061417c565b5f60098190556006546001600160a01b039081168252600f602052604080832083905560088390556004549051939450919291169084908381818185875af1925050503d805f8114613771576040519150601f19603f3d011682016040523d82523d5f602084013e613776565b606091505b50509050806137b15760048054604051630e21dcbb60e11b81526001600160a01b03909116918101919091526024810184905260440161040f565b6006546001600160a01b0316158015906137ca57505f82115b15613858576006546040515f916001600160a01b03169084908381818185875af1925050503d805f8114613819576040519150601f19603f3d011682016040523d82523d5f602084013e61381e565b606091505b505090508061385657600654604051630e21dcbb60e11b81526001600160a01b0390911660048201526024810184905260440161040f565b505b600654600160a01b900460ff16600581111561387657613876613b67565b86600581111561388857613888613b67565b6001546040515f8051602061426e833981519152906138ae90339042908a905f90613e94565b60405180910390a45050506138d7565b604051631df9041960e31b815260040160405180910390fd5b600554600480546001600160a01b0319166001600160a01b03909216919091179055600a6139058582613f3a565b506004546001546040516001600160a01b03909216917fb1bee1c3a571801e777816ab27066e7259642a42d54fcf1be8b843020f3026d09061394a9088904290613ff5565b60405180910390a36004546006546005546001546003546040516001600160a01b039586169594851694909316927fbd6e43445766f0f4da00c95fdfbc83f0b4e214cd186c8a1f88d95aa2bcfe7a80926139a99290918b90429061421e565b60405180910390a450505050565b5080546139c390613e3b565b5f825580601f106139d2575050565b601f0160209004905f5260205f209081019061127091905b808211156139fd575f81556001016139ea565b5090565b6020808252602c908201527f50726f64756374457363726f7720646f6573206e6f742061636365707420756e60408201526b0caf0e0cac6e8cac8408aa8960a31b606082015260800190565b5f81518084525f5b81811015613a7157602081850181015186830182015201613a55565b505f602082860101526020601f19601f83011685010191505092915050565b602081525f613aa26020830184613a4d565b9392505050565b5f60208284031215613ab9575f80fd5b5035919050565b5f805f8060608587031215613ad3575f80fd5b843593506020850135925060408501356001600160401b0380821115613af7575f80fd5b818701915087601f830112613b0a575f80fd5b813581811115613b18575f80fd5b886020828501011115613b29575f80fd5b95989497505060200194505050565b6001600160a01b0381168114611270575f80fd5b5f60208284031215613b5c575f80fd5b8135613aa281613b38565b634e487b7160e01b5f52602160045260245ffd5b6020810160038310613b8f57613b8f613b67565b91905290565b634e487b7160e01b5f52604160045260245ffd5b5f82601f830112613bb8575f80fd5b81356001600160401b0380821115613bd257613bd2613b95565b604051601f8301601f19908116603f01168101908282118183101715613bfa57613bfa613b95565b81604052838152866020858801011115613c12575f80fd5b836020870160208301375f602085830101528094505050505092915050565b5f60208284031215613c41575f80fd5b81356001600160401b03811115613c56575f80fd5b613c6284828501613ba9565b949350505050565b5f805f60608486031215613c7c575f80fd5b505081359360208301359350604090920135919050565b5f8060408385031215613ca4575f80fd5b50508035926020909101359150565b604080825283519082018190525f906020906060840190828701845b82811015613cf45781516001600160a01b031684529284019290840190600101613ccf565b505050838103828501528451808252858301918301905f5b81811015613d2857835183529284019291840191600101613d0c565b5090979650505050505050565b5f60208284031215613d45575f80fd5b81358015158114613aa2575f80fd5b60068110613d6457613d64613b67565b9052565b602081016115ad8284613d54565b5f805f60608486031215613d88575f80fd5b833592506020840135915060408401356001600160401b03811115613dab575f80fd5b613db786828701613ba9565b9150509250925092565b5f805f805f8060c08789031215613dd6575f80fd5b8635955060208701356001600160401b03811115613df2575f80fd5b613dfe89828a01613ba9565b955050604087013593506060870135613e1681613b38565b92506080870135915060a0870135613e2d81613b38565b809150509295509295509295565b600181811c90821680613e4f57607f821691505b602082108103613e6d57634e487b7160e01b5f52602260045260245ffd5b50919050565b6020808252600790820152661cdd1bdc1c195960ca1b604082015260600190565b6001600160a01b0394909416845260208401929092526040830152606082015260800190565b60a08101613ec88288613d54565b6020820195909552604081019390935290151560608301521515608090910152919050565b601f8211156112c9575f81815260208120601f850160051c81016020861015613f135750805b601f850160051c820191505b81811015613f3257828155600101613f1f565b505050505050565b81516001600160401b03811115613f5357613f53613b95565b613f6781613f618454613e3b565b84613eed565b602080601f831160018114613f9a575f8415613f835750858301515b5f19600386901b1c1916600185901b178555613f32565b5f85815260208120601f198616915b82811015613fc857888601518255948401946001909101908401613fa9565b5085821015613fe557878501515f19600388901b60f8161c191681555b5050505050600190811b01905550565b604081525f6140076040830185613a4d565b90508260208301529392505050565b838152606060208201525f61402e6060830185613a4d565b9050826040830152949350505050565b634e487b7160e01b5f52603260045260245ffd5b634e487b7160e01b5f52601160045260245ffd5b6001600160401b0381811683821601908082111561408657614086614052565b5092915050565b6001600160401b038311156140a4576140a4613b95565b6140b8836140b28354613e3b565b83613eed565b5f601f8411600181146140e9575f85156140d25750838201355b5f19600387901b1c1916600186901b1783556130b7565b5f83815260209020601f19861690835b8281101561411957868501358255602094850194600190920191016140f9565b5086821015614135575f1960f88860031b161c19848701351681555b505060018560011b0183555050505050565b83815260406020820152816040820152818360608301375f818301606090810191909152601f909201601f1916010192915050565b808201808211156115ad576115ad614052565b604081525f8084546141a081613e3b565b806040860152606060018084165f81146141c157600181146141db57614209565b60ff1985168884015283151560051b880183019550614209565b895f526020805f205f5b868110156142005781548b82018701529084019082016141e5565b8a018501975050505b50505050506020929092019290925292915050565b848152836020820152608060408201525f61423c6080830185613a4d565b90508260608301529594505050505056fe9f1c960b9d97c217a683c8a48a6395f3fc1b01823e207e535d988dc4cd0023bf9b1ad5dd9144239d29f661a13086abe96a509388c4a4f4a0dae5377376d7ee748a419b87c64c242e23ade93d02e2d2e23b51c159b5f765219ea572bf06388f1ea26469706673582212202dfe1e215550f904ef796031f89f47e682013bb51cd83272c1bd7d3f16abee0464736f6c63430008150033",
  "immutableReferences": {},
  "source": "// SPDX-License-Identifier: MIT\npragma solidity ^0.8.0;\n\nimport \"@openzeppelin/contracts/utils/ReentrancyGuard.sol\";\n\n// Standardized custom errors for gas efficiency and consistency\n// Role-specific errors\nerror NotBuyer();\nerror NotSeller();\nerror NotTransporter();\nerror NotFactory();\n\n// Shared business logic errors\nerror InvalidPhase();\nerror InvalidProductId();\nerror InvalidOwnerAddress();\nerror EmptyName();\nerror ZeroPriceCommitment();\nerror CommitmentFrozen();\nerror AlreadyInitialized();\nerror AlreadyPurchased();\nerror AlreadyDelivered();\nerror AlreadyExists();\nerror AlreadyPaid();\nerror AlreadySelected();\n\n// State validation errors\nerror WrongPhase();\nerror TransporterNotSet();\nerror BidCapReached();\nerror NotRegistered();\nerror IncorrectFee();\nerror NotATransporter();\nerror OwnerCannotPurchase();\nerror NotPurchased();\nerror TooEarlyToDelete();\nerror RevealInvalid();\nerror DeliveryTimeout();\nerror PriceZero();\nerror SellerWindowNotExpired();\nerror BiddingWindowNotExpired();\nerror NotYetTimeout();\n\n// Transfer and payment errors\nerror TransferFailed(address to, uint256 amount);\nerror BuyerRefundFailed();\nerror RefundFailed();\nerror IncorrectDeliveryFee();\n\n// Railgun and memo errors\nerror WrongProductId();\nerror ZeroMemoHash();\nerror ZeroTxRef();\nerror WrongPhaseForPayment();\nerror NoTransporter();\nerror MemoAlreadyUsed();\nerror PaymentAlreadyRecorded();\nerror NotParticipant();\n\n// --- Public Purchase Errors ---\nerror PublicDisabled();\nerror PrivateDisabled();\nerror PublicPriceNotSet();\nerror InvalidPurchaseMode();\n\ncontract ProductEscrow_Initializer is ReentrancyGuard {\n    // Packed storage for gas optimization - Group 1 (32 bytes)\n    uint256 public id;\n    string public name;\n    bytes32 public priceCommitment; // Confidential price commitment\n    \n    // Packed storage - Group 2 (32 bytes) - addresses pack together\n    address payable public owner;\n    address payable public buyer;\n    address payable public transporter;\n    \n    // Packed storage - Group 3 (32 bytes) - enum + timestamps + booleans + counters\n    enum Phase { Listed, Purchased, OrderConfirmed, Bound, Delivered, Expired }\n    Phase public phase;\n    uint64 public purchaseTimestamp; // Timestamp when purchase is confirmed\n    uint64 public orderConfirmedTimestamp; // Timestamp when seller confirms order\n    bool public purchased;\n    bool public delivered;\n    uint32 public transporterCount;\n    \n    // Packed storage - Group 4 (32 bytes) - constants pack together\n    uint32 public constant SELLER_WINDOW = 2 days; // Seller must confirm within 48h\n    uint32 public constant BID_WINDOW = 2 days;    // Bidding window after seller confirmation\n    uint32 public constant DELIVERY_WINDOW = 2 days; // Delivery window after transporter is set\n    uint8 public constant MAX_BIDS = 20; // Cap on number of transporter bids\n    \n    // Separate storage for larger values (don't pack with smaller types)\n    uint public deliveryFee;\n    uint public productPrice; // Explicitly track the buyer's deposit amount\n    string public vcCid; // IPFS hash or other identifier\n    \n    // --- Modes ---\n    enum PurchaseMode { None, Public, Private }\n    PurchaseMode public purchaseMode;\n    \n    // --- Pricing/toggles ---\n    uint256 public publicPriceWei;       // 0 = no public price set\n    bytes32 public publicPriceCommitment; // Optional Pedersen-style commitment to the public price\n    bool public commitmentFrozen;        // Commitment immutability flag (frozen after first set)\n    bool public publicEnabled = true;    // both on by default\n    bool public privateEnabled = true;\n    \n    // --- Lightweight kill-switch ---\n    bool private stopped;\n    \n    //  Admin functions to enable/disable purchase modes\n    function setPublicEnabled(bool _enabled) external onlySeller {\n        publicEnabled = _enabled;\n        emit PublicEnabledSet(id, _enabled);\n    }\n    \n    function setPrivateEnabled(bool _enabled) external onlySeller {\n        privateEnabled = _enabled;\n        emit PrivateEnabledSet(id, _enabled);\n    }\n    \n    // Mappings and arrays\n    mapping(address => uint) public securityDeposits; // Track each transporter's deposit\n    mapping(address => uint) public transporters; // Store transporter fees\n    mapping(address => bool) public isTransporter; // Membership mapping for transporters\n    address[] public transporterAddresses; // Store all transporter addresses\n    \n    // Initialization guard\n    bool private _initialized;\n    \n    // Factory access control (immutable after initialization)\n    address public factory;\n    \n    modifier onlyFactory() {\n        if (msg.sender != factory && factory != address(0)) revert NotFactory();\n        _;\n    }\n    \n\n    \n    modifier whenNotStopped() {\n        require(!stopped, \"stopped\");\n        _;\n    }\n    \n    // Cap on number of transporter bids to prevent DoS and high gas\n    function maxBids() internal view virtual returns (uint8) {\n        return MAX_BIDS;\n    }\n    \n    function pauseByFactory() external {\n        if (msg.sender != factory) revert NotFactory();\n        stopped = true;\n    }\n    \n    // Explicit getter for stopped state (UI probes this)\n    function isStopped() external view returns (bool) { \n        return stopped; \n    }\n    \n    // Canonical commitment computation helper (pure function for tests and UI)\n    function computeCommitment(uint256 value, bytes32 salt) public pure returns (bytes32) {\n        return keccak256(abi.encodePacked(value, salt));\n    }\n    \n    // Railgun Integration State\n    mapping(bytes32 => bool) public privatePayments; // Track recorded private payments by memoHash\n    mapping(uint256 => bytes32) public productMemoHashes; // Link productId to memoHash\n    mapping(uint256 => bytes32) public productRailgunTxRefs; // Link productId to Railgun tx reference\n    mapping(bytes32 => bool) public usedMemoHash; // Global reuse guard for memos\n    mapping(uint256 => address) public productPaidBy; // Track who recorded the payment (for audit)\n\n    // Confidential value commitment and proof (Pedersen + Bulletproofs)\n    bytes32 public valueCommitment;\n    bytes public valueRangeProof;\n    event ValueCommitted(bytes32 commitment, bytes proof);\n\n    modifier onlyBuyer() {\n        if (msg.sender != buyer) revert NotBuyer();\n        _;\n    }\n\n    modifier onlySeller() {\n        if (msg.sender != owner) revert NotSeller();\n        _;\n    }\n\n    modifier transporterSet() {\n        if (transporter == address(0)) revert TransporterNotSet();\n        _;\n    }\n\n    modifier onlyTransporter() {\n        if (msg.sender != transporter) revert NotTransporter();\n        _;\n    }\n\n    event OrderConfirmed(address indexed buyer, address indexed seller, uint256 indexed productId, bytes32 priceCommitment, string vcCID, uint256 timestamp);\n    event TransporterCreated(address indexed transporter, uint256 indexed productId, uint fee, uint256 timestamp);\n    event TransporterSecurityDeposit(address indexed transporter, uint256 indexed productId, uint price, uint256 timestamp);\n    event DeliveryConfirmed(address indexed buyer, address indexed transporter, address indexed seller, uint256 productId, bytes32 priceCommitment, string vcCID, uint256 timestamp);\n    event CancelDelivery(address indexed seller, address indexed transporter, uint256 indexed productId, uint buyerRefund, uint256 timestamp);\n    event ProductDeleted(uint256 indexed productId, string productName, address indexed seller, uint256 timestamp);\n    event VcUpdated(uint256 indexed productId, string cid, address indexed seller, uint256 timestamp);\n    event ValueRevealed(uint256 indexed productId, uint revealedValue, bytes32 commitment, bool valid, uint256 timestamp);\n    event FundsTransferred(address indexed to, uint256 indexed productId, uint amount, uint256 timestamp);\n    event PenaltyApplied(address indexed to, uint256 indexed productId, uint amount, string reason, uint256 timestamp);\n    event DeliveryTimeoutEvent(address indexed caller, uint256 indexed productId, uint time, uint256 timestamp);\n    event SellerTimeout(address indexed caller, uint256 indexed productId, uint time, uint256 timestamp);\n    event PhaseChanged(uint256 indexed productId, Phase indexed from, Phase indexed to, address actor, uint256 timestamp, uint256 value, bytes32 ref);\n    event BidWithdrawn(address indexed transporter, uint256 indexed productId, uint amount, uint256 timestamp);\n    event TransporterSelected(uint256 indexed productId, address indexed transporter, uint256 fee, uint256 timestamp);\n    \n    // Comprehensive product state change event for frontend indexing\n    event PublicEnabledSet(uint256 indexed id, bool enabled);\n    event PrivateEnabledSet(uint256 indexed id, bool enabled);\n    \n    event ProductStateChanged(\n        uint256 indexed productId,\n        address indexed seller,\n        address indexed buyer,\n        Phase phase,\n        uint256 timestamp,\n        bytes32 priceCommitment,\n        bool purchased,\n        bool delivered\n    );\n    \n    // Railgun Integration Events\n    event PaidPrivately(uint256 indexed productId, bytes32 memoHash, bytes32 railgunTxRef, uint256 timestamp);\n    event PrivatePaymentRecorded(uint256 indexed productId, bytes32 memoHash, bytes32 railgunTxRef, address indexed recorder, uint256 timestamp);\n    \n    // --- Public Purchase Events ---\n    event PublicPriceSet(uint256 priceWei);\n    event PublicPriceCommitmentSet(uint256 indexed id, bytes32 commitment);\n    event PurchasedPublic(address indexed buyer, uint256 amount);\n    event PurchasedPrivate(address indexed buyer, bytes32 memoHash, bytes32 railgunTxRef);\n\n    // Initialize function instead of constructor\n    function initialize(\n        uint256 _id,\n        string memory _name,\n        bytes32 _priceCommitment,\n        address _owner,\n        uint256 _productPrice,\n        address _factory\n    ) external {\n        if (_initialized) revert AlreadyInitialized();\n        if (_owner == address(0)) revert InvalidOwnerAddress();\n        if (bytes(_name).length == 0) revert EmptyName();\n        if (_priceCommitment == bytes32(0)) revert ZeroPriceCommitment();\n        if (_id == 0) revert InvalidProductId();\n        if (msg.sender != _factory) revert NotFactory(); //  Only factory can initialize\n        \n        _initialized = true;\n        \n        // Bind to factory (immutable after initialization)\n        factory = _factory;\n        \n        id = _id;\n        name = _name;\n        priceCommitment = _priceCommitment;\n        productPrice = _productPrice; //  Set the price during initialization\n        owner = payable(_owner);\n        purchased = false;\n        buyer = payable(address(0));\n        phase = Phase.Listed;\n        \n        //  Explicitly enable both purchase modes during initialization\n        publicEnabled = true;\n        privateEnabled = true;\n        \n        // Emit comprehensive state change event\n        emit ProductStateChanged(id, owner, buyer, phase, block.timestamp, priceCommitment, purchased, delivered);\n        \n        // Emit PhaseChanged event for initialization\n        emit PhaseChanged(id, Phase.Listed, Phase.Listed, msg.sender, block.timestamp, 0, bytes32(0));\n    }\n\n    // Seller sets a public price (add)\n    function setPublicPrice(uint256 priceWei) external onlySeller whenNotStopped {\n        if (phase != Phase.Listed) revert WrongPhase();\n        if (publicPriceWei != 0) revert(\"Already set\");\n        if (priceWei == 0) revert(\"Zero price\");\n        \n        publicPriceWei = priceWei;\n        publicEnabled = (priceWei > 0); //  Auto-enable when price is set\n        emit PublicPriceSet(priceWei);\n    }\n\n    /// @notice Set the public price together with its Pedersen commitment.\n    /// @dev The commitment is frozen after first set to ensure immutability.\n    /// @param priceWei The public price in Wei\n    /// @param commitment The Pedersen commitment (bytes32) to the price\n    function setPublicPriceWithCommitment(uint256 priceWei, bytes32 commitment) external onlySeller whenNotStopped {\n        if (phase != Phase.Listed) revert WrongPhase();\n        if (commitmentFrozen) revert CommitmentFrozen(); // Explicit immutability check\n        if (publicPriceWei != 0) revert(\"Already set\"); // Defense in depth\n        if (priceWei == 0) revert(\"Zero price\");\n        if (commitment == bytes32(0)) revert ZeroPriceCommitment();\n\n        publicPriceWei = priceWei;\n        publicPriceCommitment = commitment; // Pedersen commitment (Ristretto point) for ZKP verification\n        publicEnabled = (priceWei > 0);\n        commitmentFrozen = true; // Freeze immediately after setting\n        \n        //  Also update priceCommitment for revealAndConfirmDelivery compatibility\n        // Compute deterministic blinding factor: keccak256(productAddress, sellerAddress)\n        bytes32 deterministicBlinding = keccak256(abi.encodePacked(address(this), owner));\n        // Compute keccak256 commitment: keccak256(priceWei, deterministicBlinding)\n        priceCommitment = keccak256(abi.encodePacked(priceWei, deterministicBlinding));\n\n        emit PublicPriceSet(priceWei);\n        emit PublicPriceCommitmentSet(id, commitment);\n    }\n    \n    // Simple order confirmation function (from working version)\n    function confirmOrder(string memory vcCID) public nonReentrant whenNotStopped {\n        if (phase != Phase.Purchased) revert WrongPhase();\n        if (!purchased) revert NotPurchased();\n        \n        orderConfirmedTimestamp = uint64(block.timestamp);\n        phase = Phase.OrderConfirmed;\n        \n        vcCid = vcCID;\n        emit VcUpdated(id, vcCID, owner, block.timestamp);\n        emit OrderConfirmed(buyer, owner, id, priceCommitment, vcCID, block.timestamp);\n    }\n\n    function updateVcCid(string memory cid) public nonReentrant {\n        _updateVcCid(cid);\n    }\n\n    function _updateVcCid(string memory cid) internal onlySeller {\n        vcCid = cid;\n        emit VcUpdated(id, cid, owner, block.timestamp);\n    }\n\n    function depositPurchasePrivate(bytes32 _commitment, bytes32 _valueCommitment, bytes calldata _valueRangeProof) public payable nonReentrant {\n        _depositPurchase(_commitment, _valueCommitment, _valueRangeProof);\n    }\n\n    // Simple public purchase function for non-private transactions (from working version)\n    function depositPurchase() public payable nonReentrant {\n        if (purchased) revert AlreadyPurchased();\n        if (msg.sender == owner) revert OwnerCannotPurchase();\n        if (msg.value != productPrice) revert IncorrectFee(); //  Exact price match\n        \n        purchased = true;\n        buyer = payable(msg.sender);\n        purchaseTimestamp = uint64(block.timestamp);\n        // productPrice stays the same (don't overwrite the original price)\n        \n        Phase oldPhase = phase;\n        phase = Phase.Purchased;\n        \n        emit PhaseChanged(id, oldPhase, phase, msg.sender, block.timestamp, msg.value, bytes32(0));\n        //  Remove OrderConfirmed - that's for seller confirmation, not purchase\n        \n        // Emit comprehensive state change event\n        emit ProductStateChanged(id, owner, buyer, phase, block.timestamp, priceCommitment, purchased, delivered);\n    }\n\n    // Public purchase entrypoint (add)\n    function purchasePublic() external payable nonReentrant whenNotStopped {\n        if (msg.sender == owner) revert OwnerCannotPurchase();\n        if (purchased) revert AlreadyPurchased();\n        if (phase != Phase.Listed) revert WrongPhase();\n        if (!publicEnabled) revert PublicDisabled();\n        if (publicPriceWei == 0) revert PublicPriceNotSet();\n        if (msg.value != publicPriceWei) revert IncorrectFee();\n\n        buyer = payable(msg.sender);\n        purchaseMode = PurchaseMode.Public;\n        purchased = true;\n        purchaseTimestamp = uint64(block.timestamp);\n        productPrice = msg.value; //  Escrow the actual ETH received\n\n        Phase oldPhase = phase;\n        phase = Phase.Purchased;\n\n        emit PurchasedPublic(buyer, msg.value);\n        emit PhaseChanged(id, oldPhase, phase, msg.sender, block.timestamp, msg.value, bytes32(0));\n        //  Remove OrderConfirmed - that's for seller confirmation, not purchase\n        \n        // Emit comprehensive state change event\n        emit ProductStateChanged(id, owner, buyer, phase, block.timestamp, priceCommitment, purchased, delivered);\n    }\n    \n    // Frontend compatibility function - alias for depositPurchase\n    function publicPurchase() public payable nonReentrant {\n        depositPurchase();\n    }\n\n    function _depositPurchase(bytes32 _commitment, bytes32 _valueCommitment, bytes calldata _valueRangeProof) internal {\n        if (purchased) revert AlreadyPurchased();\n        if (msg.sender == owner) revert OwnerCannotPurchase();\n        if (msg.value != productPrice) revert IncorrectFee(); //  Check exact price match\n        \n        purchased = true;\n        buyer = payable(msg.sender);\n        purchaseTimestamp = uint64(block.timestamp);\n        // productPrice stays the same (don't overwrite the original price)\n        Phase oldPhase = phase;\n        phase = Phase.Purchased;\n        emit PhaseChanged(id, oldPhase, phase, msg.sender, block.timestamp, msg.value, _commitment);\n        priceCommitment = _commitment;\n        valueCommitment = _valueCommitment;\n        valueRangeProof = _valueRangeProof;\n        emit ValueCommitted(_valueCommitment, _valueRangeProof);\n        //  Remove OrderConfirmed - that's for seller confirmation, not purchase\n        \n        // Emit comprehensive state change event\n        emit ProductStateChanged(id, owner, buyer, phase, block.timestamp, priceCommitment, purchased, delivered);\n    }\n\n    function withdrawProductPrice() public nonReentrant {\n        _withdrawProductPrice();\n    }\n\n    function _withdrawProductPrice() internal onlyBuyer transporterSet {\n        if (!purchased) revert NotPurchased();\n        owner = buyer;\n        // No phase change here, just ownership transfer\n    }\n\n    function cancelDelivery() public nonReentrant {\n        _cancelDelivery();\n    }\n\n    function _cancelDelivery() internal onlySeller transporterSet {\n        if (!purchased) revert NotPurchased();\n        emit CancelDelivery(owner, transporter, id, 0, block.timestamp);\n        // No phase change here\n    }\n\n    function setTransporter(address payable _transporter) external payable onlySeller nonReentrant {\n        if (phase != Phase.OrderConfirmed) revert WrongPhase();\n        if (block.timestamp > orderConfirmedTimestamp + BID_WINDOW) revert BiddingWindowNotExpired();\n        if (!isTransporter[_transporter]) revert NotATransporter();\n        \n        // Verify the delivery fee matches what was bid\n        if (msg.value != transporters[_transporter]) revert IncorrectDeliveryFee();\n        \n        deliveryFee = msg.value; // Use the actual ETH sent\n        transporter = _transporter;\n        \n        Phase oldPhase = phase;\n        phase = Phase.Bound;\n        emit PhaseChanged(id, oldPhase, phase, msg.sender, block.timestamp, msg.value, bytes32(0));\n        emit TransporterSelected(id, _transporter, msg.value, block.timestamp);\n    }\n\n    function createTransporter(uint _feeInWei) public nonReentrant {\n        _createTransporter(_feeInWei);\n    }\n\n    function _createTransporter(uint _feeInWei) internal {\n        if (transporterCount >= MAX_BIDS) revert BidCapReached();\n        if (transporters[msg.sender] != 0) revert AlreadyExists();\n        transporters[msg.sender] = _feeInWei;\n        isTransporter[msg.sender] = true;\n        transporterAddresses.push(msg.sender);\n        \n        // Use unchecked for safe increment\n        unchecked {\n            transporterCount++;\n        }\n        \n        emit TransporterCreated(msg.sender, id, _feeInWei, block.timestamp);\n        // No phase change here\n    }\n\n    function securityDeposit() public payable nonReentrant {\n        _securityDeposit();\n    }\n\n    function _securityDeposit() internal {\n        if (!isTransporter[msg.sender]) revert NotRegistered();\n        securityDeposits[msg.sender] += msg.value;\n        emit TransporterSecurityDeposit(msg.sender, id, msg.value, block.timestamp);\n        // No phase change here\n    }\n\n    // View function to return all transporter addresses and their fees\n    // Optimized to avoid unbounded loops in write operations\n    function getAllTransporters() public view returns (address[] memory, uint[] memory) {\n        uint len = transporterAddresses.length;\n        address[] memory addresses = new address[](len);\n        uint[] memory fees = new uint[](len);\n        \n        // Use unchecked for safe loop operations\n        unchecked {\n            for (uint i = 0; i < len; i++) {\n                addresses[i] = transporterAddresses[i];\n                fees[i] = transporters[transporterAddresses[i]];\n            }\n        }\n        \n        return (addresses, fees);\n    }\n\n    function checkAndDeleteProduct() public nonReentrant {\n        _checkAndDeleteProduct();\n    }\n\n    function _checkAndDeleteProduct() internal {\n        if (!purchased) revert NotPurchased();\n        if (block.timestamp < purchaseTimestamp + 2 days) revert TooEarlyToDelete();\n        emit ProductDeleted(id, name, owner, block.timestamp);\n        deleteProduct();\n        // No phase change here, product is deleted\n    }\n\n    function deleteProduct() internal {\n        delete name;\n        delete priceCommitment;\n        delete owner;\n        delete purchased;\n        delete buyer;\n        delete transporter;\n        delete deliveryFee;\n        delete purchaseTimestamp;\n        delete transporterCount;\n    }\n\n    function verifyRevealedValue(uint revealedValue, bytes32 blinding) public nonReentrant returns (bool) {\n        return _verifyRevealedValue(revealedValue, blinding);\n    }\n\n    function _verifyRevealedValue(uint revealedValue, bytes32 blinding) internal returns (bool) {\n        bytes32 computed = keccak256(abi.encodePacked(revealedValue, blinding));\n        bool valid = (computed == priceCommitment);\n        emit ValueRevealed(id, revealedValue, priceCommitment, valid, block.timestamp);\n        return valid;\n        // No phase change here\n    }\n\n    function revealAndConfirmDelivery(uint revealedValue, bytes32 blinding, string memory vcCID) public nonReentrant {\n        _revealAndConfirmDelivery(revealedValue, blinding, vcCID);\n    }\n\n    function _revealAndConfirmDelivery(uint revealedValue, bytes32 blinding, string memory vcCID) internal {\n        if (msg.sender != buyer) revert NotBuyer();\n        if (transporter == address(0)) revert TransporterNotSet();\n        \n        //  Verify the revealed value matches the commitment\n        bytes32 computed = computeCommitment(revealedValue, blinding);\n        bool valid;\n        \n        //  For public purchases with publicPriceCommitment set\n        if (publicPriceCommitment != bytes32(0)) {\n            // Verify the revealed value matches the public price\n            if (revealedValue != publicPriceWei) revert RevealInvalid();\n            \n            // Check if priceCommitment was updated (new products) or needs to be computed (old products)\n            bytes32 expectedBlinding = keccak256(abi.encodePacked(address(this), owner));\n            if (blinding == expectedBlinding) {\n                // For new products: priceCommitment was updated in setPublicPriceWithCommitment\n                valid = (computed == priceCommitment);\n            } else {\n                // For old products: compute the expected commitment on-the-fly\n                bytes32 expectedCommitment = keccak256(abi.encodePacked(revealedValue, expectedBlinding));\n                valid = (computed == expectedCommitment);\n            }\n        } else {\n            // Legacy/private purchases: check against priceCommitment\n            valid = (computed == priceCommitment);\n        }\n        \n        if (!valid) revert RevealInvalid();\n        _confirmDelivery(vcCID);\n    }\n\n    function _confirmDelivery(string memory vcCID) internal {\n        if (delivered) revert AlreadyDelivered();\n        if (block.timestamp > orderConfirmedTimestamp + DELIVERY_WINDOW) revert DeliveryTimeout();\n        delivered = true;\n        Phase oldPhase = phase;\n        phase = Phase.Delivered;\n\n        // cache for events\n        bytes32 memoHash = productMemoHashes[id];\n        bytes32 railgunTx = productRailgunTxRefs[id];\n\n        if (purchaseMode == PurchaseMode.Private) {\n            // No ETH moves  settlement was private.\n            // If you didn't emit this in recordPrivatePayment(), you can emit it here:\n            if (memoHash != bytes32(0)) {\n                emit PaidPrivately(id, memoHash, railgunTx, block.timestamp);\n            }\n            // value=0, ref=memo (optional convention)\n            emit PhaseChanged(id, oldPhase, phase, msg.sender, block.timestamp, 0, memoHash);\n\n        } else if (purchaseMode == PurchaseMode.Public) {\n            uint256 sellerAmount = productPrice; //  Use escrowed amount, not posted price\n            if (sellerAmount == 0) revert PriceZero();\n\n            // compute transporter payout\n            uint256 transporterAmount = deliveryFee + securityDeposits[transporter];\n\n            // --- Effects first ---\n            productPrice = 0; //  Zero escrowed funds before transfers\n            securityDeposits[transporter] = 0;\n            deliveryFee = 0;\n\n            // --- Interactions ---\n            (bool sentSeller, ) = owner.call{value: sellerAmount}(\"\");\n            if (!sentSeller) revert TransferFailed(owner, sellerAmount);\n\n            if (transporter != address(0) && transporterAmount > 0) {\n                (bool sentTransporter, ) = transporter.call{value: transporterAmount}(\"\");\n                if (!sentTransporter) revert TransferFailed(transporter, transporterAmount);\n            }\n\n            emit PhaseChanged(id, oldPhase, phase, msg.sender, block.timestamp, sellerAmount, bytes32(0));\n\n        } else {\n            revert InvalidPurchaseMode(); // add a small custom error\n        }\n\n        // transfer product ownership & update VC\n        owner = buyer;\n        vcCid = vcCID;\n        emit VcUpdated(id, vcCID, owner, block.timestamp);\n        emit DeliveryConfirmed(buyer, transporter, owner, id, priceCommitment, vcCID, block.timestamp);\n    }\n\n    function timeout() public nonReentrant whenNotStopped {\n        _timeout();\n    }\n\n    function _timeout() internal {\n        if (delivered) revert AlreadyDelivered();\n        if (block.timestamp <= orderConfirmedTimestamp + DELIVERY_WINDOW) revert NotYetTimeout();\n        Phase oldPhase = phase;\n        phase = Phase.Expired;\n        \n        if (purchaseMode == PurchaseMode.Public) {\n            // Use unchecked for safe arithmetic operations\n            unchecked {\n                uint lateDays = (block.timestamp - (orderConfirmedTimestamp + DELIVERY_WINDOW)) / 1 days + 1;\n                if (lateDays > 10) lateDays = 10;\n                uint penalty = (securityDeposits[transporter] * 10 * lateDays) / 100;\n                if (penalty > securityDeposits[transporter]) penalty = securityDeposits[transporter];\n                \n                uint refundToBuyer = productPrice + penalty; //  Use escrowed amount\n                productPrice = 0; //  Zero before transfer\n                (bool sentBuyer, ) = buyer.call{value: refundToBuyer}(\"\");\n                if (!sentBuyer) revert BuyerRefundFailed();\n                emit FundsTransferred(buyer, id, refundToBuyer, block.timestamp);\n                \n                if (penalty > 0) {\n                    (bool sentPenalty, ) = buyer.call{value: penalty}(\"\");\n                    if (!sentPenalty) revert TransferFailed(buyer, penalty);\n                    emit PenaltyApplied(transporter, id, penalty, \"Late delivery\", block.timestamp);\n                }\n            }\n        }\n        // Private mode: no ETH to refund\n        \n        emit PhaseChanged(id, oldPhase, phase, msg.sender, block.timestamp, 0, bytes32(0));\n        emit DeliveryTimeoutEvent(msg.sender, id, block.timestamp, block.timestamp);\n    }\n\n    function sellerTimeout() public nonReentrant whenNotStopped {\n        _sellerTimeout();\n    }\n\n    function _sellerTimeout() internal {\n        if (delivered) revert AlreadyDelivered();\n        if (phase != Phase.Purchased) revert WrongPhase();\n        if (block.timestamp <= purchaseTimestamp + SELLER_WINDOW) revert SellerWindowNotExpired();\n        Phase oldPhase = phase;\n        phase = Phase.Expired;\n        \n        if (purchaseMode == PurchaseMode.Public) {\n            uint256 refundAmount = productPrice; //  Use escrowed amount\n            if (refundAmount > 0) {\n                productPrice = 0; //  Zero before transfer\n                (bool sentBuyer, ) = buyer.call{value: refundAmount}(\"\");\n                if (!sentBuyer) revert BuyerRefundFailed();\n                emit FundsTransferred(buyer, id, refundAmount, block.timestamp);\n            }\n        }\n        // Private mode: no ETH to refund\n        \n        emit PhaseChanged(id, oldPhase, phase, msg.sender, block.timestamp, 0, bytes32(0));\n        emit SellerTimeout(msg.sender, id, block.timestamp, block.timestamp);\n    }\n\n    function bidTimeout() public nonReentrant whenNotStopped {\n        _bidTimeout();\n    }\n\n    function _bidTimeout() internal {\n        if (phase != Phase.OrderConfirmed) revert WrongPhase();\n        if (block.timestamp <= orderConfirmedTimestamp + BID_WINDOW) revert BiddingWindowNotExpired();\n        Phase oldPhase = phase;\n        phase = Phase.Expired;\n        \n        if (purchaseMode == PurchaseMode.Public) {\n            uint256 refundAmount = productPrice; //  Use escrowed amount\n            if (refundAmount > 0) {\n                productPrice = 0; //  Zero before transfer\n                (bool sentBuyer, ) = buyer.call{value: refundAmount}(\"\");\n                if (!sentBuyer) revert BuyerRefundFailed();\n                emit FundsTransferred(buyer, id, refundAmount, block.timestamp);\n            }\n        }\n        // Private mode: no ETH to refund\n        \n        emit PhaseChanged(id, oldPhase, phase, msg.sender, block.timestamp, 0, bytes32(0));\n    }\n\n    function withdrawBid() public nonReentrant {\n        _withdrawBid();\n    }\n\n    function _withdrawBid() internal {\n        if (phase != Phase.OrderConfirmed) revert WrongPhase();\n        if (transporter == msg.sender) revert AlreadySelected();\n        uint fee = transporters[msg.sender];\n        uint deposit = securityDeposits[msg.sender];\n        if (fee == 0 && deposit == 0) revert NotRegistered();\n        \n        transporters[msg.sender] = 0;\n        securityDeposits[msg.sender] = 0;\n        isTransporter[msg.sender] = false;\n        \n        // Use unchecked for safe decrement\n        unchecked {\n            transporterCount--;\n        }\n        \n        uint refundAmount = deposit;\n        if (refundAmount > 0) {\n            (bool sent, ) = payable(msg.sender).call{value: refundAmount}(\"\");\n            if (!sent) revert RefundFailed();\n            emit FundsTransferred(msg.sender, id, refundAmount, block.timestamp);\n        }\n        emit BidWithdrawn(msg.sender, id, refundAmount, block.timestamp);\n        // No phase change here\n    }\n    \n    function recordPrivatePayment(uint256 _productId, bytes32 _memoHash, bytes32 _railgunTxRef) external nonReentrant whenNotStopped {\n        _recordPrivatePayment(_productId, _memoHash, _railgunTxRef);\n    }\n    \n    function _recordPrivatePayment(uint256 _productId, bytes32 _memoHash, bytes32 _railgunTxRef) internal {\n        if (_productId != id) revert WrongProductId();\n        if (_memoHash == bytes32(0)) revert ZeroMemoHash();\n        if (_railgunTxRef == bytes32(0)) revert ZeroTxRef();\n        \n        if (phase != Phase.Listed) revert AlreadyPurchased();\n        if (!privateEnabled) revert PrivateDisabled();\n        \n        if (productMemoHashes[id] != bytes32(0)) revert AlreadyPaid();\n        if (usedMemoHash[_memoHash]) revert MemoAlreadyUsed();\n        if (privatePayments[_memoHash]) revert PaymentAlreadyRecorded();\n        \n        // Restrict to buyer or seller only (no transporter)\n        if (msg.sender != buyer && msg.sender != owner) revert NotParticipant();\n        \n        buyer = payable(msg.sender);\n        purchaseMode = PurchaseMode.Private;\n        purchased = true;\n        purchaseTimestamp = uint64(block.timestamp);\n        \n        privatePayments[_memoHash] = true;\n        usedMemoHash[_memoHash] = true;\n        productMemoHashes[id] = _memoHash;\n        productRailgunTxRefs[id] = _railgunTxRef;\n        productPaidBy[id] = msg.sender;\n        \n        Phase oldPhase = phase;\n        phase = Phase.Purchased;\n        \n        emit PurchasedPrivate(buyer, _memoHash, _railgunTxRef);\n        emit PhaseChanged(id, oldPhase, phase, msg.sender, block.timestamp, 0, _memoHash);\n        //  Remove OrderConfirmed - that's for seller confirmation, not purchase\n        \n        // Emit comprehensive state change event\n        emit ProductStateChanged(id, owner, buyer, phase, block.timestamp, priceCommitment, purchased, delivered);\n        \n        emit PrivatePaymentRecorded(id, _memoHash, _railgunTxRef, msg.sender, block.timestamp);\n    }\n    \n    function hasPrivatePayment() external view returns (bool) {\n        return productMemoHashes[id] != bytes32(0);\n    }\n    \n    function getPrivatePaymentDetails() external view returns (bytes32 memoHash, bytes32 railgunTxRef, address recorder) {\n        memoHash = productMemoHashes[id];\n        railgunTxRef = productRailgunTxRefs[id];\n        recorder = productPaidBy[id];\n    }\n\n    // Add price function for frontend compatibility (from working version)\n    function price() external view returns (uint256) {\n        return productPrice;\n    }\n\n    // Explicitly reject unexpected ETH\n    receive() external payable {\n        revert(\"ProductEscrow does not accept unexpected ETH\");\n    }\n\n    fallback() external payable {\n        revert(\"ProductEscrow does not accept unexpected ETH\");\n    }\n}",
  "sourcePath": "C:\\Users\\yamen\\ev-battery-supplychain\\contracts\\ProductEscrow_Initializer.sol",
  "compiler": {
    "name": "solc",
    "version": "0.8.21+commit.d9974bed.Emscripten.clang"
  },
  "schemaVersion": "3.4.16",
  "updatedAt": "2025-11-12T11:58:37.178Z",
  "networkType": "ethereum",
  "devdoc": {
    "errors": {
      "ReentrancyGuardReentrantCall()": [
        {
          "details": "Unauthorized reentrant call."
        }
      ]
    },
    "kind": "dev",
    "methods": {
      "setPublicPriceWithCommitment(uint256,bytes32)": {
        "details": "The commitment is frozen after first set to ensure immutability.",
        "params": {
          "commitment": "The Pedersen commitment (bytes32) to the price",
          "priceWei": "The public price in Wei"
        }
      }
    },
    "version": 1
  },
  "userdoc": {
    "kind": "user",
    "methods": {
      "setPublicPriceWithCommitment(uint256,bytes32)": {
        "notice": "Set the public price together with its Pedersen commitment."
      }
    },
    "version": 1
  }
}