{
  "contractName": "Escrow",
  "abi": [
    {
      "inputs": [
        {
          "internalType": "address",
          "name": "_seller",
          "type": "address"
        },
        {
          "internalType": "address",
          "name": "_agent",
          "type": "address"
        },
        {
          "internalType": "uint256",
          "name": "secondsTillExpiry",
          "type": "uint256"
        },
        {
          "internalType": "bytes32",
          "name": "_amountCommitment",
          "type": "bytes32"
        }
      ],
      "stateMutability": "payable",
      "type": "constructor"
    },
    {
      "anonymous": false,
      "inputs": [
        {
          "indexed": false,
          "internalType": "uint256",
          "name": "revealedValue",
          "type": "uint256"
        },
        {
          "indexed": false,
          "internalType": "bytes32",
          "name": "commitment",
          "type": "bytes32"
        },
        {
          "indexed": false,
          "internalType": "bool",
          "name": "valid",
          "type": "bool"
        }
      ],
      "name": "AmountRevealed",
      "type": "event"
    },
    {
      "anonymous": false,
      "inputs": [
        {
          "indexed": true,
          "internalType": "address",
          "name": "from",
          "type": "address"
        },
        {
          "indexed": false,
          "internalType": "uint256",
          "name": "amount",
          "type": "uint256"
        }
      ],
      "name": "Deposit",
      "type": "event"
    },
    {
      "anonymous": false,
      "inputs": [
        {
          "indexed": true,
          "internalType": "address",
          "name": "by",
          "type": "address"
        },
        {
          "indexed": false,
          "internalType": "uint256",
          "name": "timestamp",
          "type": "uint256"
        }
      ],
      "name": "EscrowCancelled",
      "type": "event"
    },
    {
      "anonymous": false,
      "inputs": [
        {
          "indexed": true,
          "internalType": "bytes32",
          "name": "amountCommitment",
          "type": "bytes32"
        },
        {
          "indexed": true,
          "internalType": "address",
          "name": "buyer",
          "type": "address"
        },
        {
          "indexed": true,
          "internalType": "address",
          "name": "seller",
          "type": "address"
        }
      ],
      "name": "EscrowCreated",
      "type": "event"
    },
    {
      "anonymous": false,
      "inputs": [
        {
          "indexed": false,
          "internalType": "enum Escrow.Phase",
          "name": "from",
          "type": "uint8"
        },
        {
          "indexed": false,
          "internalType": "enum Escrow.Phase",
          "name": "to",
          "type": "uint8"
        },
        {
          "indexed": false,
          "internalType": "uint256",
          "name": "time",
          "type": "uint256"
        }
      ],
      "name": "PhaseChanged",
      "type": "event"
    },
    {
      "anonymous": false,
      "inputs": [
        {
          "indexed": true,
          "internalType": "address",
          "name": "to",
          "type": "address"
        },
        {
          "indexed": false,
          "internalType": "uint256",
          "name": "amount",
          "type": "uint256"
        }
      ],
      "name": "Withdrawal",
      "type": "event"
    },
    {
      "inputs": [],
      "name": "cancelled",
      "outputs": [
        {
          "internalType": "bool",
          "name": "",
          "type": "bool"
        }
      ],
      "stateMutability": "view",
      "type": "function"
    },
    {
      "inputs": [],
      "name": "depositedAmount",
      "outputs": [
        {
          "internalType": "uint256",
          "name": "",
          "type": "uint256"
        }
      ],
      "stateMutability": "view",
      "type": "function"
    },
    {
      "inputs": [],
      "name": "escrow",
      "outputs": [
        {
          "internalType": "bytes32",
          "name": "amountCommitment",
          "type": "bytes32"
        },
        {
          "internalType": "uint256",
          "name": "deliveryFee",
          "type": "uint256"
        },
        {
          "internalType": "uint256",
          "name": "securityDeposit",
          "type": "uint256"
        },
        {
          "internalType": "uint256",
          "name": "expiryTimeStamp",
          "type": "uint256"
        },
        {
          "internalType": "address payable",
          "name": "buyer",
          "type": "address"
        },
        {
          "internalType": "address payable",
          "name": "seller",
          "type": "address"
        },
        {
          "internalType": "address",
          "name": "agent",
          "type": "address"
        },
        {
          "internalType": "address payable",
          "name": "transporter",
          "type": "address"
        },
        {
          "internalType": "bytes32",
          "name": "verificationCodeHash",
          "type": "bytes32"
        },
        {
          "internalType": "bool",
          "name": "delivered",
          "type": "bool"
        }
      ],
      "stateMutability": "view",
      "type": "function"
    },
    {
      "inputs": [],
      "name": "phase",
      "outputs": [
        {
          "internalType": "enum Escrow.Phase",
          "name": "",
          "type": "uint8"
        }
      ],
      "stateMutability": "view",
      "type": "function"
    },
    {
      "inputs": [
        {
          "internalType": "uint256",
          "name": "",
          "type": "uint256"
        }
      ],
      "name": "transporterAddresses",
      "outputs": [
        {
          "internalType": "address",
          "name": "",
          "type": "address"
        }
      ],
      "stateMutability": "view",
      "type": "function"
    },
    {
      "inputs": [],
      "name": "transporterCount",
      "outputs": [
        {
          "internalType": "uint256",
          "name": "",
          "type": "uint256"
        }
      ],
      "stateMutability": "view",
      "type": "function"
    },
    {
      "inputs": [
        {
          "internalType": "address",
          "name": "",
          "type": "address"
        }
      ],
      "name": "transporters",
      "outputs": [
        {
          "internalType": "uint256",
          "name": "fee",
          "type": "uint256"
        }
      ],
      "stateMutability": "view",
      "type": "function"
    },
    {
      "inputs": [],
      "name": "withdrawAmount",
      "outputs": [
        {
          "internalType": "bool",
          "name": "",
          "type": "bool"
        }
      ],
      "stateMutability": "payable",
      "type": "function"
    },
    {
      "inputs": [
        {
          "internalType": "string",
          "name": "verificationCode",
          "type": "string"
        }
      ],
      "name": "setVerificationCode",
      "outputs": [],
      "stateMutability": "nonpayable",
      "type": "function"
    },
    {
      "inputs": [
        {
          "internalType": "string",
          "name": "verificationCode",
          "type": "string"
        }
      ],
      "name": "delivered",
      "outputs": [
        {
          "internalType": "bool",
          "name": "",
          "type": "bool"
        }
      ],
      "stateMutability": "nonpayable",
      "type": "function"
    },
    {
      "inputs": [
        {
          "internalType": "string",
          "name": "verificationCode",
          "type": "string"
        }
      ],
      "name": "hashTester",
      "outputs": [
        {
          "internalType": "bytes32",
          "name": "",
          "type": "bytes32"
        }
      ],
      "stateMutability": "pure",
      "type": "function"
    },
    {
      "inputs": [
        {
          "internalType": "address payable",
          "name": "_transporter",
          "type": "address"
        }
      ],
      "name": "setTransporter",
      "outputs": [],
      "stateMutability": "payable",
      "type": "function"
    },
    {
      "inputs": [
        {
          "internalType": "uint256",
          "name": "_feeInEther",
          "type": "uint256"
        }
      ],
      "name": "createTransporter",
      "outputs": [],
      "stateMutability": "payable",
      "type": "function"
    },
    {
      "inputs": [],
      "name": "getAllTransporters",
      "outputs": [
        {
          "internalType": "address[]",
          "name": "",
          "type": "address[]"
        },
        {
          "internalType": "uint256[]",
          "name": "",
          "type": "uint256[]"
        }
      ],
      "stateMutability": "view",
      "type": "function"
    },
    {
      "inputs": [
        {
          "internalType": "uint256",
          "name": "revealedValue",
          "type": "uint256"
        },
        {
          "internalType": "bytes32",
          "name": "blinding",
          "type": "bytes32"
        }
      ],
      "name": "verifyRevealedAmount",
      "outputs": [
        {
          "internalType": "bool",
          "name": "",
          "type": "bool"
        }
      ],
      "stateMutability": "nonpayable",
      "type": "function"
    },
    {
      "inputs": [],
      "name": "cancel",
      "outputs": [
        {
          "internalType": "bool",
          "name": "",
          "type": "bool"
        }
      ],
      "stateMutability": "nonpayable",
      "type": "function"
    },
    {
      "inputs": [],
      "name": "deposit",
      "outputs": [],
      "stateMutability": "payable",
      "type": "function"
    },
    {
      "inputs": [],
      "name": "sellerConfirm",
      "outputs": [],
      "stateMutability": "nonpayable",
      "type": "function"
    },
    {
      "inputs": [],
      "name": "checkTimeouts",
      "outputs": [],
      "stateMutability": "nonpayable",
      "type": "function"
    }
  ],
  "bytecode": "0x60806040526040516200171538038062001715833981016040819052620000269162000165565b6040518061014001604052808281526020015f81526020015f81526020018342620000529190620001aa565b8152336020808301919091526001600160a01b039687166040808401919091529587166060808401919091525f60808085018290528851828152808501808b529051902060a08087019190915260c09586019290925285516003559285015160045596840151600555830151600655820151600780546001600160a01b03199081169289169290921790559482015160088054871691881691909117905581015160098054861691871691909117905560e0810151600a80549095169516949094179092555050610100810151600b556101200151600c805460ff1916911515919091179055600d805461ff0019169055620001d0565b80516001600160a01b038116811462000160575f80fd5b919050565b5f805f806080858703121562000179575f80fd5b620001848562000149565b9350620001946020860162000149565b6040860151606090960151949790965092505050565b80820180821115620001ca57634e487b7160e01b5f52601160045260245ffd5b92915050565b61153780620001de5f395ff3fe608060405260043610610110575f3560e01c80639a82a09a1161009d578063d8f133f911610062578063d8f133f91461028f578063e25bd158146102a2578063e2fdcc17146102cd578063ea8a1af014610374578063fa949a0114610388575f80fd5b80639a82a09a146102115780639c8dadae1461022a578063b1c9fe6e1461023d578063bc419f9714610268578063d0e30db014610287575f80fd5b8063534844a2116100e3578063534844a21461017a57806369bad82b1461019257806373391c70146101b157806377db5719146101d05780638a01ea64146101f2575f80fd5b80630a79b51e146101145780631183dbed1461012a5780631d01364c1461013e57806329dac7c614610166575b5f80fd5b34801561011f575f80fd5b506101286103bf565b005b348015610135575f80fd5b50610128610465565b348015610149575f80fd5b50610153600e5481565b6040519081526020015b60405180910390f35b348015610171575f80fd5b506101535f5481565b610182610526565b604051901515815260200161015d565b34801561019d575f80fd5b506101826101ac3660046111a9565b6106ef565b3480156101bc575f80fd5b506101536101cb3660046111a9565b610852565b3480156101db575f80fd5b506101e4610885565b60405161015d929190611215565b3480156101fd575f80fd5b5061018261020c366004611297565b6109b4565b34801561021c575f80fd5b50600d546101829060ff1681565b6101286102383660046112cb565b610a37565b348015610248575f80fd5b50600d5461025b90610100900460ff1681565b60405161015d9190611321565b348015610273575f80fd5b506101286102823660046111a9565b610bf2565b610128610c4e565b61012861029d36600461132f565b610da8565b3480156102ad575f80fd5b506101536102bc3660046112cb565b60016020525f908152604090205481565b3480156102d8575f80fd5b50600354600454600554600654600754600854600954600a54600b54600c5461031a99989796956001600160a01b039081169581169481169316919060ff168a565b604080519a8b5260208b01999099529789019690965260608801949094526001600160a01b03928316608088015290821660a0870152811660c08601521660e084015261010083015215156101208201526101400161015d565b34801561037f575f80fd5b50610182610e8e565b348015610393575f80fd5b506103a76103a236600461132f565b611092565b6040516001600160a01b03909116815260200161015d565b6001600d54610100900460ff1660078111156103dd576103dd6112ed565b148061040457506002600d54610100900460ff166007811115610402576104026112ed565b145b801561041257506006544210155b1561046357600d805461ff0019811661070017909155610100900460ff166104386110ba565b5f805160206114e28339815191528160074260405161045993929190611346565b60405180910390a1505b565b600180600d54610100900460ff166007811115610484576104846112ed565b146104aa5760405162461bcd60e51b81526004016104a19061136f565b60405180910390fd5b6008546001600160a01b031633146104d45760405162461bcd60e51b81526004016104a190611394565b5f805160206114e2833981519152600d60019054906101000a900460ff1660024260405161050493929190611346565b60405180910390a1600d80546002919061ff001916610100835b021790555050565b6008545f906001600160a01b031633146105525760405162461bcd60e51b81526004016104a190611394565b600a546001600160a01b031661057a5760405162461bcd60e51b81526004016104a1906113da565b600580600d54610100900460ff166007811115610599576105996112ed565b146105b65760405162461bcd60e51b81526004016104a19061136f565b600e54806105fd5760405162461bcd60e51b81526020600482015260146024820152734e6f2066756e647320746f20776974686472617760601b60448201526064016104a1565b5f600e8190556008546040516001600160a01b039091169083908381818185875af1925050503d805f811461064d576040519150601f19603f3d011682016040523d82523d5f602084013e610652565b606091505b50509050806106a35760405162461bcd60e51b815260206004820152601960248201527f576974686472617720746f2073656c6c6572206661696c65640000000000000060448201526064016104a1565b6008546040518381526001600160a01b03909116907f7fcf532c15f0a6db0bd6d0e038bea71d30d808c7d98cb3bf7268a95bf5081b659060200160405180910390a26001935050505090565b5f600380600d54610100900460ff16600781111561070f5761070f6112ed565b1461072c5760405162461bcd60e51b81526004016104a19061136f565b6007546001600160a01b031633146107565760405162461bcd60e51b81526004016104a190611422565b600a546001600160a01b031661077e5760405162461bcd60e51b81526004016104a1906113da565b600b546040516107949086908690602001611467565b60405160208183030381529060405280519060200120146107f75760405162461bcd60e51b815260206004820152601f60248201527f566572696669636174696f6e20636f646520646964206e6f74206d617463680060448201526064016104a1565b600c805460ff19166001179055600d546040515f805160206114e2833981519152916108319161010090910460ff16906005904290611346565b60405180910390a15050600d805461ff001916610500179055506001919050565b5f8282604051602001610866929190611467565b6040516020818303038152906040528051906020012090505b92915050565b6060805f60028054905067ffffffffffffffff8111156108a7576108a7611476565b6040519080825280602002602001820160405280156108d0578160200160208202803683370190505b5090505f5b60025481101561094d575f600282815481106108f3576108f361148a565b5f9182526020808320909101546001600160a01b0316808352600190915260409091205484519192509084908490811061092f5761092f61148a565b60209081029190910101525080610945816114b2565b9150506108d5565b50600281818054806020026020016040519081016040528092919081815260200182805480156109a457602002820191905f5260205f20905b81546001600160a01b03168152600190910190602001808311610986575b5050505050915092509250509091565b5f8083836040516020016109d2929190918252602082015260400190565b60408051808303601f1901815282825280516020918201206003548885529184018290529081149183018290529250907f42928792ea50dcdbd3195fd99a442bc42c29ca2b11504b26c87443b383e257fb9060600160405180910390a1949350505050565b6008546001600160a01b03163314610a615760405162461bcd60e51b81526004016104a190611394565b600280600d54610100900460ff166007811115610a8057610a806112ed565b14610a9d5760405162461bcd60e51b81526004016104a19061136f565b6001600160a01b0382165f908152600160205260409020543414610b0f5760405162461bcd60e51b8152602060048201526024808201527f53656c6c6572206e6565647320746f206465706f7369742064656c69766572796044820152632066656560e01b60648201526084016104a1565b6001600160a01b0382165f908152600160205260408120549003610b8b5760405162461bcd60e51b815260206004820152602d60248201527f5472616e73706f727465722061646472657373206e6f7420666f756e6420696e60448201526c207472616e73706f727465727360981b60648201526084016104a1565b34600455600a80546001600160a01b0319166001600160a01b038416179055600d546040515f805160206114e283398151915291610bd79161010090910460ff16906003904290611346565b60405180910390a15050600d805461ff001916610300179055565b6008546001600160a01b03163314610c1c5760405162461bcd60e51b81526004016104a190611394565b8181604051602001610c2f929190611467565b60408051601f198184030181529190528051602090910120600b555050565b5f80600d54610100900460ff166007811115610c6c57610c6c6112ed565b14610c895760405162461bcd60e51b81526004016104a19061136f565b5f3411610cd85760405162461bcd60e51b815260206004820152601a60248201527f4d7573742073656e6420457468657220746f206465706f73697400000000000060448201526064016104a1565b600e5415610d1f5760405162461bcd60e51b81526020600482015260146024820152734465706f73697420616c7265616479206d61646560601b60448201526064016104a1565b34600e81905560405190815233907fe1fffcc4923d04b559f4d29a8bfc6cda04eb5b0d3c460751c2402c5c5cc9109c9060200160405180910390a25f805160206114e2833981519152600d60019054906101000a900460ff16600142604051610d8a93929190611346565b60405180910390a1600d80546001919061ff0019166101008361051e565b335f9081526001602052604090205415610e045760405162461bcd60e51b815260206004820152601a60248201527f5472616e73706f7274657220616c72656164792065786973747300000000000060448201526064016104a1565b5f610e1782670de0b6b3a76400006114ca565b6040805160208082018352838252335f818152600192839052938420925190925560028054918201815583527f405787fa12a823e0f2b7631cc41b3ba8828b3321ca811111fa75cd3aa3bb5ace0180546001600160a01b0319169091179055805491925080610e85836114b2565b91905055505050565b6007545f906001600160a01b03163314610eba5760405162461bcd60e51b81526004016104a190611422565b6006600d54610100900460ff166007811115610ed857610ed86112ed565b03610f195760405162461bcd60e51b8152602060048201526011602482015270105b1c9958591e4818d85b98d95b1b1959607a1b60448201526064016104a1565b6001600d54610100900460ff166007811115610f3757610f376112ed565b1480610f5e57506002600d54610100900460ff166007811115610f5c57610f5c6112ed565b145b610fb95760405162461bcd60e51b815260206004820152602660248201527f43616e206f6e6c792063616e63656c20696e2046756e646564206f722042696460448201526520706861736560d01b60648201526084016104a1565b60065442101561100b5760405162461bcd60e51b815260206004820152601b60248201527f43616e6e6f742063616e63656c206265666f726520657870697279000000000060448201526064016104a1565b600d805461ff0019811661060017909155610100900460ff1661102c6110ba565b60405142815233907fd6aed75d2ee058ccf726e73b793605e1e15bf8cb63415568d04a97066ba3ab449060200160405180910390a25f805160206114e28339815191528160064260405161108293929190611346565b60405180910390a1600191505090565b600281815481106110a1575f80fd5b5f918252602090912001546001600160a01b0316905081565b600e5480156111a6575f600e8190556007546040516001600160a01b039091169083908381818185875af1925050503d805f8114611113576040519150601f19603f3d011682016040523d82523d5f602084013e611118565b606091505b50509050806111625760405162461bcd60e51b81526020600482015260166024820152751499599d5b99081d1bc8189d5e595c8819985a5b195960521b60448201526064016104a1565b6007546040518381526001600160a01b03909116907f7fcf532c15f0a6db0bd6d0e038bea71d30d808c7d98cb3bf7268a95bf5081b659060200160405180910390a2505b50565b5f80602083850312156111ba575f80fd5b823567ffffffffffffffff808211156111d1575f80fd5b818501915085601f8301126111e4575f80fd5b8135818111156111f2575f80fd5b866020828501011115611203575f80fd5b60209290920196919550909350505050565b604080825283519082018190525f906020906060840190828701845b828110156112565781516001600160a01b031684529284019290840190600101611231565b505050838103828501528451808252858301918301905f5b8181101561128a5783518352928401929184019160010161126e565b5090979650505050505050565b5f80604083850312156112a8575f80fd5b50508035926020909101359150565b6001600160a01b03811681146111a6575f80fd5b5f602082840312156112db575f80fd5b81356112e6816112b7565b9392505050565b634e487b7160e01b5f52602160045260245ffd5b6008811061131d57634e487b7160e01b5f52602160045260245ffd5b9052565b6020810161087f8284611301565b5f6020828403121561133f575f80fd5b5035919050565b606081016113548286611301565b6113616020830185611301565b826040830152949350505050565b6020808252600b908201526a57726f6e6720706861736560a81b604082015260600190565b60208082526026908201527f4f6e6c79207468652073656c6c65722063616e2063616c6c20746869732066756040820152653731ba34b7b760d11b606082015260800190565b60208082526028908201527f5472616e73706f72746572206e656564656420746f2063616c6c207468697320604082015267333ab731ba34b7b760c11b606082015260800190565b60208082526025908201527f4f6e6c79207468652062757965722063616e2063616c6c20746869732066756e60408201526431ba34b7b760d91b606082015260800190565b818382375f9101908152919050565b634e487b7160e01b5f52604160045260245ffd5b634e487b7160e01b5f52603260045260245ffd5b634e487b7160e01b5f52601160045260245ffd5b5f600182016114c3576114c361149e565b5060010190565b808202811582820484141761087f5761087f61149e56feb070f30564c7f6b4417cbad108e44deef775fbe1f133668303bd71b13497ac4aa2646970667358221220753b3c97e0fc1ead9c07ba519f21f7118c2359b0907379b07e04674d53e8632764736f6c63430008150033",
  "immutableReferences": {},
  "source": "// SPDX-License-Identifier: MIT\npragma solidity ^0.8.0;\n\ncontract Escrow {\n    struct EscrowDetails {\n        bytes32 amountCommitment; // Confidential amount commitment (changed from uint amount)\n        uint deliveryFee;\n        uint securityDeposit;\n        uint expiryTimeStamp;\n        address payable buyer;\n        address payable seller;\n        address agent;\n        address payable transporter;\n        bytes32 verificationCodeHash;\n        bool delivered;\n    }\n\n    uint public transporterCount;\n\n    struct TransporterFees {\n        uint fee;\n    }\n\n    mapping(address => TransporterFees) public transporters; // Mapping with transporter address as key\n    address[] public transporterAddresses; // Array to store transporter addresses\n\n    EscrowDetails public escrow;\n    bool public cancelled; // Add cancelled state\n\n    enum Phase { Listed, Funded, Bid, Bound, Delivery, Delivered, Cancelled, Expired }\n    Phase public phase;\n\n    uint public depositedAmount;\n\n    modifier onlyBuyer() {\n        require(msg.sender == escrow.buyer, \"Only the buyer can call this function\");\n        _;\n    }\n\n    modifier onlySeller() {\n        require(msg.sender == escrow.seller, \"Only the seller can call this function\");\n        _;\n    }\n\n    modifier transporterSet() {\n        require(escrow.transporter != address(0), \"Transporter needed to call this function\");\n        _;\n    }\n\n    modifier inPhase(Phase _p) {\n        require(phase == _p, \"Wrong phase\");\n        _;\n    }\n\n    event EscrowCreated(bytes32 indexed amountCommitment, address indexed buyer, address indexed seller); // Added\n    event AmountRevealed(uint revealedValue, bytes32 commitment, bool valid); // Added\n    event EscrowCancelled(address indexed by, uint timestamp); // Add event\n    event PhaseChanged(Phase from, Phase to, uint256 time);\n    event Deposit(address indexed from, uint amount);\n    event Withdrawal(address indexed to, uint amount);\n\n    constructor(\n        address _seller,\n        address _agent,\n        uint256 secondsTillExpiry,\n        bytes32 _amountCommitment\n    ) payable {\n        escrow = EscrowDetails({\n            amountCommitment: _amountCommitment,\n            deliveryFee: 0,\n            securityDeposit: 0,\n            expiryTimeStamp: block.timestamp + secondsTillExpiry,\n            buyer: payable(msg.sender),\n            seller: payable(_seller),\n            agent: _agent,\n            transporter: payable(address(0)),\n            verificationCodeHash: keccak256(abi.encodePacked(\"\")),\n            delivered: false\n        });\n        phase = Phase.Listed;\n        // emit EscrowCreated(_amountCommitment, msg.sender, _seller); // Commented out\n    }\n\n    function withdrawAmount() external payable onlySeller transporterSet inPhase(Phase.Delivered) returns (bool) {\n        // Example: allow seller to withdraw deposited amount after delivery\n        uint amount = depositedAmount;\n        require(amount > 0, \"No funds to withdraw\");\n        depositedAmount = 0;\n        (bool sent, ) = escrow.seller.call{value: amount}(\"\");\n        require(sent, \"Withdraw to seller failed\");\n        emit Withdrawal(escrow.seller, amount);\n        return true;\n    }\n\n    function setVerificationCode(string calldata verificationCode) external onlySeller {\n        escrow.verificationCodeHash = keccak256(abi.encodePacked(verificationCode));\n    }\n\n    function delivered(string calldata verificationCode)\n        external\n        inPhase(Phase.Bound)\n        onlyBuyer\n        transporterSet\n        returns (bool)\n    {\n        require(\n            keccak256(abi.encodePacked(verificationCode)) == escrow.verificationCodeHash,\n            \"Verification code did not match\"\n        );\n        escrow.delivered = true;\n        // payable(escrow.seller).transfer(escrow.amount); // Commented out\n        // payable(escrow.transporter).transfer(escrow.amount+escrow.deliveryFee); // Commented out\n        emit PhaseChanged(phase, Phase.Delivered, block.timestamp);\n        phase = Phase.Delivered;\n        return true;\n    }\n\n    function hashTester(string calldata verificationCode) pure external returns (bytes32) {\n        return keccak256(abi.encodePacked(verificationCode));\n    }\n\n    function setTransporter(address payable _transporter) external payable onlySeller inPhase(Phase.Bid) {\n        require(msg.value == transporters[_transporter].fee, \"Seller needs to deposit delivery fee\");\n        require(transporters[_transporter].fee != 0, \"Transporter address not found in transporters\");\n\n        escrow.deliveryFee = msg.value;\n        escrow.transporter = _transporter;\n        emit PhaseChanged(phase, Phase.Bound, block.timestamp);\n        phase = Phase.Bound;\n        // Refund logic commented out as amount is not known\n        // for (uint i = 0; i < transporterAddresses.length; i++) {\n        //     address transporterAddress = transporterAddresses[i];\n        //     if (transporterAddress != _transporter) {\n        //         payable(transporterAddress).transfer(escrow.amount);\n        //     }\n        // }\n    }\n\n    function createTransporter(uint _feeInEther) public payable {\n        // require(msg.value == escrow.amount, \"Transporter has to deposit security deposit\"); // Commented out\n        require(transporters[msg.sender].fee == 0, \"Transporter already exists\");\n\n        // Convert fee from ether to wei\n        uint _feeInWei = _feeInEther * 1 ether;\n\n        transporters[msg.sender] = TransporterFees({\n            fee: _feeInWei\n        });\n        transporterAddresses.push(msg.sender);\n        transporterCount++;\n    }\n\n    function getAllTransporters() public view returns (address[] memory, uint[] memory) {\n        uint[] memory fees = new uint[](transporterAddresses.length);\n        for (uint i = 0; i < transporterAddresses.length; i++) {\n            address transporterAddress = transporterAddresses[i];\n            fees[i] = transporters[transporterAddress].fee;\n        }\n        return (transporterAddresses, fees);\n    }\n\n    // Optional: Helper to verify a revealed value against the commitment (for audit/dispute)\n    function verifyRevealedAmount(uint revealedValue, bytes32 blinding) public returns (bool) {\n        bytes32 computed = keccak256(abi.encodePacked(revealedValue, blinding));\n        bool valid = (computed == escrow.amountCommitment);\n        emit AmountRevealed(revealedValue, escrow.amountCommitment, valid);\n        return valid;\n    }\n\n    function cancel() external onlyBuyer returns (bool) {\n        require(phase != Phase.Cancelled, \"Already cancelled\");\n        require(\n            phase == Phase.Funded || phase == Phase.Bid,\n            \"Can only cancel in Funded or Bid phase\"\n        );\n        require(block.timestamp >= escrow.expiryTimeStamp, \"Cannot cancel before expiry\");\n\n        Phase oldPhase = phase;\n        phase = Phase.Cancelled;\n\n        _refundBuyer();                        //  REFUND EXECUTED HERE\n\n        emit EscrowCancelled(msg.sender, block.timestamp);\n        emit PhaseChanged(oldPhase, Phase.Cancelled, block.timestamp);\n        return true;\n    }\n\n\n    function deposit() public payable inPhase(Phase.Listed) {\n        require(msg.value > 0, \"Must send Ether to deposit\");\n        require(depositedAmount == 0, \"Deposit already made\");\n        depositedAmount = msg.value;\n        emit Deposit(msg.sender, msg.value);\n        emit PhaseChanged(phase, Phase.Funded, block.timestamp);\n        phase = Phase.Funded;\n    }\n\n    function _refundBuyer() internal {\n        uint amount = depositedAmount;\n        if (amount > 0) {\n            depositedAmount = 0;\n            (bool sent, ) = escrow.buyer.call{value: amount}(\"\");\n            require(sent, \"Refund to buyer failed\");\n            emit Withdrawal(escrow.buyer, amount);\n        }\n    }\n\n    function sellerConfirm() public inPhase(Phase.Funded) onlySeller {\n        emit PhaseChanged(phase, Phase.Bid, block.timestamp);\n        phase = Phase.Bid;\n        // Add any seller confirmation logic here\n    }\n\n    function checkTimeouts() public {\n        // Only allow in Funded or Bid phase\n        if ((phase == Phase.Funded || phase == Phase.Bid) && block.timestamp >= escrow.expiryTimeStamp) {\n            Phase oldPhase = phase;\n            phase = Phase.Expired;\n            _refundBuyer();\n            emit PhaseChanged(oldPhase, Phase.Expired, block.timestamp);\n        }\n    }\n}\n\n//event to send verification code to buyer or VCs as verification code\n\n//cancelation from buyer",
  "sourcePath": "C:\\Users\\yamen\\ev-battery-supplychain\\contracts\\Escrow.sol",
  "compiler": {
    "name": "solc",
    "version": "0.8.21+commit.d9974bed.Emscripten.clang"
  },
  "schemaVersion": "3.4.16",
  "updatedAt": "2025-07-30T03:05:30.123Z",
  "devdoc": {
    "kind": "dev",
    "methods": {},
    "version": 1
  },
  "userdoc": {
    "kind": "user",
    "methods": {},
    "version": 1
  }
}