{
  "contractName": "MaliciousReentrant",
  "abi": [
    {
      "inputs": [
        {
          "internalType": "address",
          "name": "_escrow",
          "type": "address"
        }
      ],
      "stateMutability": "nonpayable",
      "type": "constructor"
    },
    {
      "stateMutability": "payable",
      "type": "fallback"
    },
    {
      "inputs": [],
      "name": "attackInProgress",
      "outputs": [
        {
          "internalType": "bool",
          "name": "",
          "type": "bool"
        }
      ],
      "stateMutability": "view",
      "type": "function"
    },
    {
      "inputs": [],
      "name": "attackType",
      "outputs": [
        {
          "internalType": "uint256",
          "name": "",
          "type": "uint256"
        }
      ],
      "stateMutability": "view",
      "type": "function"
    },
    {
      "inputs": [],
      "name": "blinding",
      "outputs": [
        {
          "internalType": "bytes32",
          "name": "",
          "type": "bytes32"
        }
      ],
      "stateMutability": "view",
      "type": "function"
    },
    {
      "inputs": [],
      "name": "escrow",
      "outputs": [
        {
          "internalType": "contract IProductEscrow",
          "name": "",
          "type": "address"
        }
      ],
      "stateMutability": "view",
      "type": "function"
    },
    {
      "inputs": [],
      "name": "value",
      "outputs": [
        {
          "internalType": "uint256",
          "name": "",
          "type": "uint256"
        }
      ],
      "stateMutability": "view",
      "type": "function"
    },
    {
      "inputs": [],
      "name": "vcCID",
      "outputs": [
        {
          "internalType": "string",
          "name": "",
          "type": "string"
        }
      ],
      "stateMutability": "view",
      "type": "function"
    },
    {
      "stateMutability": "payable",
      "type": "receive"
    },
    {
      "inputs": [
        {
          "internalType": "uint256",
          "name": "_value",
          "type": "uint256"
        },
        {
          "internalType": "bytes32",
          "name": "_blinding",
          "type": "bytes32"
        },
        {
          "internalType": "string",
          "name": "_vcCID",
          "type": "string"
        }
      ],
      "name": "attackReveal",
      "outputs": [],
      "stateMutability": "nonpayable",
      "type": "function"
    },
    {
      "inputs": [],
      "name": "attackWithdrawBid",
      "outputs": [],
      "stateMutability": "nonpayable",
      "type": "function"
    },
    {
      "inputs": [
        {
          "internalType": "uint256",
          "name": "_feeInWei",
          "type": "uint256"
        }
      ],
      "name": "registerAsTransporter",
      "outputs": [],
      "stateMutability": "nonpayable",
      "type": "function"
    },
    {
      "inputs": [],
      "name": "makeSecurityDeposit",
      "outputs": [],
      "stateMutability": "payable",
      "type": "function"
    }
  ],
  "bytecode": "0x608060405234801561000f575f80fd5b5060405161095338038061095383398101604081905261002e91610052565b5f80546001600160a01b0319166001600160a01b039290921691909117905561007f565b5f60208284031215610062575f80fd5b81516001600160a01b0381168114610078575f80fd5b9392505050565b6108c78061008c5f395ff3fe608060405260043610610094575f3560e01c806386b7b29a1161005857806386b7b29a146102b25780639cb944b3146102ba578063ad0b523f146102db578063e2fdcc17146102f0578063e6a4476914610326576101c1565b806312088368146102135780632ecf31841461023b5780633ecdc5201461024f5780633fa4f2451461026e578063818c8c7c14610283576101c1565b366101c1575f54600160a01b900460ff16156101bf5760015460010361011a575f5460025460035460405163d018d98960e01b81526001600160a01b039093169263d018d989926100eb92909160049081016105c9565b5f604051808303815f87803b158015610102575f80fd5b505af1925050508015610113575060015b156101bf57005b600154600203610163575f80546040805163386f53cd60e11b815290516001600160a01b03909216926370dea79a9260048084019382900301818387803b158015610102575f80fd5b6001546003036101bf575f8054604080516337271cc760e01b815290516001600160a01b03909216926337271cc79260048084019382900301818387803b1580156101ac575f80fd5b505af19250505080156101bd575060015b505b005b5f54600160a01b900460ff16156101bf5760015460010361011a575f5460025460035460405163d018d98960e01b81526001600160a01b039093169263d018d989926100eb92909160049081016105c9565b34801561021e575f80fd5b5061022860035481565b6040519081526020015b60405180910390f35b348015610246575f80fd5b506101bf610345565b34801561025a575f80fd5b506101bf61026936600461065d565b6103bd565b348015610279575f80fd5b5061022860025481565b34801561028e575f80fd5b505f546102a290600160a01b900460ff1681565b6040519015158152602001610232565b6101bf610418565b3480156102c5575f80fd5b506102ce610463565b6040516102329190610674565b3480156102e6575f80fd5b5061022860015481565b3480156102fb575f80fd5b505f5461030e906001600160a01b031681565b6040516001600160a01b039091168152602001610232565b348015610331575f80fd5b506101bf6103403660046106bf565b6104ef565b60036001555f805460ff60a01b198116600160a01b178255604080516337271cc760e01b815290516001600160a01b03909216926337271cc79260048084019382900301818387803b158015610399575f80fd5b505af11580156103ab573d5f803e3d5ffd5b50505f805460ff60a01b191690555050565b5f5460405163d8f133f960e01b8152600481018390526001600160a01b039091169063d8f133f9906024015f604051808303815f87803b1580156103ff575f80fd5b505af1158015610411573d5f803e3d5ffd5b5050505050565b5f8054906101000a90046001600160a01b03166001600160a01b031663220e5ab3346040518263ffffffff1660e01b81526004015f604051808303818588803b1580156103ff575f80fd5b6004805461047090610591565b80601f016020809104026020016040519081016040528092919081815260200182805461049c90610591565b80156104e75780601f106104be576101008083540402835291602001916104e7565b820191905f5260205f20905b8154815290600101906020018083116104ca57829003601f168201915b505050505081565b60028490556003839055600461050682848361079a565b50600180555f805460ff60a01b198116600160a01b1790915560405163d018d98960e01b81526001600160a01b039091169063d018d98990610552908790879087908790600401610855565b5f604051808303815f87803b158015610569575f80fd5b505af115801561057b573d5f803e3d5ffd5b50505f805460ff60a01b19169055505050505050565b600181811c908216806105a557607f821691505b6020821081036105c357634e487b7160e01b5f52602260045260245ffd5b50919050565b8381525f60208481840152606060408401525f84546105e781610591565b806060870152608060018084165f811461060857600181146106225761064d565b60ff1985168984015283151560051b89018301955061064d565b895f52865f205f5b858110156106455781548b820186015290830190880161062a565b8a0184019650505b50939a9950505050505050505050565b5f6020828403121561066d575f80fd5b5035919050565b5f6020808352835180828501525f5b8181101561069f57858101830151858201604001528201610683565b505f604082860101526040601f19601f8301168501019250505092915050565b5f805f80606085870312156106d2575f80fd5b8435935060208501359250604085013567ffffffffffffffff808211156106f7575f80fd5b818701915087601f83011261070a575f80fd5b813581811115610718575f80fd5b886020828501011115610729575f80fd5b95989497505060200194505050565b634e487b7160e01b5f52604160045260245ffd5b601f821115610795575f81815260208120601f850160051c810160208610156107725750805b601f850160051c820191505b818110156107915782815560010161077e565b5050505b505050565b67ffffffffffffffff8311156107b2576107b2610738565b6107c6836107c08354610591565b8361074c565b5f601f8411600181146107f7575f85156107e05750838201355b5f19600387901b1c1916600186901b178355610411565b5f83815260209020601f19861690835b828110156108275786850135825560209485019460019092019101610807565b5086821015610843575f1960f88860031b161c19848701351681555b505060018560011b0183555050505050565b84815283602082015260606040820152816060820152818360808301375f818301608090810191909152601f909201601f19160101939250505056fea2646970667358221220d0bd5b4d2edf1f57b9bcb82a140c74981b3efd5663199efc4855655d79979cf864736f6c63430008150033",
  "immutableReferences": {},
  "source": "// SPDX-License-Identifier: MIT\r\npragma solidity ^0.8.0;\r\n\r\ninterface IProductEscrow {\r\n    function revealAndConfirmDelivery(uint revealedValue, bytes32 blinding, string calldata vcCID) external;\r\n    function withdrawBid() external;\r\n    function timeout() external;\r\n    function createTransporter(uint _feeInWei) external;\r\n    function securityDeposit() external payable;\r\n    function setTransporter(address payable _transporter) external payable;\r\n}\r\n\r\ncontract MaliciousReentrant {\r\n    IProductEscrow public escrow;\r\n    bool public attackInProgress;\r\n    uint public attackType; // 1 = reenter reveal, 2 = call timeout, 3 = reenter withdrawBid\r\n    uint public value;\r\n    bytes32 public blinding;\r\n    string public vcCID;\r\n\r\n    constructor(address _escrow) {\r\n        escrow = IProductEscrow(_escrow);\r\n    }\r\n\r\n    // Set up for reveal reentrancy\r\n    function attackReveal(uint _value, bytes32 _blinding, string calldata _vcCID) external {\r\n        value = _value;\r\n        blinding = _blinding;\r\n        vcCID = _vcCID;\r\n        attackType = 1;\r\n        attackInProgress = true;\r\n        // This should revert if reentrancy is blocked\r\n        escrow.revealAndConfirmDelivery(_value, _blinding, _vcCID);\r\n        attackInProgress = false;\r\n    }\r\n\r\n    // Set up for withdrawBid reentrancy\r\n    function attackWithdrawBid() external {\r\n        attackType = 3;\r\n        attackInProgress = true;\r\n        escrow.withdrawBid();\r\n        attackInProgress = false;\r\n    }\r\n\r\n    // Helper functions to register this contract as a transporter\r\n    // These are called from an EOA to set up the malicious contract\r\n    function registerAsTransporter(uint _feeInWei) external {\r\n        escrow.createTransporter(_feeInWei);\r\n    }\r\n\r\n    function makeSecurityDeposit() external payable {\r\n        escrow.securityDeposit{value: msg.value}();\r\n    }\r\n\r\n    // Fallback to attempt reentrancy\r\n    fallback() external payable {\r\n        if (attackInProgress) {\r\n            if (attackType == 1) {\r\n                // Try to re-enter revealAndConfirmDelivery\r\n                try escrow.revealAndConfirmDelivery(value, blinding, vcCID) {} catch {}\r\n            } else if (attackType == 2) {\r\n                // Try to call timeout\r\n                try escrow.timeout() {} catch {}\r\n            } else if (attackType == 3) {\r\n                // Try to re-enter withdrawBid\r\n                try escrow.withdrawBid() {} catch {}\r\n            }\r\n        }\r\n    }\r\n    \r\n    // Receive function to attempt reentrancy when receiving ETH\r\n    receive() external payable {\r\n        if (attackInProgress) {\r\n            if (attackType == 1) {\r\n                // Try to re-enter revealAndConfirmDelivery\r\n                try escrow.revealAndConfirmDelivery(value, blinding, vcCID) {} catch {}\r\n            } else if (attackType == 2) {\r\n                // Try to call timeout\r\n                try escrow.timeout() {} catch {}\r\n            } else if (attackType == 3) {\r\n                // Try to re-enter withdrawBid\r\n                try escrow.withdrawBid() {} catch {}\r\n            }\r\n        }\r\n    }\r\n} ",
  "sourcePath": "C:\\Users\\yamen\\ev-battery-supplychain\\contracts\\helpers\\MaliciousReentrant.sol",
  "compiler": {
    "name": "solc",
    "version": "0.8.21+commit.d9974bed.Emscripten.clang"
  },
  "schemaVersion": "3.4.16",
  "updatedAt": "2025-11-24T17:41:49.842Z",
  "devdoc": {
    "kind": "dev",
    "methods": {},
    "version": 1
  },
  "userdoc": {
    "kind": "user",
    "methods": {},
    "version": 1
  }
}