{
  "contractName": "MaliciousReentrant",
  "abi": [
    {
      "inputs": [
        {
          "internalType": "address",
          "name": "_escrow",
          "type": "address"
        }
      ],
      "stateMutability": "nonpayable",
      "type": "constructor"
    },
    {
      "stateMutability": "payable",
      "type": "fallback"
    },
    {
      "inputs": [],
      "name": "attackInProgress",
      "outputs": [
        {
          "internalType": "bool",
          "name": "",
          "type": "bool"
        }
      ],
      "stateMutability": "view",
      "type": "function"
    },
    {
      "inputs": [],
      "name": "attackType",
      "outputs": [
        {
          "internalType": "uint256",
          "name": "",
          "type": "uint256"
        }
      ],
      "stateMutability": "view",
      "type": "function"
    },
    {
      "inputs": [],
      "name": "blinding",
      "outputs": [
        {
          "internalType": "bytes32",
          "name": "",
          "type": "bytes32"
        }
      ],
      "stateMutability": "view",
      "type": "function"
    },
    {
      "inputs": [],
      "name": "escrow",
      "outputs": [
        {
          "internalType": "contract IProductEscrow",
          "name": "",
          "type": "address"
        }
      ],
      "stateMutability": "view",
      "type": "function"
    },
    {
      "inputs": [],
      "name": "value",
      "outputs": [
        {
          "internalType": "uint256",
          "name": "",
          "type": "uint256"
        }
      ],
      "stateMutability": "view",
      "type": "function"
    },
    {
      "inputs": [],
      "name": "vcCID",
      "outputs": [
        {
          "internalType": "string",
          "name": "",
          "type": "string"
        }
      ],
      "stateMutability": "view",
      "type": "function"
    },
    {
      "stateMutability": "payable",
      "type": "receive"
    },
    {
      "inputs": [
        {
          "internalType": "uint256",
          "name": "_value",
          "type": "uint256"
        },
        {
          "internalType": "bytes32",
          "name": "_blinding",
          "type": "bytes32"
        },
        {
          "internalType": "string",
          "name": "_vcCID",
          "type": "string"
        }
      ],
      "name": "attackReveal",
      "outputs": [],
      "stateMutability": "nonpayable",
      "type": "function"
    },
    {
      "inputs": [],
      "name": "attackWithdrawBid",
      "outputs": [],
      "stateMutability": "nonpayable",
      "type": "function"
    }
  ],
  "bytecode": "0x608060405234801561000f575f80fd5b5060405161080a38038061080a83398101604081905261002e91610052565b5f80546001600160a01b0319166001600160a01b039290921691909117905561007f565b5f60208284031215610062575f80fd5b81516001600160a01b0381168114610078575f80fd5b9392505050565b61077e8061008c5f395ff3fe60806040526004361061007e575f3560e01c80639cb944b31161004d5780639cb944b31461022d578063ad0b523f1461024e578063e2fdcc1714610263578063e6a447691461029957610085565b806312088368146101ad5780632ecf3184146101d55780633fa4f245146101e9578063818c8c7c146101fe57610085565b3661008557005b5f54600160a01b900460ff16156101ab57600154600103610106575f5460025460035460405163d018d98960e01b81526001600160a01b039093169263d018d989926100d79290916004908101610496565b5f604051808303815f87803b1580156100ee575f80fd5b505af19250505080156100ff575060015b156101ab57005b60015460020361014f575f80546040805163386f53cd60e11b815290516001600160a01b03909216926370dea79a9260048084019382900301818387803b1580156100ee575f80fd5b6001546003036101ab575f8054604080516337271cc760e01b815290516001600160a01b03909216926337271cc79260048084019382900301818387803b158015610198575f80fd5b505af19250505080156101a9575060015b505b005b3480156101b8575f80fd5b506101c260035481565b6040519081526020015b60405180910390f35b3480156101e0575f80fd5b506101ab6102b8565b3480156101f4575f80fd5b506101c260025481565b348015610209575f80fd5b505f5461021d90600160a01b900460ff1681565b60405190151581526020016101cc565b348015610238575f80fd5b50610241610330565b6040516101cc919061052a565b348015610259575f80fd5b506101c260015481565b34801561026e575f80fd5b505f54610281906001600160a01b031681565b6040516001600160a01b0390911681526020016101cc565b3480156102a4575f80fd5b506101ab6102b3366004610575565b6103bc565b60036001555f805460ff60a01b198116600160a01b178255604080516337271cc760e01b815290516001600160a01b03909216926337271cc79260048084019382900301818387803b15801561030c575f80fd5b505af115801561031e573d5f803e3d5ffd5b50505f805460ff60a01b191690555050565b6004805461033d9061045e565b80601f01602080910402602001604051908101604052809291908181526020018280546103699061045e565b80156103b45780601f1061038b576101008083540402835291602001916103b4565b820191905f5260205f20905b81548152906001019060200180831161039757829003601f168201915b505050505081565b6002849055600383905560046103d3828483610650565b50600180555f805460ff60a01b198116600160a01b1790915560405163d018d98960e01b81526001600160a01b039091169063d018d9899061041f90879087908790879060040161070c565b5f604051808303815f87803b158015610436575f80fd5b505af1158015610448573d5f803e3d5ffd5b50505f805460ff60a01b19169055505050505050565b600181811c9082168061047257607f821691505b60208210810361049057634e487b7160e01b5f52602260045260245ffd5b50919050565b8381525f60208481840152606060408401525f84546104b48161045e565b806060870152608060018084165f81146104d557600181146104ef5761051a565b60ff1985168984015283151560051b89018301955061051a565b895f52865f205f5b858110156105125781548b82018601529083019088016104f7565b8a0184019650505b50939a9950505050505050505050565b5f6020808352835180828501525f5b8181101561055557858101830151858201604001528201610539565b505f604082860101526040601f19601f8301168501019250505092915050565b5f805f8060608587031215610588575f80fd5b8435935060208501359250604085013567ffffffffffffffff808211156105ad575f80fd5b818701915087601f8301126105c0575f80fd5b8135818111156105ce575f80fd5b8860208285010111156105df575f80fd5b95989497505060200194505050565b634e487b7160e01b5f52604160045260245ffd5b601f82111561064b575f81815260208120601f850160051c810160208610156106285750805b601f850160051c820191505b8181101561064757828155600101610634565b5050505b505050565b67ffffffffffffffff831115610668576106686105ee565b61067c83610676835461045e565b83610602565b5f601f8411600181146106ad575f85156106965750838201355b5f19600387901b1c1916600186901b178355610705565b5f83815260209020601f19861690835b828110156106dd57868501358255602094850194600190920191016106bd565b50868210156106f9575f1960f88860031b161c19848701351681555b505060018560011b0183555b5050505050565b84815283602082015260606040820152816060820152818360808301375f818301608090810191909152601f909201601f19160101939250505056fea2646970667358221220177e607f5a7d96c259018945e47fbfcd96c64e01ebe99722c2868f67e6cd8aea64736f6c63430008150033",
  "immutableReferences": {},
  "source": "// SPDX-License-Identifier: MIT\r\npragma solidity ^0.8.0;\r\n\r\ninterface IProductEscrow {\r\n    function revealAndConfirmDelivery(uint revealedValue, bytes32 blinding, string calldata vcCID) external;\r\n    function withdrawBid() external;\r\n    function timeout() external;\r\n}\r\n\r\ncontract MaliciousReentrant {\r\n    IProductEscrow public escrow;\r\n    bool public attackInProgress;\r\n    uint public attackType; // 1 = reenter reveal, 2 = call timeout, 3 = reenter withdrawBid\r\n    uint public value;\r\n    bytes32 public blinding;\r\n    string public vcCID;\r\n\r\n    constructor(address _escrow) {\r\n        escrow = IProductEscrow(_escrow);\r\n    }\r\n\r\n    // Set up for reveal reentrancy\r\n    function attackReveal(uint _value, bytes32 _blinding, string calldata _vcCID) external {\r\n        value = _value;\r\n        blinding = _blinding;\r\n        vcCID = _vcCID;\r\n        attackType = 1;\r\n        attackInProgress = true;\r\n        // This should revert if reentrancy is blocked\r\n        escrow.revealAndConfirmDelivery(_value, _blinding, _vcCID);\r\n        attackInProgress = false;\r\n    }\r\n\r\n    // Set up for withdrawBid reentrancy\r\n    function attackWithdrawBid() external {\r\n        attackType = 3;\r\n        attackInProgress = true;\r\n        escrow.withdrawBid();\r\n        attackInProgress = false;\r\n    }\r\n\r\n    // Fallback to attempt reentrancy\r\n    fallback() external payable {\r\n        if (attackInProgress) {\r\n            if (attackType == 1) {\r\n                // Try to re-enter revealAndConfirmDelivery\r\n                try escrow.revealAndConfirmDelivery(value, blinding, vcCID) {} catch {}\r\n            } else if (attackType == 2) {\r\n                // Try to call timeout\r\n                try escrow.timeout() {} catch {}\r\n            } else if (attackType == 3) {\r\n                // Try to re-enter withdrawBid\r\n                try escrow.withdrawBid() {} catch {}\r\n            }\r\n        }\r\n    }\r\n    receive() external payable {}\r\n} ",
  "sourcePath": "C:\\Users\\yamen\\ev-battery-supplychain\\contracts\\helpers\\MaliciousReentrant.sol",
  "compiler": {
    "name": "solc",
    "version": "0.8.21+commit.d9974bed.Emscripten.clang"
  },
  "schemaVersion": "3.4.16",
  "updatedAt": "2025-11-12T11:57:19.979Z",
  "devdoc": {
    "kind": "dev",
    "methods": {},
    "version": 1
  },
  "userdoc": {
    "kind": "user",
    "methods": {},
    "version": 1
  }
}