{
  "contractName": "MaliciousReentrant",
  "abi": [
    {
      "inputs": [
        {
          "internalType": "address",
          "name": "_escrow",
          "type": "address"
        }
      ],
      "stateMutability": "nonpayable",
      "type": "constructor"
    },
    {
      "stateMutability": "payable",
      "type": "fallback"
    },
    {
      "inputs": [],
      "name": "attackInProgress",
      "outputs": [
        {
          "internalType": "bool",
          "name": "",
          "type": "bool"
        }
      ],
      "stateMutability": "view",
      "type": "function"
    },
    {
      "inputs": [],
      "name": "attackType",
      "outputs": [
        {
          "internalType": "uint256",
          "name": "",
          "type": "uint256"
        }
      ],
      "stateMutability": "view",
      "type": "function"
    },
    {
      "inputs": [],
      "name": "deliveryHash",
      "outputs": [
        {
          "internalType": "bytes32",
          "name": "",
          "type": "bytes32"
        }
      ],
      "stateMutability": "view",
      "type": "function"
    },
    {
      "inputs": [],
      "name": "escrow",
      "outputs": [
        {
          "internalType": "contract IProductEscrow",
          "name": "",
          "type": "address"
        }
      ],
      "stateMutability": "view",
      "type": "function"
    },
    {
      "stateMutability": "payable",
      "type": "receive"
    },
    {
      "inputs": [
        {
          "internalType": "bytes32",
          "name": "_hash",
          "type": "bytes32"
        }
      ],
      "name": "attackDelivery",
      "outputs": [],
      "stateMutability": "nonpayable",
      "type": "function"
    },
    {
      "inputs": [],
      "name": "attackWithdrawBid",
      "outputs": [],
      "stateMutability": "nonpayable",
      "type": "function"
    },
    {
      "inputs": [],
      "name": "attackDeliveryTimeout",
      "outputs": [],
      "stateMutability": "nonpayable",
      "type": "function"
    },
    {
      "inputs": [
        {
          "internalType": "uint256",
          "name": "_feeInWei",
          "type": "uint256"
        }
      ],
      "name": "registerAsTransporter",
      "outputs": [],
      "stateMutability": "payable",
      "type": "function"
    }
  ],
  "bytecode": "0x608060405234801561000f575f80fd5b5060405161057738038061057783398101604081905261002e91610052565b5f80546001600160a01b0319166001600160a01b039290921691909117905561007f565b5f60208284031215610062575f80fd5b81516001600160a01b0381168114610078575f80fd5b9392505050565b6104eb8061008c5f395ff3fe60806040526004361061007d575f3560e01c80638f466d261161004d5780638f466d26146102745780638f99372414610293578063ad0b523f146102a7578063e2fdcc17146102bc576101a7565b806259c666146101f65780632ecf31841461021e5780633ecdc52014610232578063818c8c7c14610245576101a7565b366101a7575f54600160a01b900460ff16156101a557600154600103610100575f546002546040516374950ffd60e01b81526001600160a01b03909216916374950ffd916100d19160040190815260200190565b5f604051808303815f87803b1580156100e8575f80fd5b505af19250505080156100f9575060015b156101a557005b600154600203610149575f8054604080516337271cc760e01b815290516001600160a01b03909216926337271cc79260048084019382900301818387803b1580156100e8575f80fd5b6001546003036101a5575f80546040805163dc9c503560e01b815290516001600160a01b039092169263dc9c50359260048084019382900301818387803b158015610192575f80fd5b505af19250505080156101a3575060015b505b005b5f54600160a01b900460ff16156101a557600154600103610100575f546002546040516374950ffd60e01b81526001600160a01b03909216916374950ffd916100d19160040190815260200190565b348015610201575f80fd5b5061020b60025481565b6040519081526020015b60405180910390f35b348015610229575f80fd5b506101a56102f2565b6101a561024036600461049e565b61036a565b348015610250575f80fd5b505f5461026490600160a01b900460ff1681565b6040519015158152602001610215565b34801561027f575f80fd5b506101a561028e36600461049e565b6103c8565b34801561029e575f80fd5b506101a561044a565b3480156102b2575f80fd5b5061020b60015481565b3480156102c7575f80fd5b505f546102da906001600160a01b031681565b6040516001600160a01b039091168152602001610215565b60026001555f805460ff60a01b198116600160a01b178255604080516337271cc760e01b815290516001600160a01b03909216926337271cc79260048084019382900301818387803b158015610346575f80fd5b505af1158015610358573d5f803e3d5ffd5b50505f805460ff60a01b191690555050565b5f5460405163d8f133f960e01b8152600481018390526001600160a01b039091169063d8f133f99034906024015f604051808303818588803b1580156103ae575f80fd5b505af11580156103c0573d5f803e3d5ffd5b505050505050565b6002819055600180555f8054600160a01b60ff60a01b198216179091556040516374950ffd60e01b8152600481018390526001600160a01b03909116906374950ffd906024015f604051808303815f87803b158015610425575f80fd5b505af1158015610437573d5f803e3d5ffd5b50505f805460ff60a01b19169055505050565b60036001555f805460ff60a01b198116600160a01b1782556040805163dc9c503560e01b815290516001600160a01b039092169263dc9c50359260048084019382900301818387803b158015610346575f80fd5b5f602082840312156104ae575f80fd5b503591905056fea264697066735822122001a2f2beb086293f244006d02d18c5f3a79f559f59e0cbfaa510d9c0f1b4287664736f6c63430008150033",
  "immutableReferences": {},
  "source": "// SPDX-License-Identifier: MIT\r\npragma solidity ^0.8.0;\r\n\r\ninterface IProductEscrow {\r\n    function confirmDelivery(bytes32 hash) external;\r\n    function withdrawBid() external;\r\n    function deliveryTimeout() external;\r\n    function sellerTimeout() external;\r\n    function bidTimeout() external;\r\n    function createTransporter(uint256 _feeInWei) external payable;\r\n    function setTransporter(address payable _transporter) external payable;\r\n}\r\n\r\ncontract MaliciousReentrant {\r\n    IProductEscrow public escrow;\r\n    bool public attackInProgress;\r\n    uint public attackType; // 1 = reenter confirmDelivery, 2 = reenter withdrawBid, 3 = reenter deliveryTimeout\r\n    bytes32 public deliveryHash;\r\n\r\n    constructor(address _escrow) {\r\n        escrow = IProductEscrow(_escrow);\r\n    }\r\n\r\n    // Set up for confirmDelivery reentrancy\r\n    function attackDelivery(bytes32 _hash) external {\r\n        deliveryHash = _hash;\r\n        attackType = 1;\r\n        attackInProgress = true;\r\n        // This should revert if reentrancy is blocked\r\n        escrow.confirmDelivery(_hash);\r\n        attackInProgress = false;\r\n    }\r\n\r\n    // Set up for withdrawBid reentrancy\r\n    function attackWithdrawBid() external {\r\n        attackType = 2;\r\n        attackInProgress = true;\r\n        escrow.withdrawBid();\r\n        attackInProgress = false;\r\n    }\r\n\r\n    // Set up for deliveryTimeout reentrancy\r\n    function attackDeliveryTimeout() external {\r\n        attackType = 3;\r\n        attackInProgress = true;\r\n        escrow.deliveryTimeout();\r\n        attackInProgress = false;\r\n    }\r\n\r\n    // Helper: register this contract as a transporter\r\n    function registerAsTransporter(uint _feeInWei) external payable {\r\n        escrow.createTransporter{value: msg.value}(_feeInWei);\r\n    }\r\n\r\n    // Fallback to attempt reentrancy when receiving ETH\r\n    fallback() external payable {\r\n        if (attackInProgress) {\r\n            if (attackType == 1) {\r\n                try escrow.confirmDelivery(deliveryHash) {} catch {}\r\n            } else if (attackType == 2) {\r\n                try escrow.withdrawBid() {} catch {}\r\n            } else if (attackType == 3) {\r\n                try escrow.deliveryTimeout() {} catch {}\r\n            }\r\n        }\r\n    }\r\n\r\n    // Receive function to attempt reentrancy when receiving ETH\r\n    receive() external payable {\r\n        if (attackInProgress) {\r\n            if (attackType == 1) {\r\n                try escrow.confirmDelivery(deliveryHash) {} catch {}\r\n            } else if (attackType == 2) {\r\n                try escrow.withdrawBid() {} catch {}\r\n            } else if (attackType == 3) {\r\n                try escrow.deliveryTimeout() {} catch {}\r\n            }\r\n        }\r\n    }\r\n}\r\n",
  "sourcePath": "C:\\Users\\yamen\\ev-battery-supplychain\\contracts\\helpers\\MaliciousReentrant.sol",
  "compiler": {
    "name": "solc",
    "version": "0.8.21+commit.d9974bed.Emscripten.clang"
  },
  "schemaVersion": "3.4.16",
  "updatedAt": "2026-02-18T19:48:27.556Z",
  "devdoc": {
    "kind": "dev",
    "methods": {},
    "version": 1
  },
  "userdoc": {
    "kind": "user",
    "methods": {},
    "version": 1
  }
}