{
  "contractName": "ProductEscrow_Test",
  "abi": [
    {
      "inputs": [
        {
          "internalType": "string",
          "name": "_name",
          "type": "string"
        },
        {
          "internalType": "bytes32",
          "name": "_priceCommitment",
          "type": "bytes32"
        },
        {
          "internalType": "address",
          "name": "_owner",
          "type": "address"
        }
      ],
      "stateMutability": "nonpayable",
      "type": "constructor"
    },
    {
      "inputs": [],
      "name": "Confirm",
      "type": "error"
    },
    {
      "inputs": [],
      "name": "Delivered",
      "type": "error"
    },
    {
      "inputs": [],
      "name": "Deposit",
      "type": "error"
    },
    {
      "inputs": [],
      "name": "Exists",
      "type": "error"
    },
    {
      "inputs": [],
      "name": "Fee",
      "type": "error"
    },
    {
      "inputs": [],
      "name": "NotRegistered",
      "type": "error"
    },
    {
      "inputs": [],
      "name": "NotTransporter",
      "type": "error"
    },
    {
      "inputs": [],
      "name": "Penalty",
      "type": "error"
    },
    {
      "inputs": [],
      "name": "ReentrancyGuardReentrantCall",
      "type": "error"
    },
    {
      "inputs": [],
      "name": "Refund",
      "type": "error"
    },
    {
      "inputs": [],
      "name": "Timeout",
      "type": "error"
    },
    {
      "inputs": [
        {
          "internalType": "enum ProductEscrow.Phase",
          "name": "expected",
          "type": "uint8"
        },
        {
          "internalType": "enum ProductEscrow.Phase",
          "name": "got",
          "type": "uint8"
        }
      ],
      "name": "WrongPhase",
      "type": "error"
    },
    {
      "anonymous": false,
      "inputs": [
        {
          "indexed": true,
          "internalType": "address",
          "name": "transporter",
          "type": "address"
        },
        {
          "indexed": false,
          "internalType": "uint256",
          "name": "amount",
          "type": "uint256"
        }
      ],
      "name": "BidWithdrawn",
      "type": "event"
    },
    {
      "anonymous": false,
      "inputs": [
        {
          "indexed": true,
          "internalType": "address",
          "name": "seller",
          "type": "address"
        },
        {
          "indexed": true,
          "internalType": "address",
          "name": "transporter",
          "type": "address"
        },
        {
          "indexed": false,
          "internalType": "uint256",
          "name": "buyerRefund",
          "type": "uint256"
        }
      ],
      "name": "CancelDelivery",
      "type": "event"
    },
    {
      "anonymous": false,
      "inputs": [
        {
          "indexed": false,
          "internalType": "string",
          "name": "message",
          "type": "string"
        }
      ],
      "name": "Debug",
      "type": "event"
    },
    {
      "anonymous": false,
      "inputs": [
        {
          "indexed": false,
          "internalType": "string",
          "name": "message",
          "type": "string"
        },
        {
          "indexed": false,
          "internalType": "bool",
          "name": "value",
          "type": "bool"
        }
      ],
      "name": "DebugBool",
      "type": "event"
    },
    {
      "anonymous": false,
      "inputs": [
        {
          "indexed": false,
          "internalType": "string",
          "name": "message",
          "type": "string"
        },
        {
          "indexed": false,
          "internalType": "uint256",
          "name": "value",
          "type": "uint256"
        }
      ],
      "name": "DebugUint",
      "type": "event"
    },
    {
      "anonymous": false,
      "inputs": [
        {
          "indexed": true,
          "internalType": "address",
          "name": "buyer",
          "type": "address"
        },
        {
          "indexed": true,
          "internalType": "address",
          "name": "transporter",
          "type": "address"
        },
        {
          "indexed": false,
          "internalType": "bytes32",
          "name": "priceCommitment",
          "type": "bytes32"
        },
        {
          "indexed": false,
          "internalType": "string",
          "name": "vcCID",
          "type": "string"
        }
      ],
      "name": "DeliveryConfirmed",
      "type": "event"
    },
    {
      "anonymous": false,
      "inputs": [
        {
          "indexed": true,
          "internalType": "address",
          "name": "caller",
          "type": "address"
        },
        {
          "indexed": false,
          "internalType": "uint256",
          "name": "time",
          "type": "uint256"
        }
      ],
      "name": "DeliveryTimeout",
      "type": "event"
    },
    {
      "anonymous": false,
      "inputs": [
        {
          "indexed": true,
          "internalType": "address",
          "name": "to",
          "type": "address"
        },
        {
          "indexed": false,
          "internalType": "uint256",
          "name": "amount",
          "type": "uint256"
        }
      ],
      "name": "FundsTransferred",
      "type": "event"
    },
    {
      "anonymous": false,
      "inputs": [
        {
          "indexed": true,
          "internalType": "address",
          "name": "buyer",
          "type": "address"
        },
        {
          "indexed": true,
          "internalType": "bytes32",
          "name": "priceCommitment",
          "type": "bytes32"
        },
        {
          "indexed": false,
          "internalType": "string",
          "name": "vcCID",
          "type": "string"
        }
      ],
      "name": "OrderConfirmed",
      "type": "event"
    },
    {
      "anonymous": false,
      "inputs": [
        {
          "indexed": true,
          "internalType": "uint256",
          "name": "productId",
          "type": "uint256"
        },
        {
          "indexed": false,
          "internalType": "bytes32",
          "name": "memoHash",
          "type": "bytes32"
        },
        {
          "indexed": false,
          "internalType": "bytes32",
          "name": "railgunTxRef",
          "type": "bytes32"
        }
      ],
      "name": "PaidPrivately",
      "type": "event"
    },
    {
      "anonymous": false,
      "inputs": [
        {
          "indexed": true,
          "internalType": "address",
          "name": "to",
          "type": "address"
        },
        {
          "indexed": false,
          "internalType": "uint256",
          "name": "amount",
          "type": "uint256"
        },
        {
          "indexed": false,
          "internalType": "string",
          "name": "reason",
          "type": "string"
        }
      ],
      "name": "PenaltyApplied",
      "type": "event"
    },
    {
      "anonymous": false,
      "inputs": [
        {
          "indexed": false,
          "internalType": "enum ProductEscrow.Phase",
          "name": "from",
          "type": "uint8"
        },
        {
          "indexed": false,
          "internalType": "enum ProductEscrow.Phase",
          "name": "to",
          "type": "uint8"
        },
        {
          "indexed": false,
          "internalType": "uint256",
          "name": "time",
          "type": "uint256"
        }
      ],
      "name": "PhaseChanged",
      "type": "event"
    },
    {
      "anonymous": false,
      "inputs": [
        {
          "indexed": true,
          "internalType": "uint256",
          "name": "productId",
          "type": "uint256"
        },
        {
          "indexed": false,
          "internalType": "bytes32",
          "name": "memoHash",
          "type": "bytes32"
        },
        {
          "indexed": false,
          "internalType": "bytes32",
          "name": "railgunTxRef",
          "type": "bytes32"
        },
        {
          "indexed": true,
          "internalType": "address",
          "name": "recorder",
          "type": "address"
        }
      ],
      "name": "PrivatePaymentRecorded",
      "type": "event"
    },
    {
      "anonymous": false,
      "inputs": [
        {
          "indexed": false,
          "internalType": "uint256",
          "name": "productId",
          "type": "uint256"
        },
        {
          "indexed": false,
          "internalType": "string",
          "name": "productName",
          "type": "string"
        }
      ],
      "name": "ProductDeleted",
      "type": "event"
    },
    {
      "anonymous": false,
      "inputs": [
        {
          "indexed": true,
          "internalType": "address",
          "name": "caller",
          "type": "address"
        },
        {
          "indexed": false,
          "internalType": "uint256",
          "name": "time",
          "type": "uint256"
        }
      ],
      "name": "SellerTimeout",
      "type": "event"
    },
    {
      "anonymous": false,
      "inputs": [
        {
          "indexed": false,
          "internalType": "address",
          "name": "transporter",
          "type": "address"
        },
        {
          "indexed": false,
          "internalType": "uint256",
          "name": "fee",
          "type": "uint256"
        }
      ],
      "name": "TransporterCreated",
      "type": "event"
    },
    {
      "anonymous": false,
      "inputs": [
        {
          "indexed": false,
          "internalType": "address",
          "name": "transporter",
          "type": "address"
        },
        {
          "indexed": false,
          "internalType": "uint256",
          "name": "price",
          "type": "uint256"
        }
      ],
      "name": "TransporterSecurityDeposit",
      "type": "event"
    },
    {
      "anonymous": false,
      "inputs": [
        {
          "indexed": false,
          "internalType": "bytes32",
          "name": "commitment",
          "type": "bytes32"
        },
        {
          "indexed": false,
          "internalType": "bytes",
          "name": "proof",
          "type": "bytes"
        }
      ],
      "name": "ValueCommitted",
      "type": "event"
    },
    {
      "anonymous": false,
      "inputs": [
        {
          "indexed": false,
          "internalType": "uint256",
          "name": "revealedValue",
          "type": "uint256"
        },
        {
          "indexed": false,
          "internalType": "bytes32",
          "name": "commitment",
          "type": "bytes32"
        },
        {
          "indexed": false,
          "internalType": "bool",
          "name": "valid",
          "type": "bool"
        }
      ],
      "name": "ValueRevealed",
      "type": "event"
    },
    {
      "anonymous": false,
      "inputs": [
        {
          "indexed": false,
          "internalType": "string",
          "name": "cid",
          "type": "string"
        }
      ],
      "name": "VcUpdated",
      "type": "event"
    },
    {
      "inputs": [],
      "name": "BID_WINDOW",
      "outputs": [
        {
          "internalType": "uint32",
          "name": "",
          "type": "uint32"
        }
      ],
      "stateMutability": "view",
      "type": "function"
    },
    {
      "inputs": [],
      "name": "DELIVERY_WINDOW",
      "outputs": [
        {
          "internalType": "uint32",
          "name": "",
          "type": "uint32"
        }
      ],
      "stateMutability": "view",
      "type": "function"
    },
    {
      "inputs": [],
      "name": "SELLER_WINDOW",
      "outputs": [
        {
          "internalType": "uint32",
          "name": "",
          "type": "uint32"
        }
      ],
      "stateMutability": "view",
      "type": "function"
    },
    {
      "inputs": [],
      "name": "bidTimeout",
      "outputs": [],
      "stateMutability": "nonpayable",
      "type": "function"
    },
    {
      "inputs": [],
      "name": "buyer",
      "outputs": [
        {
          "internalType": "address payable",
          "name": "",
          "type": "address"
        }
      ],
      "stateMutability": "view",
      "type": "function"
    },
    {
      "inputs": [],
      "name": "cancelDelivery",
      "outputs": [],
      "stateMutability": "nonpayable",
      "type": "function"
    },
    {
      "inputs": [],
      "name": "checkAndDeleteProduct",
      "outputs": [],
      "stateMutability": "nonpayable",
      "type": "function"
    },
    {
      "inputs": [
        {
          "internalType": "uint256",
          "name": "value",
          "type": "uint256"
        },
        {
          "internalType": "bytes32",
          "name": "salt",
          "type": "bytes32"
        }
      ],
      "name": "computeCommitment",
      "outputs": [
        {
          "internalType": "bytes32",
          "name": "",
          "type": "bytes32"
        }
      ],
      "stateMutability": "pure",
      "type": "function"
    },
    {
      "inputs": [
        {
          "internalType": "string",
          "name": "vcCID",
          "type": "string"
        }
      ],
      "name": "confirmOrder",
      "outputs": [],
      "stateMutability": "nonpayable",
      "type": "function"
    },
    {
      "inputs": [
        {
          "internalType": "uint256",
          "name": "_feeInWei",
          "type": "uint256"
        }
      ],
      "name": "createTransporter",
      "outputs": [],
      "stateMutability": "nonpayable",
      "type": "function"
    },
    {
      "inputs": [],
      "name": "delivered",
      "outputs": [
        {
          "internalType": "bool",
          "name": "",
          "type": "bool"
        }
      ],
      "stateMutability": "view",
      "type": "function"
    },
    {
      "inputs": [],
      "name": "deliveryFee",
      "outputs": [
        {
          "internalType": "uint256",
          "name": "",
          "type": "uint256"
        }
      ],
      "stateMutability": "view",
      "type": "function"
    },
    {
      "inputs": [
        {
          "internalType": "bytes32",
          "name": "_commitment",
          "type": "bytes32"
        },
        {
          "internalType": "bytes32",
          "name": "_valueCommitment",
          "type": "bytes32"
        },
        {
          "internalType": "bytes",
          "name": "_valueRangeProof",
          "type": "bytes"
        }
      ],
      "name": "depositPurchase",
      "outputs": [],
      "stateMutability": "payable",
      "type": "function"
    },
    {
      "inputs": [],
      "name": "getAllTransporters",
      "outputs": [
        {
          "internalType": "address[]",
          "name": "",
          "type": "address[]"
        },
        {
          "internalType": "uint256[]",
          "name": "",
          "type": "uint256[]"
        }
      ],
      "stateMutability": "view",
      "type": "function"
    },
    {
      "inputs": [],
      "name": "getPrivatePaymentDetails",
      "outputs": [
        {
          "internalType": "bytes32",
          "name": "memoHash",
          "type": "bytes32"
        },
        {
          "internalType": "bytes32",
          "name": "railgunTxRef",
          "type": "bytes32"
        },
        {
          "internalType": "address",
          "name": "recorder",
          "type": "address"
        }
      ],
      "stateMutability": "view",
      "type": "function"
    },
    {
      "inputs": [],
      "name": "hasPrivatePayment",
      "outputs": [
        {
          "internalType": "bool",
          "name": "",
          "type": "bool"
        }
      ],
      "stateMutability": "view",
      "type": "function"
    },
    {
      "inputs": [],
      "name": "id",
      "outputs": [
        {
          "internalType": "uint256",
          "name": "",
          "type": "uint256"
        }
      ],
      "stateMutability": "view",
      "type": "function"
    },
    {
      "inputs": [
        {
          "internalType": "address",
          "name": "",
          "type": "address"
        }
      ],
      "name": "isTransporter",
      "outputs": [
        {
          "internalType": "bool",
          "name": "",
          "type": "bool"
        }
      ],
      "stateMutability": "view",
      "type": "function"
    },
    {
      "inputs": [],
      "name": "name",
      "outputs": [
        {
          "internalType": "string",
          "name": "",
          "type": "string"
        }
      ],
      "stateMutability": "view",
      "type": "function"
    },
    {
      "inputs": [],
      "name": "orderConfirmedTimestamp",
      "outputs": [
        {
          "internalType": "uint256",
          "name": "",
          "type": "uint256"
        }
      ],
      "stateMutability": "view",
      "type": "function"
    },
    {
      "inputs": [],
      "name": "owner",
      "outputs": [
        {
          "internalType": "address payable",
          "name": "",
          "type": "address"
        }
      ],
      "stateMutability": "view",
      "type": "function"
    },
    {
      "inputs": [],
      "name": "phase",
      "outputs": [
        {
          "internalType": "enum ProductEscrow.Phase",
          "name": "",
          "type": "uint8"
        }
      ],
      "stateMutability": "view",
      "type": "function"
    },
    {
      "inputs": [],
      "name": "priceCommitment",
      "outputs": [
        {
          "internalType": "bytes32",
          "name": "",
          "type": "bytes32"
        }
      ],
      "stateMutability": "view",
      "type": "function"
    },
    {
      "inputs": [
        {
          "internalType": "bytes32",
          "name": "",
          "type": "bytes32"
        }
      ],
      "name": "privatePayments",
      "outputs": [
        {
          "internalType": "bool",
          "name": "",
          "type": "bool"
        }
      ],
      "stateMutability": "view",
      "type": "function"
    },
    {
      "inputs": [
        {
          "internalType": "uint256",
          "name": "",
          "type": "uint256"
        }
      ],
      "name": "productMemoHashes",
      "outputs": [
        {
          "internalType": "bytes32",
          "name": "",
          "type": "bytes32"
        }
      ],
      "stateMutability": "view",
      "type": "function"
    },
    {
      "inputs": [
        {
          "internalType": "uint256",
          "name": "",
          "type": "uint256"
        }
      ],
      "name": "productPaidBy",
      "outputs": [
        {
          "internalType": "address",
          "name": "",
          "type": "address"
        }
      ],
      "stateMutability": "view",
      "type": "function"
    },
    {
      "inputs": [],
      "name": "productPrice",
      "outputs": [
        {
          "internalType": "uint256",
          "name": "",
          "type": "uint256"
        }
      ],
      "stateMutability": "view",
      "type": "function"
    },
    {
      "inputs": [
        {
          "internalType": "uint256",
          "name": "",
          "type": "uint256"
        }
      ],
      "name": "productRailgunTxRefs",
      "outputs": [
        {
          "internalType": "bytes32",
          "name": "",
          "type": "bytes32"
        }
      ],
      "stateMutability": "view",
      "type": "function"
    },
    {
      "inputs": [],
      "name": "purchaseTimestamp",
      "outputs": [
        {
          "internalType": "uint256",
          "name": "",
          "type": "uint256"
        }
      ],
      "stateMutability": "view",
      "type": "function"
    },
    {
      "inputs": [],
      "name": "purchased",
      "outputs": [
        {
          "internalType": "bool",
          "name": "",
          "type": "bool"
        }
      ],
      "stateMutability": "view",
      "type": "function"
    },
    {
      "inputs": [
        {
          "internalType": "bytes32",
          "name": "_memoHash",
          "type": "bytes32"
        },
        {
          "internalType": "bytes32",
          "name": "_railgunTxRef",
          "type": "bytes32"
        }
      ],
      "name": "recordPrivatePayment",
      "outputs": [],
      "stateMutability": "nonpayable",
      "type": "function"
    },
    {
      "inputs": [
        {
          "internalType": "uint256",
          "name": "revealedValue",
          "type": "uint256"
        },
        {
          "internalType": "bytes32",
          "name": "blinding",
          "type": "bytes32"
        },
        {
          "internalType": "string",
          "name": "vcCID",
          "type": "string"
        }
      ],
      "name": "revealAndConfirmDelivery",
      "outputs": [],
      "stateMutability": "nonpayable",
      "type": "function"
    },
    {
      "inputs": [],
      "name": "securityDeposit",
      "outputs": [],
      "stateMutability": "payable",
      "type": "function"
    },
    {
      "inputs": [
        {
          "internalType": "address",
          "name": "",
          "type": "address"
        }
      ],
      "name": "securityDeposits",
      "outputs": [
        {
          "internalType": "uint256",
          "name": "",
          "type": "uint256"
        }
      ],
      "stateMutability": "view",
      "type": "function"
    },
    {
      "inputs": [],
      "name": "sellerTimeout",
      "outputs": [],
      "stateMutability": "nonpayable",
      "type": "function"
    },
    {
      "inputs": [
        {
          "internalType": "address payable",
          "name": "_transporter",
          "type": "address"
        }
      ],
      "name": "setTransporter",
      "outputs": [],
      "stateMutability": "payable",
      "type": "function"
    },
    {
      "inputs": [],
      "name": "timeout",
      "outputs": [],
      "stateMutability": "nonpayable",
      "type": "function"
    },
    {
      "inputs": [],
      "name": "transporter",
      "outputs": [
        {
          "internalType": "address payable",
          "name": "",
          "type": "address"
        }
      ],
      "stateMutability": "view",
      "type": "function"
    },
    {
      "inputs": [
        {
          "internalType": "uint256",
          "name": "",
          "type": "uint256"
        }
      ],
      "name": "transporterAddresses",
      "outputs": [
        {
          "internalType": "address",
          "name": "",
          "type": "address"
        }
      ],
      "stateMutability": "view",
      "type": "function"
    },
    {
      "inputs": [],
      "name": "transporterCount",
      "outputs": [
        {
          "internalType": "uint256",
          "name": "",
          "type": "uint256"
        }
      ],
      "stateMutability": "view",
      "type": "function"
    },
    {
      "inputs": [
        {
          "internalType": "address",
          "name": "",
          "type": "address"
        }
      ],
      "name": "transporters",
      "outputs": [
        {
          "internalType": "uint256",
          "name": "fee",
          "type": "uint256"
        }
      ],
      "stateMutability": "view",
      "type": "function"
    },
    {
      "inputs": [
        {
          "internalType": "string",
          "name": "cid",
          "type": "string"
        }
      ],
      "name": "updateVcCid",
      "outputs": [],
      "stateMutability": "nonpayable",
      "type": "function"
    },
    {
      "inputs": [
        {
          "internalType": "bytes32",
          "name": "",
          "type": "bytes32"
        }
      ],
      "name": "usedMemoHash",
      "outputs": [
        {
          "internalType": "bool",
          "name": "",
          "type": "bool"
        }
      ],
      "stateMutability": "view",
      "type": "function"
    },
    {
      "inputs": [],
      "name": "valueCommitment",
      "outputs": [
        {
          "internalType": "bytes32",
          "name": "",
          "type": "bytes32"
        }
      ],
      "stateMutability": "view",
      "type": "function"
    },
    {
      "inputs": [],
      "name": "valueRangeProof",
      "outputs": [
        {
          "internalType": "bytes",
          "name": "",
          "type": "bytes"
        }
      ],
      "stateMutability": "view",
      "type": "function"
    },
    {
      "inputs": [],
      "name": "vcCid",
      "outputs": [
        {
          "internalType": "string",
          "name": "",
          "type": "string"
        }
      ],
      "stateMutability": "view",
      "type": "function"
    },
    {
      "inputs": [
        {
          "internalType": "uint256",
          "name": "revealedValue",
          "type": "uint256"
        },
        {
          "internalType": "bytes32",
          "name": "blinding",
          "type": "bytes32"
        }
      ],
      "name": "verifyRevealedValue",
      "outputs": [
        {
          "internalType": "bool",
          "name": "",
          "type": "bool"
        }
      ],
      "stateMutability": "nonpayable",
      "type": "function"
    },
    {
      "inputs": [],
      "name": "withdrawBid",
      "outputs": [],
      "stateMutability": "nonpayable",
      "type": "function"
    },
    {
      "inputs": [],
      "name": "withdrawProductPrice",
      "outputs": [],
      "stateMutability": "nonpayable",
      "type": "function"
    }
  ],
  "bytecode": "0x608060405234801562000010575f80fd5b5060405162002ebd38038062002ebd8339810160408190526200003391620000c3565b60015f55828282600262000048848262000238565b50600391909155600480546001600160a81b0319166001600160a01b039092169190911790555050600580546001600160a01b03191690555050600c805461ff001916905562000300565b634e487b7160e01b5f52604160045260245ffd5b80516001600160a01b0381168114620000be575f80fd5b919050565b5f805f60608486031215620000d6575f80fd5b83516001600160401b0380821115620000ed575f80fd5b818601915086601f83011262000101575f80fd5b81518181111562000116576200011662000093565b604051601f8201601f19908116603f0116810190838211818310171562000141576200014162000093565b816040528281526020935089848487010111156200015d575f80fd5b5f91505b8282101562000180578482018401518183018501529083019062000161565b5f8484830101528097505050508086015193505050620001a360408501620000a7565b90509250925092565b600181811c90821680620001c157607f821691505b602082108103620001e057634e487b7160e01b5f52602260045260245ffd5b50919050565b601f82111562000233575f81815260208120601f850160051c810160208610156200020e5750805b601f850160051c820191505b818110156200022f578281556001016200021a565b5050505b505050565b81516001600160401b0381111562000254576200025462000093565b6200026c81620002658454620001ac565b84620001e6565b602080601f831160018114620002a2575f84156200028a5750858301515b5f19600386901b1c1916600185901b1785556200022f565b5f85815260208120601f198616915b82811015620002d257888601518255948401946001909101908401620002b1565b5085821015620002f057878501515f19600388901b60f8161c191681555b5050505050600190811b01905550565b612baf806200030e5f395ff3fe6080604052600436106102a5575f3560e01c80638da5cb5b1161016f578063c9352b7e116100d8578063e42b021211610092578063e995478e1161006d578063e995478e1461031b578063f3cc0f1f146107f5578063f778ad081461080a578063fa949a0114610867575f80fd5b8063e42b0212146107b7578063e53bbdbe146107d6578063e7067c491461031b575f80fd5b8063c9352b7e146106fa578063d018d98914610725578063d765d3c614610744578063d8f133f914610759578063dc2a7e5f14610778578063e25bd1581461078c575f80fd5b8063b5df610f11610129578063b5df610f1461062c578063b66c5fca14610640578063bbdfbfba1461066b578063bc1e96cb14610684578063bfaf8129146106b2578063c226366b146106c6575f80fd5b80638da5cb5b1461059157806394090d0b146105b05780639497d3ae146105c45780639c8dadae146105d9578063af640d0f146105ec578063b1c9fe6e14610601575f80fd5b806352d93f70116102115780637150d8ae116101cb5780637150d8ae146104af57806377db5719146104e65780637dea6474146105085780638300e71c14610533578063879f9c96146105525780638c10188814610572575f80fd5b806352d93f701461042a578063533a559b1461043e5780635920172a14610452578063627806271461047157806364eeaa9d1461048657806370dea79a1461049b575f80fd5b80632b8109d5116102625780632b8109d51461037e57806337271cc7146103ac57806337703246146103c05780633ace041a146103e45780633cf131e7146104035780634223f78d14610417575f80fd5b806306fdde03146102a9578063093f3ccb146102d3578063220e5ab31461031157806322c3b9f31461031b57806325d3d0e31461034657806329dac7c614610369575b5f80fd5b3480156102b4575f80fd5b506102bd610886565b6040516102ca919061248e565b60405180910390f35b3480156102de575f80fd5b506103016102ed3660046124a7565b60156020525f908152604090205460ff1681565b60405190151581526020016102ca565b610319610912565b005b348015610326575f80fd5b506103316202a30081565b60405163ffffffff90911681526020016102ca565b348015610351575f80fd5b5061035b600a5481565b6040519081526020016102ca565b348015610374575f80fd5b5061035b60065481565b348015610389575f80fd5b506103016103983660046124d2565b60106020525f908152604090205460ff1681565b3480156103b7575f80fd5b5061031961099e565b3480156103cb575f80fd5b506001545f908152601360205260409020541515610301565b3480156103ef575f80fd5b506103196103fe36600461258a565b610b86565b34801561040e575f80fd5b50610319610d13565b6103196104253660046125c4565b610db1565b348015610435575f80fd5b506102bd610f35565b348015610449575f80fd5b50610319610f42565b34801561045d575f80fd5b5061035b61046c36600461263d565b610fe4565b34801561047c575f80fd5b5061035b600d5481565b348015610491575f80fd5b5061035b60175481565b3480156104a6575f80fd5b50610319611013565b3480156104ba575f80fd5b506005546104ce906001600160a01b031681565b6040516001600160a01b0390911681526020016102ca565b3480156104f1575f80fd5b506104fa611360565b6040516102ca92919061265d565b348015610513575f80fd5b5061035b6105223660046124d2565b60096020525f908152604090205481565b34801561053e575f80fd5b5061031961054d36600461263d565b6114d4565b34801561055d575f80fd5b5060045461030190600160a01b900460ff1681565b34801561057d575f80fd5b5061030161058c36600461263d565b611765565b34801561059c575f80fd5b506004546104ce906001600160a01b031681565b3480156105bb575f80fd5b506103196117e8565b3480156105cf575f80fd5b5061035b600e5481565b6103196105e73660046124d2565b61196c565b3480156105f7575f80fd5b5061035b60015481565b34801561060c575f80fd5b50600c5461061f90610100900460ff1681565b6040516102ca9190612713565b348015610637575f80fd5b50610319611af8565b34801561064b575f80fd5b5061035b61065a3660046124a7565b60146020525f908152604090205481565b348015610676575f80fd5b50600c546103019060ff1681565b34801561068f575f80fd5b5061030161069e3660046124a7565b60126020525f908152604090205460ff1681565b3480156106bd575f80fd5b506102bd611bbc565b3480156106d1575f80fd5b506104ce6106e03660046124a7565b60166020525f90815260409020546001600160a01b031681565b348015610705575f80fd5b5061035b6107143660046124a7565b60136020525f908152604090205481565b348015610730575f80fd5b5061031961073f366004612721565b611bc9565b34801561074f575f80fd5b5061035b60035481565b348015610764575f80fd5b506103196107733660046124a7565b611c8f565b348015610783575f80fd5b50610319611dc4565b348015610797575f80fd5b5061035b6107a63660046124d2565b600f6020525f908152604090205481565b3480156107c2575f80fd5b506007546104ce906001600160a01b031681565b3480156107e1575f80fd5b506103196107f036600461258a565b611f92565b348015610800575f80fd5b5061035b60085481565b348015610815575f80fd5b506001545f90815260136020908152604080832054601483528184205460169093529220546001600160a01b03166040805193845260208401929092526001600160a01b0316908201526060016102ca565b348015610872575f80fd5b506104ce6108813660046124a7565b611ff9565b600280546108939061276d565b80601f01602080910402602001604051908101604052809291908181526020018280546108bf9061276d565b801561090a5780601f106108e15761010080835404028352916020019161090a565b820191905f5260205f20905b8154815290600101906020018083116108ed57829003601f168201915b505050505081565b335f9081526010602052604090205460ff166109415760405163aba4733960e01b815260040160405180910390fd5b335f908152600960205260408120805434929061095f9084906127b9565b9091555050604080513381523460208201527f201b13bd8ab1bff9ab4fe027b08267af060c2ac596f9c2408338ae9030f9ec99910160405180910390a1565b6109a6612021565b6002600c54610100900460ff1660058111156109c4576109c46126df565b146109ff576002600c60019054906101000a900460ff166040516305fb5e1b60e01b81526004016109f69291906127cc565b60405180910390fd5b600754336001600160a01b0390911603610a2c57604051633589401f60e01b815260040160405180910390fd5b335f908152600f602090815260408083205460099092529091205481158015610a53575080155b15610a715760405163aba4733960e01b815260040160405180910390fd5b335f908152600f602090815260408083208390556009825280832083905560109091528120805460ff191690556006805491610aac836127e7565b909155508190508015610b43576040515f90339083908381818185875af1925050503d805f8114610af8576040519150601f19603f3d011682016040523d82523d5f602084013e610afd565b606091505b5050905080610b1f57604051635d26862960e01b815260040160405180910390fd5b60405182815233905f80516020612b3a8339815191529060200160405180910390a2505b60405181815233907f03f0427e8bcfdf5f69217150cf160ebe2dac5fa607336fd7643bfd61a90190809060200160405180910390a2505050610b8460015f55565b565b6004546001600160a01b03163314610bb157604051633589401f60e01b815260040160405180910390fd5b6001600c54610100900460ff166005811115610bcf57610bcf6126df565b14610c01576001600c60019054906101000a900460ff166040516305fb5e1b60e01b81526004016109f69291906127cc565b600a54610c12906202a300906127b9565b421115610c325760405163df35873160e01b815260040160405180910390fd5b42600d819055600c805461020061ff00198216179182905560405160ff610100928390048116945f80516020612b5a83398151915294610c799487949104909216916127fc565b60405180910390a1600b610c8d8382612872565b507f5d58f2843b450c496fce0c979f11c9fc0e4aecf62845c3d7055739b6c07a0e4682604051610cbd919061248e565b60405180910390a16003546005546040516001600160a01b03909116907fc3240eda57e484f75e47e5e094e497a166d3c2e31b19fc2a6a96ee951d1ddfd190610d0790869061248e565b60405180910390a35050565b600454600160a01b900460ff16610d3d57604051633b48492360e21b815260040160405180910390fd5b600a54610d4d906202a3006127b9565b421015610d6d5760405163055e18ff60e31b815260040160405180910390fd5b7ff05a5096d61e4686d4b77dc20985d768652606f536436749c7e215623853efe36001546002604051610da192919061292e565b60405180910390a1610b84612049565b610db9612021565b600454600160a01b900460ff1615610de457604051633b48492360e21b815260040160405180910390fd5b6004546001600160a01b03163303610e0f57604051633b48492360e21b815260040160405180910390fd5b6004805460ff60a01b1916600160a01b179055600580546001600160a01b0319163317905542600a81905534600e55600c805461010061ff001982168117928390556040519181900460ff908116945f80516020612b5a83398151915294610e7f948794909104909216916127fc565b60405180910390a1600385905560178490556018610e9e8385836129bb565b507f4a9b2fdb1ca123b2dcd619b96b8d7d931170150da9a5022fd88f61778ea02eee848484604051610ed293929190612a77565b60405180910390a16003546005546040805160208082525f908201526001600160a01b03909216917fc3240eda57e484f75e47e5e094e497a166d3c2e31b19fc2a6a96ee951d1ddfd1910160405180910390a350610f2f60015f55565b50505050565b601880546108939061276d565b6005546001600160a01b03163314610f6d57604051633589401f60e01b815260040160405180910390fd5b6007546001600160a01b0316610f9657604051633589401f60e01b815260040160405180910390fd5b600454600160a01b900460ff16610fc057604051633b48492360e21b815260040160405180910390fd5b600554600480546001600160a01b0319166001600160a01b03909216919091179055565b604080516020808201859052818301849052825180830384018152606090920190925280519101205b92915050565b61101b612021565b600c5460ff161561103f5760405163779822f760e01b815260040160405180910390fd5b600d54611050906202a300906127b9565b421161106f5760405163055e18ff60e31b815260040160405180910390fd5b600c805461050061ff00198216179182905560405160ff610100928390048116935f80516020612b5a833981519152936110b293869391909204169042906127fc565b60405180910390a15f620151806202a30063ffffffff16600d546110d691906127b9565b6110e09042612aac565b6110ea9190612abf565b6110f59060016127b9565b9050600a8111156111045750600a5b6007546001600160a01b03165f90815260096020526040812054606490839061112e90600a612ade565b6111389190612ade565b6111429190612abf565b6007546001600160a01b03165f9081526009602052604090205490915081111561118257506007546001600160a01b03165f908152600960205260409020545b5f81600e5461119191906127b9565b6005546040519192505f916001600160a01b039091169083908381818185875af1925050503d805f81146111e0576040519150601f19603f3d011682016040523d82523d5f602084013e6111e5565b606091505b505090508061120757604051635d26862960e01b815260040160405180910390fd5b6005546040518381526001600160a01b03909116905f80516020612b3a8339815191529060200160405180910390a2821561131d576005546040515f916001600160a01b03169085908381818185875af1925050503d805f8114611286576040519150601f19603f3d011682016040523d82523d5f602084013e61128b565b606091505b50509050806112ad5760405163156c435960e31b815260040160405180910390fd5b6007546040516001600160a01b03909116907f09843be59cdbf0d671efa609c2c4f0105f3ba87e2a489719e8b19792a21162e39061131390878152604060208201819052600d908201526c4c6174652064656c697665727960981b606082015260800190565b60405180910390a2505b60405142815233907f815c833f75bfcb34c209ba96e0f4321db7c37cfb06613962d0f5677d50c93c849060200160405180910390a25050505050610b8460015f55565b60115460609081905f8167ffffffffffffffff811115611382576113826124ed565b6040519080825280602002602001820160405280156113ab578160200160208202803683370190505b5090505f8267ffffffffffffffff8111156113c8576113c86124ed565b6040519080825280602002602001820160405280156113f1578160200160208202803683370190505b5090505f5b838110156114c9576011818154811061141157611411612af5565b905f5260205f20015f9054906101000a90046001600160a01b031683828151811061143e5761143e612af5565b60200260200101906001600160a01b031690816001600160a01b031681525050600f5f6011838154811061147457611474612af5565b5f9182526020808320909101546001600160a01b0316835282019290925260400190205482518390839081106114ac576114ac612af5565b6020908102919091010152806114c181612b09565b9150506113f6565b509094909350915050565b816115215760405162461bcd60e51b815260206004820152601860248201527f4d656d6f20686173682063616e6e6f74206265207a65726f000000000000000060448201526064016109f6565b8061156e5760405162461bcd60e51b815260206004820152601d60248201527f5261696c67756e207478207265662063616e6e6f74206265207a65726f00000060448201526064016109f6565b6003600c54610100900460ff16600581111561158c5761158c6126df565b146115be576003600c60019054906101000a900460ff166040516305fb5e1b60e01b81526004016109f69291906127cc565b600c5460ff16156115e25760405163779822f760e01b815260040160405180910390fd5b6007546001600160a01b031661160b57604051633589401f60e01b815260040160405180910390fd5b5f8281526012602052604090205460ff161561163a57604051634237602b60e11b815260040160405180910390fd5b5f8281526015602052604090205460ff161561166957604051634237602b60e11b815260040160405180910390fd5b6005546001600160a01b0316331480159061168f57506004546001600160a01b03163314155b80156116a657506007546001600160a01b03163314155b156116c457604051633589401f60e01b815260040160405180910390fd5b5f8281526012602090815260408083208054600160ff19918216811790925560158452828520805490911682179055805484526013835281842086905580548452601483528184208590558054845260168352928190208054336001600160a01b0319909116811790915592548151868152928301859052917fb0a8e71fa15b69d580810a4e79ce7add54ae2cfc9d829d8951609d4f677a2de29101610d07565b5f808383604051602001611783929190918252602082015260400190565b60408051601f1981840301815282825280516020918201206003548885529184018290529081149183018290529250907f4f3af542a02a51153827499ed0d6dace61d7be7af86b8f0402016dd9171c16be9060600160405180910390a1949350505050565b6117f0612021565b6002600c54610100900460ff16600581111561180e5761180e6126df565b14611840576002600c60019054906101000a900460ff166040516305fb5e1b60e01b81526004016109f69291906127cc565b600d54611851906202a300906127b9565b42116118705760405163055e18ff60e31b815260040160405180910390fd5b600c805461050061ff00198216179182905560405160ff610100928390048116935f80516020612b5a833981519152936118b393869391909204169042906127fc565b60405180910390a1600554600e546040515f926001600160a01b031691908381818185875af1925050503d805f8114611907576040519150601f19603f3d011682016040523d82523d5f602084013e61190c565b606091505b505090508061192e57604051635d26862960e01b815260040160405180910390fd5b600554600e546040519081526001600160a01b03909116905f80516020612b3a833981519152906020015b60405180910390a25050610b8460015f55565b6004546001600160a01b0316331461199757604051633589401f60e01b815260040160405180910390fd5b6002600c54610100900460ff1660058111156119b5576119b56126df565b146119e7576002600c60019054906101000a900460ff166040516305fb5e1b60e01b81526004016109f69291906127cc565b600d546119f8906202a300906127b9565b421115611a185760405163055e18ff60e31b815260040160405180910390fd5b600c805461030061ff00198216179182905560405160ff610100928390048116935f80516020612b5a83398151915293611a5b93869391909204169042906127fc565b60405180910390a16001600160a01b0382165f908152600f60205260409020543414611a9a57604051630bef7a2f60e41b815260040160405180910390fd5b6001600160a01b0382165f908152600f60205260408120549003611ad157604051633589401f60e01b815260040160405180910390fd5b5034600855600780546001600160a01b0319166001600160a01b0392909216919091179055565b6004546001600160a01b03163314611b2357604051633589401f60e01b815260040160405180910390fd5b6007546001600160a01b0316611b4c57604051633589401f60e01b815260040160405180910390fd5b600454600160a01b900460ff16611b7657604051633b48492360e21b815260040160405180910390fd5b6007546040515f81526001600160a01b039091169033907f08d1502fd01a62867241b61ec35d4ecbed54914c6ab56d5fe1b861dea75622f89060200160405180910390a3565b600b80546108939061276d565b611bd1612021565b6005546001600160a01b03163314611bfc57604051633589401f60e01b815260040160405180910390fd5b6007546001600160a01b0316611c2557604051633589401f60e01b815260040160405180910390fd5b5f611c308484610fe4565b600354909150811480611c765760405162461bcd60e51b815260206004820152600e60248201526d14995d99585b081a5b9d985b1a5960921b60448201526064016109f6565b611c7f83612095565b5050611c8a60015f55565b505050565b600654600511611cd35760405162461bcd60e51b815260206004820152600f60248201526e109a590818d85c081c995858da1959608a1b60448201526064016109f6565b335f908152600f602052604090205415611d0057604051634237602b60e11b815260040160405180910390fd5b6040805160208082018352838252335f818152600f835284812093519093556010909152918120805460ff1916600190811790915560118054918201815582527f31ecc21a745e3968a04e9570e4425bc18fa8019c68028196b546d1669c200c680180546001600160a01b0319169092179091556006805491611d8283612b09565b909155505060408051338152602081018390527f82cd66133dda5e11a8bcba54ad8282733b8517996ec937641ea79418fb14157491015b60405180910390a150565b611dcc612021565b600c5460ff1615611df05760405163779822f760e01b815260040160405180910390fd5b6001600c54610100900460ff166005811115611e0e57611e0e6126df565b14611e40576001600c60019054906101000a900460ff166040516305fb5e1b60e01b81526004016109f69291906127cc565b600a54611e51906202a300906127b9565b4211611e705760405163055e18ff60e31b815260040160405180910390fd5b600c805461050061ff00198216179182905560405160ff610100928390048116935f80516020612b5a83398151915293611eb393869391909204169042906127fc565b60405180910390a1600554600e546040515f926001600160a01b031691908381818185875af1925050503d805f8114611f07576040519150601f19603f3d011682016040523d82523d5f602084013e611f0c565b606091505b5050905080611f2e57604051635d26862960e01b815260040160405180910390fd5b600554600e546040519081526001600160a01b03909116905f80516020612b3a8339815191529060200160405180910390a260405142815233907f74a1486322a6fdcded5b71769c6882117fd64b35e6b2c64d9fb6b2e96ef4c12090602001611959565b6004546001600160a01b03163314611fbd57604051633589401f60e01b815260040160405180910390fd5b600b611fc98282612872565b507f5d58f2843b450c496fce0c979f11c9fc0e4aecf62845c3d7055739b6c07a0e4681604051611db9919061248e565b60118181548110612008575f80fd5b5f918252602090912001546001600160a01b0316905081565b60025f540361204357604051633ee5aeb560e01b815260040160405180910390fd5b60025f55565b61205460025f6123f9565b5f6003819055600480546001600160a81b0319169055600580546001600160a01b03199081169091556007805490911690556008819055600a819055600655565b600c5460ff16156120d45760405162461bcd60e51b815260206004820152600960248201526819195b1a5d995c995960ba1b60448201526064016109f6565b600d546120e5906202a300906127b9565b42111561211e5760405162461bcd60e51b81526020600482015260076024820152661d1a5b595bdd5d60ca1b60448201526064016109f6565b600c805461040161ffff19821617909155600180545f9081526013602052604090205461010060ff199093169091179190910460ff169080156121a9576001545f81815260146020908152604091829020548251858152918201527f6d3c858dd9ebfe36be5ddf09bb42e5d614cf0997f848e72c3435f52e86501ef4910160405180910390a261233d565b600e545f8190036121e95760405162461bcd60e51b815260206004820152600a6024820152697072696365207a65726f60b01b60448201526064016109f6565b6004546040515f916001600160a01b03169083908381818185875af1925050503d805f8114612233576040519150601f19603f3d011682016040523d82523d5f602084013e612238565b606091505b50509050806122805760405162461bcd60e51b81526020600482015260146024820152731cd95b1b195c881d1c985b9cd9995c8819985a5b60621b60448201526064016109f6565b6007546001600160a01b03165f818152600960205260408120546008549192916122aa91906127b9565b6040515f81818185875af1925050503d805f81146122e3576040519150601f19603f3d011682016040523d82523d5f602084013e6122e8565b606091505b50509050806123395760405162461bcd60e51b815260206004820152601960248201527f7472616e73706f72746572207472616e73666572206661696c0000000000000060448201526064016109f6565b5050505b600554600480546001600160a01b0319166001600160a01b03909216919091179055600b61236b8482612872565b507f5d58f2843b450c496fce0c979f11c9fc0e4aecf62845c3d7055739b6c07a0e468360405161239b919061248e565b60405180910390a16007546005546003546040516001600160a01b0393841693909216917f96fba715d7dd1b52e647de8e098e239759f6a3999a23423d4109ca5ba942e9a8916123ec918890612b21565b60405180910390a3505050565b5080546124059061276d565b5f825580601f10612414575050565b601f0160209004905f5260205f20908101906124309190612433565b50565b5b80821115612447575f8155600101612434565b5090565b5f81518084525f5b8181101561246f57602081850181015186830182015201612453565b505f602082860101526020601f19601f83011685010191505092915050565b602081525f6124a0602083018461244b565b9392505050565b5f602082840312156124b7575f80fd5b5035919050565b6001600160a01b0381168114612430575f80fd5b5f602082840312156124e2575f80fd5b81356124a0816124be565b634e487b7160e01b5f52604160045260245ffd5b5f82601f830112612510575f80fd5b813567ffffffffffffffff8082111561252b5761252b6124ed565b604051601f8301601f19908116603f01168101908282118183101715612553576125536124ed565b8160405283815286602085880101111561256b575f80fd5b836020870160208301375f602085830101528094505050505092915050565b5f6020828403121561259a575f80fd5b813567ffffffffffffffff8111156125b0575f80fd5b6125bc84828501612501565b949350505050565b5f805f80606085870312156125d7575f80fd5b8435935060208501359250604085013567ffffffffffffffff808211156125fc575f80fd5b818701915087601f83011261260f575f80fd5b81358181111561261d575f80fd5b88602082850101111561262e575f80fd5b95989497505060200194505050565b5f806040838503121561264e575f80fd5b50508035926020909101359150565b604080825283519082018190525f906020906060840190828701845b8281101561269e5781516001600160a01b031684529284019290840190600101612679565b505050838103828501528451808252858301918301905f5b818110156126d2578351835292840192918401916001016126b6565b5090979650505050505050565b634e487b7160e01b5f52602160045260245ffd5b6006811061270f57634e487b7160e01b5f52602160045260245ffd5b9052565b6020810161100d82846126f3565b5f805f60608486031215612733575f80fd5b8335925060208401359150604084013567ffffffffffffffff811115612757575f80fd5b61276386828701612501565b9150509250925092565b600181811c9082168061278157607f821691505b60208210810361279f57634e487b7160e01b5f52602260045260245ffd5b50919050565b634e487b7160e01b5f52601160045260245ffd5b8082018082111561100d5761100d6127a5565b604081016127da82856126f3565b6124a060208301846126f3565b5f816127f5576127f56127a5565b505f190190565b6060810161280a82866126f3565b61281760208301856126f3565b826040830152949350505050565b601f821115611c8a575f81815260208120601f850160051c8101602086101561284b5750805b601f850160051c820191505b8181101561286a57828155600101612857565b505050505050565b815167ffffffffffffffff81111561288c5761288c6124ed565b6128a08161289a845461276d565b84612825565b602080601f8311600181146128d3575f84156128bc5750858301515b5f19600386901b1c1916600185901b17855561286a565b5f85815260208120601f198616915b82811015612901578886015182559484019460019091019084016128e2565b508582101561291e57878501515f19600388901b60f8161c191681555b5050505050600190811b01905550565b8281525f60206040818401525f84546129468161276d565b806040870152606060018084165f81146129675760018114612981576129ac565b60ff1985168984015283151560051b8901830195506129ac565b895f52865f205f5b858110156129a45781548b8201860152908301908801612989565b8a0184019650505b50939998505050505050505050565b67ffffffffffffffff8311156129d3576129d36124ed565b6129e7836129e1835461276d565b83612825565b5f601f841160018114612a18575f8515612a015750838201355b5f19600387901b1c1916600186901b178355612a70565b5f83815260209020601f19861690835b82811015612a485786850135825560209485019460019092019101612a28565b5086821015612a64575f1960f88860031b161c19848701351681555b505060018560011b0183555b5050505050565b83815260406020820152816040820152818360608301375f818301606090810191909152601f909201601f1916010192915050565b8181038181111561100d5761100d6127a5565b5f82612ad957634e487b7160e01b5f52601260045260245ffd5b500490565b808202811582820484141761100d5761100d6127a5565b634e487b7160e01b5f52603260045260245ffd5b5f60018201612b1a57612b1a6127a5565b5060010190565b828152604060208201525f6125bc604083018461244b56fe8c9a4f13b67cb64d7c6aa1ae0c9bf07694af521a28b93e7060020810ab4bc59fb070f30564c7f6b4417cbad108e44deef775fbe1f133668303bd71b13497ac4aa26469706673582212205b9e04d01f94c1e6dc7856c12add3ad217ce6873cf4998424daab75beceeb2e764736f6c63430008150033",
  "immutableReferences": {},
  "source": "// SPDX-License-Identifier: MIT\r\npragma solidity ^0.8.0;\r\n\r\nimport \"./ProductEscrow.sol\";\r\n\r\ncontract ProductEscrow_Test is ProductEscrow {\r\n    function maxBids() internal view virtual override returns (uint8) {\r\n        return 5;\r\n    }\r\n    constructor(string memory _name, bytes32 _priceCommitment, address _owner)\r\n        ProductEscrow(_name, _priceCommitment, _owner) {}\r\n} ",
  "sourcePath": "C:\\Users\\yamen\\ev-battery-supplychain\\contracts\\ProductEscrow_Test.sol",
  "compiler": {
    "name": "solc",
    "version": "0.8.21+commit.d9974bed.Emscripten.clang"
  },
  "schemaVersion": "3.4.16",
  "updatedAt": "2025-07-30T03:05:30.195Z",
  "devdoc": {
    "errors": {
      "ReentrancyGuardReentrantCall()": [
        {
          "details": "Unauthorized reentrant call."
        }
      ]
    },
    "kind": "dev",
    "methods": {
      "getPrivatePaymentDetails()": {
        "details": "Get private payment details for this product",
        "returns": {
          "memoHash": "The memo hash used in the private transfer",
          "railgunTxRef": "The Railgun transaction reference",
          "recorder": "The address that recorded the payment"
        }
      },
      "hasPrivatePayment()": {
        "details": "Check if a private payment was recorded for this product",
        "returns": {
          "_0": "bool True if private payment was recorded"
        }
      },
      "recordPrivatePayment(bytes32,bytes32)": {
        "details": "Record a private payment made via Railgun",
        "params": {
          "_memoHash": "Hash of the memo used in the private transfer",
          "_railgunTxRef": "Reference to the Railgun transaction  This function can be called by: - Buyer (after making private payment) - Seller (after receiving private payment) - Auditor/Indexer (with proper authorization)"
        }
      }
    },
    "version": 1
  },
  "userdoc": {
    "kind": "user",
    "methods": {},
    "version": 1
  }
}