{
  "contractName": "ProductEscrow",
  "abi": [
    {
      "inputs": [
        {
          "internalType": "string",
          "name": "_name",
          "type": "string"
        },
        {
          "internalType": "bytes32",
          "name": "_priceCommitment",
          "type": "bytes32"
        },
        {
          "internalType": "address",
          "name": "_owner",
          "type": "address"
        }
      ],
      "stateMutability": "nonpayable",
      "type": "constructor"
    },
    {
      "inputs": [],
      "name": "Confirm",
      "type": "error"
    },
    {
      "inputs": [],
      "name": "Delivered",
      "type": "error"
    },
    {
      "inputs": [],
      "name": "Deposit",
      "type": "error"
    },
    {
      "inputs": [],
      "name": "Exists",
      "type": "error"
    },
    {
      "inputs": [],
      "name": "Fee",
      "type": "error"
    },
    {
      "inputs": [],
      "name": "NotRegistered",
      "type": "error"
    },
    {
      "inputs": [],
      "name": "NotTransporter",
      "type": "error"
    },
    {
      "inputs": [],
      "name": "Penalty",
      "type": "error"
    },
    {
      "inputs": [],
      "name": "ReentrancyGuardReentrantCall",
      "type": "error"
    },
    {
      "inputs": [],
      "name": "Refund",
      "type": "error"
    },
    {
      "inputs": [],
      "name": "Timeout",
      "type": "error"
    },
    {
      "inputs": [],
      "name": "Transfer",
      "type": "error"
    },
    {
      "inputs": [
        {
          "internalType": "enum ProductEscrow.Phase",
          "name": "expected",
          "type": "uint8"
        },
        {
          "internalType": "enum ProductEscrow.Phase",
          "name": "got",
          "type": "uint8"
        }
      ],
      "name": "WrongPhase",
      "type": "error"
    },
    {
      "anonymous": false,
      "inputs": [
        {
          "indexed": true,
          "internalType": "address",
          "name": "transporter",
          "type": "address"
        },
        {
          "indexed": false,
          "internalType": "uint256",
          "name": "amount",
          "type": "uint256"
        }
      ],
      "name": "BidWithdrawn",
      "type": "event"
    },
    {
      "anonymous": false,
      "inputs": [
        {
          "indexed": true,
          "internalType": "address",
          "name": "seller",
          "type": "address"
        },
        {
          "indexed": true,
          "internalType": "address",
          "name": "transporter",
          "type": "address"
        },
        {
          "indexed": false,
          "internalType": "uint256",
          "name": "buyerRefund",
          "type": "uint256"
        }
      ],
      "name": "CancelDelivery",
      "type": "event"
    },
    {
      "anonymous": false,
      "inputs": [
        {
          "indexed": true,
          "internalType": "address",
          "name": "buyer",
          "type": "address"
        },
        {
          "indexed": true,
          "internalType": "address",
          "name": "transporter",
          "type": "address"
        },
        {
          "indexed": false,
          "internalType": "bytes32",
          "name": "priceCommitment",
          "type": "bytes32"
        },
        {
          "indexed": false,
          "internalType": "string",
          "name": "vcCID",
          "type": "string"
        }
      ],
      "name": "DeliveryConfirmed",
      "type": "event"
    },
    {
      "anonymous": false,
      "inputs": [
        {
          "indexed": true,
          "internalType": "address",
          "name": "caller",
          "type": "address"
        },
        {
          "indexed": false,
          "internalType": "uint256",
          "name": "time",
          "type": "uint256"
        }
      ],
      "name": "DeliveryTimeout",
      "type": "event"
    },
    {
      "anonymous": false,
      "inputs": [
        {
          "indexed": true,
          "internalType": "address",
          "name": "to",
          "type": "address"
        },
        {
          "indexed": false,
          "internalType": "uint256",
          "name": "amount",
          "type": "uint256"
        }
      ],
      "name": "FundsTransferred",
      "type": "event"
    },
    {
      "anonymous": false,
      "inputs": [
        {
          "indexed": true,
          "internalType": "address",
          "name": "buyer",
          "type": "address"
        },
        {
          "indexed": true,
          "internalType": "bytes32",
          "name": "priceCommitment",
          "type": "bytes32"
        },
        {
          "indexed": false,
          "internalType": "string",
          "name": "vcCID",
          "type": "string"
        }
      ],
      "name": "OrderConfirmed",
      "type": "event"
    },
    {
      "anonymous": false,
      "inputs": [
        {
          "indexed": true,
          "internalType": "address",
          "name": "to",
          "type": "address"
        },
        {
          "indexed": false,
          "internalType": "uint256",
          "name": "amount",
          "type": "uint256"
        },
        {
          "indexed": false,
          "internalType": "string",
          "name": "reason",
          "type": "string"
        }
      ],
      "name": "PenaltyApplied",
      "type": "event"
    },
    {
      "anonymous": false,
      "inputs": [
        {
          "indexed": false,
          "internalType": "enum ProductEscrow.Phase",
          "name": "from",
          "type": "uint8"
        },
        {
          "indexed": false,
          "internalType": "enum ProductEscrow.Phase",
          "name": "to",
          "type": "uint8"
        },
        {
          "indexed": false,
          "internalType": "uint256",
          "name": "time",
          "type": "uint256"
        }
      ],
      "name": "PhaseChanged",
      "type": "event"
    },
    {
      "anonymous": false,
      "inputs": [
        {
          "indexed": false,
          "internalType": "uint256",
          "name": "productId",
          "type": "uint256"
        },
        {
          "indexed": false,
          "internalType": "string",
          "name": "productName",
          "type": "string"
        }
      ],
      "name": "ProductDeleted",
      "type": "event"
    },
    {
      "anonymous": false,
      "inputs": [
        {
          "indexed": true,
          "internalType": "address",
          "name": "caller",
          "type": "address"
        },
        {
          "indexed": false,
          "internalType": "uint256",
          "name": "time",
          "type": "uint256"
        }
      ],
      "name": "SellerTimeout",
      "type": "event"
    },
    {
      "anonymous": false,
      "inputs": [
        {
          "indexed": false,
          "internalType": "address",
          "name": "transporter",
          "type": "address"
        },
        {
          "indexed": false,
          "internalType": "uint256",
          "name": "fee",
          "type": "uint256"
        }
      ],
      "name": "TransporterCreated",
      "type": "event"
    },
    {
      "anonymous": false,
      "inputs": [
        {
          "indexed": false,
          "internalType": "address",
          "name": "transporter",
          "type": "address"
        },
        {
          "indexed": false,
          "internalType": "uint256",
          "name": "price",
          "type": "uint256"
        }
      ],
      "name": "TransporterSecurityDeposit",
      "type": "event"
    },
    {
      "anonymous": false,
      "inputs": [
        {
          "indexed": false,
          "internalType": "uint256",
          "name": "revealedValue",
          "type": "uint256"
        },
        {
          "indexed": false,
          "internalType": "bytes32",
          "name": "commitment",
          "type": "bytes32"
        },
        {
          "indexed": false,
          "internalType": "bool",
          "name": "valid",
          "type": "bool"
        }
      ],
      "name": "ValueRevealed",
      "type": "event"
    },
    {
      "anonymous": false,
      "inputs": [
        {
          "indexed": false,
          "internalType": "string",
          "name": "cid",
          "type": "string"
        }
      ],
      "name": "VcUpdated",
      "type": "event"
    },
    {
      "inputs": [],
      "name": "BID_WINDOW",
      "outputs": [
        {
          "internalType": "uint32",
          "name": "",
          "type": "uint32"
        }
      ],
      "stateMutability": "view",
      "type": "function"
    },
    {
      "inputs": [],
      "name": "DELIVERY_WINDOW",
      "outputs": [
        {
          "internalType": "uint32",
          "name": "",
          "type": "uint32"
        }
      ],
      "stateMutability": "view",
      "type": "function"
    },
    {
      "inputs": [],
      "name": "SELLER_WINDOW",
      "outputs": [
        {
          "internalType": "uint32",
          "name": "",
          "type": "uint32"
        }
      ],
      "stateMutability": "view",
      "type": "function"
    },
    {
      "inputs": [],
      "name": "buyer",
      "outputs": [
        {
          "internalType": "address payable",
          "name": "",
          "type": "address"
        }
      ],
      "stateMutability": "view",
      "type": "function"
    },
    {
      "inputs": [],
      "name": "delivered",
      "outputs": [
        {
          "internalType": "bool",
          "name": "",
          "type": "bool"
        }
      ],
      "stateMutability": "view",
      "type": "function"
    },
    {
      "inputs": [],
      "name": "deliveryFee",
      "outputs": [
        {
          "internalType": "uint256",
          "name": "",
          "type": "uint256"
        }
      ],
      "stateMutability": "view",
      "type": "function"
    },
    {
      "inputs": [],
      "name": "id",
      "outputs": [
        {
          "internalType": "uint256",
          "name": "",
          "type": "uint256"
        }
      ],
      "stateMutability": "view",
      "type": "function"
    },
    {
      "inputs": [
        {
          "internalType": "address",
          "name": "",
          "type": "address"
        }
      ],
      "name": "isTransporter",
      "outputs": [
        {
          "internalType": "bool",
          "name": "",
          "type": "bool"
        }
      ],
      "stateMutability": "view",
      "type": "function"
    },
    {
      "inputs": [],
      "name": "name",
      "outputs": [
        {
          "internalType": "string",
          "name": "",
          "type": "string"
        }
      ],
      "stateMutability": "view",
      "type": "function"
    },
    {
      "inputs": [],
      "name": "orderConfirmedTimestamp",
      "outputs": [
        {
          "internalType": "uint256",
          "name": "",
          "type": "uint256"
        }
      ],
      "stateMutability": "view",
      "type": "function"
    },
    {
      "inputs": [],
      "name": "owner",
      "outputs": [
        {
          "internalType": "address payable",
          "name": "",
          "type": "address"
        }
      ],
      "stateMutability": "view",
      "type": "function"
    },
    {
      "inputs": [],
      "name": "phase",
      "outputs": [
        {
          "internalType": "enum ProductEscrow.Phase",
          "name": "",
          "type": "uint8"
        }
      ],
      "stateMutability": "view",
      "type": "function"
    },
    {
      "inputs": [],
      "name": "priceCommitment",
      "outputs": [
        {
          "internalType": "bytes32",
          "name": "",
          "type": "bytes32"
        }
      ],
      "stateMutability": "view",
      "type": "function"
    },
    {
      "inputs": [],
      "name": "productPrice",
      "outputs": [
        {
          "internalType": "uint256",
          "name": "",
          "type": "uint256"
        }
      ],
      "stateMutability": "view",
      "type": "function"
    },
    {
      "inputs": [],
      "name": "purchaseTimestamp",
      "outputs": [
        {
          "internalType": "uint256",
          "name": "",
          "type": "uint256"
        }
      ],
      "stateMutability": "view",
      "type": "function"
    },
    {
      "inputs": [],
      "name": "purchased",
      "outputs": [
        {
          "internalType": "bool",
          "name": "",
          "type": "bool"
        }
      ],
      "stateMutability": "view",
      "type": "function"
    },
    {
      "inputs": [
        {
          "internalType": "address",
          "name": "",
          "type": "address"
        }
      ],
      "name": "securityDeposits",
      "outputs": [
        {
          "internalType": "uint256",
          "name": "",
          "type": "uint256"
        }
      ],
      "stateMutability": "view",
      "type": "function"
    },
    {
      "inputs": [],
      "name": "transporter",
      "outputs": [
        {
          "internalType": "address payable",
          "name": "",
          "type": "address"
        }
      ],
      "stateMutability": "view",
      "type": "function"
    },
    {
      "inputs": [],
      "name": "transporterCount",
      "outputs": [
        {
          "internalType": "uint256",
          "name": "",
          "type": "uint256"
        }
      ],
      "stateMutability": "view",
      "type": "function"
    },
    {
      "inputs": [
        {
          "internalType": "address",
          "name": "",
          "type": "address"
        }
      ],
      "name": "transporters",
      "outputs": [
        {
          "internalType": "uint256",
          "name": "fee",
          "type": "uint256"
        }
      ],
      "stateMutability": "view",
      "type": "function"
    },
    {
      "inputs": [],
      "name": "vcCid",
      "outputs": [
        {
          "internalType": "string",
          "name": "",
          "type": "string"
        }
      ],
      "stateMutability": "view",
      "type": "function"
    },
    {
      "inputs": [
        {
          "internalType": "string",
          "name": "vcCID",
          "type": "string"
        }
      ],
      "name": "confirmOrder",
      "outputs": [],
      "stateMutability": "nonpayable",
      "type": "function"
    },
    {
      "inputs": [
        {
          "internalType": "string",
          "name": "cid",
          "type": "string"
        }
      ],
      "name": "updateVcCid",
      "outputs": [],
      "stateMutability": "nonpayable",
      "type": "function"
    },
    {
      "inputs": [
        {
          "internalType": "bytes32",
          "name": "_commitment",
          "type": "bytes32"
        }
      ],
      "name": "depositPurchase",
      "outputs": [],
      "stateMutability": "payable",
      "type": "function"
    },
    {
      "inputs": [],
      "name": "withdrawProductPrice",
      "outputs": [],
      "stateMutability": "nonpayable",
      "type": "function"
    },
    {
      "inputs": [],
      "name": "cancelDelivery",
      "outputs": [],
      "stateMutability": "nonpayable",
      "type": "function"
    },
    {
      "inputs": [
        {
          "internalType": "address payable",
          "name": "_transporter",
          "type": "address"
        }
      ],
      "name": "setTransporter",
      "outputs": [],
      "stateMutability": "payable",
      "type": "function"
    },
    {
      "inputs": [
        {
          "internalType": "uint256",
          "name": "_feeInWei",
          "type": "uint256"
        }
      ],
      "name": "createTransporter",
      "outputs": [],
      "stateMutability": "nonpayable",
      "type": "function"
    },
    {
      "inputs": [],
      "name": "securityDeposit",
      "outputs": [],
      "stateMutability": "payable",
      "type": "function"
    },
    {
      "inputs": [],
      "name": "checkAndDeleteProduct",
      "outputs": [],
      "stateMutability": "nonpayable",
      "type": "function"
    },
    {
      "inputs": [
        {
          "internalType": "uint256",
          "name": "revealedValue",
          "type": "uint256"
        },
        {
          "internalType": "bytes32",
          "name": "blinding",
          "type": "bytes32"
        }
      ],
      "name": "verifyRevealedValue",
      "outputs": [
        {
          "internalType": "bool",
          "name": "",
          "type": "bool"
        }
      ],
      "stateMutability": "nonpayable",
      "type": "function"
    },
    {
      "inputs": [
        {
          "internalType": "uint256",
          "name": "revealedValue",
          "type": "uint256"
        },
        {
          "internalType": "bytes32",
          "name": "blinding",
          "type": "bytes32"
        },
        {
          "internalType": "string",
          "name": "vcCID",
          "type": "string"
        }
      ],
      "name": "revealAndConfirmDelivery",
      "outputs": [],
      "stateMutability": "nonpayable",
      "type": "function"
    },
    {
      "inputs": [],
      "name": "timeout",
      "outputs": [],
      "stateMutability": "nonpayable",
      "type": "function"
    },
    {
      "inputs": [],
      "name": "sellerTimeout",
      "outputs": [],
      "stateMutability": "nonpayable",
      "type": "function"
    },
    {
      "inputs": [],
      "name": "bidTimeout",
      "outputs": [],
      "stateMutability": "nonpayable",
      "type": "function"
    },
    {
      "inputs": [],
      "name": "withdrawBid",
      "outputs": [],
      "stateMutability": "nonpayable",
      "type": "function"
    }
  ],
  "bytecode": "0x608060405234801562000010575f80fd5b50604051620024b4380380620024b48339810160408190526200003391620000bd565b60015f55600262000045848262000232565b50600391909155600480546001600160a81b0319166001600160a01b0390921691909117905550600580546001600160a01b0319169055600c805461ff0019169055620002fa565b634e487b7160e01b5f52604160045260245ffd5b80516001600160a01b0381168114620000b8575f80fd5b919050565b5f805f60608486031215620000d0575f80fd5b83516001600160401b0380821115620000e7575f80fd5b818601915086601f830112620000fb575f80fd5b8151818111156200011057620001106200008d565b604051601f8201601f19908116603f011681019083821181831017156200013b576200013b6200008d565b8160405282815260209350898484870101111562000157575f80fd5b5f91505b828210156200017a57848201840151818301850152908301906200015b565b5f84848301015280975050505080860151935050506200019d60408501620000a1565b90509250925092565b600181811c90821680620001bb57607f821691505b602082108103620001da57634e487b7160e01b5f52602260045260245ffd5b50919050565b601f8211156200022d575f81815260208120601f850160051c81016020861015620002085750805b601f850160051c820191505b81811015620002295782815560010162000214565b5050505b505050565b81516001600160401b038111156200024e576200024e6200008d565b62000266816200025f8454620001a6565b84620001e0565b602080601f8311600181146200029c575f8415620002845750858301515b5f19600386901b1c1916600185901b17855562000229565b5f85815260208120601f198616915b82811015620002cc57888601518255948401946001909101908401620002ab565b5085821015620002ea57878501515f19600388901b60f8161c191681555b5050505050600190811b01905550565b6121ac80620003085f395ff3fe608060405260043610610207575f3560e01c80639497d3ae11610113578063d765d3c61161009d578063e42b02121161006d578063e42b021214610586578063e53bbdbe146105a5578063e7067c491461023f578063e995478e1461023f578063f3cc0f1f146105c4575f80fd5b8063d765d3c614610513578063d8f133f914610528578063dc2a7e5f14610547578063e25bd1581461055b575f80fd5b8063b5df610f116100e3578063b5df610f146104a0578063bbdfbfba146104b4578063bfaf8129146104cd578063d018d989146104e1578063d25a055b14610500575f80fd5b80639497d3ae146104385780639c8dadae1461044d578063af640d0f14610460578063b1c9fe6e14610475575f80fd5b8063533a559b116101945780637dea6474116101645780637dea64741461039b578063879f9c96146103c65780638c101888146103e65780638da5cb5b1461040557806394090d0b14610424575f80fd5b8063533a559b14610327578063627806271461033b57806370dea79a146103505780637150d8ae14610364575f80fd5b806329dac7c6116101da57806329dac7c61461028d5780632b8109d5146102a257806337271cc7146102e05780633ace041a146102f45780633cf131e714610313575f80fd5b806306fdde031461020b578063220e5ab31461023557806322c3b9f31461023f57806325d3d0e31461026a575b5f80fd5b348015610216575f80fd5b5061021f6105d9565b60405161022c9190611c8b565b60405180910390f35b61023d610665565b005b34801561024a575f80fd5b506102556202a30081565b60405163ffffffff909116815260200161022c565b348015610275575f80fd5b5061027f600a5481565b60405190815260200161022c565b348015610298575f80fd5b5061027f60065481565b3480156102ad575f80fd5b506102d06102bc366004611cb8565b60106020525f908152604090205460ff1681565b604051901515815260200161022c565b3480156102eb575f80fd5b5061023d6106f1565b3480156102ff575f80fd5b5061023d61030e366004611d70565b6108d9565b34801561031e575f80fd5b5061023d610a66565b348015610332575f80fd5b5061023d610b04565b348015610346575f80fd5b5061027f600d5481565b34801561035b575f80fd5b5061023d610ba6565b34801561036f575f80fd5b50600554610383906001600160a01b031681565b6040516001600160a01b03909116815260200161022c565b3480156103a6575f80fd5b5061027f6103b5366004611cb8565b60096020525f908152604090205481565b3480156103d1575f80fd5b506004546102d090600160a01b900460ff1681565b3480156103f1575f80fd5b506102d0610400366004611daa565b610ef3565b348015610410575f80fd5b50600454610383906001600160a01b031681565b34801561042f575f80fd5b5061023d610f78565b348015610443575f80fd5b5061027f600e5481565b61023d61045b366004611cb8565b6110fc565b34801561046b575f80fd5b5061027f60015481565b348015610480575f80fd5b50600c5461049390610100900460ff1681565b60405161022c9190611dfe565b3480156104ab575f80fd5b5061023d611288565b3480156104bf575f80fd5b50600c546102d09060ff1681565b3480156104d8575f80fd5b5061021f61134c565b3480156104ec575f80fd5b5061023d6104fb366004611e0c565b611359565b61023d61050e366004611e58565b611439565b34801561051e575f80fd5b5061027f60035481565b348015610533575f80fd5b5061023d610542366004611e58565b611569565b348015610552575f80fd5b5061023d61165b565b348015610566575f80fd5b5061027f610575366004611cb8565b600f6020525f908152604090205481565b348015610591575f80fd5b50600754610383906001600160a01b031681565b3480156105b0575f80fd5b5061023d6105bf366004611d70565b611829565b3480156105cf575f80fd5b5061027f60085481565b600280546105e690611e6f565b80601f016020809104026020016040519081016040528092919081815260200182805461061290611e6f565b801561065d5780601f106106345761010080835404028352916020019161065d565b820191905f5260205f20905b81548152906001019060200180831161064057829003601f168201915b505050505081565b335f9081526010602052604090205460ff166106945760405163aba4733960e01b815260040160405180910390fd5b335f90815260096020526040812080543492906106b2908490611ebb565b9091555050604080513381523460208201527f201b13bd8ab1bff9ab4fe027b08267af060c2ac596f9c2408338ae9030f9ec99910160405180910390a1565b6106f9611890565b6002600c54610100900460ff16600581111561071757610717611dca565b14610752576002600c60019054906101000a900460ff166040516305fb5e1b60e01b8152600401610749929190611ece565b60405180910390fd5b600754336001600160a01b039091160361077f57604051633589401f60e01b815260040160405180910390fd5b335f908152600f6020908152604080832054600990925290912054811580156107a6575080155b156107c45760405163aba4733960e01b815260040160405180910390fd5b335f908152600f602090815260408083208390556009825280832083905560109091528120805460ff1916905560068054916107ff83611ee9565b909155508190508015610896576040515f90339083908381818185875af1925050503d805f811461084b576040519150601f19603f3d011682016040523d82523d5f602084013e610850565b606091505b505090508061087257604051635d26862960e01b815260040160405180910390fd5b60405182815233905f805160206121378339815191529060200160405180910390a2505b60405181815233907f03f0427e8bcfdf5f69217150cf160ebe2dac5fa607336fd7643bfd61a90190809060200160405180910390a25050506108d760015f55565b565b6004546001600160a01b0316331461090457604051633589401f60e01b815260040160405180910390fd5b6001600c54610100900460ff16600581111561092257610922611dca565b14610954576001600c60019054906101000a900460ff166040516305fb5e1b60e01b8152600401610749929190611ece565b600a54610965906202a30090611ebb565b4211156109855760405163df35873160e01b815260040160405180910390fd5b42600d819055600c805461020061ff00198216179182905560405160ff610100928390048116945f80516020612157833981519152946109cc948794910490921691611efe565b60405180910390a1600b6109e08382611f74565b507f5d58f2843b450c496fce0c979f11c9fc0e4aecf62845c3d7055739b6c07a0e4682604051610a109190611c8b565b60405180910390a16003546005546040516001600160a01b03909116907fc3240eda57e484f75e47e5e094e497a166d3c2e31b19fc2a6a96ee951d1ddfd190610a5a908690611c8b565b60405180910390a35050565b600454600160a01b900460ff16610a9057604051633b48492360e21b815260040160405180910390fd5b600a54610aa0906202a300611ebb565b421015610ac05760405163055e18ff60e31b815260040160405180910390fd5b7ff05a5096d61e4686d4b77dc20985d768652606f536436749c7e215623853efe36001546002604051610af4929190612030565b60405180910390a16108d76118b8565b6005546001600160a01b03163314610b2f57604051633589401f60e01b815260040160405180910390fd5b6007546001600160a01b0316610b5857604051633589401f60e01b815260040160405180910390fd5b600454600160a01b900460ff16610b8257604051633b48492360e21b815260040160405180910390fd5b600554600480546001600160a01b0319166001600160a01b03909216919091179055565b610bae611890565b600c5460ff1615610bd25760405163779822f760e01b815260040160405180910390fd5b600d54610be3906202a30090611ebb565b4211610c025760405163055e18ff60e31b815260040160405180910390fd5b600c805461050061ff00198216179182905560405160ff610100928390048116935f8051602061215783398151915293610c459386939190920416904290611efe565b60405180910390a15f620151806202a30063ffffffff16600d54610c699190611ebb565b610c7390426120bd565b610c7d91906120d0565b610c88906001611ebb565b9050600a811115610c975750600a5b6007546001600160a01b03165f908152600960205260408120546064908390610cc190600a6120ef565b610ccb91906120ef565b610cd591906120d0565b6007546001600160a01b03165f90815260096020526040902054909150811115610d1557506007546001600160a01b03165f908152600960205260409020545b5f81600e54610d249190611ebb565b6005546040519192505f916001600160a01b039091169083908381818185875af1925050503d805f8114610d73576040519150601f19603f3d011682016040523d82523d5f602084013e610d78565b606091505b5050905080610d9a57604051635d26862960e01b815260040160405180910390fd5b6005546040518381526001600160a01b03909116905f805160206121378339815191529060200160405180910390a28215610eb0576005546040515f916001600160a01b03169085908381818185875af1925050503d805f8114610e19576040519150601f19603f3d011682016040523d82523d5f602084013e610e1e565b606091505b5050905080610e405760405163156c435960e31b815260040160405180910390fd5b6007546040516001600160a01b03909116907f09843be59cdbf0d671efa609c2c4f0105f3ba87e2a489719e8b19792a21162e390610ea690878152604060208201819052600d908201526c4c6174652064656c697665727960981b606082015260800190565b60405180910390a2505b60405142815233907f815c833f75bfcb34c209ba96e0f4321db7c37cfb06613962d0f5677d50c93c849060200160405180910390a250505050506108d760015f55565b5f808383604051602001610f11929190918252602082015260400190565b60408051601f1981840301815282825280516020918201206003548885529184018290529081149183018290529250907f4f3af542a02a51153827499ed0d6dace61d7be7af86b8f0402016dd9171c16be9060600160405180910390a19150505b92915050565b610f80611890565b6002600c54610100900460ff166005811115610f9e57610f9e611dca565b14610fd0576002600c60019054906101000a900460ff166040516305fb5e1b60e01b8152600401610749929190611ece565b600d54610fe1906202a30090611ebb565b42116110005760405163055e18ff60e31b815260040160405180910390fd5b600c805461050061ff00198216179182905560405160ff610100928390048116935f80516020612157833981519152936110439386939190920416904290611efe565b60405180910390a1600554600e546040515f926001600160a01b031691908381818185875af1925050503d805f8114611097576040519150601f19603f3d011682016040523d82523d5f602084013e61109c565b606091505b50509050806110be57604051635d26862960e01b815260040160405180910390fd5b600554600e546040519081526001600160a01b03909116905f80516020612137833981519152906020015b60405180910390a250506108d760015f55565b6004546001600160a01b0316331461112757604051633589401f60e01b815260040160405180910390fd5b6002600c54610100900460ff16600581111561114557611145611dca565b14611177576002600c60019054906101000a900460ff166040516305fb5e1b60e01b8152600401610749929190611ece565b600d54611188906202a30090611ebb565b4211156111a85760405163055e18ff60e31b815260040160405180910390fd5b600c805461030061ff00198216179182905560405160ff610100928390048116935f80516020612157833981519152936111eb9386939190920416904290611efe565b60405180910390a16001600160a01b0382165f908152600f6020526040902054341461122a57604051630bef7a2f60e41b815260040160405180910390fd5b6001600160a01b0382165f908152600f6020526040812054900361126157604051633589401f60e01b815260040160405180910390fd5b5034600855600780546001600160a01b0319166001600160a01b0392909216919091179055565b6004546001600160a01b031633146112b357604051633589401f60e01b815260040160405180910390fd5b6007546001600160a01b03166112dc57604051633589401f60e01b815260040160405180910390fd5b600454600160a01b900460ff1661130657604051633b48492360e21b815260040160405180910390fd5b6007546040515f81526001600160a01b039091169033907f08d1502fd01a62867241b61ec35d4ecbed54914c6ab56d5fe1b861dea75622f89060200160405180910390a3565b600b80546105e690611e6f565b611361611890565b6005546001600160a01b0316331461138c57604051633589401f60e01b815260040160405180910390fd5b6007546001600160a01b03166113b557604051633589401f60e01b815260040160405180910390fd5b604080516020808201869052818301859052825180830384018152606090920190925280519101206003548114806114205760405162461bcd60e51b815260206004820152600e60248201526d14995d99585b081a5b9d985b1a5960921b6044820152606401610749565b61142983611904565b505061143460015f55565b505050565b611441611890565b600454600160a01b900460ff161561146c57604051633b48492360e21b815260040160405180910390fd5b6004546001600160a01b0316330361149757604051633b48492360e21b815260040160405180910390fd5b6004805460ff60a01b1916600160a01b179055600580546001600160a01b0319163317905542600a81905534600e55600c805461010061ff001982168117928390556040519181900460ff908116945f805160206121578339815191529461150794879490910490921691611efe565b60405180910390a160038290556005546040805160208082525f9082015284926001600160a01b0316917fc3240eda57e484f75e47e5e094e497a166d3c2e31b19fc2a6a96ee951d1ddfd1910160405180910390a35061156660015f55565b50565b6006546014116115ad5760405162461bcd60e51b815260206004820152600f60248201526e109a590818d85c081c995858da1959608a1b6044820152606401610749565b335f908152600f6020526040902054156115da57604051634237602b60e11b815260040160405180910390fd5b6040805160208082018352838252335f908152600f8252838120925190925560109052908120805460ff19166001179055600680549161161983612106565b909155505060408051338152602081018390527f82cd66133dda5e11a8bcba54ad8282733b8517996ec937641ea79418fb14157491015b60405180910390a150565b611663611890565b600c5460ff16156116875760405163779822f760e01b815260040160405180910390fd5b6001600c54610100900460ff1660058111156116a5576116a5611dca565b146116d7576001600c60019054906101000a900460ff166040516305fb5e1b60e01b8152600401610749929190611ece565b600a546116e8906202a30090611ebb565b42116117075760405163055e18ff60e31b815260040160405180910390fd5b600c805461050061ff00198216179182905560405160ff610100928390048116935f805160206121578339815191529361174a9386939190920416904290611efe565b60405180910390a1600554600e546040515f926001600160a01b031691908381818185875af1925050503d805f811461179e576040519150601f19603f3d011682016040523d82523d5f602084013e6117a3565b606091505b50509050806117c557604051635d26862960e01b815260040160405180910390fd5b600554600e546040519081526001600160a01b03909116905f805160206121378339815191529060200160405180910390a260405142815233907f74a1486322a6fdcded5b71769c6882117fd64b35e6b2c64d9fb6b2e96ef4c120906020016110e9565b6004546001600160a01b0316331461185457604051633589401f60e01b815260040160405180910390fd5b600b6118608282611f74565b507f5d58f2843b450c496fce0c979f11c9fc0e4aecf62845c3d7055739b6c07a0e46816040516116509190611c8b565b60025f54036118b257604051633ee5aeb560e01b815260040160405180910390fd5b60025f55565b6118c360025f611bfe565b5f6003819055600480546001600160a81b0319169055600580546001600160a01b03199081169091556007805490911690556008819055600a819055600655565b600c5460ff16156119285760405163779822f760e01b815260040160405180910390fd5b600d54611939906202a30090611ebb565b4211156119595760405163055e18ff60e31b815260040160405180910390fd5b600c805461ffff198116610401179182905560405160ff61010060ff199093166001178390048116935f80516020612157833981519152936119a49386939190920416904290611efe565b60405180910390a1600e545f8190036119d057604051633b48492360e21b815260040160405180910390fd5b6004546040515f916001600160a01b03169083908381818185875af1925050503d805f8114611a1a576040519150601f19603f3d011682016040523d82523d5f602084013e611a1f565b606091505b5050905080611a415760405163406dade360e01b815260040160405180910390fd5b6004546040518381526001600160a01b03909116905f805160206121378339815191529060200160405180910390a26007546001600160a01b03165f81815260096020526040812054600854919291611a9a9190611ebb565b6040515f81818185875af1925050503d805f8114611ad3576040519150601f19603f3d011682016040523d82523d5f602084013e611ad8565b606091505b5050905080611afa5760405163406dade360e01b815260040160405180910390fd5b6007546001600160a01b03165f818152600960205260409020546008545f8051602061213783398151915291611b2f91611ebb565b60405190815260200160405180910390a2600554600480546001600160a01b0319166001600160a01b03909216919091179055600b611b6e8682611f74565b507f5d58f2843b450c496fce0c979f11c9fc0e4aecf62845c3d7055739b6c07a0e4685604051611b9e9190611c8b565b60405180910390a16007546005546003546040516001600160a01b0393841693909216917f96fba715d7dd1b52e647de8e098e239759f6a3999a23423d4109ca5ba942e9a891611bef918a9061211e565b60405180910390a35050505050565b508054611c0a90611e6f565b5f825580601f10611c19575050565b601f0160209004905f5260205f209081019061156691905b80821115611c44575f8155600101611c31565b5090565b5f81518084525f5b81811015611c6c57602081850181015186830182015201611c50565b505f602082860101526020601f19601f83011685010191505092915050565b602081525f611c9d6020830184611c48565b9392505050565b6001600160a01b0381168114611566575f80fd5b5f60208284031215611cc8575f80fd5b8135611c9d81611ca4565b634e487b7160e01b5f52604160045260245ffd5b5f82601f830112611cf6575f80fd5b813567ffffffffffffffff80821115611d1157611d11611cd3565b604051601f8301601f19908116603f01168101908282118183101715611d3957611d39611cd3565b81604052838152866020858801011115611d51575f80fd5b836020870160208301375f602085830101528094505050505092915050565b5f60208284031215611d80575f80fd5b813567ffffffffffffffff811115611d96575f80fd5b611da284828501611ce7565b949350505050565b5f8060408385031215611dbb575f80fd5b50508035926020909101359150565b634e487b7160e01b5f52602160045260245ffd5b60068110611dfa57634e487b7160e01b5f52602160045260245ffd5b9052565b60208101610f728284611dde565b5f805f60608486031215611e1e575f80fd5b8335925060208401359150604084013567ffffffffffffffff811115611e42575f80fd5b611e4e86828701611ce7565b9150509250925092565b5f60208284031215611e68575f80fd5b5035919050565b600181811c90821680611e8357607f821691505b602082108103611ea157634e487b7160e01b5f52602260045260245ffd5b50919050565b634e487b7160e01b5f52601160045260245ffd5b80820180821115610f7257610f72611ea7565b60408101611edc8285611dde565b611c9d6020830184611dde565b5f81611ef757611ef7611ea7565b505f190190565b60608101611f0c8286611dde565b611f196020830185611dde565b826040830152949350505050565b601f821115611434575f81815260208120601f850160051c81016020861015611f4d5750805b601f850160051c820191505b81811015611f6c57828155600101611f59565b505050505050565b815167ffffffffffffffff811115611f8e57611f8e611cd3565b611fa281611f9c8454611e6f565b84611f27565b602080601f831160018114611fd5575f8415611fbe5750858301515b5f19600386901b1c1916600185901b178555611f6c565b5f85815260208120601f198616915b8281101561200357888601518255948401946001909101908401611fe4565b508582101561202057878501515f19600388901b60f8161c191681555b5050505050600190811b01905550565b8281525f60206040818401525f845461204881611e6f565b806040870152606060018084165f81146120695760018114612083576120ae565b60ff1985168984015283151560051b8901830195506120ae565b895f52865f205f5b858110156120a65781548b820186015290830190880161208b565b8a0184019650505b50939998505050505050505050565b81810381811115610f7257610f72611ea7565b5f826120ea57634e487b7160e01b5f52601260045260245ffd5b500490565b8082028115828204841417610f7257610f72611ea7565b5f6001820161211757612117611ea7565b5060010190565b828152604060208201525f611da26040830184611c4856fe8c9a4f13b67cb64d7c6aa1ae0c9bf07694af521a28b93e7060020810ab4bc59fb070f30564c7f6b4417cbad108e44deef775fbe1f133668303bd71b13497ac4aa264697066735822122052f7b2b0b006860d64c3ff7de72a94f1e5957368ff39bf87853068a1e5de6dd364736f6c63430008150033",
  "immutableReferences": {},
  "source": "// SPDX-License-Identifier: MIT\r\npragma solidity ^0.8.0;\r\n\r\n// Custom errors for gas savings and better debugging\r\nerror WrongPhase(ProductEscrow.Phase expected, ProductEscrow.Phase got);\r\nerror NotTransporter();\r\nerror BidCap();\r\nerror Exists();\r\nerror NotRegistered();\r\nerror Fee();\r\nerror Delivered();\r\nerror Timeout();\r\nerror Confirm();\r\nerror Deposit();\r\nerror Refund();\r\nerror Penalty();\r\nerror Transfer();\r\nerror VC();\r\n\r\nimport \"@openzeppelin/contracts/utils/ReentrancyGuard.sol\";\r\n\r\ncontract ProductEscrow is ReentrancyGuard {\r\n    uint public id;\r\n    string public name;\r\n    bytes32 public priceCommitment; // Confidential price commitment (changed from uint price)\r\n    address payable public owner;\r\n    bool public purchased;\r\n    address payable public buyer;\r\n    uint public transporterCount;\r\n    address payable public transporter;\r\n    uint public deliveryFee;\r\n    mapping(address => uint) public securityDeposits; // Track each transporter's deposit\r\n    uint public purchaseTimestamp; // Timestamp when purchase is confirmed\r\n    string public vcCid;              // e.g. \"ipfs://Qm\"\r\n    bool public delivered;\r\n    enum Phase { Listed, Purchased, OrderConfirmed, Bound, Delivered, Expired }\r\n    Phase public phase;\r\n    // Cap on number of transporter bids to prevent DoS and high gas\r\n    function maxBids() internal view virtual returns (uint8) {\r\n        return 20;\r\n    }\r\n    uint32 public constant SELLER_WINDOW = 2 days; // Seller must confirm within 48h\r\n    uint32 public constant BID_WINDOW = 2 days;    // Bidding window after seller confirmation\r\n    uint32 public constant DELIVERY_WINDOW = 2 days; // Delivery window after transporter is set\r\n    uint public orderConfirmedTimestamp; // Timestamp when seller confirms order (start of bidding window)\r\n    uint public productPrice; // Explicitly track the buyer's deposit amount\r\n\r\n\r\n    struct TransporterFees {\r\n        uint fee;\r\n    }\r\n\r\n    mapping(address => TransporterFees) public transporters;\r\n    mapping(address => bool) public isTransporter; // Membership mapping for transporters\r\n\r\n    modifier onlyBuyer() {\r\n        if (msg.sender != buyer) revert NotTransporter();\r\n        _;\r\n    }\r\n\r\n    modifier onlySeller() {\r\n        if (msg.sender != owner) revert NotTransporter();\r\n        _;\r\n    }\r\n\r\n    modifier transporterSet() {\r\n        if (transporter == address(0)) revert NotTransporter();\r\n        _;\r\n    }\r\n\r\n    modifier onlyTransporter() {\r\n        if (msg.sender != transporter) revert NotTransporter();\r\n        _;\r\n    }\r\n\r\n    event OrderConfirmed(address indexed buyer, bytes32 indexed priceCommitment, string vcCID); // Updated\r\n    event TransporterCreated(address transporter, uint fee);\r\n    event TransporterSecurityDeposit(address transporter, uint price);\r\n    event DeliveryConfirmed(address indexed buyer, address indexed transporter, bytes32 priceCommitment, string vcCID); // Updated\r\n    event CancelDelivery(address indexed seller, address indexed transporter, uint buyerRefund);\r\n    event ProductDeleted(uint productId, string productName);\r\n    event VcUpdated(string cid);\r\n    event ValueRevealed(uint revealedValue, bytes32 commitment, bool valid); // Added\r\n    event FundsTransferred(address indexed to, uint amount);\r\n    event PenaltyApplied(address indexed to, uint amount, string reason);\r\n    event DeliveryTimeout(address indexed caller, uint time);\r\n    event SellerTimeout(address indexed caller, uint time);\r\n    event PhaseChanged(Phase from, Phase to, uint256 time); // Emitted on every phase transition\r\n    event BidWithdrawn(address indexed transporter, uint amount);\r\n\r\n    constructor(string memory _name, bytes32 _priceCommitment, address _owner) {\r\n        name = _name;\r\n        priceCommitment = _priceCommitment; // Storing commitment\r\n        owner = payable(_owner);\r\n        purchased = false;\r\n        buyer = payable(address(0));\r\n        phase = Phase.Listed;\r\n    }\r\n\r\n    function confirmOrder(string memory vcCID) public onlySeller {\r\n        if (phase != Phase.Purchased) revert WrongPhase(Phase.Purchased, phase);\r\n        if (block.timestamp > purchaseTimestamp + SELLER_WINDOW) revert Confirm();\r\n        orderConfirmedTimestamp = block.timestamp;\r\n        Phase oldPhase = phase;\r\n        phase = Phase.OrderConfirmed;\r\n        emit PhaseChanged(oldPhase, phase, block.timestamp); // Emit on phase change\r\n        vcCid = vcCID;\r\n        emit VcUpdated(vcCID);\r\n        emit OrderConfirmed(buyer, priceCommitment, vcCID);\r\n    }\r\n\r\n    function updateVcCid(string memory cid) public onlySeller {\r\n    vcCid = cid;\r\n    emit VcUpdated(cid);\r\n    }\r\n\r\n\r\n    function depositPurchase(bytes32 _commitment) public payable nonReentrant {\r\n        if (purchased) revert Deposit();\r\n        if (msg.sender == owner) revert Deposit();\r\n        purchased    = true;\r\n        buyer        = payable(msg.sender);\r\n        purchaseTimestamp = block.timestamp;\r\n        productPrice = msg.value; // Track the product price explicitly\r\n        Phase oldPhase = phase;\r\n        phase        = Phase.Purchased;   // Set phase to Purchased after successful purchase\r\n        emit PhaseChanged(oldPhase, phase, block.timestamp); // Emit on phase change\r\n        priceCommitment = _commitment; // Store the commitment\r\n        emit OrderConfirmed(buyer, priceCommitment, \"\"); // Optionally emit event\r\n    }\r\n\r\n    function withdrawProductPrice() public onlyBuyer transporterSet {\r\n        if (!purchased) revert Deposit();\r\n        // Ether transfer logic commented out\r\n        // owner.transfer(price);\r\n        // transporter.transfer(price + deliveryFee);\r\n        owner = buyer;\r\n    }\r\n\r\n    function cancelDelivery() public onlySeller transporterSet {\r\n        if (!purchased) revert Deposit();\r\n        // Ether transfer logic commented out\r\n        // transporter.transfer((2 * price) / 10 + deliveryFee + price);\r\n        // owner.transfer(price / 10);\r\n        // buyer.transfer((7 * price) / 10);\r\n        emit CancelDelivery(msg.sender, transporter, 0); // Buyer refund not revealed\r\n    }\r\n\r\n    function setTransporter(address payable _transporter) external payable onlySeller {\r\n        if (phase != Phase.OrderConfirmed) revert WrongPhase(Phase.OrderConfirmed, phase);\r\n        if (block.timestamp > orderConfirmedTimestamp + BID_WINDOW) revert Timeout();\r\n        Phase oldPhase = phase;\r\n        phase = Phase.Bound; // Move to Bound phase after transporter is set\r\n        emit PhaseChanged(oldPhase, phase, block.timestamp); // Emit on phase change\r\n        if (msg.value != transporters[_transporter].fee) revert Fee();\r\n        if (transporters[_transporter].fee == 0) revert NotTransporter();\r\n        deliveryFee = msg.value;\r\n        transporter = _transporter;\r\n        // Refund security deposits to all non-selected transporters\r\n        // Since we no longer have an array, this must be handled off-chain via events, or by tracking addresses off-chain.\r\n        // For on-chain refunds, you could emit an event for each refund and let the frontend/off-chain system process them.\r\n    }\r\n\r\n    function createTransporter(uint _feeInWei) public {\r\n        require(transporterCount < maxBids(), \"Bid cap reached\");\r\n        if (transporters[msg.sender].fee != 0) revert Exists();\r\n        // Store fee in wei for precision\r\n        transporters[msg.sender] = TransporterFees({ fee: _feeInWei });\r\n        isTransporter[msg.sender] = true;\r\n        transporterCount++;\r\n        emit TransporterCreated(msg.sender, _feeInWei);\r\n    }\r\n\r\n    function securityDeposit() public payable {\r\n        // Allow any registered transporter to deposit before selection\r\n        if (!isTransporter[msg.sender]) revert NotRegistered();\r\n        securityDeposits[msg.sender] += msg.value;\r\n        emit TransporterSecurityDeposit(msg.sender, msg.value);\r\n    }\r\n\r\n    // Remove getAllTransporters() as on-chain iteration is no longer supported\r\n\r\n    function checkAndDeleteProduct() public {\r\n        if (!purchased) revert Deposit();\r\n        if (block.timestamp < purchaseTimestamp + 2 days) revert Timeout();\r\n\r\n        emit ProductDeleted(id, name);\r\n        deleteProduct(); // Custom logic to delete the product from storage\r\n    }\r\n\r\n    function deleteProduct() internal {\r\n        // Logic to mark product as deleted or reset its state\r\n        delete name;\r\n        delete priceCommitment; // Updated\r\n        delete owner;\r\n        delete purchased;\r\n        delete buyer;\r\n        delete transporter;\r\n        delete deliveryFee;\r\n        // delete securityDepositAmount; // REMOVE this\r\n        delete purchaseTimestamp;\r\n        delete transporterCount;\r\n        // Further deletion logic as required\r\n    }\r\n\r\n    // Helper for audits: verify a revealed value against the commitment (does not unlock payments)\r\n    function verifyRevealedValue(uint revealedValue, bytes32 blinding) public returns (bool) {\r\n        bytes32 computed = keccak256(abi.encodePacked(revealedValue, blinding));\r\n        bool valid = (computed == priceCommitment);\r\n        emit ValueRevealed(revealedValue, priceCommitment, valid);\r\n        return valid;\r\n    }\r\n\r\n    // New: Enforce reveal in payment path\r\n    function revealAndConfirmDelivery(uint revealedValue, bytes32 blinding, string memory vcCID) public nonReentrant onlyBuyer transporterSet {\r\n        bytes32 computed = keccak256(abi.encodePacked(revealedValue, blinding));\r\n        bool valid = (computed == priceCommitment);\r\n        require(valid, \"Reveal invalid\");\r\n        _confirmDelivery(vcCID);\r\n    }\r\n\r\n    // Internal delivery logic, only callable after valid reveal\r\n    function _confirmDelivery(string memory vcCID) internal {\r\n        if (delivered) revert Delivered();\r\n        if (block.timestamp > orderConfirmedTimestamp + DELIVERY_WINDOW) revert Timeout();\r\n        delivered = true;\r\n        Phase oldPhase = phase;\r\n        phase = Phase.Delivered;\r\n        emit PhaseChanged(oldPhase, phase, block.timestamp); // Emit on phase change\r\n        // Transfer funds\r\n        uint price = productPrice; // Use explicitly tracked product price\r\n        if (price == 0) revert Deposit();\r\n        (bool sentSeller, ) = owner.call{value: price}(\"\");\r\n        if (!sentSeller) revert Transfer();\r\n        emit FundsTransferred(owner, price);\r\n        (bool sentTransporter, ) = transporter.call{value: deliveryFee + securityDeposits[transporter]}(\"\");\r\n        if (!sentTransporter) revert Transfer();\r\n        emit FundsTransferred(transporter, deliveryFee + securityDeposits[transporter]);\r\n        owner = buyer;\r\n        vcCid = vcCID;\r\n        emit VcUpdated(vcCID);\r\n        emit DeliveryConfirmed(buyer, transporter, priceCommitment, vcCID);\r\n    }\r\n\r\n    // Deprecate the old confirmDelivery external function (no longer used for settlement)\r\n    // function confirmDelivery(string memory vcCID) public onlyBuyer transporterSet nonReentrant { ... }\r\n\r\n    function timeout() public nonReentrant {\r\n        if (delivered) revert Delivered();\r\n        if (block.timestamp <= orderConfirmedTimestamp + DELIVERY_WINDOW) revert Timeout();\r\n        Phase oldPhase = phase;\r\n        phase = Phase.Expired;\r\n        emit PhaseChanged(oldPhase, phase, block.timestamp); // Emit on phase change\r\n        // Calculate penalty for transporter\r\n        uint lateDays = (block.timestamp - (orderConfirmedTimestamp + DELIVERY_WINDOW)) / 1 days + 1;\r\n        if (lateDays > 10) lateDays = 10;\r\n        uint penalty = (securityDeposits[transporter] * 10 * lateDays) / 100;\r\n        if (penalty > securityDeposits[transporter]) penalty = securityDeposits[transporter];\r\n        // Refund buyer: productPrice + penalty (if any)\r\n        uint refundToBuyer = productPrice + penalty;\r\n        (bool sentBuyer, ) = buyer.call{value: refundToBuyer}(\"\");\r\n        if (!sentBuyer) revert Refund();\r\n        emit FundsTransferred(buyer, refundToBuyer);\r\n        // Forfeit penalty from transporter to buyer\r\n        if (penalty > 0) {\r\n            (bool sentPenalty, ) = buyer.call{value: penalty}(\"\");\r\n            if (!sentPenalty) revert Penalty();\r\n            emit PenaltyApplied(transporter, penalty, \"Late delivery\");\r\n        }\r\n        emit DeliveryTimeout(msg.sender, block.timestamp);\r\n    }\r\n\r\n    function sellerTimeout() public nonReentrant {\r\n        if (delivered) revert Delivered();\r\n        if (phase != Phase.Purchased) revert WrongPhase(Phase.Purchased, phase);\r\n        if (block.timestamp <= purchaseTimestamp + SELLER_WINDOW) revert Timeout();\r\n        Phase oldPhase = phase;\r\n        phase = Phase.Expired;\r\n        emit PhaseChanged(oldPhase, phase, block.timestamp); // Emit on phase change\r\n        // Refund buyer: productPrice\r\n        (bool sentBuyer, ) = buyer.call{value: productPrice}(\"\");\r\n        if (!sentBuyer) revert Refund();\r\n        emit FundsTransferred(buyer, productPrice);\r\n        emit SellerTimeout(msg.sender, block.timestamp);\r\n    }\r\n\r\n    function bidTimeout() public nonReentrant {\r\n        if (phase != Phase.OrderConfirmed) revert WrongPhase(Phase.OrderConfirmed, phase);\r\n        if (block.timestamp <= orderConfirmedTimestamp + BID_WINDOW) revert Timeout();\r\n        Phase oldPhase = phase;\r\n        phase = Phase.Expired;\r\n        emit PhaseChanged(oldPhase, phase, block.timestamp); // Emit on phase change\r\n        // Refund buyer: productPrice\r\n        (bool sentBuyer, ) = buyer.call{value: productPrice}(\"\");\r\n        if (!sentBuyer) revert Refund();\r\n        emit FundsTransferred(buyer, productPrice);\r\n        // Optionally emit a BidTimeout event if desired\r\n    }\r\n\r\n    function withdrawBid() public nonReentrant {\r\n        // Only allow withdrawal before transporter is set and in OrderConfirmed phase\r\n        if (phase != Phase.OrderConfirmed) revert WrongPhase(Phase.OrderConfirmed, phase);\r\n        if (transporter == msg.sender) revert NotTransporter(); // Can't withdraw if already selected\r\n        uint fee = transporters[msg.sender].fee;\r\n        uint deposit = securityDeposits[msg.sender];\r\n        if (fee == 0 && deposit == 0) revert NotRegistered(); // Not an active bid\r\n        // Remove transporter from mapping\r\n        transporters[msg.sender].fee = 0;\r\n        securityDeposits[msg.sender] = 0;\r\n        isTransporter[msg.sender] = false;\r\n        transporterCount--;\r\n        uint refundAmount = deposit;\r\n        if (refundAmount > 0) {\r\n            (bool sent, ) = payable(msg.sender).call{value: refundAmount}(\"\");\r\n            if (!sent) revert Refund();\r\n            emit FundsTransferred(msg.sender, refundAmount);\r\n        }\r\n        emit BidWithdrawn(msg.sender, refundAmount);\r\n    }\r\n}\r\n",
  "sourcePath": "C:\\Users\\yamen\\ev-battery-supplychain\\contracts\\ProductEscrow.sol",
  "compiler": {
    "name": "solc",
    "version": "0.8.21+commit.d9974bed.Emscripten.clang"
  },
  "schemaVersion": "3.4.16",
  "updatedAt": "2025-07-22T16:25:33.339Z",
  "devdoc": {
    "errors": {
      "ReentrancyGuardReentrantCall()": [
        {
          "details": "Unauthorized reentrant call."
        }
      ]
    },
    "kind": "dev",
    "methods": {},
    "version": 1
  },
  "userdoc": {
    "kind": "user",
    "methods": {},
    "version": 1
  }
}