{
  "contractName": "ProductEscrow",
  "abi": [
    {
      "inputs": [
        {
          "internalType": "uint256",
          "name": "_id",
          "type": "uint256"
        },
        {
          "internalType": "string",
          "name": "_name",
          "type": "string"
        },
        {
          "internalType": "bytes32",
          "name": "_priceCommitment",
          "type": "bytes32"
        },
        {
          "internalType": "address",
          "name": "_owner",
          "type": "address"
        }
      ],
      "stateMutability": "nonpayable",
      "type": "constructor"
    },
    {
      "inputs": [],
      "name": "ReentrancyGuardReentrantCall",
      "type": "error"
    },
    {
      "anonymous": false,
      "inputs": [
        {
          "indexed": true,
          "internalType": "address",
          "name": "transporter",
          "type": "address"
        },
        {
          "indexed": false,
          "internalType": "uint256",
          "name": "amount",
          "type": "uint256"
        }
      ],
      "name": "BidWithdrawn",
      "type": "event"
    },
    {
      "anonymous": false,
      "inputs": [
        {
          "indexed": true,
          "internalType": "address",
          "name": "seller",
          "type": "address"
        },
        {
          "indexed": true,
          "internalType": "address",
          "name": "transporter",
          "type": "address"
        },
        {
          "indexed": false,
          "internalType": "uint256",
          "name": "buyerRefund",
          "type": "uint256"
        }
      ],
      "name": "CancelDelivery",
      "type": "event"
    },
    {
      "anonymous": false,
      "inputs": [
        {
          "indexed": false,
          "internalType": "string",
          "name": "message",
          "type": "string"
        }
      ],
      "name": "Debug",
      "type": "event"
    },
    {
      "anonymous": false,
      "inputs": [
        {
          "indexed": false,
          "internalType": "string",
          "name": "message",
          "type": "string"
        },
        {
          "indexed": false,
          "internalType": "bool",
          "name": "value",
          "type": "bool"
        }
      ],
      "name": "DebugBool",
      "type": "event"
    },
    {
      "anonymous": false,
      "inputs": [
        {
          "indexed": false,
          "internalType": "string",
          "name": "message",
          "type": "string"
        },
        {
          "indexed": false,
          "internalType": "uint256",
          "name": "value",
          "type": "uint256"
        }
      ],
      "name": "DebugUint",
      "type": "event"
    },
    {
      "anonymous": false,
      "inputs": [
        {
          "indexed": true,
          "internalType": "address",
          "name": "buyer",
          "type": "address"
        },
        {
          "indexed": true,
          "internalType": "address",
          "name": "transporter",
          "type": "address"
        },
        {
          "indexed": false,
          "internalType": "bytes32",
          "name": "priceCommitment",
          "type": "bytes32"
        },
        {
          "indexed": false,
          "internalType": "string",
          "name": "vcCID",
          "type": "string"
        }
      ],
      "name": "DeliveryConfirmed",
      "type": "event"
    },
    {
      "anonymous": false,
      "inputs": [
        {
          "indexed": true,
          "internalType": "address",
          "name": "caller",
          "type": "address"
        },
        {
          "indexed": false,
          "internalType": "uint256",
          "name": "time",
          "type": "uint256"
        }
      ],
      "name": "DeliveryTimeout",
      "type": "event"
    },
    {
      "anonymous": false,
      "inputs": [
        {
          "indexed": true,
          "internalType": "address",
          "name": "to",
          "type": "address"
        },
        {
          "indexed": false,
          "internalType": "uint256",
          "name": "amount",
          "type": "uint256"
        }
      ],
      "name": "FundsTransferred",
      "type": "event"
    },
    {
      "anonymous": false,
      "inputs": [
        {
          "indexed": true,
          "internalType": "address",
          "name": "buyer",
          "type": "address"
        },
        {
          "indexed": true,
          "internalType": "bytes32",
          "name": "priceCommitment",
          "type": "bytes32"
        },
        {
          "indexed": false,
          "internalType": "string",
          "name": "vcCID",
          "type": "string"
        }
      ],
      "name": "OrderConfirmed",
      "type": "event"
    },
    {
      "anonymous": false,
      "inputs": [
        {
          "indexed": true,
          "internalType": "uint256",
          "name": "productId",
          "type": "uint256"
        },
        {
          "indexed": false,
          "internalType": "bytes32",
          "name": "memoHash",
          "type": "bytes32"
        },
        {
          "indexed": false,
          "internalType": "bytes32",
          "name": "railgunTxRef",
          "type": "bytes32"
        }
      ],
      "name": "PaidPrivately",
      "type": "event"
    },
    {
      "anonymous": false,
      "inputs": [
        {
          "indexed": true,
          "internalType": "address",
          "name": "to",
          "type": "address"
        },
        {
          "indexed": false,
          "internalType": "uint256",
          "name": "amount",
          "type": "uint256"
        },
        {
          "indexed": false,
          "internalType": "string",
          "name": "reason",
          "type": "string"
        }
      ],
      "name": "PenaltyApplied",
      "type": "event"
    },
    {
      "anonymous": false,
      "inputs": [
        {
          "indexed": false,
          "internalType": "enum ProductEscrow.Phase",
          "name": "from",
          "type": "uint8"
        },
        {
          "indexed": false,
          "internalType": "enum ProductEscrow.Phase",
          "name": "to",
          "type": "uint8"
        },
        {
          "indexed": false,
          "internalType": "uint256",
          "name": "time",
          "type": "uint256"
        }
      ],
      "name": "PhaseChanged",
      "type": "event"
    },
    {
      "anonymous": false,
      "inputs": [
        {
          "indexed": true,
          "internalType": "uint256",
          "name": "productId",
          "type": "uint256"
        },
        {
          "indexed": false,
          "internalType": "bytes32",
          "name": "memoHash",
          "type": "bytes32"
        },
        {
          "indexed": false,
          "internalType": "bytes32",
          "name": "railgunTxRef",
          "type": "bytes32"
        },
        {
          "indexed": true,
          "internalType": "address",
          "name": "recorder",
          "type": "address"
        }
      ],
      "name": "PrivatePaymentRecorded",
      "type": "event"
    },
    {
      "anonymous": false,
      "inputs": [
        {
          "indexed": false,
          "internalType": "uint256",
          "name": "productId",
          "type": "uint256"
        },
        {
          "indexed": false,
          "internalType": "string",
          "name": "productName",
          "type": "string"
        }
      ],
      "name": "ProductDeleted",
      "type": "event"
    },
    {
      "anonymous": false,
      "inputs": [
        {
          "indexed": true,
          "internalType": "address",
          "name": "caller",
          "type": "address"
        },
        {
          "indexed": false,
          "internalType": "uint256",
          "name": "time",
          "type": "uint256"
        }
      ],
      "name": "SellerTimeout",
      "type": "event"
    },
    {
      "anonymous": false,
      "inputs": [
        {
          "indexed": false,
          "internalType": "address",
          "name": "transporter",
          "type": "address"
        },
        {
          "indexed": false,
          "internalType": "uint256",
          "name": "fee",
          "type": "uint256"
        }
      ],
      "name": "TransporterCreated",
      "type": "event"
    },
    {
      "anonymous": false,
      "inputs": [
        {
          "indexed": false,
          "internalType": "address",
          "name": "transporter",
          "type": "address"
        },
        {
          "indexed": false,
          "internalType": "uint256",
          "name": "price",
          "type": "uint256"
        }
      ],
      "name": "TransporterSecurityDeposit",
      "type": "event"
    },
    {
      "anonymous": false,
      "inputs": [
        {
          "indexed": false,
          "internalType": "bytes32",
          "name": "commitment",
          "type": "bytes32"
        },
        {
          "indexed": false,
          "internalType": "bytes",
          "name": "proof",
          "type": "bytes"
        }
      ],
      "name": "ValueCommitted",
      "type": "event"
    },
    {
      "anonymous": false,
      "inputs": [
        {
          "indexed": false,
          "internalType": "uint256",
          "name": "revealedValue",
          "type": "uint256"
        },
        {
          "indexed": false,
          "internalType": "bytes32",
          "name": "commitment",
          "type": "bytes32"
        },
        {
          "indexed": false,
          "internalType": "bool",
          "name": "valid",
          "type": "bool"
        }
      ],
      "name": "ValueRevealed",
      "type": "event"
    },
    {
      "anonymous": false,
      "inputs": [
        {
          "indexed": false,
          "internalType": "string",
          "name": "cid",
          "type": "string"
        }
      ],
      "name": "VcUpdated",
      "type": "event"
    },
    {
      "inputs": [],
      "name": "BID_WINDOW",
      "outputs": [
        {
          "internalType": "uint32",
          "name": "",
          "type": "uint32"
        }
      ],
      "stateMutability": "view",
      "type": "function"
    },
    {
      "inputs": [],
      "name": "DELIVERY_WINDOW",
      "outputs": [
        {
          "internalType": "uint32",
          "name": "",
          "type": "uint32"
        }
      ],
      "stateMutability": "view",
      "type": "function"
    },
    {
      "inputs": [],
      "name": "SELLER_WINDOW",
      "outputs": [
        {
          "internalType": "uint32",
          "name": "",
          "type": "uint32"
        }
      ],
      "stateMutability": "view",
      "type": "function"
    },
    {
      "inputs": [],
      "name": "buyer",
      "outputs": [
        {
          "internalType": "address payable",
          "name": "",
          "type": "address"
        }
      ],
      "stateMutability": "view",
      "type": "function"
    },
    {
      "inputs": [],
      "name": "delivered",
      "outputs": [
        {
          "internalType": "bool",
          "name": "",
          "type": "bool"
        }
      ],
      "stateMutability": "view",
      "type": "function"
    },
    {
      "inputs": [],
      "name": "deliveryFee",
      "outputs": [
        {
          "internalType": "uint256",
          "name": "",
          "type": "uint256"
        }
      ],
      "stateMutability": "view",
      "type": "function"
    },
    {
      "inputs": [],
      "name": "id",
      "outputs": [
        {
          "internalType": "uint256",
          "name": "",
          "type": "uint256"
        }
      ],
      "stateMutability": "view",
      "type": "function"
    },
    {
      "inputs": [
        {
          "internalType": "address",
          "name": "",
          "type": "address"
        }
      ],
      "name": "isTransporter",
      "outputs": [
        {
          "internalType": "bool",
          "name": "",
          "type": "bool"
        }
      ],
      "stateMutability": "view",
      "type": "function"
    },
    {
      "inputs": [],
      "name": "name",
      "outputs": [
        {
          "internalType": "string",
          "name": "",
          "type": "string"
        }
      ],
      "stateMutability": "view",
      "type": "function"
    },
    {
      "inputs": [],
      "name": "orderConfirmedTimestamp",
      "outputs": [
        {
          "internalType": "uint256",
          "name": "",
          "type": "uint256"
        }
      ],
      "stateMutability": "view",
      "type": "function"
    },
    {
      "inputs": [],
      "name": "owner",
      "outputs": [
        {
          "internalType": "address payable",
          "name": "",
          "type": "address"
        }
      ],
      "stateMutability": "view",
      "type": "function"
    },
    {
      "inputs": [],
      "name": "phase",
      "outputs": [
        {
          "internalType": "enum ProductEscrow.Phase",
          "name": "",
          "type": "uint8"
        }
      ],
      "stateMutability": "view",
      "type": "function"
    },
    {
      "inputs": [],
      "name": "priceCommitment",
      "outputs": [
        {
          "internalType": "bytes32",
          "name": "",
          "type": "bytes32"
        }
      ],
      "stateMutability": "view",
      "type": "function"
    },
    {
      "inputs": [
        {
          "internalType": "bytes32",
          "name": "",
          "type": "bytes32"
        }
      ],
      "name": "privatePayments",
      "outputs": [
        {
          "internalType": "bool",
          "name": "",
          "type": "bool"
        }
      ],
      "stateMutability": "view",
      "type": "function"
    },
    {
      "inputs": [
        {
          "internalType": "uint256",
          "name": "",
          "type": "uint256"
        }
      ],
      "name": "productMemoHashes",
      "outputs": [
        {
          "internalType": "bytes32",
          "name": "",
          "type": "bytes32"
        }
      ],
      "stateMutability": "view",
      "type": "function"
    },
    {
      "inputs": [
        {
          "internalType": "uint256",
          "name": "",
          "type": "uint256"
        }
      ],
      "name": "productPaidBy",
      "outputs": [
        {
          "internalType": "address",
          "name": "",
          "type": "address"
        }
      ],
      "stateMutability": "view",
      "type": "function"
    },
    {
      "inputs": [],
      "name": "productPrice",
      "outputs": [
        {
          "internalType": "uint256",
          "name": "",
          "type": "uint256"
        }
      ],
      "stateMutability": "view",
      "type": "function"
    },
    {
      "inputs": [
        {
          "internalType": "uint256",
          "name": "",
          "type": "uint256"
        }
      ],
      "name": "productRailgunTxRefs",
      "outputs": [
        {
          "internalType": "bytes32",
          "name": "",
          "type": "bytes32"
        }
      ],
      "stateMutability": "view",
      "type": "function"
    },
    {
      "inputs": [],
      "name": "purchaseTimestamp",
      "outputs": [
        {
          "internalType": "uint256",
          "name": "",
          "type": "uint256"
        }
      ],
      "stateMutability": "view",
      "type": "function"
    },
    {
      "inputs": [],
      "name": "purchased",
      "outputs": [
        {
          "internalType": "bool",
          "name": "",
          "type": "bool"
        }
      ],
      "stateMutability": "view",
      "type": "function"
    },
    {
      "inputs": [
        {
          "internalType": "address",
          "name": "",
          "type": "address"
        }
      ],
      "name": "securityDeposits",
      "outputs": [
        {
          "internalType": "uint256",
          "name": "",
          "type": "uint256"
        }
      ],
      "stateMutability": "view",
      "type": "function"
    },
    {
      "inputs": [],
      "name": "transporter",
      "outputs": [
        {
          "internalType": "address payable",
          "name": "",
          "type": "address"
        }
      ],
      "stateMutability": "view",
      "type": "function"
    },
    {
      "inputs": [
        {
          "internalType": "uint256",
          "name": "",
          "type": "uint256"
        }
      ],
      "name": "transporterAddresses",
      "outputs": [
        {
          "internalType": "address",
          "name": "",
          "type": "address"
        }
      ],
      "stateMutability": "view",
      "type": "function"
    },
    {
      "inputs": [],
      "name": "transporterCount",
      "outputs": [
        {
          "internalType": "uint256",
          "name": "",
          "type": "uint256"
        }
      ],
      "stateMutability": "view",
      "type": "function"
    },
    {
      "inputs": [
        {
          "internalType": "address",
          "name": "",
          "type": "address"
        }
      ],
      "name": "transporters",
      "outputs": [
        {
          "internalType": "uint256",
          "name": "fee",
          "type": "uint256"
        }
      ],
      "stateMutability": "view",
      "type": "function"
    },
    {
      "inputs": [
        {
          "internalType": "bytes32",
          "name": "",
          "type": "bytes32"
        }
      ],
      "name": "usedMemoHash",
      "outputs": [
        {
          "internalType": "bool",
          "name": "",
          "type": "bool"
        }
      ],
      "stateMutability": "view",
      "type": "function"
    },
    {
      "inputs": [],
      "name": "valueCommitment",
      "outputs": [
        {
          "internalType": "bytes32",
          "name": "",
          "type": "bytes32"
        }
      ],
      "stateMutability": "view",
      "type": "function"
    },
    {
      "inputs": [],
      "name": "valueRangeProof",
      "outputs": [
        {
          "internalType": "bytes",
          "name": "",
          "type": "bytes"
        }
      ],
      "stateMutability": "view",
      "type": "function"
    },
    {
      "inputs": [],
      "name": "vcCid",
      "outputs": [
        {
          "internalType": "string",
          "name": "",
          "type": "string"
        }
      ],
      "stateMutability": "view",
      "type": "function"
    },
    {
      "inputs": [
        {
          "internalType": "uint256",
          "name": "value",
          "type": "uint256"
        },
        {
          "internalType": "bytes32",
          "name": "salt",
          "type": "bytes32"
        }
      ],
      "name": "computeCommitment",
      "outputs": [
        {
          "internalType": "bytes32",
          "name": "",
          "type": "bytes32"
        }
      ],
      "stateMutability": "pure",
      "type": "function"
    },
    {
      "inputs": [
        {
          "internalType": "string",
          "name": "vcCID",
          "type": "string"
        }
      ],
      "name": "confirmOrder",
      "outputs": [],
      "stateMutability": "nonpayable",
      "type": "function"
    },
    {
      "inputs": [
        {
          "internalType": "string",
          "name": "cid",
          "type": "string"
        }
      ],
      "name": "updateVcCid",
      "outputs": [],
      "stateMutability": "nonpayable",
      "type": "function"
    },
    {
      "inputs": [
        {
          "internalType": "bytes32",
          "name": "_commitment",
          "type": "bytes32"
        },
        {
          "internalType": "bytes32",
          "name": "_valueCommitment",
          "type": "bytes32"
        },
        {
          "internalType": "bytes",
          "name": "_valueRangeProof",
          "type": "bytes"
        }
      ],
      "name": "depositPurchase",
      "outputs": [],
      "stateMutability": "payable",
      "type": "function"
    },
    {
      "inputs": [],
      "name": "publicPurchase",
      "outputs": [],
      "stateMutability": "payable",
      "type": "function"
    },
    {
      "inputs": [],
      "name": "withdrawProductPrice",
      "outputs": [],
      "stateMutability": "nonpayable",
      "type": "function"
    },
    {
      "inputs": [],
      "name": "cancelDelivery",
      "outputs": [],
      "stateMutability": "nonpayable",
      "type": "function"
    },
    {
      "inputs": [
        {
          "internalType": "address payable",
          "name": "_transporter",
          "type": "address"
        }
      ],
      "name": "setTransporter",
      "outputs": [],
      "stateMutability": "payable",
      "type": "function"
    },
    {
      "inputs": [
        {
          "internalType": "uint256",
          "name": "_feeInWei",
          "type": "uint256"
        }
      ],
      "name": "createTransporter",
      "outputs": [],
      "stateMutability": "nonpayable",
      "type": "function"
    },
    {
      "inputs": [],
      "name": "securityDeposit",
      "outputs": [],
      "stateMutability": "payable",
      "type": "function"
    },
    {
      "inputs": [],
      "name": "getAllTransporters",
      "outputs": [
        {
          "internalType": "address[]",
          "name": "",
          "type": "address[]"
        },
        {
          "internalType": "uint256[]",
          "name": "",
          "type": "uint256[]"
        }
      ],
      "stateMutability": "view",
      "type": "function"
    },
    {
      "inputs": [],
      "name": "checkAndDeleteProduct",
      "outputs": [],
      "stateMutability": "nonpayable",
      "type": "function"
    },
    {
      "inputs": [
        {
          "internalType": "uint256",
          "name": "revealedValue",
          "type": "uint256"
        },
        {
          "internalType": "bytes32",
          "name": "blinding",
          "type": "bytes32"
        }
      ],
      "name": "verifyRevealedValue",
      "outputs": [
        {
          "internalType": "bool",
          "name": "",
          "type": "bool"
        }
      ],
      "stateMutability": "nonpayable",
      "type": "function"
    },
    {
      "inputs": [
        {
          "internalType": "uint256",
          "name": "revealedValue",
          "type": "uint256"
        },
        {
          "internalType": "bytes32",
          "name": "blinding",
          "type": "bytes32"
        },
        {
          "internalType": "string",
          "name": "vcCID",
          "type": "string"
        }
      ],
      "name": "revealAndConfirmDelivery",
      "outputs": [],
      "stateMutability": "nonpayable",
      "type": "function"
    },
    {
      "inputs": [],
      "name": "timeout",
      "outputs": [],
      "stateMutability": "nonpayable",
      "type": "function"
    },
    {
      "inputs": [],
      "name": "sellerTimeout",
      "outputs": [],
      "stateMutability": "nonpayable",
      "type": "function"
    },
    {
      "inputs": [],
      "name": "bidTimeout",
      "outputs": [],
      "stateMutability": "nonpayable",
      "type": "function"
    },
    {
      "inputs": [],
      "name": "withdrawBid",
      "outputs": [],
      "stateMutability": "nonpayable",
      "type": "function"
    },
    {
      "inputs": [
        {
          "internalType": "uint256",
          "name": "_productId",
          "type": "uint256"
        },
        {
          "internalType": "bytes32",
          "name": "_memoHash",
          "type": "bytes32"
        },
        {
          "internalType": "bytes32",
          "name": "_railgunTxRef",
          "type": "bytes32"
        }
      ],
      "name": "recordPrivatePayment",
      "outputs": [],
      "stateMutability": "nonpayable",
      "type": "function"
    },
    {
      "inputs": [],
      "name": "hasPrivatePayment",
      "outputs": [
        {
          "internalType": "bool",
          "name": "",
          "type": "bool"
        }
      ],
      "stateMutability": "view",
      "type": "function"
    },
    {
      "inputs": [],
      "name": "getPrivatePaymentDetails",
      "outputs": [
        {
          "internalType": "bytes32",
          "name": "memoHash",
          "type": "bytes32"
        },
        {
          "internalType": "bytes32",
          "name": "railgunTxRef",
          "type": "bytes32"
        },
        {
          "internalType": "address",
          "name": "recorder",
          "type": "address"
        }
      ],
      "stateMutability": "view",
      "type": "function"
    }
  ],
  "bytecode": "0x608060405234801562000010575f80fd5b506040516200346f3803806200346f8339810160408190526200003391620000c3565b60015f81905584905560026200004a848262000243565b50600391909155600480546001600160a81b0319166001600160a01b039092169190911790555050600580546001600160a01b0319169055600c805461ff00191690556200030b565b634e487b7160e01b5f52604160045260245ffd5b80516001600160a01b0381168114620000be575f80fd5b919050565b5f805f8060808587031215620000d7575f80fd5b8451602080870151919550906001600160401b0380821115620000f8575f80fd5b818801915088601f8301126200010c575f80fd5b81518181111562000121576200012162000093565b604051601f8201601f19908116603f011681019083821181831017156200014c576200014c62000093565b816040528281528b8684870101111562000164575f80fd5b5f93505b8284101562000187578484018601518185018701529285019262000168565b5f86848301015280985050505050505060408501519150620001ac60608601620000a7565b905092959194509250565b600181811c90821680620001cc57607f821691505b602082108103620001eb57634e487b7160e01b5f52602260045260245ffd5b50919050565b601f8211156200023e575f81815260208120601f850160051c81016020861015620002195750805b601f850160051c820191505b818110156200023a5782815560010162000225565b5050505b505050565b81516001600160401b038111156200025f576200025f62000093565b6200027781620002708454620001b7565b84620001f1565b602080601f831160018114620002ad575f8415620002955750858301515b5f19600386901b1c1916600185901b1785556200023a565b5f85815260208120601f198616915b82811015620002dd57888601518255948401946001909101908401620002bc565b5085821015620002fb57878501515f19600388901b60f8161c191681555b5050505050600190811b01905550565b61315680620003195f395ff3fe6080604052600436106102bf575f3560e01c806394090d0b1161016f578063d018d989116100d8578063e42b021211610092578063e995478e1161006d578063e995478e14610335578063f3cc0f1f14610817578063f778ad081461082c578063fa949a0114610889575f80fd5b8063e42b0212146107d9578063e53bbdbe146107f8578063e7067c4914610335575f80fd5b8063d018d9891461073f578063d765d3c61461075e578063d8f133f914610773578063dc2a7e5f14610792578063e25bd158146107a6578063e39c2092146107d1575f80fd5b8063b66c5fca11610129578063b66c5fca1461065a578063bbdfbfba14610685578063bc1e96cb1461069e578063bfaf8129146106cc578063c226366b146106e0578063c9352b7e14610714575f80fd5b806394090d0b146105ca5780639497d3ae146105de5780639c8dadae146105f3578063af640d0f14610606578063b1c9fe6e1461061b578063b5df610f14610646575f80fd5b80634223f78d1161022b57806370dea79a116101e55780637dea6474116101c05780637dea647414610541578063879f9c961461056c5780638c1018881461058c5780638da5cb5b146105ab575f80fd5b806370dea79a146104d45780637150d8ae146104e857806377db57191461051f575f80fd5b80634223f78d1461045057806352d93f7014610463578063533a559b146104775780635920172a1461048b57806362780627146104aa57806364eeaa9d146104bf575f80fd5b80632b8109d51161027c5780632b8109d51461039857806337271cc7146103c657806337703246146103da5780633ace041a146103fe5780633cf131e71461041d5780633e73ec1d14610431575f80fd5b806306fdde03146102c3578063093f3ccb146102ed578063220e5ab31461032b57806322c3b9f31461033557806325d3d0e31461036057806329dac7c614610383575b5f80fd5b3480156102ce575f80fd5b506102d76108a8565b6040516102e49190612932565b60405180910390f35b3480156102f8575f80fd5b5061031b61030736600461294b565b60156020525f908152604090205460ff1681565b60405190151581526020016102e4565b610333610934565b005b348015610340575f80fd5b5061034b6202a30081565b60405163ffffffff90911681526020016102e4565b34801561036b575f80fd5b50610375600a5481565b6040519081526020016102e4565b34801561038e575f80fd5b5061037560065481565b3480156103a3575f80fd5b5061031b6103b2366004612976565b60106020525f908152604090205460ff1681565b3480156103d1575f80fd5b506103336109e5565b3480156103e5575f80fd5b506001545f90815260136020526040902054151561031b565b348015610409575f80fd5b50610333610418366004612a2e565b610c10565b348015610428575f80fd5b50610333610dae565b34801561043c575f80fd5b5061033361044b366004612a68565b610e70565b61033361045e366004612a91565b6111f0565b34801561046e575f80fd5b506102d76113be565b348015610482575f80fd5b506103336113cb565b348015610496575f80fd5b506103756104a5366004612b0a565b611486565b3480156104b5575f80fd5b50610375600d5481565b3480156104ca575f80fd5b5061037560175481565b3480156104df575f80fd5b506103336114b5565b3480156104f3575f80fd5b50600554610507906001600160a01b031681565b6040516001600160a01b0390911681526020016102e4565b34801561052a575f80fd5b50610533611850565b6040516102e4929190612b2a565b34801561054c575f80fd5b5061037561055b366004612976565b60096020525f908152604090205481565b348015610577575f80fd5b5060045461031b90600160a01b900460ff1681565b348015610597575f80fd5b5061031b6105a6366004612b0a565b6119c4565b3480156105b6575f80fd5b50600454610507906001600160a01b031681565b3480156105d5575f80fd5b50610333611a47565b3480156105e9575f80fd5b50610375600e5481565b610333610601366004612976565b611be4565b348015610611575f80fd5b5061037560015481565b348015610626575f80fd5b50600c5461063990610100900460ff1681565b6040516102e49190612be0565b348015610651575f80fd5b50610333611dc4565b348015610665575f80fd5b5061037561067436600461294b565b60146020525f908152604090205481565b348015610690575f80fd5b50600c5461031b9060ff1681565b3480156106a9575f80fd5b5061031b6106b836600461294b565b60126020525f908152604090205460ff1681565b3480156106d7575f80fd5b506102d7611e85565b3480156106eb575f80fd5b506105076106fa36600461294b565b60166020525f90815260409020546001600160a01b031681565b34801561071f575f80fd5b5061037561072e36600461294b565b60136020525f908152604090205481565b34801561074a575f80fd5b50610333610759366004612bee565b611e92565b348015610769575f80fd5b5061037560035481565b34801561077e575f80fd5b5061033361078d36600461294b565b611f72565b34801561079d575f80fd5b506103336120c7565b3480156107b1575f80fd5b506103756107c0366004612976565b600f6020525f908152604090205481565b6103336122ad565b3480156107e4575f80fd5b50600754610507906001600160a01b031681565b348015610803575f80fd5b50610333610812366004612a2e565b61246c565b348015610822575f80fd5b5061037560085481565b348015610837575f80fd5b506001545f90815260136020908152604080832054601483528184205460169093529220546001600160a01b03166040805193845260208401929092526001600160a01b0316908201526060016102e4565b348015610894575f80fd5b506105076108a336600461294b565b6124d2565b600280546108b590612c3a565b80601f01602080910402602001604051908101604052809291908181526020018280546108e190612c3a565b801561092c5780601f106109035761010080835404028352916020019161092c565b820191905f5260205f20905b81548152906001019060200180831161090f57829003601f168201915b505050505081565b335f9081526010602052604090205460ff166109885760405162461bcd60e51b815260206004820152600e60248201526d139bdd081c9959da5cdd195c995960921b60448201526064015b60405180910390fd5b335f90815260096020526040812080543492906109a6908490612c86565b9091555050604080513381523460208201527f201b13bd8ab1bff9ab4fe027b08267af060c2ac596f9c2408338ae9030f9ec99910160405180910390a1565b6109ed6124fa565b6002600c54610100900460ff166005811115610a0b57610a0b612bac565b14610a285760405162461bcd60e51b815260040161097f90612c99565b600754336001600160a01b0390911603610a775760405162461bcd60e51b815260206004820152601060248201526f105b1c9958591e481cd95b1958dd195960821b604482015260640161097f565b335f908152600f602090815260408083205460099092529091205481151580610a9f57508015155b610adc5760405162461bcd60e51b815260206004820152600e60248201526d139bdd081c9959da5cdd195c995960921b604482015260640161097f565b335f908152600f602090815260408083208390556009825280832083905560109091528120805460ff191690556006805491610b1783612cbe565b909155508190508015610bcd576040515f90339083908381818185875af1925050503d805f8114610b63576040519150601f19603f3d011682016040523d82523d5f602084013e610b68565b606091505b5050905080610ba95760405162461bcd60e51b815260206004820152600d60248201526c1499599d5b990819985a5b1959609a1b604482015260640161097f565b60405182815233905f805160206130e18339815191529060200160405180910390a2505b60405181815233907f03f0427e8bcfdf5f69217150cf160ebe2dac5fa607336fd7643bfd61a90190809060200160405180910390a2505050610c0e60015f55565b565b6004546001600160a01b03163314610c3a5760405162461bcd60e51b815260040161097f90612cd3565b6001600c54610100900460ff166005811115610c5857610c58612bac565b14610c755760405162461bcd60e51b815260040161097f90612c99565b600a54610c86906202a30090612c86565b421115610ccd5760405162461bcd60e51b815260206004820152601560248201527414d95b1b195c881dda5b991bddc8195e1c1a5c9959605a1b604482015260640161097f565b42600d819055600c805461020061ff00198216179182905560405160ff610100928390048116945f8051602061310183398151915294610d14948794910490921691612cf7565b60405180910390a1600b610d288382612d6d565b507f5d58f2843b450c496fce0c979f11c9fc0e4aecf62845c3d7055739b6c07a0e4682604051610d589190612932565b60405180910390a16003546005546040516001600160a01b03909116907fc3240eda57e484f75e47e5e094e497a166d3c2e31b19fc2a6a96ee951d1ddfd190610da2908690612932565b60405180910390a35050565b600454600160a01b900460ff16610dd75760405162461bcd60e51b815260040161097f90612e29565b600a54610de7906202a300612c86565b421015610e2c5760405162461bcd60e51b8152602060048201526013602482015272546f6f206561726c7920746f2064656c65746560681b604482015260640161097f565b7ff05a5096d61e4686d4b77dc20985d768652606f536436749c7e215623853efe36001546002604051610e60929190612e50565b60405180910390a1610c0e612522565b6001548314610eb45760405162461bcd60e51b815260206004820152601060248201526f15dc9bdb99c81c1c9bd91d58dd08125160821b604482015260640161097f565b81610ef25760405162461bcd60e51b815260206004820152600e60248201526d0b4cae4de40dacadade40d0c2e6d60931b604482015260640161097f565b80610f2d5760405162461bcd60e51b815260206004820152600b60248201526a2d32b937903a3c103932b360a91b604482015260640161097f565b6003600c54610100900460ff166005811115610f4b57610f4b612bac565b14610f685760405162461bcd60e51b815260040161097f90612c99565b600c5460ff1615610f8b5760405162461bcd60e51b815260040161097f90612edd565b6007546001600160a01b0316610fd45760405162461bcd60e51b815260206004820152600e60248201526d2737903a3930b739b837b93a32b960911b604482015260640161097f565b6001545f90815260136020526040902054156110215760405162461bcd60e51b815260206004820152600c60248201526b105b1c9958591e481c185a5960a21b604482015260640161097f565b5f8281526015602052604090205460ff16156110735760405162461bcd60e51b815260206004820152601160248201527013595b5bc8185b1c9958591e481d5cd959607a1b604482015260640161097f565b5f8281526012602052604090205460ff16156110d15760405162461bcd60e51b815260206004820152601860248201527f5061796d656e7420616c7265616479207265636f726465640000000000000000604482015260640161097f565b6005546001600160a01b03163314806110f457506004546001600160a01b031633145b8061110957506007546001600160a01b031633145b6111475760405162461bcd60e51b815260206004820152600f60248201526e139bdd081c185c9d1a58da5c185b9d608a1b604482015260640161097f565b5f8281526012602090815260408083208054600160ff19918216811790925560158452828520805490911682179055805484526013835281842086905580548452601483528184208590558054845260168352928190208054336001600160a01b0319909116811790915592548151868152928301859052917fb0a8e71fa15b69d580810a4e79ce7add54ae2cfc9d829d8951609d4f677a2de2910160405180910390a3505050565b6111f86124fa565b600454600160a01b900460ff16156112465760405162461bcd60e51b8152602060048201526011602482015270105b1c9958591e481c1d5c98da185cd959607a1b604482015260640161097f565b6004546001600160a01b031633036112985760405162461bcd60e51b81526020600482015260156024820152744f776e65722063616e6e6f7420707572636861736560581b604482015260640161097f565b6004805460ff60a01b1916600160a01b179055600580546001600160a01b0319163317905542600a81905534600e55600c805461010061ff001982168117928390556040519181900460ff908116945f805160206131018339815191529461130894879490910490921691612cf7565b60405180910390a1600385905560178490556018611327838583612f08565b507f4a9b2fdb1ca123b2dcd619b96b8d7d931170150da9a5022fd88f61778ea02eee84848460405161135b93929190612fc4565b60405180910390a16003546005546040805160208082525f908201526001600160a01b03909216917fc3240eda57e484f75e47e5e094e497a166d3c2e31b19fc2a6a96ee951d1ddfd1910160405180910390a3506113b860015f55565b50505050565b601880546108b590612c3a565b6005546001600160a01b031633146114115760405162461bcd60e51b81526020600482015260096024820152682737ba10313abcb2b960b91b604482015260640161097f565b6007546001600160a01b03166114395760405162461bcd60e51b815260040161097f90612ff9565b600454600160a01b900460ff166114625760405162461bcd60e51b815260040161097f90612e29565b600554600480546001600160a01b0319166001600160a01b03909216919091179055565b604080516020808201859052818301849052825180830384018152606090920190925280519101205b92915050565b6114bd6124fa565b600c5460ff16156114e05760405162461bcd60e51b815260040161097f90612edd565b600d546114f1906202a30090612c86565b42116115315760405162461bcd60e51b815260206004820152600f60248201526e139bdd081e595d081d1a5b595bdd5d608a1b604482015260640161097f565b600c805461050061ff00198216179182905560405160ff610100928390048116935f80516020613101833981519152936115749386939190920416904290612cf7565b60405180910390a15f620151806202a30063ffffffff16600d546115989190612c86565b6115a29042613026565b6115ac9190613039565b6115b7906001612c86565b9050600a8111156115c65750600a5b6007546001600160a01b03165f9081526009602052604081205460649083906115f090600a613058565b6115fa9190613058565b6116049190613039565b6007546001600160a01b03165f9081526009602052604090205490915081111561164457506007546001600160a01b03165f908152600960205260409020545b5f81600e546116539190612c86565b6005546040519192505f916001600160a01b039091169083908381818185875af1925050503d805f81146116a2576040519150601f19603f3d011682016040523d82523d5f602084013e6116a7565b606091505b50509050806116c85760405162461bcd60e51b815260040161097f9061306f565b6005546040518381526001600160a01b03909116905f805160206130e18339815191529060200160405180910390a2821561180d576005546040515f916001600160a01b03169085908381818185875af1925050503d805f8114611747576040519150601f19603f3d011682016040523d82523d5f602084013e61174c565b606091505b505090508061179d5760405162461bcd60e51b815260206004820152601760248201527f50656e616c7479207472616e73666572206661696c6564000000000000000000604482015260640161097f565b6007546040516001600160a01b03909116907f09843be59cdbf0d671efa609c2c4f0105f3ba87e2a489719e8b19792a21162e39061180390878152604060208201819052600d908201526c4c6174652064656c697665727960981b606082015260800190565b60405180910390a2505b60405142815233907f815c833f75bfcb34c209ba96e0f4321db7c37cfb06613962d0f5677d50c93c849060200160405180910390a25050505050610c0e60015f55565b60115460609081905f8167ffffffffffffffff81111561187257611872612991565b60405190808252806020026020018201604052801561189b578160200160208202803683370190505b5090505f8267ffffffffffffffff8111156118b8576118b8612991565b6040519080825280602002602001820160405280156118e1578160200160208202803683370190505b5090505f5b838110156119b957601181815481106119015761190161309c565b905f5260205f20015f9054906101000a90046001600160a01b031683828151811061192e5761192e61309c565b60200260200101906001600160a01b031690816001600160a01b031681525050600f5f601183815481106119645761196461309c565b5f9182526020808320909101546001600160a01b03168352820192909252604001902054825183908390811061199c5761199c61309c565b6020908102919091010152806119b1816130b0565b9150506118e6565b509094909350915050565b5f8083836040516020016119e2929190918252602082015260400190565b60408051601f1981840301815282825280516020918201206003548885529184018290529081149183018290529250907f4f3af542a02a51153827499ed0d6dace61d7be7af86b8f0402016dd9171c16be9060600160405180910390a1949350505050565b611a4f6124fa565b6002600c54610100900460ff166005811115611a6d57611a6d612bac565b14611a8a5760405162461bcd60e51b815260040161097f90612c99565b600d54611a9b906202a30090612c86565b4211611ae95760405162461bcd60e51b815260206004820152601a60248201527f42696464696e672077696e646f77206e6f742065787069726564000000000000604482015260640161097f565b600c805461050061ff00198216179182905560405160ff610100928390048116935f8051602061310183398151915293611b2c9386939190920416904290612cf7565b60405180910390a1600554600e546040515f926001600160a01b031691908381818185875af1925050503d805f8114611b80576040519150601f19603f3d011682016040523d82523d5f602084013e611b85565b606091505b5050905080611ba65760405162461bcd60e51b815260040161097f9061306f565b600554600e546040519081526001600160a01b03909116905f805160206130e1833981519152906020015b60405180910390a25050610c0e60015f55565b6004546001600160a01b03163314611c0e5760405162461bcd60e51b815260040161097f90612cd3565b6002600c54610100900460ff166005811115611c2c57611c2c612bac565b14611c495760405162461bcd60e51b815260040161097f90612c99565b600d54611c5a906202a30090612c86565b421115611ca25760405162461bcd60e51b8152602060048201526016602482015275109a59191a5b99c81dda5b991bddc8195e1c1a5c995960521b604482015260640161097f565b600c805461030061ff00198216179182905560405160ff610100928390048116935f8051602061310183398151915293611ce59386939190920416904290612cf7565b60405180910390a16001600160a01b0382165f908152600f60205260409020543414611d435760405162461bcd60e51b815260206004820152600d60248201526c496e636f72726563742066656560981b604482015260640161097f565b6001600160a01b0382165f908152600f60205260408120549003611d9d5760405162461bcd60e51b81526020600482015260116024820152702737ba1030903a3930b739b837b93a32b960791b604482015260640161097f565b5034600855600780546001600160a01b0319166001600160a01b0392909216919091179055565b6004546001600160a01b03163314611dee5760405162461bcd60e51b815260040161097f90612cd3565b6007546001600160a01b0316611e165760405162461bcd60e51b815260040161097f90612ff9565b600454600160a01b900460ff16611e3f5760405162461bcd60e51b815260040161097f90612e29565b6007546040515f81526001600160a01b039091169033907f08d1502fd01a62867241b61ec35d4ecbed54914c6ab56d5fe1b861dea75622f89060200160405180910390a3565b600b80546108b590612c3a565b611e9a6124fa565b6005546001600160a01b03163314611ee05760405162461bcd60e51b81526020600482015260096024820152682737ba10313abcb2b960b91b604482015260640161097f565b6007546001600160a01b0316611f085760405162461bcd60e51b815260040161097f90612ff9565b5f611f138484611486565b600354909150811480611f595760405162461bcd60e51b815260206004820152600e60248201526d14995d99585b081a5b9d985b1a5960921b604482015260640161097f565b611f628361256e565b5050611f6d60015f55565b505050565b600654601411611fb65760405162461bcd60e51b815260206004820152600f60248201526e109a590818d85c081c995858da1959608a1b604482015260640161097f565b335f908152600f6020526040902054156120035760405162461bcd60e51b815260206004820152600e60248201526d416c72656164792065786973747360901b604482015260640161097f565b6040805160208082018352838252335f818152600f835284812093519093556010909152918120805460ff1916600190811790915560118054918201815582527f31ecc21a745e3968a04e9570e4425bc18fa8019c68028196b546d1669c200c680180546001600160a01b0319169092179091556006805491612085836130b0565b909155505060408051338152602081018390527f82cd66133dda5e11a8bcba54ad8282733b8517996ec937641ea79418fb14157491015b60405180910390a150565b6120cf6124fa565b600c5460ff16156120f25760405162461bcd60e51b815260040161097f90612edd565b6001600c54610100900460ff16600581111561211057612110612bac565b1461212d5760405162461bcd60e51b815260040161097f90612c99565b600a5461213e906202a30090612c86565b421161218c5760405162461bcd60e51b815260206004820152601960248201527f53656c6c65722077696e646f77206e6f74206578706972656400000000000000604482015260640161097f565b600c805461050061ff00198216179182905560405160ff610100928390048116935f80516020613101833981519152936121cf9386939190920416904290612cf7565b60405180910390a1600554600e546040515f926001600160a01b031691908381818185875af1925050503d805f8114612223576040519150601f19603f3d011682016040523d82523d5f602084013e612228565b606091505b50509050806122495760405162461bcd60e51b815260040161097f9061306f565b600554600e546040519081526001600160a01b03909116905f805160206130e18339815191529060200160405180910390a260405142815233907f74a1486322a6fdcded5b71769c6882117fd64b35e6b2c64d9fb6b2e96ef4c12090602001611bd1565b6122b56124fa565b600454600160a01b900460ff16156123035760405162461bcd60e51b8152602060048201526011602482015270105b1c9958591e481c1d5c98da185cd959607a1b604482015260640161097f565b6004546001600160a01b031633036123555760405162461bcd60e51b81526020600482015260156024820152744f776e65722063616e6e6f7420707572636861736560581b604482015260640161097f565b6004805460ff60a01b1916600160a01b179055600580546001600160a01b0319163317905542600a5534600e55600c805461010080820460ff1692600192909161ff0019909116908302179055505f34426040516020016123c0929190918252602082015260400190565b604051602081830303815290604052805190602001209050806003819055505f8051602061310183398151915282600c60019054906101000a900460ff164260405161240e93929190612cf7565b60405180910390a16003546005546040805160208082525f908201526001600160a01b03909216917fc3240eda57e484f75e47e5e094e497a166d3c2e31b19fc2a6a96ee951d1ddfd1910160405180910390a35050610c0e60015f55565b6004546001600160a01b031633146124965760405162461bcd60e51b815260040161097f90612cd3565b600b6124a28282612d6d565b507f5d58f2843b450c496fce0c979f11c9fc0e4aecf62845c3d7055739b6c07a0e46816040516120bc9190612932565b601181815481106124e1575f80fd5b5f918252602090912001546001600160a01b0316905081565b60025f540361251c57604051633ee5aeb560e01b815260040160405180910390fd5b60025f55565b61252d60025f61289d565b5f6003819055600480546001600160a81b0319169055600580546001600160a01b03199081169091556007805490911690556008819055600a819055600655565b600c5460ff16156125915760405162461bcd60e51b815260040161097f90612edd565b600d546125a2906202a30090612c86565b4211156125e45760405162461bcd60e51b815260206004820152601060248201526f11195b1a5d995c9e481d1a5b595bdd5d60821b604482015260640161097f565b600c805461ffff19166104011790556001545f908152601360205260409020548015612658576001545f81815260146020908152604091829020548251858152918201527f6d3c858dd9ebfe36be5ddf09bb42e5d614cf0997f848e72c3435f52e86501ef4910160405180910390a26127ee565b600e545f8190036126985760405162461bcd60e51b815260206004820152600a6024820152695072696365207a65726f60b01b604482015260640161097f565b6004546040515f916001600160a01b03169083908381818185875af1925050503d805f81146126e2576040519150601f19603f3d011682016040523d82523d5f602084013e6126e7565b606091505b50509050806127315760405162461bcd60e51b815260206004820152601660248201527514d95b1b195c881d1c985b9cd9995c8819985a5b195960521b604482015260640161097f565b6007546001600160a01b03165f8181526009602052604081205460085491929161275b9190612c86565b6040515f81818185875af1925050503d805f8114612794576040519150601f19603f3d011682016040523d82523d5f602084013e612799565b606091505b50509050806127ea5760405162461bcd60e51b815260206004820152601b60248201527f5472616e73706f72746572207472616e73666572206661696c65640000000000604482015260640161097f565b5050505b600554600480546001600160a01b0319166001600160a01b03909216919091179055600b61281c8382612d6d565b507f5d58f2843b450c496fce0c979f11c9fc0e4aecf62845c3d7055739b6c07a0e468260405161284c9190612932565b60405180910390a16007546005546003546040516001600160a01b0393841693909216917f96fba715d7dd1b52e647de8e098e239759f6a3999a23423d4109ca5ba942e9a891610da29187906130c8565b5080546128a990612c3a565b5f825580601f106128b8575050565b601f0160209004905f5260205f20908101906128d491906128d7565b50565b5b808211156128eb575f81556001016128d8565b5090565b5f81518084525f5b81811015612913576020818501810151868301820152016128f7565b505f602082860101526020601f19601f83011685010191505092915050565b602081525f61294460208301846128ef565b9392505050565b5f6020828403121561295b575f80fd5b5035919050565b6001600160a01b03811681146128d4575f80fd5b5f60208284031215612986575f80fd5b813561294481612962565b634e487b7160e01b5f52604160045260245ffd5b5f82601f8301126129b4575f80fd5b813567ffffffffffffffff808211156129cf576129cf612991565b604051601f8301601f19908116603f011681019082821181831017156129f7576129f7612991565b81604052838152866020858801011115612a0f575f80fd5b836020870160208301375f602085830101528094505050505092915050565b5f60208284031215612a3e575f80fd5b813567ffffffffffffffff811115612a54575f80fd5b612a60848285016129a5565b949350505050565b5f805f60608486031215612a7a575f80fd5b505081359360208301359350604090920135919050565b5f805f8060608587031215612aa4575f80fd5b8435935060208501359250604085013567ffffffffffffffff80821115612ac9575f80fd5b818701915087601f830112612adc575f80fd5b813581811115612aea575f80fd5b886020828501011115612afb575f80fd5b95989497505060200194505050565b5f8060408385031215612b1b575f80fd5b50508035926020909101359150565b604080825283519082018190525f906020906060840190828701845b82811015612b6b5781516001600160a01b031684529284019290840190600101612b46565b505050838103828501528451808252858301918301905f5b81811015612b9f57835183529284019291840191600101612b83565b5090979650505050505050565b634e487b7160e01b5f52602160045260245ffd5b60068110612bdc57634e487b7160e01b5f52602160045260245ffd5b9052565b602081016114af8284612bc0565b5f805f60608486031215612c00575f80fd5b8335925060208401359150604084013567ffffffffffffffff811115612c24575f80fd5b612c30868287016129a5565b9150509250925092565b600181811c90821680612c4e57607f821691505b602082108103612c6c57634e487b7160e01b5f52602260045260245ffd5b50919050565b634e487b7160e01b5f52601160045260245ffd5b808201808211156114af576114af612c72565b6020808252600b908201526a57726f6e6720706861736560a81b604082015260600190565b5f81612ccc57612ccc612c72565b505f190190565b6020808252600a90820152692737ba1039b2b63632b960b11b604082015260600190565b60608101612d058286612bc0565b612d126020830185612bc0565b826040830152949350505050565b601f821115611f6d575f81815260208120601f850160051c81016020861015612d465750805b601f850160051c820191505b81811015612d6557828155600101612d52565b505050505050565b815167ffffffffffffffff811115612d8757612d87612991565b612d9b81612d958454612c3a565b84612d20565b602080601f831160018114612dce575f8415612db75750858301515b5f19600386901b1c1916600185901b178555612d65565b5f85815260208120601f198616915b82811015612dfc57888601518255948401946001909101908401612ddd565b5085821015612e1957878501515f19600388901b60f8161c191681555b5050505050600190811b01905550565b6020808252600d908201526c139bdd081c1d5c98da185cd959609a1b604082015260600190565b8281525f60206040818401525f8454612e6881612c3a565b806040870152606060018084165f8114612e895760018114612ea357612ece565b60ff1985168984015283151560051b890183019550612ece565b895f52865f205f5b85811015612ec65781548b8201860152908301908801612eab565b8a0184019650505b50939998505050505050505050565b602080825260119082015270105b1c9958591e4819195b1a5d995c9959607a1b604082015260600190565b67ffffffffffffffff831115612f2057612f20612991565b612f3483612f2e8354612c3a565b83612d20565b5f601f841160018114612f65575f8515612f4e5750838201355b5f19600387901b1c1916600186901b178355612fbd565b5f83815260209020601f19861690835b82811015612f955786850135825560209485019460019092019101612f75565b5086821015612fb1575f1960f88860031b161c19848701351681555b505060018560011b0183555b5050505050565b83815260406020820152816040820152818360608301375f818301606090810191909152601f909201601f1916010192915050565b602080825260139082015272151c985b9cdc1bdc9d195c881b9bdd081cd95d606a1b604082015260600190565b818103818111156114af576114af612c72565b5f8261305357634e487b7160e01b5f52601260045260245ffd5b500490565b80820281158282048414176114af576114af612c72565b602080825260139082015272109d5e595c881c99599d5b990819985a5b1959606a1b604082015260600190565b634e487b7160e01b5f52603260045260245ffd5b5f600182016130c1576130c1612c72565b5060010190565b828152604060208201525f612a6060408301846128ef56fe8c9a4f13b67cb64d7c6aa1ae0c9bf07694af521a28b93e7060020810ab4bc59fb070f30564c7f6b4417cbad108e44deef775fbe1f133668303bd71b13497ac4aa2646970667358221220c674e70ad1096021813995c21970147aad2b02173152fc74ae67f65df0c3d8ec64736f6c63430008150033",
  "immutableReferences": {},
  "source": "// SPDX-License-Identifier: MIT\r\npragma solidity ^0.8.0;\r\n\r\n// Custom errors for gas savings and better debugging - TEMPORARILY COMMENTED FOR TRUFFLE V5 COMPATIBILITY\r\n// error WrongPhase(ProductEscrow.Phase expected, ProductEscrow.Phase got);\r\n// error NotTransporter();\r\n// error BidCap();\r\n// error Exists();\r\n// error NotRegistered();\r\n// error Fee();\r\n// error Delivered();\r\n// error Timeout();\r\n// error Confirm();\r\n// error Deposit();\r\n// error Refund();\r\n// error Penalty();\r\n// error Transfer();\r\n// error VC();\r\n// error AlreadyPaid();\r\n// error ZeroMemoHash();\r\n// error ZeroTxRef();\r\n// error NotParticipant();\r\n\r\nimport \"@openzeppelin/contracts/utils/ReentrancyGuard.sol\";\r\n\r\ncontract ProductEscrow is ReentrancyGuard {\r\n    uint public id;\r\n    string public name;\r\n    bytes32 public priceCommitment; // Confidential price commitment (changed from uint price)\r\n    address payable public owner;\r\n    bool public purchased;\r\n    address payable public buyer;\r\n    uint public transporterCount;\r\n    address payable public transporter;\r\n    uint public deliveryFee;\r\n    mapping(address => uint) public securityDeposits; // Track each transporter's deposit\r\n    uint public purchaseTimestamp; // Timestamp when purchase is confirmed\r\n    string public vcCid;              // e.g. \"ipfs://Qm\"\r\n    bool public delivered;\r\n    enum Phase { Listed, Purchased, OrderConfirmed, Bound, Delivered, Expired }\r\n    Phase public phase;\r\n    \r\n    // Cap on number of transporter bids to prevent DoS and high gas\r\n    function maxBids() internal view virtual returns (uint8) {\r\n        return 20;\r\n    }\r\n    \r\n    // Canonical commitment computation helper (pure function for tests and UI)\r\n    function computeCommitment(uint256 value, bytes32 salt) public pure returns (bytes32) {\r\n        return keccak256(abi.encodePacked(value, salt));\r\n    }\r\n    uint32 public constant SELLER_WINDOW = 2 days; // Seller must confirm within 48h\r\n    uint32 public constant BID_WINDOW = 2 days;    // Bidding window after seller confirmation\r\n    uint32 public constant DELIVERY_WINDOW = 2 days; // Delivery window after transporter is set\r\n    uint public orderConfirmedTimestamp; // Timestamp when seller confirms order (start of bidding window)\r\n    uint public productPrice; // Explicitly track the buyer's deposit amount\r\n\r\n    struct TransporterFees {\r\n        uint fee;\r\n    }\r\n\r\n    mapping(address => TransporterFees) public transporters;\r\n    mapping(address => bool) public isTransporter; // Membership mapping for transporters\r\n    address[] public transporterAddresses; // Store all transporter addresses\r\n    \r\n    // Railgun Integration State\r\n    mapping(bytes32 => bool) public privatePayments; // Track recorded private payments by memoHash\r\n    mapping(uint256 => bytes32) public productMemoHashes; // Link productId to memoHash\r\n    mapping(uint256 => bytes32) public productRailgunTxRefs; // Link productId to Railgun tx reference\r\n    mapping(bytes32 => bool) public usedMemoHash; // Global reuse guard for memos\r\n    mapping(uint256 => address) public productPaidBy; // Track who recorded the payment (for audit)\r\n\r\n    // Confidential value commitment and proof (Pedersen + Bulletproofs)\r\n    bytes32 public valueCommitment;\r\n    bytes public valueRangeProof;\r\n    event ValueCommitted(bytes32 commitment, bytes proof);\r\n\r\n    modifier onlyBuyer() {\r\n        require(msg.sender == buyer, \"Not buyer\");\r\n        _;\r\n    }\r\n\r\n    modifier onlySeller() {\r\n        require(msg.sender == owner, \"Not seller\");\r\n        _;\r\n    }\r\n\r\n    modifier transporterSet() {\r\n        require(transporter != address(0), \"Transporter not set\");\r\n        _;\r\n    }\r\n\r\n    modifier onlyTransporter() {\r\n        require(msg.sender == transporter, \"Not transporter\");\r\n        _;\r\n    }\r\n\r\n    event OrderConfirmed(address indexed buyer, bytes32 indexed priceCommitment, string vcCID); // Updated\r\n    event TransporterCreated(address transporter, uint fee);\r\n    event TransporterSecurityDeposit(address transporter, uint price);\r\n    event DeliveryConfirmed(address indexed buyer, address indexed transporter, bytes32 priceCommitment, string vcCID); // Updated\r\n    event CancelDelivery(address indexed seller, address indexed transporter, uint buyerRefund);\r\n    event ProductDeleted(uint productId, string productName);\r\n    event VcUpdated(string cid);\r\n    event ValueRevealed(uint revealedValue, bytes32 commitment, bool valid); // Added\r\n    event FundsTransferred(address indexed to, uint amount);\r\n    event PenaltyApplied(address indexed to, uint amount, string reason);\r\n    event DeliveryTimeout(address indexed caller, uint time);\r\n    event SellerTimeout(address indexed caller, uint time);\r\n    event PhaseChanged(Phase from, Phase to, uint256 time); // Emitted on every phase transition\r\n    event BidWithdrawn(address indexed transporter, uint amount);\r\n    event Debug(string message);\r\n    event DebugUint(string message, uint value);\r\n    event DebugBool(string message, bool value);\r\n    \r\n    // Railgun Integration Events\r\n    event PaidPrivately(uint256 indexed productId, bytes32 memoHash, bytes32 railgunTxRef);\r\n    event PrivatePaymentRecorded(uint256 indexed productId, bytes32 memoHash, bytes32 railgunTxRef, address indexed recorder);\r\n\r\n    constructor(uint256 _id, string memory _name, bytes32 _priceCommitment, address _owner) {\r\n        id = _id;\r\n        name = _name;\r\n        priceCommitment = _priceCommitment; // Storing commitment\r\n        owner = payable(_owner);\r\n        purchased = false;\r\n        buyer = payable(address(0));\r\n        phase = Phase.Listed;\r\n    }\r\n\r\n    function confirmOrder(string memory vcCID) public onlySeller {\r\n        require(phase == Phase.Purchased, \"Wrong phase\");\r\n        require(block.timestamp <= purchaseTimestamp + SELLER_WINDOW, \"Seller window expired\");\r\n        orderConfirmedTimestamp = block.timestamp;\r\n        Phase oldPhase = phase;\r\n        phase = Phase.OrderConfirmed;\r\n        emit PhaseChanged(oldPhase, phase, block.timestamp); // Emit on phase change\r\n        vcCid = vcCID;\r\n        emit VcUpdated(vcCID);\r\n        emit OrderConfirmed(buyer, priceCommitment, vcCID);\r\n    }\r\n\r\n    function updateVcCid(string memory cid) public onlySeller {\r\n        vcCid = cid;\r\n        emit VcUpdated(cid);\r\n    }\r\n\r\n    function depositPurchase(bytes32 _commitment, bytes32 _valueCommitment, bytes calldata _valueRangeProof) public payable nonReentrant {\r\n        require(!purchased, \"Already purchased\");\r\n        require(msg.sender != owner, \"Owner cannot purchase\");\r\n        purchased    = true;\r\n        buyer        = payable(msg.sender);\r\n        purchaseTimestamp = block.timestamp;\r\n        productPrice = msg.value; // Track the product price explicitly\r\n        Phase oldPhase = phase;\r\n        phase        = Phase.Purchased;   // Set phase to Purchased after successful purchase\r\n        emit PhaseChanged(oldPhase, phase, block.timestamp); // Emit on phase change\r\n        priceCommitment = _commitment; // Store the original commitment\r\n        valueCommitment = _valueCommitment; // Store the Pedersen commitment\r\n        valueRangeProof = _valueRangeProof; // Store the Bulletproofs proof\r\n        emit ValueCommitted(_valueCommitment, _valueRangeProof);\r\n        emit OrderConfirmed(buyer, priceCommitment, \"\"); // Optionally emit event\r\n    }\r\n\r\n    // Simple public purchase function for non-private transactions\r\n    function publicPurchase() public payable nonReentrant {\r\n        require(!purchased, \"Already purchased\");\r\n        require(msg.sender != owner, \"Owner cannot purchase\");\r\n        \r\n        purchased = true;\r\n        buyer = payable(msg.sender);\r\n        purchaseTimestamp = block.timestamp;\r\n        productPrice = msg.value;\r\n        \r\n        Phase oldPhase = phase;\r\n        phase = Phase.Purchased;\r\n        \r\n        // Create a simple commitment from the actual price for consistency\r\n        bytes32 simpleCommitment = keccak256(abi.encodePacked(msg.value, block.timestamp));\r\n        priceCommitment = simpleCommitment;\r\n        \r\n        emit PhaseChanged(oldPhase, phase, block.timestamp);\r\n        emit OrderConfirmed(buyer, priceCommitment, \"\");\r\n    }\r\n\r\n    function withdrawProductPrice() public onlyBuyer transporterSet {\r\n        require(purchased, \"Not purchased\");\r\n        // Ether transfer logic commented out\r\n        // owner.transfer(price);\r\n        // transporter.transfer(price + deliveryFee);\r\n        owner = buyer;\r\n    }\r\n\r\n    function cancelDelivery() public onlySeller transporterSet {\r\n        require(purchased, \"Not purchased\");\r\n        // Ether transfer logic commented out\r\n        // transporter.transfer((2 * price) / 10 + deliveryFee + price);\r\n        // owner.transfer(price / 10);\r\n        // buyer.transfer((7 * price) / 10);\r\n        emit CancelDelivery(msg.sender, transporter, 0); // Buyer refund not revealed\r\n    }\r\n\r\n    function setTransporter(address payable _transporter) external payable onlySeller {\r\n        require(phase == Phase.OrderConfirmed, \"Wrong phase\");\r\n        require(block.timestamp <= orderConfirmedTimestamp + BID_WINDOW, \"Bidding window expired\");\r\n        Phase oldPhase = phase;\r\n        phase = Phase.Bound; // Move to Bound phase after transporter is set\r\n        emit PhaseChanged(oldPhase, phase, block.timestamp); // Emit on phase change\r\n        require(msg.value == transporters[_transporter].fee, \"Incorrect fee\");\r\n        require(transporters[_transporter].fee != 0, \"Not a transporter\");\r\n        deliveryFee = msg.value;\r\n        transporter = _transporter;\r\n        // Refund security deposits to all non-selected transporters\r\n        // Since we no longer have an array, this must be handled off-chain via events, or by tracking addresses off-chain.\r\n        // For on-chain refunds, you could emit an event for each refund and let the frontend/off-chain system process them.\r\n    }\r\n\r\n    function createTransporter(uint _feeInWei) public {\r\n        require(transporterCount < maxBids(), \"Bid cap reached\");\r\n        require(transporters[msg.sender].fee == 0, \"Already exists\");\r\n        // Store fee in wei for precision\r\n        transporters[msg.sender] = TransporterFees({ fee: _feeInWei });\r\n        isTransporter[msg.sender] = true;\r\n        transporterAddresses.push(msg.sender); // Add to array\r\n        transporterCount++;\r\n        emit TransporterCreated(msg.sender, _feeInWei);\r\n    }\r\n\r\n    function securityDeposit() public payable {\r\n        // Allow any registered transporter to deposit before selection\r\n        require(isTransporter[msg.sender], \"Not registered\");\r\n        securityDeposits[msg.sender] += msg.value;\r\n        emit TransporterSecurityDeposit(msg.sender, msg.value);\r\n    }\r\n\r\n    // View function to return all transporter addresses and their fees\r\n    function getAllTransporters() public view returns (address[] memory, uint[] memory) {\r\n        uint len = transporterAddresses.length;\r\n        address[] memory addresses = new address[](len);\r\n        uint[] memory fees = new uint[](len);\r\n        for (uint i = 0; i < len; i++) {\r\n            addresses[i] = transporterAddresses[i];\r\n            fees[i] = transporters[transporterAddresses[i]].fee;\r\n        }\r\n        return (addresses, fees);\r\n    }\r\n\r\n    function checkAndDeleteProduct() public {\r\n        require(purchased, \"Not purchased\");\r\n        require(block.timestamp >= purchaseTimestamp + 2 days, \"Too early to delete\");\r\n\r\n        emit ProductDeleted(id, name);\r\n        deleteProduct(); // Custom logic to delete the product from storage\r\n    }\r\n\r\n    function deleteProduct() internal {\r\n        // Logic to mark product as deleted or reset its state\r\n        delete name;\r\n        delete priceCommitment; // Updated\r\n        delete owner;\r\n        delete purchased;\r\n        delete buyer;\r\n        delete transporter;\r\n        delete deliveryFee;\r\n        // delete securityDepositAmount; // REMOVE this\r\n        delete purchaseTimestamp;\r\n        delete transporterCount;\r\n        // Further deletion logic as required\r\n    }\r\n\r\n    // Helper for audits: verify a revealed value against the commitment (does not unlock payments)\r\n    function verifyRevealedValue(uint revealedValue, bytes32 blinding) public returns (bool) {\r\n        bytes32 computed = keccak256(abi.encodePacked(revealedValue, blinding));\r\n        bool valid = (computed == priceCommitment);\r\n        emit ValueRevealed(revealedValue, priceCommitment, valid);\r\n        return valid;\r\n    }\r\n\r\n    // New: Enforce reveal in payment path\r\n    function revealAndConfirmDelivery(uint revealedValue, bytes32 blinding, string memory vcCID) public nonReentrant onlyBuyer transporterSet {\r\n        bytes32 computed = computeCommitment(revealedValue, blinding);\r\n        bool valid = (computed == priceCommitment);\r\n        require(valid, \"Reveal invalid\");\r\n        _confirmDelivery(vcCID);\r\n    }\r\n\r\n    // Internal delivery logic, only callable after valid reveal\r\n    function _confirmDelivery(string memory vcCID) internal {\r\n        require(!delivered, \"Already delivered\");\r\n        require(block.timestamp <= orderConfirmedTimestamp + DELIVERY_WINDOW, \"Delivery timeout\");\r\n        delivered = true;\r\n        phase = Phase.Delivered;\r\n        \r\n        // Check if private payment was recorded\r\n        bytes32 memoHash = productMemoHashes[id];\r\n        if (memoHash != bytes32(0)) {\r\n            // Private payment was made - no on-chain transfers needed\r\n            emit PaidPrivately(id, memoHash, productRailgunTxRefs[id]);\r\n        } else {\r\n            // Fallback to on-chain payment (for backward compatibility)\r\n            uint price = productPrice;\r\n            require(price != 0, \"Price zero\");\r\n            (bool sentSeller, ) = owner.call{value: price}(\"\");\r\n            require(sentSeller, \"Seller transfer failed\");\r\n            (bool sentTransporter, ) = transporter.call{value: deliveryFee + securityDeposits[transporter]}(\"\");\r\n            require(sentTransporter, \"Transporter transfer failed\");\r\n        }\r\n        \r\n        owner = buyer;\r\n        vcCid = vcCID;\r\n        emit VcUpdated(vcCID);\r\n        emit DeliveryConfirmed(buyer, transporter, priceCommitment, vcCID);\r\n    }\r\n\r\n    // Deprecate the old confirmDelivery external function (no longer used for settlement)\r\n    // function confirmDelivery(string memory vcCID) public onlyBuyer transporterSet nonReentrant { ... }\r\n\r\n    function timeout() public nonReentrant {\r\n        require(!delivered, \"Already delivered\");\r\n        require(block.timestamp > orderConfirmedTimestamp + DELIVERY_WINDOW, \"Not yet timeout\");\r\n        Phase oldPhase = phase;\r\n        phase = Phase.Expired;\r\n        emit PhaseChanged(oldPhase, phase, block.timestamp); // Emit on phase change\r\n        // Calculate penalty for transporter\r\n        uint lateDays = (block.timestamp - (orderConfirmedTimestamp + DELIVERY_WINDOW)) / 1 days + 1;\r\n        if (lateDays > 10) lateDays = 10;\r\n        uint penalty = (securityDeposits[transporter] * 10 * lateDays) / 100;\r\n        if (penalty > securityDeposits[transporter]) penalty = securityDeposits[transporter];\r\n        // Refund buyer: productPrice + penalty (if any)\r\n        uint refundToBuyer = productPrice + penalty;\r\n        (bool sentBuyer, ) = buyer.call{value: refundToBuyer}(\"\");\r\n        require(sentBuyer, \"Buyer refund failed\");\r\n        emit FundsTransferred(buyer, refundToBuyer);\r\n        // Forfeit penalty from transporter to buyer\r\n        if (penalty > 0) {\r\n            (bool sentPenalty, ) = buyer.call{value: penalty}(\"\");\r\n            require(sentPenalty, \"Penalty transfer failed\");\r\n            emit PenaltyApplied(transporter, penalty, \"Late delivery\");\r\n        }\r\n        emit DeliveryTimeout(msg.sender, block.timestamp);\r\n    }\r\n\r\n    function sellerTimeout() public nonReentrant {\r\n        require(!delivered, \"Already delivered\");\r\n        require(phase == Phase.Purchased, \"Wrong phase\");\r\n        require(block.timestamp > purchaseTimestamp + SELLER_WINDOW, \"Seller window not expired\");\r\n        Phase oldPhase = phase;\r\n        phase = Phase.Expired;\r\n        emit PhaseChanged(oldPhase, phase, block.timestamp); // Emit on phase change\r\n        // Refund buyer: productPrice\r\n        (bool sentBuyer, ) = buyer.call{value: productPrice}(\"\");\r\n        require(sentBuyer, \"Buyer refund failed\");\r\n        emit FundsTransferred(buyer, productPrice);\r\n        emit SellerTimeout(msg.sender, block.timestamp);\r\n    }\r\n\r\n    function bidTimeout() public nonReentrant {\r\n        require(phase == Phase.OrderConfirmed, \"Wrong phase\");\r\n        require(block.timestamp > orderConfirmedTimestamp + BID_WINDOW, \"Bidding window not expired\");\r\n        Phase oldPhase = phase;\r\n        phase = Phase.Expired;\r\n        emit PhaseChanged(oldPhase, phase, block.timestamp); // Emit on phase change\r\n        // Refund buyer: productPrice\r\n        (bool sentBuyer, ) = buyer.call{value: productPrice}(\"\");\r\n        require(sentBuyer, \"Buyer refund failed\");\r\n        emit FundsTransferred(buyer, productPrice);\r\n        // Optionally emit a BidTimeout event if desired\r\n    }\r\n\r\n    function withdrawBid() public nonReentrant {\r\n        // Only allow withdrawal before transporter is set and in OrderConfirmed phase\r\n        require(phase == Phase.OrderConfirmed, \"Wrong phase\");\r\n        require(transporter != msg.sender, \"Already selected\");\r\n        uint fee = transporters[msg.sender].fee;\r\n        uint deposit = securityDeposits[msg.sender];\r\n        require(fee != 0 || deposit != 0, \"Not registered\");\r\n        // Remove transporter from mapping\r\n        transporters[msg.sender].fee = 0;\r\n        securityDeposits[msg.sender] = 0;\r\n        isTransporter[msg.sender] = false;\r\n        transporterCount--;\r\n        uint refundAmount = deposit;\r\n        if (refundAmount > 0) {\r\n            (bool sent, ) = payable(msg.sender).call{value: refundAmount}(\"\");\r\n            require(sent, \"Refund failed\");\r\n            emit FundsTransferred(msg.sender, refundAmount);\r\n        }\r\n        emit BidWithdrawn(msg.sender, refundAmount);\r\n    }\r\n    \r\n    // Railgun Integration Functions\r\n    \r\n    /**\r\n     * @dev Record a private payment made via Railgun\r\n     * @param _productId The product ID for this escrow instance\r\n     * @param _memoHash Hash of the memo used in the private transfer\r\n     * @param _railgunTxRef Reference to the Railgun transaction\r\n     * \r\n     * This function can be called by:\r\n     * - Buyer (after making private payment)\r\n     * - Seller (after receiving private payment)\r\n     * - Auditor/Indexer (with proper authorization)\r\n     */\r\n    function recordPrivatePayment(uint256 _productId, bytes32 _memoHash, bytes32 _railgunTxRef) external {\r\n        // Input validation\r\n        require(_productId == id, \"Wrong product ID\");\r\n        require(_memoHash != bytes32(0), \"Zero memo hash\");\r\n        require(_railgunTxRef != bytes32(0), \"Zero tx ref\");\r\n        \r\n        // Phase and state validation\r\n        require(phase == Phase.Bound, \"Wrong phase\");\r\n        require(!delivered, \"Already delivered\");\r\n        require(transporter != address(0), \"No transporter\");\r\n        \r\n        // Prevent multiple payments for the same product\r\n        require(productMemoHashes[id] == bytes32(0), \"Already paid\");\r\n        \r\n        // Prevent global memo reuse first (cross-product protection)\r\n        require(!usedMemoHash[_memoHash], \"Memo already used\");\r\n        \r\n        // Prevent duplicate recordings for this specific memo\r\n        require(!privatePayments[_memoHash], \"Payment already recorded\");\r\n        \r\n        // Only allow buyer, seller, or transporter to record\r\n        require(msg.sender == buyer || msg.sender == owner || msg.sender == transporter, \"Not participant\");\r\n        \r\n        // Record the private payment\r\n        privatePayments[_memoHash] = true;\r\n        usedMemoHash[_memoHash] = true;\r\n        productMemoHashes[id] = _memoHash;\r\n        productRailgunTxRefs[id] = _railgunTxRef;\r\n        productPaidBy[id] = msg.sender; // Track who recorded for audit\r\n        \r\n        emit PrivatePaymentRecorded(id, _memoHash, _railgunTxRef, msg.sender);\r\n    }\r\n    \r\n    /**\r\n     * @dev Check if a private payment was recorded for this product\r\n     * @return bool True if private payment was recorded\r\n     */\r\n    function hasPrivatePayment() external view returns (bool) {\r\n        return productMemoHashes[id] != bytes32(0);\r\n    }\r\n    \r\n    /**\r\n     * @dev Get private payment details for this product\r\n     * @return memoHash The memo hash used in the private transfer\r\n     * @return railgunTxRef The Railgun transaction reference\r\n     * @return recorder The address that recorded the payment\r\n     */\r\n    function getPrivatePaymentDetails() external view returns (bytes32 memoHash, bytes32 railgunTxRef, address recorder) {\r\n        memoHash = productMemoHashes[id];\r\n        railgunTxRef = productRailgunTxRefs[id];\r\n        recorder = productPaidBy[id];\r\n    }\r\n}",
  "sourcePath": "C:\\Users\\yamen\\ev-battery-supplychain\\contracts\\ProductEscrow.sol",
  "compiler": {
    "name": "solc",
    "version": "0.8.21+commit.d9974bed.Emscripten.clang"
  },
  "schemaVersion": "3.4.16",
  "updatedAt": "2025-11-12T11:57:19.806Z",
  "devdoc": {
    "errors": {
      "ReentrancyGuardReentrantCall()": [
        {
          "details": "Unauthorized reentrant call."
        }
      ]
    },
    "kind": "dev",
    "methods": {
      "getPrivatePaymentDetails()": {
        "details": "Get private payment details for this product",
        "returns": {
          "memoHash": "The memo hash used in the private transfer",
          "railgunTxRef": "The Railgun transaction reference",
          "recorder": "The address that recorded the payment"
        }
      },
      "hasPrivatePayment()": {
        "details": "Check if a private payment was recorded for this product",
        "returns": {
          "_0": "bool True if private payment was recorded"
        }
      },
      "recordPrivatePayment(uint256,bytes32,bytes32)": {
        "details": "Record a private payment made via Railgun",
        "params": {
          "_memoHash": "Hash of the memo used in the private transfer",
          "_productId": "The product ID for this escrow instance",
          "_railgunTxRef": "Reference to the Railgun transaction  This function can be called by: - Buyer (after making private payment) - Seller (after receiving private payment) - Auditor/Indexer (with proper authorization)"
        }
      }
    },
    "version": 1
  },
  "userdoc": {
    "kind": "user",
    "methods": {},
    "version": 1
  }
}