{
  "contractName": "ProductFactory",
  "abi": [
    {
      "inputs": [
        {
          "internalType": "address",
          "name": "_impl",
          "type": "address"
        }
      ],
      "stateMutability": "nonpayable",
      "type": "constructor"
    },
    {
      "inputs": [],
      "name": "BondAmountNotSet",
      "type": "error"
    },
    {
      "inputs": [],
      "name": "BondAmountZero",
      "type": "error"
    },
    {
      "inputs": [],
      "name": "FactoryIsPaused",
      "type": "error"
    },
    {
      "inputs": [],
      "name": "FailedDeployment",
      "type": "error"
    },
    {
      "inputs": [],
      "name": "IncorrectBondAmount",
      "type": "error"
    },
    {
      "inputs": [
        {
          "internalType": "uint256",
          "name": "balance",
          "type": "uint256"
        },
        {
          "internalType": "uint256",
          "name": "needed",
          "type": "uint256"
        }
      ],
      "name": "InsufficientBalance",
      "type": "error"
    },
    {
      "inputs": [],
      "name": "InvalidImplementationAddress",
      "type": "error"
    },
    {
      "inputs": [
        {
          "internalType": "address",
          "name": "owner",
          "type": "address"
        }
      ],
      "name": "OwnableInvalidOwner",
      "type": "error"
    },
    {
      "inputs": [
        {
          "internalType": "address",
          "name": "account",
          "type": "address"
        }
      ],
      "name": "OwnableUnauthorizedAccount",
      "type": "error"
    },
    {
      "anonymous": false,
      "inputs": [
        {
          "indexed": false,
          "internalType": "uint256",
          "name": "newAmount",
          "type": "uint256"
        }
      ],
      "name": "BondAmountUpdated",
      "type": "event"
    },
    {
      "anonymous": false,
      "inputs": [
        {
          "indexed": true,
          "internalType": "address",
          "name": "by",
          "type": "address"
        }
      ],
      "name": "FactoryPaused",
      "type": "event"
    },
    {
      "anonymous": false,
      "inputs": [
        {
          "indexed": true,
          "internalType": "address",
          "name": "by",
          "type": "address"
        }
      ],
      "name": "FactoryUnpaused",
      "type": "event"
    },
    {
      "anonymous": false,
      "inputs": [
        {
          "indexed": true,
          "internalType": "address",
          "name": "oldImpl",
          "type": "address"
        },
        {
          "indexed": true,
          "internalType": "address",
          "name": "newImpl",
          "type": "address"
        }
      ],
      "name": "ImplementationUpdated",
      "type": "event"
    },
    {
      "anonymous": false,
      "inputs": [
        {
          "indexed": true,
          "internalType": "address",
          "name": "previousOwner",
          "type": "address"
        },
        {
          "indexed": true,
          "internalType": "address",
          "name": "newOwner",
          "type": "address"
        }
      ],
      "name": "OwnershipTransferred",
      "type": "event"
    },
    {
      "anonymous": false,
      "inputs": [
        {
          "indexed": true,
          "internalType": "address",
          "name": "product",
          "type": "address"
        },
        {
          "indexed": true,
          "internalType": "address",
          "name": "seller",
          "type": "address"
        },
        {
          "indexed": true,
          "internalType": "uint256",
          "name": "productId",
          "type": "uint256"
        },
        {
          "indexed": false,
          "internalType": "bytes32",
          "name": "priceCommitment",
          "type": "bytes32"
        },
        {
          "indexed": false,
          "internalType": "uint256",
          "name": "bondAmount",
          "type": "uint256"
        }
      ],
      "name": "ProductCreated",
      "type": "event"
    },
    {
      "stateMutability": "payable",
      "type": "fallback"
    },
    {
      "inputs": [],
      "name": "bondAmount",
      "outputs": [
        {
          "internalType": "uint256",
          "name": "",
          "type": "uint256"
        }
      ],
      "stateMutability": "view",
      "type": "function"
    },
    {
      "inputs": [],
      "name": "implementation",
      "outputs": [
        {
          "internalType": "address",
          "name": "",
          "type": "address"
        }
      ],
      "stateMutability": "view",
      "type": "function"
    },
    {
      "inputs": [],
      "name": "isPaused",
      "outputs": [
        {
          "internalType": "bool",
          "name": "",
          "type": "bool"
        }
      ],
      "stateMutability": "view",
      "type": "function"
    },
    {
      "inputs": [],
      "name": "owner",
      "outputs": [
        {
          "internalType": "address",
          "name": "",
          "type": "address"
        }
      ],
      "stateMutability": "view",
      "type": "function"
    },
    {
      "inputs": [],
      "name": "productCount",
      "outputs": [
        {
          "internalType": "uint256",
          "name": "",
          "type": "uint256"
        }
      ],
      "stateMutability": "view",
      "type": "function"
    },
    {
      "inputs": [
        {
          "internalType": "uint256",
          "name": "",
          "type": "uint256"
        }
      ],
      "name": "products",
      "outputs": [
        {
          "internalType": "address",
          "name": "",
          "type": "address"
        }
      ],
      "stateMutability": "view",
      "type": "function"
    },
    {
      "inputs": [],
      "name": "renounceOwnership",
      "outputs": [],
      "stateMutability": "nonpayable",
      "type": "function"
    },
    {
      "inputs": [
        {
          "internalType": "address",
          "name": "newOwner",
          "type": "address"
        }
      ],
      "name": "transferOwnership",
      "outputs": [],
      "stateMutability": "nonpayable",
      "type": "function"
    },
    {
      "stateMutability": "payable",
      "type": "receive"
    },
    {
      "inputs": [
        {
          "internalType": "address",
          "name": "_impl",
          "type": "address"
        }
      ],
      "name": "setImplementation",
      "outputs": [],
      "stateMutability": "nonpayable",
      "type": "function"
    },
    {
      "inputs": [
        {
          "internalType": "uint256",
          "name": "_amount",
          "type": "uint256"
        }
      ],
      "name": "setBondAmount",
      "outputs": [],
      "stateMutability": "nonpayable",
      "type": "function"
    },
    {
      "inputs": [],
      "name": "pause",
      "outputs": [],
      "stateMutability": "nonpayable",
      "type": "function"
    },
    {
      "inputs": [],
      "name": "unpause",
      "outputs": [],
      "stateMutability": "nonpayable",
      "type": "function"
    },
    {
      "inputs": [
        {
          "internalType": "string",
          "name": "name",
          "type": "string"
        },
        {
          "internalType": "bytes32",
          "name": "priceCommitment",
          "type": "bytes32"
        }
      ],
      "name": "createProduct",
      "outputs": [
        {
          "internalType": "address",
          "name": "product",
          "type": "address"
        }
      ],
      "stateMutability": "payable",
      "type": "function"
    },
    {
      "inputs": [
        {
          "internalType": "string",
          "name": "name",
          "type": "string"
        },
        {
          "internalType": "bytes32",
          "name": "priceCommitment",
          "type": "bytes32"
        },
        {
          "internalType": "bytes32",
          "name": "salt",
          "type": "bytes32"
        }
      ],
      "name": "createProductDeterministic",
      "outputs": [
        {
          "internalType": "address",
          "name": "product",
          "type": "address"
        }
      ],
      "stateMutability": "payable",
      "type": "function"
    },
    {
      "inputs": [
        {
          "internalType": "bytes32",
          "name": "salt",
          "type": "bytes32"
        }
      ],
      "name": "predictProductAddress",
      "outputs": [
        {
          "internalType": "address",
          "name": "",
          "type": "address"
        }
      ],
      "stateMutability": "view",
      "type": "function"
    },
    {
      "inputs": [
        {
          "internalType": "uint256",
          "name": "start",
          "type": "uint256"
        },
        {
          "internalType": "uint256",
          "name": "count",
          "type": "uint256"
        }
      ],
      "name": "getProductsRange",
      "outputs": [
        {
          "internalType": "address[]",
          "name": "",
          "type": "address[]"
        }
      ],
      "stateMutability": "view",
      "type": "function"
    },
    {
      "inputs": [],
      "name": "getProductCount",
      "outputs": [
        {
          "internalType": "uint256",
          "name": "",
          "type": "uint256"
        }
      ],
      "stateMutability": "view",
      "type": "function"
    },
    {
      "inputs": [],
      "name": "getProducts",
      "outputs": [
        {
          "internalType": "address[]",
          "name": "",
          "type": "address[]"
        }
      ],
      "stateMutability": "view",
      "type": "function"
    },
    {
      "inputs": [
        {
          "internalType": "address",
          "name": "_seller",
          "type": "address"
        }
      ],
      "name": "getProductsBySeller",
      "outputs": [
        {
          "internalType": "address[]",
          "name": "",
          "type": "address[]"
        }
      ],
      "stateMutability": "view",
      "type": "function"
    }
  ],
  "bytecode": "0x608060405234801561000f575f80fd5b5060405161135938038061135983398101604081905261002e91610121565b338061005357604051631e4fbdf760e01b81525f600482015260240160405180910390fd5b61005c816100d2565b506001600160a01b0381166100845760405163325c055b60e21b815260040160405180910390fd5b600180546001600160a01b0319166001600160a01b0383169081179091556040515f907faa3f731066a578e5f39b4215468d826cdd15373cbc0dfc9cb9bdc649718ef7da908290a35061014e565b5f80546001600160a01b038381166001600160a01b0319831681178455604051919092169283917f8be0079c531659141344cd1fd0a4f28419497f9722a3daafe3b4186f6b6457e09190a35050565b5f60208284031215610131575f80fd5b81516001600160a01b0381168114610147575f80fd5b9392505050565b6111fe8061015b5f395ff3fe608060405260043610610117575f3560e01c806380f323a71161009f578063bacdafe011610063578063bacdafe014610352578063c29b2f2014610371578063d784d42614610385578063e0f6ef87146103a4578063f2fde38b146103b957610169565b806380f323a7146102d15780638456cb59146102e65780638ad2643e146102fa5780638da5cb5b1461030d578063b187bd261461032957610169565b80634c7d5d47116100e65780634c7d5d47146102405780635c60da1b14610253578063715018a614610272578063749ab9c2146102865780637acc0b20146102b257610169565b80631a881285146101b157806328f9f3e6146101ed5780633f4ba83a1461020e5780634a348da91461022257610169565b366101695760405162461bcd60e51b815260206004820152601b60248201527f466163746f727920646f6573206e6f742061636365707420455448000000000060448201526064015b60405180910390fd5b60405162461bcd60e51b815260206004820152601b60248201527f466163746f727920646f6573206e6f74206163636570742045544800000000006044820152606401610160565b3480156101bc575f80fd5b506101d06101cb366004610edf565b6103d8565b6040516001600160a01b0390911681526020015b60405180910390f35b3480156101f8575f80fd5b5061020c610207366004610edf565b610446565b005b348015610219575f80fd5b5061020c6104a9565b34801561022d575f80fd5b506002545b6040519081526020016101e4565b6101d061024e366004610f93565b6104e7565b34801561025e575f80fd5b506001546101d0906001600160a01b031681565b34801561027d575f80fd5b5061020c610675565b348015610291575f80fd5b506102a56102a0366004610fdd565b610688565b6040516101e49190610ffd565b3480156102bd575f80fd5b506101d06102cc366004610edf565b6107c2565b3480156102dc575f80fd5b5061023260045481565b3480156102f1575f80fd5b5061020c6107ea565b6101d0610308366004611049565b61082b565b348015610318575f80fd5b505f546001600160a01b03166101d0565b348015610334575f80fd5b506003546103429060ff1681565b60405190151581526020016101e4565b34801561035d575f80fd5b506102a561036c36600461109f565b6109b7565b34801561037c575f80fd5b506102a5610c00565b348015610390575f80fd5b5061020c61039f36600461109f565b610c60565b3480156103af575f80fd5b5061023260025481565b3480156103c4575f80fd5b5061020c6103d336600461109f565b610ce0565b6001546040513060388201526f5af43d82803e903d91602b57fd5bf3ff60248201526001600160a01b039182166014820152733d602d80600a3d3981f3363d3d373d3d3d363d738152605881018390526037600c820120607882015260556043909101205f91165b92915050565b61044e610d1d565b805f0361046e57604051634f6a031d60e01b815260040160405180910390fd5b60048190556040518181527fa15246e54ef77ae7edbf99b267138a83931b938b03e9f853067299eddb4099a79060200160405180910390a150565b6104b1610d1d565b6003805460ff1916905560405133907f5dd33ddbee1b2bb2cfe2e04a15fcc4e2071c141d15e24d1fe1b5d6b80f355c0c905f90a2565b6003545f9060ff161561050d576040516317011d6f60e31b815260040160405180910390fd5b6004545f0361052f576040516373cc556160e11b815260040160405180910390fd5b600454341461055157604051638620aa1960e01b815260040160405180910390fd5b600154610567906001600160a01b031683610d49565b600280546001019081905560048054604051636c152e6360e11b81529394506001600160a01b0385169363d82a5cc69334936105ad9391928b928b9233923091016110ba565b5f604051808303818588803b1580156105c4575f80fd5b505af11580156105d6573d5f803e3d5ffd5b5050600580546001810182555f919091527f036b6384b5eca791c62761152d0c79bb0604c104a5fb6f4eb0703f3154bb3db00180546001600160a01b0319166001600160a01b038616908117909155600254600454604080518a815260208101929092529195503394509192507f05216afaf652b951e6dea4f3e9d898c3b338febfa3fe733ab813122d67f86117910160405180910390a49392505050565b61067d610d1d565b6106865f610d5c565b565b60055460609083106106dc5760405162461bcd60e51b815260206004820152601960248201527f537461727420696e646578206f7574206f6620626f756e6473000000000000006044820152606401610160565b5f6106e7838561115b565b6005549091508111156106f957506005545b5f610704858361116e565b90505f8167ffffffffffffffff81111561072057610720610ef6565b604051908082528060200260200182016040528015610749578160200160208202803683370190505b509050855b838110156107b8576005818154811061076957610769611181565b905f5260205f20015f9054906101000a90046001600160a01b0316828883038151811061079857610798611181565b6001600160a01b039092166020928302919091019091015260010161074e565b5095945050505050565b600581815481106107d1575f80fd5b5f918252602090912001546001600160a01b0316905081565b6107f2610d1d565b6003805460ff1916600117905560405133907ff7ab4f18771ba1e5f8db30e61ceed7bc8096937655edc7b3cae25a61921f4a1e905f90a2565b6003545f9060ff1615610851576040516317011d6f60e31b815260040160405180910390fd5b6004545f03610873576040516373cc556160e11b815260040160405180910390fd5b600454341461089557604051638620aa1960e01b815260040160405180910390fd5b6001546108aa906001600160a01b0316610dab565b600280546001019081905560048054604051636c152e6360e11b81529394506001600160a01b0385169363d82a5cc69334936108f09391928a928a9233923091016110ba565b5f604051808303818588803b158015610907575f80fd5b505af1158015610919573d5f803e3d5ffd5b5050600580546001810182555f919091527f036b6384b5eca791c62761152d0c79bb0604c104a5fb6f4eb0703f3154bb3db00180546001600160a01b0319166001600160a01b0386169081179091556002546004546040805189815260208101929092529195503394509192507f05216afaf652b951e6dea4f3e9d898c3b338febfa3fe733ab813122d67f86117910160405180910390a492915050565b60605f805b600554811015610a8257600581815481106109d9576109d9611181565b5f918252602091829020015460408051638da5cb5b60e01b815290516001600160a01b0390921692638da5cb5b926004808401938290030181865afa925050508015610a42575060408051601f3d908101601f19168201909252610a3f91810190611195565b60015b15610a7057846001600160a01b0316816001600160a01b031603610a6e5782610a6a816111b0565b9350505b505b80610a7a816111b0565b9150506109bc565b505f8167ffffffffffffffff811115610a9d57610a9d610ef6565b604051908082528060200260200182016040528015610ac6578160200160208202803683370190505b5090505f805b600554811015610bf65760058181548110610ae957610ae9611181565b5f918252602091829020015460408051638da5cb5b60e01b815290516001600160a01b0390921692638da5cb5b926004808401938290030181865afa925050508015610b52575060408051601f3d908101601f19168201909252610b4f91810190611195565b60015b15610be457866001600160a01b0316816001600160a01b0316148015610b7757508483105b15610be25760058281548110610b8f57610b8f611181565b905f5260205f20015f9054906101000a90046001600160a01b0316848481518110610bbc57610bbc611181565b6001600160a01b039092166020928302919091019091015282610bde816111b0565b9350505b505b80610bee816111b0565b915050610acc565b5090949350505050565b60606005805480602002602001604051908101604052809291908181526020018280548015610c5657602002820191905f5260205f20905b81546001600160a01b03168152600190910190602001808311610c38575b5050505050905090565b610c68610d1d565b6001600160a01b038116610c8f5760405163325c055b60e21b815260040160405180910390fd5b600180546001600160a01b038381166001600160a01b0319831681179093556040519116919082907faa3f731066a578e5f39b4215468d826cdd15373cbc0dfc9cb9bdc649718ef7da905f90a35050565b610ce8610d1d565b6001600160a01b038116610d1157604051631e4fbdf760e01b81525f6004820152602401610160565b610d1a81610d5c565b50565b5f546001600160a01b031633146106865760405163118cdaa760e01b8152336004820152602401610160565b5f610d5583835f610db6565b9392505050565b5f80546001600160a01b038381166001600160a01b0319831681178455604051919092169283917f8be0079c531659141344cd1fd0a4f28419497f9722a3daafe3b4186f6b6457e09190a35050565b5f610440825f610e4b565b5f81471015610de15760405163cf47918160e01b815247600482015260248101839052604401610160565b763d602d80600a3d3981f3363d3d373d3d3d363d730000008460601b60e81c175f526e5af43d82803e903d91602b57fd5bf38460781b17602052826037600984f590506001600160a01b038116610d555760405163b06ebf3d60e01b815260040160405180910390fd5b5f81471015610e765760405163cf47918160e01b815247600482015260248101839052604401610160565b763d602d80600a3d3981f3363d3d373d3d3d363d730000008360601b60e81c175f526e5af43d82803e903d91602b57fd5bf38360781b176020526037600983f090506001600160a01b0381166104405760405163b06ebf3d60e01b815260040160405180910390fd5b5f60208284031215610eef575f80fd5b5035919050565b634e487b7160e01b5f52604160045260245ffd5b5f82601f830112610f19575f80fd5b813567ffffffffffffffff80821115610f3457610f34610ef6565b604051601f8301601f19908116603f01168101908282118183101715610f5c57610f5c610ef6565b81604052838152866020858801011115610f74575f80fd5b836020870160208301375f602085830101528094505050505092915050565b5f805f60608486031215610fa5575f80fd5b833567ffffffffffffffff811115610fbb575f80fd5b610fc786828701610f0a565b9660208601359650604090950135949350505050565b5f8060408385031215610fee575f80fd5b50508035926020909101359150565b602080825282518282018190525f9190848201906040850190845b8181101561103d5783516001600160a01b031683529284019291840191600101611018565b50909695505050505050565b5f806040838503121561105a575f80fd5b823567ffffffffffffffff811115611070575f80fd5b61107c85828601610f0a565b95602094909401359450505050565b6001600160a01b0381168114610d1a575f80fd5b5f602082840312156110af575f80fd5b8135610d558161108b565b8681525f602060c08184015287518060c08501525f5b818110156110ec5789810183015185820160e0015282016110d0565b505f60e0828601015260e0601f19601f8301168501019250505085604083015261112160608301866001600160a01b03169052565b83608083015261113c60a08301846001600160a01b03169052565b979650505050505050565b634e487b7160e01b5f52601160045260245ffd5b8082018082111561044057610440611147565b8181038181111561044057610440611147565b634e487b7160e01b5f52603260045260245ffd5b5f602082840312156111a5575f80fd5b8151610d558161108b565b5f600182016111c1576111c1611147565b506001019056fea26469706673582212202b2ce47171bb27dfd831cf0884dd3bed9d1bbb3d445cb92e14e1644d9bffa59164736f6c63430008150033",
  "immutableReferences": {},
  "source": "// SPDX-License-Identifier: MIT\r\npragma solidity ^0.8.0;\r\n\r\nimport \"@openzeppelin/contracts/proxy/Clones.sol\";\r\nimport \"@openzeppelin/contracts/access/Ownable.sol\";\r\nimport \"./ProductEscrow_Initializer.sol\";\r\n\r\n// Interface for calling ProductEscrow functions without casting issues\r\ninterface IProductEscrowOwner {\r\n    function owner() external view returns (address payable);\r\n}\r\n\r\n// Standardized custom errors for gas efficiency and consistency\r\nerror InvalidImplementationAddress();\r\nerror FactoryIsPaused();\r\nerror BondAmountNotSet();\r\nerror BondAmountZero();\r\nerror IncorrectBondAmount();\r\n\r\ncontract ProductFactory is Ownable {\r\n    using Clones for address;\r\n\r\n    event ProductCreated(address indexed product, address indexed seller, uint256 indexed productId, bytes32 priceCommitment, uint256 bondAmount);\r\n    event ImplementationUpdated(address indexed oldImpl, address indexed newImpl);\r\n    event FactoryPaused(address indexed by);\r\n    event FactoryUnpaused(address indexed by);\r\n    event BondAmountUpdated(uint256 newAmount);\r\n\r\n    // Packed storage for gas optimization\r\n    address public implementation;\r\n    uint256 public productCount;\r\n    bool public isPaused; // Lightweight pause mechanism (factory-level only)\r\n    uint256 public bondAmount; // Configurable bond amount for seller and transporter\r\n\r\n    // Paged getter for dev convenience (optional, not main indexing)\r\n    address[] public products;\r\n\r\n    constructor(address _impl) Ownable(msg.sender) {\r\n        if (_impl == address(0)) revert InvalidImplementationAddress();\r\n        implementation = _impl;\r\n        emit ImplementationUpdated(address(0), _impl);\r\n    }\r\n\r\n    modifier whenNotPaused() {\r\n        if (isPaused) revert FactoryIsPaused();\r\n        _;\r\n    }\r\n\r\n    // Alias for the suggested function name\r\n    function setImplementation(address _impl) external onlyOwner {\r\n        if (_impl == address(0)) revert InvalidImplementationAddress();\r\n        address oldImpl = implementation;\r\n        implementation = _impl;\r\n        emit ImplementationUpdated(oldImpl, _impl);\r\n    }\r\n\r\n    /// @notice Set the required bond amount for seller and transporter.\r\n    /// @param _amount Bond amount in wei (must be > 0)\r\n    function setBondAmount(uint256 _amount) external onlyOwner {\r\n        if (_amount == 0) revert BondAmountZero();\r\n        bondAmount = _amount;\r\n        emit BondAmountUpdated(_amount);\r\n    }\r\n\r\n    function pause() external onlyOwner {\r\n        isPaused = true;\r\n        emit FactoryPaused(msg.sender);\r\n    }\r\n\r\n    function unpause() external onlyOwner {\r\n        isPaused = false;\r\n        emit FactoryUnpaused(msg.sender);\r\n    }\r\n\r\n    /// @notice Create a new product escrow. Seller sends bond as msg.value.\r\n    /// @param name Product name\r\n    /// @param priceCommitment Confidential price commitment (keccak256 hash)\r\n    /// @return product Address of the newly created escrow clone\r\n    function createProduct(string memory name, bytes32 priceCommitment)\r\n        external\r\n        payable\r\n        whenNotPaused\r\n        returns (address product)\r\n    {\r\n        if (bondAmount == 0) revert BondAmountNotSet();\r\n        if (msg.value != bondAmount) revert IncorrectBondAmount();\r\n\r\n        product = implementation.clone();\r\n\r\n        // Use unchecked for safe increment\r\n        unchecked {\r\n            productCount++;\r\n        }\r\n\r\n        // Initialize the clone and forward seller bond as msg.value\r\n        ProductEscrow_Initializer(payable(product)).initialize{value: msg.value}(\r\n            productCount,\r\n            name,\r\n            priceCommitment,\r\n            msg.sender,\r\n            bondAmount,\r\n            address(this)\r\n        );\r\n\r\n        // Store for optional paged access (dev convenience)\r\n        products.push(product);\r\n\r\n        emit ProductCreated(product, msg.sender, productCount, priceCommitment, bondAmount);\r\n    }\r\n\r\n    /// @notice Create a new product escrow at a deterministic address. Seller sends bond as msg.value.\r\n    /// @param name Product name\r\n    /// @param priceCommitment Confidential price commitment (keccak256 hash)\r\n    /// @param salt Salt for deterministic clone address\r\n    /// @return product Address of the newly created escrow clone\r\n    function createProductDeterministic(\r\n        string memory name,\r\n        bytes32 priceCommitment,\r\n        bytes32 salt\r\n    )\r\n        external\r\n        payable\r\n        whenNotPaused\r\n        returns (address product)\r\n    {\r\n        if (bondAmount == 0) revert BondAmountNotSet();\r\n        if (msg.value != bondAmount) revert IncorrectBondAmount();\r\n\r\n        product = implementation.cloneDeterministic(salt);\r\n\r\n        // Use unchecked for safe increment\r\n        unchecked {\r\n            productCount++;\r\n        }\r\n\r\n        // Initialize the clone and forward seller bond as msg.value\r\n        ProductEscrow_Initializer(payable(product)).initialize{value: msg.value}(\r\n            productCount,\r\n            name,\r\n            priceCommitment,\r\n            msg.sender,\r\n            bondAmount,\r\n            address(this)\r\n        );\r\n\r\n        // Store for optional paged access (dev convenience)\r\n        products.push(product);\r\n\r\n        emit ProductCreated(product, msg.sender, productCount, priceCommitment, bondAmount);\r\n    }\r\n\r\n    function predictProductAddress(bytes32 salt) public view returns (address) {\r\n        return Clones.predictDeterministicAddress(implementation, salt, address(this));\r\n    }\r\n\r\n    // Optional paged getter for dev convenience (not main indexing)\r\n    // Optimized to avoid unbounded loops in write operations\r\n    function getProductsRange(uint256 start, uint256 count) public view returns (address[] memory) {\r\n        require(start < products.length, \"Start index out of bounds\");\r\n        uint256 end = start + count;\r\n        if (end > products.length) {\r\n            end = products.length;\r\n        }\r\n\r\n        uint256 resultLength = end - start;\r\n        address[] memory result = new address[](resultLength);\r\n\r\n        // Use unchecked for safe loop operations\r\n        unchecked {\r\n            for (uint256 i = start; i < end; i++) {\r\n                result[i - start] = products[i];\r\n            }\r\n        }\r\n\r\n        return result;\r\n    }\r\n\r\n    // Gas-efficient getter for total products (alternative to array.length)\r\n    function getProductCount() public view returns (uint256) {\r\n        return productCount;\r\n    }\r\n\r\n    // Gas-efficient getter for all products (alternative to array access)\r\n    function getProducts() public view returns (address[] memory) {\r\n        return products;\r\n    }\r\n\r\n    // Get products by seller (fixed implementation)\r\n    function getProductsBySeller(address _seller) public view returns (address[] memory) {\r\n        uint256 count = 0;\r\n\r\n        // First pass: count products by this seller\r\n        for (uint256 i = 0; i < products.length; i++) {\r\n            try IProductEscrowOwner(products[i]).owner() returns (address payable _owner) {\r\n                if (_owner == _seller) {\r\n                    count++;\r\n                }\r\n            } catch {\r\n                // Skip if product is not properly initialized\r\n                continue;\r\n            }\r\n        }\r\n\r\n        // Second pass: collect product addresses\r\n        address[] memory sellerProducts = new address[](count);\r\n        uint256 index = 0;\r\n\r\n        for (uint256 i = 0; i < products.length; i++) {\r\n            try IProductEscrowOwner(products[i]).owner() returns (address payable _owner) {\r\n                if (_owner == _seller && index < count) {\r\n                    sellerProducts[index] = products[i];\r\n                    index++;\r\n                }\r\n            } catch {\r\n                continue;\r\n            }\r\n        }\r\n\r\n        return sellerProducts;\r\n    }\r\n\r\n    // Explicitly reject unexpected ETH\r\n    receive() external payable {\r\n        revert(\"Factory does not accept ETH\");\r\n    }\r\n\r\n    fallback() external payable {\r\n        revert(\"Factory does not accept ETH\");\r\n    }\r\n}\r\n",
  "sourcePath": "C:\\Users\\yamen\\ev-battery-supplychain\\contracts\\ProductFactory.sol",
  "compiler": {
    "name": "solc",
    "version": "0.8.21+commit.d9974bed.Emscripten.clang"
  },
  "schemaVersion": "3.4.16",
  "updatedAt": "2026-02-18T19:48:27.518Z",
  "devdoc": {
    "errors": {
      "FailedDeployment()": [
        {
          "details": "The deployment failed."
        }
      ],
      "InsufficientBalance(uint256,uint256)": [
        {
          "details": "The ETH balance of the account is not enough to perform the operation."
        }
      ],
      "OwnableInvalidOwner(address)": [
        {
          "details": "The owner is not a valid owner account. (eg. `address(0)`)"
        }
      ],
      "OwnableUnauthorizedAccount(address)": [
        {
          "details": "The caller account is not authorized to perform an operation."
        }
      ]
    },
    "kind": "dev",
    "methods": {
      "createProduct(string,bytes32)": {
        "params": {
          "name": "Product name",
          "priceCommitment": "Confidential price commitment (keccak256 hash)"
        },
        "returns": {
          "product": "Address of the newly created escrow clone"
        }
      },
      "createProductDeterministic(string,bytes32,bytes32)": {
        "params": {
          "name": "Product name",
          "priceCommitment": "Confidential price commitment (keccak256 hash)",
          "salt": "Salt for deterministic clone address"
        },
        "returns": {
          "product": "Address of the newly created escrow clone"
        }
      },
      "owner()": {
        "details": "Returns the address of the current owner."
      },
      "renounceOwnership()": {
        "details": "Leaves the contract without owner. It will not be possible to call `onlyOwner` functions. Can only be called by the current owner. NOTE: Renouncing ownership will leave the contract without an owner, thereby disabling any functionality that is only available to the owner."
      },
      "setBondAmount(uint256)": {
        "params": {
          "_amount": "Bond amount in wei (must be > 0)"
        }
      },
      "transferOwnership(address)": {
        "details": "Transfers ownership of the contract to a new account (`newOwner`). Can only be called by the current owner."
      }
    },
    "version": 1
  },
  "userdoc": {
    "kind": "user",
    "methods": {
      "createProduct(string,bytes32)": {
        "notice": "Create a new product escrow. Seller sends bond as msg.value."
      },
      "createProductDeterministic(string,bytes32,bytes32)": {
        "notice": "Create a new product escrow at a deterministic address. Seller sends bond as msg.value."
      },
      "setBondAmount(uint256)": {
        "notice": "Set the required bond amount for seller and transporter."
      }
    },
    "version": 1
  }
}