{
  "contractName": "ProductFactory",
  "abi": [
    {
      "inputs": [
        {
          "internalType": "address",
          "name": "_impl",
          "type": "address"
        }
      ],
      "stateMutability": "nonpayable",
      "type": "constructor"
    },
    {
      "inputs": [],
      "name": "BondAmountNotSet",
      "type": "error"
    },
    {
      "inputs": [],
      "name": "BondAmountZero",
      "type": "error"
    },
    {
      "inputs": [],
      "name": "FactoryIsPaused",
      "type": "error"
    },
    {
      "inputs": [],
      "name": "FailedDeployment",
      "type": "error"
    },
    {
      "inputs": [],
      "name": "IncorrectBondAmount",
      "type": "error"
    },
    {
      "inputs": [
        {
          "internalType": "uint256",
          "name": "balance",
          "type": "uint256"
        },
        {
          "internalType": "uint256",
          "name": "needed",
          "type": "uint256"
        }
      ],
      "name": "InsufficientBalance",
      "type": "error"
    },
    {
      "inputs": [],
      "name": "InvalidImplementationAddress",
      "type": "error"
    },
    {
      "inputs": [
        {
          "internalType": "address",
          "name": "owner",
          "type": "address"
        }
      ],
      "name": "OwnableInvalidOwner",
      "type": "error"
    },
    {
      "inputs": [
        {
          "internalType": "address",
          "name": "account",
          "type": "address"
        }
      ],
      "name": "OwnableUnauthorizedAccount",
      "type": "error"
    },
    {
      "inputs": [],
      "name": "ZeroUnitPriceHash",
      "type": "error"
    },
    {
      "anonymous": false,
      "inputs": [
        {
          "indexed": false,
          "internalType": "uint256",
          "name": "newAmount",
          "type": "uint256"
        }
      ],
      "name": "BondAmountUpdated",
      "type": "event"
    },
    {
      "anonymous": false,
      "inputs": [
        {
          "indexed": true,
          "internalType": "address",
          "name": "by",
          "type": "address"
        }
      ],
      "name": "FactoryPaused",
      "type": "event"
    },
    {
      "anonymous": false,
      "inputs": [
        {
          "indexed": true,
          "internalType": "address",
          "name": "by",
          "type": "address"
        }
      ],
      "name": "FactoryUnpaused",
      "type": "event"
    },
    {
      "anonymous": false,
      "inputs": [
        {
          "indexed": true,
          "internalType": "address",
          "name": "oldImpl",
          "type": "address"
        },
        {
          "indexed": true,
          "internalType": "address",
          "name": "newImpl",
          "type": "address"
        }
      ],
      "name": "ImplementationUpdated",
      "type": "event"
    },
    {
      "anonymous": false,
      "inputs": [
        {
          "indexed": true,
          "internalType": "address",
          "name": "previousOwner",
          "type": "address"
        },
        {
          "indexed": true,
          "internalType": "address",
          "name": "newOwner",
          "type": "address"
        }
      ],
      "name": "OwnershipTransferred",
      "type": "event"
    },
    {
      "anonymous": false,
      "inputs": [
        {
          "indexed": true,
          "internalType": "address",
          "name": "product",
          "type": "address"
        },
        {
          "indexed": true,
          "internalType": "address",
          "name": "seller",
          "type": "address"
        },
        {
          "indexed": true,
          "internalType": "uint256",
          "name": "productId",
          "type": "uint256"
        },
        {
          "indexed": false,
          "internalType": "bytes32",
          "name": "priceCommitment",
          "type": "bytes32"
        },
        {
          "indexed": false,
          "internalType": "uint256",
          "name": "bondAmount",
          "type": "uint256"
        }
      ],
      "name": "ProductCreated",
      "type": "event"
    },
    {
      "anonymous": false,
      "inputs": [
        {
          "indexed": true,
          "internalType": "address",
          "name": "product",
          "type": "address"
        },
        {
          "indexed": true,
          "internalType": "address",
          "name": "seller",
          "type": "address"
        },
        {
          "indexed": true,
          "internalType": "uint256",
          "name": "productId",
          "type": "uint256"
        },
        {
          "indexed": false,
          "internalType": "bytes32",
          "name": "priceCommitment",
          "type": "bytes32"
        },
        {
          "indexed": false,
          "internalType": "bytes32",
          "name": "unitPriceHash",
          "type": "bytes32"
        },
        {
          "indexed": false,
          "internalType": "uint256",
          "name": "bondAmount",
          "type": "uint256"
        }
      ],
      "name": "ProductCreatedV2",
      "type": "event"
    },
    {
      "stateMutability": "payable",
      "type": "fallback",
      "payable": true
    },
    {
      "inputs": [],
      "name": "bondAmount",
      "outputs": [
        {
          "internalType": "uint256",
          "name": "",
          "type": "uint256"
        }
      ],
      "stateMutability": "view",
      "type": "function",
      "constant": true
    },
    {
      "inputs": [],
      "name": "implementation",
      "outputs": [
        {
          "internalType": "address",
          "name": "",
          "type": "address"
        }
      ],
      "stateMutability": "view",
      "type": "function",
      "constant": true
    },
    {
      "inputs": [],
      "name": "isPaused",
      "outputs": [
        {
          "internalType": "bool",
          "name": "",
          "type": "bool"
        }
      ],
      "stateMutability": "view",
      "type": "function",
      "constant": true
    },
    {
      "inputs": [],
      "name": "owner",
      "outputs": [
        {
          "internalType": "address",
          "name": "",
          "type": "address"
        }
      ],
      "stateMutability": "view",
      "type": "function",
      "constant": true
    },
    {
      "inputs": [],
      "name": "productCount",
      "outputs": [
        {
          "internalType": "uint256",
          "name": "",
          "type": "uint256"
        }
      ],
      "stateMutability": "view",
      "type": "function",
      "constant": true
    },
    {
      "inputs": [
        {
          "internalType": "uint256",
          "name": "",
          "type": "uint256"
        }
      ],
      "name": "products",
      "outputs": [
        {
          "internalType": "address",
          "name": "",
          "type": "address"
        }
      ],
      "stateMutability": "view",
      "type": "function",
      "constant": true
    },
    {
      "inputs": [],
      "name": "renounceOwnership",
      "outputs": [],
      "stateMutability": "nonpayable",
      "type": "function"
    },
    {
      "inputs": [
        {
          "internalType": "address",
          "name": "newOwner",
          "type": "address"
        }
      ],
      "name": "transferOwnership",
      "outputs": [],
      "stateMutability": "nonpayable",
      "type": "function"
    },
    {
      "stateMutability": "payable",
      "type": "receive",
      "payable": true
    },
    {
      "inputs": [
        {
          "internalType": "address",
          "name": "_impl",
          "type": "address"
        }
      ],
      "name": "setImplementation",
      "outputs": [],
      "stateMutability": "nonpayable",
      "type": "function"
    },
    {
      "inputs": [
        {
          "internalType": "uint256",
          "name": "_amount",
          "type": "uint256"
        }
      ],
      "name": "setBondAmount",
      "outputs": [],
      "stateMutability": "nonpayable",
      "type": "function"
    },
    {
      "inputs": [],
      "name": "pause",
      "outputs": [],
      "stateMutability": "nonpayable",
      "type": "function"
    },
    {
      "inputs": [],
      "name": "unpause",
      "outputs": [],
      "stateMutability": "nonpayable",
      "type": "function"
    },
    {
      "inputs": [
        {
          "internalType": "string",
          "name": "name",
          "type": "string"
        },
        {
          "internalType": "bytes32",
          "name": "priceCommitment",
          "type": "bytes32"
        }
      ],
      "name": "createProduct",
      "outputs": [
        {
          "internalType": "address",
          "name": "product",
          "type": "address"
        }
      ],
      "stateMutability": "payable",
      "type": "function",
      "payable": true
    },
    {
      "inputs": [
        {
          "internalType": "string",
          "name": "name",
          "type": "string"
        },
        {
          "internalType": "bytes32",
          "name": "unitPriceHash",
          "type": "bytes32"
        }
      ],
      "name": "createProductV2",
      "outputs": [
        {
          "internalType": "address",
          "name": "product",
          "type": "address"
        }
      ],
      "stateMutability": "payable",
      "type": "function",
      "payable": true
    },
    {
      "inputs": [
        {
          "internalType": "string",
          "name": "name",
          "type": "string"
        },
        {
          "internalType": "bytes32",
          "name": "priceCommitment",
          "type": "bytes32"
        },
        {
          "internalType": "bytes32",
          "name": "salt",
          "type": "bytes32"
        }
      ],
      "name": "createProductDeterministic",
      "outputs": [
        {
          "internalType": "address",
          "name": "product",
          "type": "address"
        }
      ],
      "stateMutability": "payable",
      "type": "function",
      "payable": true
    },
    {
      "inputs": [
        {
          "internalType": "bytes32",
          "name": "salt",
          "type": "bytes32"
        }
      ],
      "name": "predictProductAddress",
      "outputs": [
        {
          "internalType": "address",
          "name": "",
          "type": "address"
        }
      ],
      "stateMutability": "view",
      "type": "function",
      "constant": true
    },
    {
      "inputs": [
        {
          "internalType": "uint256",
          "name": "start",
          "type": "uint256"
        },
        {
          "internalType": "uint256",
          "name": "count",
          "type": "uint256"
        }
      ],
      "name": "getProductsRange",
      "outputs": [
        {
          "internalType": "address[]",
          "name": "",
          "type": "address[]"
        }
      ],
      "stateMutability": "view",
      "type": "function",
      "constant": true
    },
    {
      "inputs": [],
      "name": "getProductCount",
      "outputs": [
        {
          "internalType": "uint256",
          "name": "",
          "type": "uint256"
        }
      ],
      "stateMutability": "view",
      "type": "function",
      "constant": true
    },
    {
      "inputs": [],
      "name": "getProducts",
      "outputs": [
        {
          "internalType": "address[]",
          "name": "",
          "type": "address[]"
        }
      ],
      "stateMutability": "view",
      "type": "function",
      "constant": true
    },
    {
      "inputs": [
        {
          "internalType": "address",
          "name": "_seller",
          "type": "address"
        }
      ],
      "name": "getProductsBySeller",
      "outputs": [
        {
          "internalType": "address[]",
          "name": "",
          "type": "address[]"
        }
      ],
      "stateMutability": "view",
      "type": "function",
      "constant": true
    }
  ],
  "bytecode": "0x608060405234801561000f575f80fd5b5060405161164338038061164383398101604081905261002e91610121565b338061005357604051631e4fbdf760e01b81525f600482015260240160405180910390fd5b61005c816100d2565b506001600160a01b0381166100845760405163325c055b60e21b815260040160405180910390fd5b600180546001600160a01b0319166001600160a01b0383169081179091556040515f907faa3f731066a578e5f39b4215468d826cdd15373cbc0dfc9cb9bdc649718ef7da908290a35061014e565b5f80546001600160a01b038381166001600160a01b0319831681178455604051919092169283917f8be0079c531659141344cd1fd0a4f28419497f9722a3daafe3b4186f6b6457e09190a35050565b5f60208284031215610131575f80fd5b81516001600160a01b0381168114610147575f80fd5b9392505050565b6114e88061015b5f395ff3fe608060405260043610610122575f3560e01c80638456cb591161009f578063c29b2f2011610063578063c29b2f201461037c578063d784d42614610390578063e0f6ef87146103af578063f2fde38b146103c4578063f7172630146103e357610174565b80638456cb59146102f15780638ad2643e146103055780638da5cb5b14610318578063b187bd2614610334578063bacdafe01461035d57610174565b80635c60da1b116100e65780635c60da1b1461025e578063715018a61461027d578063749ab9c2146102915780637acc0b20146102bd57806380f323a7146102dc57610174565b80631a881285146101bc57806328f9f3e6146101f85780633f4ba83a146102195780634a348da91461022d5780634c7d5d471461024b57610174565b366101745760405162461bcd60e51b815260206004820152601b60248201527f466163746f727920646f6573206e6f742061636365707420455448000000000060448201526064015b60405180910390fd5b60405162461bcd60e51b815260206004820152601b60248201527f466163746f727920646f6573206e6f7420616363657074204554480000000000604482015260640161016b565b3480156101c7575f80fd5b506101db6101d6366004611130565b6103f6565b6040516001600160a01b0390911681526020015b60405180910390f35b348015610203575f80fd5b50610217610212366004611130565b610464565b005b348015610224575f80fd5b506102176104c7565b348015610238575f80fd5b506002545b6040519081526020016101ef565b6101db6102593660046111e4565b610505565b348015610269575f80fd5b506001546101db906001600160a01b031681565b348015610288575f80fd5b50610217610693565b34801561029c575f80fd5b506102b06102ab36600461122e565b6106a6565b6040516101ef919061124e565b3480156102c8575f80fd5b506101db6102d7366004611130565b6107e0565b3480156102e7575f80fd5b5061023d60045481565b3480156102fc575f80fd5b50610217610808565b6101db61031336600461129a565b610849565b348015610323575f80fd5b505f546001600160a01b03166101db565b34801561033f575f80fd5b5060035461034d9060ff1681565b60405190151581526020016101ef565b348015610368575f80fd5b506102b06103773660046112f0565b6109d5565b348015610387575f80fd5b506102b0610c1e565b34801561039b575f80fd5b506102176103aa3660046112f0565b610c7e565b3480156103ba575f80fd5b5061023d60025481565b3480156103cf575f80fd5b506102176103de3660046112f0565b610cfe565b6101db6103f136600461129a565b610d3b565b6001546040513060388201526f5af43d82803e903d91602b57fd5bf3ff60248201526001600160a01b039182166014820152733d602d80600a3d3981f3363d3d373d3d3d363d738152605881018390526037600c820120607882015260556043909101205f91165b92915050565b61046c610f6e565b805f0361048c57604051634f6a031d60e01b815260040160405180910390fd5b60048190556040518181527fa15246e54ef77ae7edbf99b267138a83931b938b03e9f853067299eddb4099a79060200160405180910390a150565b6104cf610f6e565b6003805460ff1916905560405133907f5dd33ddbee1b2bb2cfe2e04a15fcc4e2071c141d15e24d1fe1b5d6b80f355c0c905f90a2565b6003545f9060ff161561052b576040516317011d6f60e31b815260040160405180910390fd5b6004545f0361054d576040516373cc556160e11b815260040160405180910390fd5b600454341461056f57604051638620aa1960e01b815260040160405180910390fd5b600154610585906001600160a01b031683610f9a565b600280546001019081905560048054604051636c152e6360e11b81529394506001600160a01b0385169363d82a5cc69334936105cb9391928b928b923392309101611358565b5f604051808303818588803b1580156105e2575f80fd5b505af11580156105f4573d5f803e3d5ffd5b5050600580546001810182555f919091527f036b6384b5eca791c62761152d0c79bb0604c104a5fb6f4eb0703f3154bb3db00180546001600160a01b0319166001600160a01b038616908117909155600254600454604080518a815260208101929092529195503394509192507f05216afaf652b951e6dea4f3e9d898c3b338febfa3fe733ab813122d67f86117910160405180910390a49392505050565b61069b610f6e565b6106a45f610fad565b565b60055460609083106106fa5760405162461bcd60e51b815260206004820152601960248201527f537461727420696e646578206f7574206f6620626f756e647300000000000000604482015260640161016b565b5f61070583856113b4565b60055490915081111561071757506005545b5f61072285836113c7565b90505f8167ffffffffffffffff81111561073e5761073e611147565b604051908082528060200260200182016040528015610767578160200160208202803683370190505b509050855b838110156107d65760058181548110610787576107876113da565b905f5260205f20015f9054906101000a90046001600160a01b031682888303815181106107b6576107b66113da565b6001600160a01b039092166020928302919091019091015260010161076c565b5095945050505050565b600581815481106107ef575f80fd5b5f918252602090912001546001600160a01b0316905081565b610810610f6e565b6003805460ff1916600117905560405133907ff7ab4f18771ba1e5f8db30e61ceed7bc8096937655edc7b3cae25a61921f4a1e905f90a2565b6003545f9060ff161561086f576040516317011d6f60e31b815260040160405180910390fd5b6004545f03610891576040516373cc556160e11b815260040160405180910390fd5b60045434146108b357604051638620aa1960e01b815260040160405180910390fd5b6001546108c8906001600160a01b0316610ffc565b600280546001019081905560048054604051636c152e6360e11b81529394506001600160a01b0385169363d82a5cc693349361090e9391928a928a923392309101611358565b5f604051808303818588803b158015610925575f80fd5b505af1158015610937573d5f803e3d5ffd5b5050600580546001810182555f919091527f036b6384b5eca791c62761152d0c79bb0604c104a5fb6f4eb0703f3154bb3db00180546001600160a01b0319166001600160a01b0386169081179091556002546004546040805189815260208101929092529195503394509192507f05216afaf652b951e6dea4f3e9d898c3b338febfa3fe733ab813122d67f86117910160405180910390a492915050565b60605f805b600554811015610aa057600581815481106109f7576109f76113da565b5f918252602091829020015460408051638da5cb5b60e01b815290516001600160a01b0390921692638da5cb5b926004808401938290030181865afa925050508015610a60575060408051601f3d908101601f19168201909252610a5d918101906113ee565b60015b15610a8e57846001600160a01b0316816001600160a01b031603610a8c5782610a8881611409565b9350505b505b80610a9881611409565b9150506109da565b505f8167ffffffffffffffff811115610abb57610abb611147565b604051908082528060200260200182016040528015610ae4578160200160208202803683370190505b5090505f805b600554811015610c145760058181548110610b0757610b076113da565b5f918252602091829020015460408051638da5cb5b60e01b815290516001600160a01b0390921692638da5cb5b926004808401938290030181865afa925050508015610b70575060408051601f3d908101601f19168201909252610b6d918101906113ee565b60015b15610c0257866001600160a01b0316816001600160a01b0316148015610b9557508483105b15610c005760058281548110610bad57610bad6113da565b905f5260205f20015f9054906101000a90046001600160a01b0316848481518110610bda57610bda6113da565b6001600160a01b039092166020928302919091019091015282610bfc81611409565b9350505b505b80610c0c81611409565b915050610aea565b5090949350505050565b60606005805480602002602001604051908101604052809291908181526020018280548015610c7457602002820191905f5260205f20905b81546001600160a01b03168152600190910190602001808311610c56575b5050505050905090565b610c86610f6e565b6001600160a01b038116610cad5760405163325c055b60e21b815260040160405180910390fd5b600180546001600160a01b038381166001600160a01b0319831681179093556040519116919082907faa3f731066a578e5f39b4215468d826cdd15373cbc0dfc9cb9bdc649718ef7da905f90a35050565b610d06610f6e565b6001600160a01b038116610d2f57604051631e4fbdf760e01b81525f600482015260240161016b565b610d3881610fad565b50565b6003545f9060ff1615610d61576040516317011d6f60e31b815260040160405180910390fd5b6004545f03610d83576040516373cc556160e11b815260040160405180910390fd5b6004543414610da557604051638620aa1960e01b815260040160405180910390fd5b81610dc3576040516372bcba3360e11b815260040160405180910390fd5b600154610dd8906001600160a01b0316610ffc565b60028054600101908190556040519192505f91610dfe9186913391908790602001611421565b604051602081830303815290604052805190602001209050816001600160a01b031663595bd2ee3460025487858833600454306040518963ffffffff1660e01b8152600401610e539796959493929190611464565b5f604051808303818588803b158015610e6a575f80fd5b505af1158015610e7c573d5f803e3d5ffd5b5050600580546001810182555f919091527f036b6384b5eca791c62761152d0c79bb0604c104a5fb6f4eb0703f3154bb3db00180546001600160a01b0319166001600160a01b0387169081179091556002546004546040805188815260208101929092529195503394509192507f05216afaf652b951e6dea4f3e9d898c3b338febfa3fe733ab813122d67f86117910160405180910390a46002546004546040805184815260208101879052808201929092525133916001600160a01b038616917fbcb9d2ffba0db4675cdc5c3f31f36de764bd77602b5648277ebd2b713603da9c9181900360600190a45092915050565b5f546001600160a01b031633146106a45760405163118cdaa760e01b815233600482015260240161016b565b5f610fa683835f611007565b9392505050565b5f80546001600160a01b038381166001600160a01b0319831681178455604051919092169283917f8be0079c531659141344cd1fd0a4f28419497f9722a3daafe3b4186f6b6457e09190a35050565b5f61045e825f61109c565b5f814710156110325760405163cf47918160e01b81524760048201526024810183905260440161016b565b763d602d80600a3d3981f3363d3d373d3d3d363d730000008460601b60e81c175f526e5af43d82803e903d91602b57fd5bf38460781b17602052826037600984f590506001600160a01b038116610fa65760405163b06ebf3d60e01b815260040160405180910390fd5b5f814710156110c75760405163cf47918160e01b81524760048201526024810183905260440161016b565b763d602d80600a3d3981f3363d3d373d3d3d363d730000008360601b60e81c175f526e5af43d82803e903d91602b57fd5bf38360781b176020526037600983f090506001600160a01b03811661045e5760405163b06ebf3d60e01b815260040160405180910390fd5b5f60208284031215611140575f80fd5b5035919050565b634e487b7160e01b5f52604160045260245ffd5b5f82601f83011261116a575f80fd5b813567ffffffffffffffff8082111561118557611185611147565b604051601f8301601f19908116603f011681019082821181831017156111ad576111ad611147565b816040528381528660208588010111156111c5575f80fd5b836020870160208301375f602085830101528094505050505092915050565b5f805f606084860312156111f6575f80fd5b833567ffffffffffffffff81111561120c575f80fd5b6112188682870161115b565b9660208601359650604090950135949350505050565b5f806040838503121561123f575f80fd5b50508035926020909101359150565b602080825282518282018190525f9190848201906040850190845b8181101561128e5783516001600160a01b031683529284019291840191600101611269565b50909695505050505050565b5f80604083850312156112ab575f80fd5b823567ffffffffffffffff8111156112c1575f80fd5b6112cd8582860161115b565b95602094909401359450505050565b6001600160a01b0381168114610d38575f80fd5b5f60208284031215611300575f80fd5b8135610fa6816112dc565b5f5b8381101561132557818101518382015260200161130d565b50505f910152565b5f815180845261134481602086016020860161130b565b601f01601f19169290920160200192915050565b86815260c060208201525f61137060c083018861132d565b6040830196909652506001600160a01b039384166060820152608081019290925290911660a09091015292915050565b634e487b7160e01b5f52601160045260245ffd5b8082018082111561045e5761045e6113a0565b8181038181111561045e5761045e6113a0565b634e487b7160e01b5f52603260045260245ffd5b5f602082840312156113fe575f80fd5b8151610fa6816112dc565b5f6001820161141a5761141a6113a0565b5060010190565b5f8551611432818460208a0161130b565b60609590951b6bffffffffffffffffffffffff1916919094019081526014810192909252603482015260540192915050565b87815260e060208201525f61147c60e083018961132d565b60408301979097525060608101949094526001600160a01b03928316608085015260a08401919091521660c0909101529291505056fea2646970667358221220929e64c2ada7046fbaa9b43fe845cb9db403557ab487afe5baae9547954e52ff64736f6c63430008150033",
  "immutableReferences": {},
  "source": "// SPDX-License-Identifier: MIT\r\npragma solidity ^0.8.0;\r\n\r\nimport \"@openzeppelin/contracts/proxy/Clones.sol\";\r\nimport \"@openzeppelin/contracts/access/Ownable.sol\";\r\nimport \"./ProductEscrow_Initializer.sol\";\r\n\r\n// Interface for calling ProductEscrow functions without casting issues\r\ninterface IProductEscrowOwner {\r\n    function owner() external view returns (address payable);\r\n}\r\n\r\n// Standardized custom errors for gas efficiency and consistency\r\nerror InvalidImplementationAddress();\r\nerror FactoryIsPaused();\nerror BondAmountNotSet();\nerror BondAmountZero();\nerror IncorrectBondAmount();\n\r\ncontract ProductFactory is Ownable {\n    using Clones for address;\n\n    event ProductCreated(address indexed product, address indexed seller, uint256 indexed productId, bytes32 priceCommitment, uint256 bondAmount);\n    event ProductCreatedV2(\n        address indexed product,\n        address indexed seller,\n        uint256 indexed productId,\n        bytes32 priceCommitment,\n        bytes32 unitPriceHash,\n        uint256 bondAmount\n    );\n    event ImplementationUpdated(address indexed oldImpl, address indexed newImpl);\n    event FactoryPaused(address indexed by);\n    event FactoryUnpaused(address indexed by);\n    event BondAmountUpdated(uint256 newAmount);\n\r\n    // Packed storage for gas optimization\r\n    address public implementation;\r\n    uint256 public productCount;\r\n    bool public isPaused; // Lightweight pause mechanism (factory-level only)\r\n    uint256 public bondAmount; // Configurable bond amount for seller and transporter\r\n\r\n    // Paged getter for dev convenience (optional, not main indexing)\r\n    address[] public products;\r\n\r\n    constructor(address _impl) Ownable(msg.sender) {\r\n        if (_impl == address(0)) revert InvalidImplementationAddress();\r\n        implementation = _impl;\r\n        emit ImplementationUpdated(address(0), _impl);\r\n    }\r\n\r\n    modifier whenNotPaused() {\r\n        if (isPaused) revert FactoryIsPaused();\r\n        _;\r\n    }\r\n\r\n    // Alias for the suggested function name\r\n    function setImplementation(address _impl) external onlyOwner {\r\n        if (_impl == address(0)) revert InvalidImplementationAddress();\r\n        address oldImpl = implementation;\r\n        implementation = _impl;\r\n        emit ImplementationUpdated(oldImpl, _impl);\r\n    }\r\n\r\n    /// @notice Set the required bond amount for seller and transporter.\r\n    /// @param _amount Bond amount in wei (must be > 0)\r\n    function setBondAmount(uint256 _amount) external onlyOwner {\r\n        if (_amount == 0) revert BondAmountZero();\r\n        bondAmount = _amount;\r\n        emit BondAmountUpdated(_amount);\r\n    }\r\n\r\n    function pause() external onlyOwner {\r\n        isPaused = true;\r\n        emit FactoryPaused(msg.sender);\r\n    }\r\n\r\n    function unpause() external onlyOwner {\r\n        isPaused = false;\r\n        emit FactoryUnpaused(msg.sender);\r\n    }\r\n\r\n    /// @notice Create a new product escrow. Seller sends bond as msg.value.\r\n    /// @param name Product name\r\n    /// @param priceCommitment Confidential price commitment (keccak256 hash)\r\n    /// @return product Address of the newly created escrow clone\r\n    function createProduct(string memory name, bytes32 priceCommitment)\n        external\n        payable\n        whenNotPaused\n        returns (address product)\n    {\r\n        if (bondAmount == 0) revert BondAmountNotSet();\r\n        if (msg.value != bondAmount) revert IncorrectBondAmount();\r\n\r\n        product = implementation.clone();\r\n\r\n        // Use unchecked for safe increment\r\n        unchecked {\r\n            productCount++;\r\n        }\r\n\r\n        // Initialize the clone and forward seller bond as msg.value\r\n        ProductEscrow_Initializer(payable(product)).initialize{value: msg.value}(\r\n            productCount,\r\n            name,\r\n            priceCommitment,\r\n            msg.sender,\r\n            bondAmount,\r\n            address(this)\r\n        );\r\n\r\n        // Store for optional paged access (dev convenience)\r\n        products.push(product);\r\n\n        emit ProductCreated(product, msg.sender, productCount, priceCommitment, bondAmount);\n    }\n\n    /// @notice Create a new V2 product escrow with a dedicated unit-price hash anchor.\n    /// @param name Product name\n    /// @param unitPriceHash Hash anchor for the public unit price\n    /// @return product Address of the newly created escrow clone\n    function createProductV2(string memory name, bytes32 unitPriceHash)\n        external\n        payable\n        whenNotPaused\n        returns (address product)\n    {\n        if (bondAmount == 0) revert BondAmountNotSet();\n        if (msg.value != bondAmount) revert IncorrectBondAmount();\n        if (unitPriceHash == bytes32(0)) revert ZeroUnitPriceHash();\n\n        product = implementation.clone();\n\n        unchecked {\n            productCount++;\n        }\n\n        bytes32 priceCommitment = keccak256(abi.encodePacked(name, msg.sender, productCount, unitPriceHash));\n\n        ProductEscrow_Initializer(payable(product)).initializeV2{value: msg.value}(\n            productCount,\n            name,\n            priceCommitment,\n            unitPriceHash,\n            msg.sender,\n            bondAmount,\n            address(this)\n        );\n\n        products.push(product);\n\n        emit ProductCreated(product, msg.sender, productCount, priceCommitment, bondAmount);\n        emit ProductCreatedV2(product, msg.sender, productCount, priceCommitment, unitPriceHash, bondAmount);\n    }\n\r\n    /// @notice Create a new product escrow at a deterministic address. Seller sends bond as msg.value.\r\n    /// @param name Product name\r\n    /// @param priceCommitment Confidential price commitment (keccak256 hash)\r\n    /// @param salt Salt for deterministic clone address\r\n    /// @return product Address of the newly created escrow clone\r\n    function createProductDeterministic(\r\n        string memory name,\r\n        bytes32 priceCommitment,\r\n        bytes32 salt\r\n    )\r\n        external\r\n        payable\r\n        whenNotPaused\r\n        returns (address product)\r\n    {\r\n        if (bondAmount == 0) revert BondAmountNotSet();\r\n        if (msg.value != bondAmount) revert IncorrectBondAmount();\r\n\r\n        product = implementation.cloneDeterministic(salt);\r\n\r\n        // Use unchecked for safe increment\r\n        unchecked {\r\n            productCount++;\r\n        }\r\n\r\n        // Initialize the clone and forward seller bond as msg.value\r\n        ProductEscrow_Initializer(payable(product)).initialize{value: msg.value}(\r\n            productCount,\r\n            name,\r\n            priceCommitment,\r\n            msg.sender,\r\n            bondAmount,\r\n            address(this)\r\n        );\r\n\r\n        // Store for optional paged access (dev convenience)\r\n        products.push(product);\r\n\r\n        emit ProductCreated(product, msg.sender, productCount, priceCommitment, bondAmount);\r\n    }\r\n\r\n    function predictProductAddress(bytes32 salt) public view returns (address) {\r\n        return Clones.predictDeterministicAddress(implementation, salt, address(this));\r\n    }\r\n\r\n    // Optional paged getter for dev convenience (not main indexing)\r\n    // Optimized to avoid unbounded loops in write operations\r\n    function getProductsRange(uint256 start, uint256 count) public view returns (address[] memory) {\r\n        require(start < products.length, \"Start index out of bounds\");\r\n        uint256 end = start + count;\r\n        if (end > products.length) {\r\n            end = products.length;\r\n        }\r\n\r\n        uint256 resultLength = end - start;\r\n        address[] memory result = new address[](resultLength);\r\n\r\n        // Use unchecked for safe loop operations\r\n        unchecked {\r\n            for (uint256 i = start; i < end; i++) {\r\n                result[i - start] = products[i];\r\n            }\r\n        }\r\n\r\n        return result;\r\n    }\r\n\r\n    // Gas-efficient getter for total products (alternative to array.length)\r\n    function getProductCount() public view returns (uint256) {\r\n        return productCount;\r\n    }\r\n\r\n    // Gas-efficient getter for all products (alternative to array access)\r\n    function getProducts() public view returns (address[] memory) {\r\n        return products;\r\n    }\r\n\r\n    // Get products by seller (fixed implementation)\r\n    function getProductsBySeller(address _seller) public view returns (address[] memory) {\r\n        uint256 count = 0;\r\n\r\n        // First pass: count products by this seller\r\n        for (uint256 i = 0; i < products.length; i++) {\r\n            try IProductEscrowOwner(products[i]).owner() returns (address payable _owner) {\r\n                if (_owner == _seller) {\r\n                    count++;\r\n                }\r\n            } catch {\r\n                // Skip if product is not properly initialized\r\n                continue;\r\n            }\r\n        }\r\n\r\n        // Second pass: collect product addresses\r\n        address[] memory sellerProducts = new address[](count);\r\n        uint256 index = 0;\r\n\r\n        for (uint256 i = 0; i < products.length; i++) {\r\n            try IProductEscrowOwner(products[i]).owner() returns (address payable _owner) {\r\n                if (_owner == _seller && index < count) {\r\n                    sellerProducts[index] = products[i];\r\n                    index++;\r\n                }\r\n            } catch {\r\n                continue;\r\n            }\r\n        }\r\n\r\n        return sellerProducts;\r\n    }\r\n\r\n    // Explicitly reject unexpected ETH\r\n    receive() external payable {\r\n        revert(\"Factory does not accept ETH\");\r\n    }\r\n\r\n    fallback() external payable {\r\n        revert(\"Factory does not accept ETH\");\r\n    }\r\n}\r\n",
  "sourcePath": "C:\\Users\\yamen\\ev-battery-supplychain\\contracts\\ProductFactory.sol",
  "compiler": {
    "name": "solc",
    "version": "0.8.21+commit.d9974bed.Emscripten.clang"
  },
  "schemaVersion": "3.4.16",
  "updatedAt": "2026-03-10T14:56:48.876Z",
  "networkType": "ethereum",
  "devdoc": {
    "errors": {
      "FailedDeployment()": [
        {
          "details": "The deployment failed."
        }
      ],
      "InsufficientBalance(uint256,uint256)": [
        {
          "details": "The ETH balance of the account is not enough to perform the operation."
        }
      ],
      "OwnableInvalidOwner(address)": [
        {
          "details": "The owner is not a valid owner account. (eg. `address(0)`)"
        }
      ],
      "OwnableUnauthorizedAccount(address)": [
        {
          "details": "The caller account is not authorized to perform an operation."
        }
      ]
    },
    "kind": "dev",
    "methods": {
      "createProduct(string,bytes32)": {
        "params": {
          "name": "Product name",
          "priceCommitment": "Confidential price commitment (keccak256 hash)"
        },
        "returns": {
          "product": "Address of the newly created escrow clone"
        }
      },
      "createProductDeterministic(string,bytes32,bytes32)": {
        "params": {
          "name": "Product name",
          "priceCommitment": "Confidential price commitment (keccak256 hash)",
          "salt": "Salt for deterministic clone address"
        },
        "returns": {
          "product": "Address of the newly created escrow clone"
        }
      },
      "createProductV2(string,bytes32)": {
        "params": {
          "name": "Product name",
          "unitPriceHash": "Hash anchor for the public unit price"
        },
        "returns": {
          "product": "Address of the newly created escrow clone"
        }
      },
      "owner()": {
        "details": "Returns the address of the current owner."
      },
      "renounceOwnership()": {
        "details": "Leaves the contract without owner. It will not be possible to call `onlyOwner` functions. Can only be called by the current owner. NOTE: Renouncing ownership will leave the contract without an owner, thereby disabling any functionality that is only available to the owner."
      },
      "setBondAmount(uint256)": {
        "params": {
          "_amount": "Bond amount in wei (must be > 0)"
        }
      },
      "transferOwnership(address)": {
        "details": "Transfers ownership of the contract to a new account (`newOwner`). Can only be called by the current owner."
      }
    },
    "version": 1
  },
  "userdoc": {
    "kind": "user",
    "methods": {
      "createProduct(string,bytes32)": {
        "notice": "Create a new product escrow. Seller sends bond as msg.value."
      },
      "createProductDeterministic(string,bytes32,bytes32)": {
        "notice": "Create a new product escrow at a deterministic address. Seller sends bond as msg.value."
      },
      "createProductV2(string,bytes32)": {
        "notice": "Create a new V2 product escrow with a dedicated unit-price hash anchor."
      },
      "setBondAmount(uint256)": {
        "notice": "Set the required bond amount for seller and transporter."
      }
    },
    "version": 1
  }
}